{
  "contractName": "MultipartyChannel",
  "abi": [
    {
      "anonymous": false,
      "inputs": [
        {
          "indexed": false,
          "internalType": "uint256",
          "name": "id",
          "type": "uint256"
        },
        {
          "indexed": false,
          "internalType": "address[]",
          "name": "parties",
          "type": "address[]"
        },
        {
          "indexed": false,
          "internalType": "uint256[]",
          "name": "channels_id",
          "type": "uint256[]"
        }
      ],
      "name": "CreateMPCSuccess",
      "type": "event"
    },
    {
      "anonymous": false,
      "inputs": [
        {
          "components": [
            {
              "internalType": "uint256",
              "name": "channel_id",
              "type": "uint256"
            },
            {
              "internalType": "address",
              "name": "src",
              "type": "address"
            },
            {
              "internalType": "address",
              "name": "dst",
              "type": "address"
            },
            {
              "internalType": "uint256",
              "name": "weis",
              "type": "uint256"
            }
          ],
          "indexed": false,
          "internalType": "struct MultipartyChannel.Transaction",
          "name": "t",
          "type": "tuple"
        }
      ],
      "name": "TransactionError",
      "type": "event"
    },
    {
      "anonymous": false,
      "inputs": [],
      "name": "UpdateMPCSuccess",
      "type": "event"
    },
    {
      "inputs": [
        {
          "internalType": "address",
          "name": "spcAddr",
          "type": "address"
        },
        {
          "internalType": "address[]",
          "name": "parties",
          "type": "address[]"
        },
        {
          "internalType": "bytes[]",
          "name": "sigs",
          "type": "bytes[]"
        },
        {
          "internalType": "uint256[]",
          "name": "channels_id",
          "type": "uint256[]"
        }
      ],
      "name": "createMPC",
      "outputs": [
        {
          "internalType": "uint256",
          "name": "",
          "type": "uint256"
        }
      ],
      "stateMutability": "nonpayable",
      "type": "function"
    },
    {
      "inputs": [
        {
          "internalType": "uint256",
          "name": "mpc_id",
          "type": "uint256"
        },
        {
          "components": [
            {
              "internalType": "uint256",
              "name": "channel_id",
              "type": "uint256"
            },
            {
              "internalType": "address",
              "name": "src",
              "type": "address"
            },
            {
              "internalType": "address",
              "name": "dst",
              "type": "address"
            },
            {
              "internalType": "uint256",
              "name": "weis",
              "type": "uint256"
            }
          ],
          "internalType": "struct MultipartyChannel.Transaction[]",
          "name": "txs",
          "type": "tuple[]"
        },
        {
          "internalType": "string",
          "name": "msgstr",
          "type": "string"
        },
        {
          "internalType": "uint256",
          "name": "version",
          "type": "uint256"
        },
        {
          "internalType": "bytes[]",
          "name": "sigs",
          "type": "bytes[]"
        }
      ],
      "name": "updateMPC",
      "outputs": [],
      "stateMutability": "nonpayable",
      "type": "function"
    },
    {
      "inputs": [
        {
          "internalType": "uint256",
          "name": "mpc_id",
          "type": "uint256"
        }
      ],
      "name": "closeMPC",
      "outputs": [],
      "stateMutability": "nonpayable",
      "type": "function"
    }
  ],
  "bytecode": "0x60806040526040516100109061007e565b604051809103906000f08015801561002c573d6000803e3d6000fd5b506000806101000a81548173ffffffffffffffffffffffffffffffffffffffff021916908373ffffffffffffffffffffffffffffffffffffffff16021790555034801561007857600080fd5b5061008b565b61033e806119e983390190565b61194f8061009a6000396000f3fe608060405234801561001057600080fd5b50600436106100415760003560e01c80632c6dd6cd14610046578063669b2b4114610062578063cc129e6c14610092575b600080fd5b610060600480360361005b9190810190611166565b6100ae565b005b61007c60048036036100779190810190611009565b610706565b604051610089919061168b565b60405180910390f35b6100ac60048036036100a7919081019061113d565b610b7b565b005b60016000015488146100f5576040517f08c379a00000000000000000000000000000000000000000000000000000000081526004016100ec90611610565b60405180910390fd5b60008090505b60018001805490508110156103b15760008060009054906101000a900473ffffffffffffffffffffffffffffffffffffffff1673ffffffffffffffffffffffffffffffffffffffff16631f275713888860018001868154811061015a57fe5b9060005260206000200160009054906101000a900473ffffffffffffffffffffffffffffffffffffffff1689604051602001610199949392919061155a565b604051602081830303815290604052805190602001206040518263ffffffff1660e01b81526004016101cb91906115d5565b60206040518083038186803b1580156101e357600080fd5b505afa1580156101f7573d6000803e3d6000fd5b505050506040513d601f19601f8201168201806040525061021b91908101906110eb565b90506000809054906101000a900473ffffffffffffffffffffffffffffffffffffffff1673ffffffffffffffffffffffffffffffffffffffff16631a86b55060018001848154811061026957fe5b9060005260206000200160009054906101000a900473ffffffffffffffffffffffffffffffffffffffff16838787878181106102a157fe5b90506020028101803560016020038336030381126102be57600080fd5b8083019250508135905060208201915067ffffffffffffffff8111156102e357600080fd5b6001810236038213156102f557600080fd5b6040518563ffffffff1660e01b81526004016103149493929190611595565b60206040518083038186803b15801561032c57600080fd5b505afa158015610340573d6000803e3d6000fd5b505050506040513d601f19601f8201168201806040525061036491908101906110c2565b6103a3576040517f08c379a000000000000000000000000000000000000000000000000000000000815260040161039a90611630565b60405180910390fd5b5080806001019150506100fb565b5060008090505b878790508110156106cf57600080905060008090506103d5610b7e565b600560009054906101000a900473ffffffffffffffffffffffffffffffffffffffff1673ffffffffffffffffffffffffffffffffffffffff1663851dc2768c8c8781811061041f57fe5b905060800201600001356040518263ffffffff1660e01b8152600401610445919061168b565b60e06040518083038186803b15801561045d57600080fd5b505afa158015610471573d6000803e3d6000fd5b505050506040513d601f19601f820116820180604052506104959190810190611114565b9050806000015173ffffffffffffffffffffffffffffffffffffffff168b8b868181106104be57fe5b90506080020160200160206104d69190810190610fe0565b73ffffffffffffffffffffffffffffffffffffffff161415610533578a8a858181106104fe57fe5b9050608002016060013581604001510392508a8a8581811061051c57fe5b905060800201606001358160600151019150610619565b806020015173ffffffffffffffffffffffffffffffffffffffff168b8b8681811061055a57fe5b90506080020160200160206105729190810190610fe0565b73ffffffffffffffffffffffffffffffffffffffff1614156105cf578a8a8581811061059a57fe5b9050608002016060013581604001510192508a8a858181106105b857fe5b905060800201606001358160600151039150610618565b7f4b6f22e2457300280901b4e83672919fcb94e237a635a442f45ef7e13489cca38b8b868181106105fc57fe5b90506080020160405161060f9190611670565b60405180910390a15b5b600560009054906101000a900473ffffffffffffffffffffffffffffffffffffffff1673ffffffffffffffffffffffffffffffffffffffff1663e7cf353f8c8c8781811061066357fe5b9050608002016000013585856040518463ffffffff1660e01b815260040161068d939291906116ef565b600060405180830381600087803b1580156106a757600080fd5b505af11580156106bb573d6000803e3d6000fd5b5050505050505080806001019150506103b8565b507ffdf1c129b40abdea50317454aee5cec556b92df34aa577f2ba6e813e858990e760405160405180910390a15050505050505050565b600087600560006101000a81548173ffffffffffffffffffffffffffffffffffffffff021916908373ffffffffffffffffffffffffffffffffffffffff16021790555060008090505b878790508110156109c95760008060009054906101000a900473ffffffffffffffffffffffffffffffffffffffff1673ffffffffffffffffffffffffffffffffffffffff16631f2757138a8a858181106107a557fe5b90506020020160206107ba9190810190610fe0565b6040516020016107ca919061153f565b604051602081830303815290604052805190602001206040518263ffffffff1660e01b81526004016107fc91906115d5565b60206040518083038186803b15801561081457600080fd5b505afa158015610828573d6000803e3d6000fd5b505050506040513d601f19601f8201168201806040525061084c91908101906110eb565b90506000809054906101000a900473ffffffffffffffffffffffffffffffffffffffff1673ffffffffffffffffffffffffffffffffffffffff16631a86b5508a8a8581811061089757fe5b90506020020160206108ac9190810190610fe0565b838a8a878181106108b957fe5b90506020028101803560016020038336030381126108d657600080fd5b8083019250508135905060208201915067ffffffffffffffff8111156108fb57600080fd5b60018102360382131561090d57600080fd5b6040518563ffffffff1660e01b815260040161092c9493929190611595565b60206040518083038186803b15801561094457600080fd5b505afa158015610958573d6000803e3d6000fd5b505050506040513d601f19601f8201168201806040525061097c91908101906110c2565b6109bb576040517f08c379a00000000000000000000000000000000000000000000000000000000081526004016109b290611650565b60405180910390fd5b50808060010191505061074f565b5060008090505b83839050811015610ae457600560009054906101000a900473ffffffffffffffffffffffffffffffffffffffff1673ffffffffffffffffffffffffffffffffffffffff1663c1c42b1a858584818110610a2557fe5b905060200201356040518263ffffffff1660e01b8152600401610a48919061168b565b60206040518083038186803b158015610a6057600080fd5b505afa158015610a74573d6000803e3d6000fd5b505050506040513d601f19601f82011682018060405250610a9891908101906110c2565b610ad7576040517f08c379a0000000000000000000000000000000000000000000000000000000008152600401610ace906115f0565b60405180910390fd5b80806001019150506109d0565b5060006001600001819055508686600180019190610b03929190610beb565b50828260016002019190610b18929190610c8b565b5060006001600301819055507f3378f9c0b988e08bd618cb56c9d3f4cc62293e1103a512c7ec9918bcf831760c60016000015488888686604051610b609594939291906116a6565b60405180910390a16001600001549050979650505050505050565b50565b6040518060e00160405280600073ffffffffffffffffffffffffffffffffffffffff168152602001600073ffffffffffffffffffffffffffffffffffffffff1681526020016000815260200160008152602001600081526020016000151581526020016000151581525090565b828054828255906000526020600020908101928215610c7a579160200282015b82811115610c7957823573ffffffffffffffffffffffffffffffffffffffff168260006101000a81548173ffffffffffffffffffffffffffffffffffffffff021916908373ffffffffffffffffffffffffffffffffffffffff16021790555091602001919060010190610c0b565b5b509050610c879190610cd8565b5090565b828054828255906000526020600020908101928215610cc7579160200282015b82811115610cc6578235825591602001919060010190610cab565b5b509050610cd49190610d1b565b5090565b610d1891905b80821115610d1457600081816101000a81549073ffffffffffffffffffffffffffffffffffffffff021916905550600101610cde565b5090565b90565b610d3d91905b80821115610d39576000816000905550600101610d21565b5090565b90565b600081359050610d4f816118a6565b92915050565b600081519050610d64816118bd565b92915050565b60008083601f840112610d7c57600080fd5b8235905067ffffffffffffffff811115610d9557600080fd5b602083019150836020820283011115610dad57600080fd5b9250929050565b60008083601f840112610dc657600080fd5b8235905067ffffffffffffffff811115610ddf57600080fd5b602083019150836020820283011115610df757600080fd5b9250929050565b60008083601f840112610e1057600080fd5b8235905067ffffffffffffffff811115610e2957600080fd5b602083019150836080820283011115610e4157600080fd5b9250929050565b60008083601f840112610e5a57600080fd5b8235905067ffffffffffffffff811115610e7357600080fd5b602083019150836020820283011115610e8b57600080fd5b9250929050565b600081519050610ea1816118d4565b92915050565b600081519050610eb6816118eb565b92915050565b60008083601f840112610ece57600080fd5b8235905067ffffffffffffffff811115610ee757600080fd5b602083019150836001820283011115610eff57600080fd5b9250929050565b600060e08284031215610f1857600080fd5b610f2260e0611726565b90506000610f3284828501610d55565b6000830152506020610f4684828501610d55565b6020830152506040610f5a84828501610fcb565b6040830152506060610f6e84828501610fcb565b6060830152506080610f8284828501610fcb565b60808301525060a0610f9684828501610e92565b60a08301525060c0610faa84828501610e92565b60c08301525092915050565b600081359050610fc581611902565b92915050565b600081519050610fda81611902565b92915050565b600060208284031215610ff257600080fd5b600061100084828501610d40565b91505092915050565b60008060008060008060006080888a03121561102457600080fd5b60006110328a828b01610d40565b975050602088013567ffffffffffffffff81111561104f57600080fd5b61105b8a828b01610d6a565b9650965050604088013567ffffffffffffffff81111561107a57600080fd5b6110868a828b01610db4565b9450945050606088013567ffffffffffffffff8111156110a557600080fd5b6110b18a828b01610e48565b925092505092959891949750929550565b6000602082840312156110d457600080fd5b60006110e284828501610e92565b91505092915050565b6000602082840312156110fd57600080fd5b600061110b84828501610ea7565b91505092915050565b600060e0828403121561112657600080fd5b600061113484828501610f06565b91505092915050565b60006020828403121561114f57600080fd5b600061115d84828501610fb6565b91505092915050565b60008060008060008060008060a0898b03121561118257600080fd5b60006111908b828c01610fb6565b985050602089013567ffffffffffffffff8111156111ad57600080fd5b6111b98b828c01610dfe565b9750975050604089013567ffffffffffffffff8111156111d857600080fd5b6111e48b828c01610ebc565b955095505060606111f78b828c01610fb6565b935050608089013567ffffffffffffffff81111561121457600080fd5b6112208b828c01610db4565b92509250509295985092959890939650565b600061123e838361124a565b60208301905092915050565b611253816117e7565b82525050565b611262816117e7565b82525050565b611279611274826117e7565b61185a565b82525050565b600061128b838561176a565b935061129682611753565b8060005b858110156112cf576112ac82846117b9565b6112b68882611232565b97506112c18361175d565b92505060018101905061129a565b5085925050509392505050565b60006112e8838561177b565b93507f07ffffffffffffffffffffffffffffffffffffffffffffffffffffffffffffff83111561131757600080fd5b60208302925061132883858461184b565b82840190509392505050565b61133d81611817565b82525050565b600061134f838561178c565b935061135c83858461184b565b61136583611888565b840190509392505050565b600061137c83856117ae565b935061138983858461184b565b82840190509392505050565b60006113a260208361179d565b91507f6372656174654d504320766572696679206368616e6e656c206661696c6564216000830152602082019050919050565b60006113e2600c8361179d565b91507f6d7063206964206572726f7200000000000000000000000000000000000000006000830152602082019050919050565b6000611422601e8361179d565b91507f7570646174654d50432076657269667920736967206661696c656421212100006000830152602082019050919050565b600061146260208361179d565b91507f6372656174654d5043207665726966792070617274696573206661696c6564216000830152602082019050919050565b608082016114a660008301836117d0565b6114b3600085018261150a565b506114c160208301836117b9565b6114ce602085018261124a565b506114dc60408301836117b9565b6114e9604085018261124a565b506114f760608301836117d0565b611504606085018261150a565b50505050565b61151381611841565b82525050565b61152281611841565b82525050565b61153961153482611841565b61187e565b82525050565b600061154b8284611268565b60148201915081905092915050565b6000611567828688611370565b91506115738285611268565b6014820191506115838284611528565b60208201915081905095945050505050565b60006060820190506115aa6000830187611259565b6115b76020830186611334565b81810360408301526115ca818486611343565b905095945050505050565b60006020820190506115ea6000830184611334565b92915050565b6000602082019050818103600083015261160981611395565b9050919050565b60006020820190508181036000830152611629816113d5565b9050919050565b6000602082019050818103600083015261164981611415565b9050919050565b6000602082019050818103600083015261166981611455565b9050919050565b60006080820190506116856000830184611495565b92915050565b60006020820190506116a06000830184611519565b92915050565b60006060820190506116bb6000830188611519565b81810360208301526116ce81868861127f565b905081810360408301526116e38184866112dc565b90509695505050505050565b60006060820190506117046000830186611519565b6117116020830185611519565b61171e6040830184611519565b949350505050565b6000604051905081810181811067ffffffffffffffff8211171561174957600080fd5b8060405250919050565b6000819050919050565b6000602082019050919050565b600082825260208201905092915050565b600082825260208201905092915050565b600082825260208201905092915050565b600082825260208201905092915050565b600081905092915050565b60006117c86020840184610d40565b905092915050565b60006117df6020840184610fb6565b905092915050565b60006117f282611821565b9050919050565b600061180482611821565b9050919050565b60008115159050919050565b6000819050919050565b600073ffffffffffffffffffffffffffffffffffffffff82169050919050565b6000819050919050565b82818337600083830152505050565b60006118658261186c565b9050919050565b600061187782611899565b9050919050565b6000819050919050565b6000601f19601f8301169050919050565b60008160601b9050919050565b6118af816117e7565b81146118ba57600080fd5b50565b6118c6816117f9565b81146118d157600080fd5b50565b6118dd8161180b565b81146118e857600080fd5b50565b6118f481611817565b81146118ff57600080fd5b50565b61190b81611841565b811461191657600080fd5b5056fea2646970667358221220b94cece3d9fb02ff9c05e2b0634553ff4d5fd5c3e6529383e20a59a9ec56a58d64736f6c63430006000033608060405234801561001057600080fd5b5061031e806100206000396000f3fe608060405234801561001057600080fd5b50600436106100365760003560e01c80631a86b5501461003b5780631f27571314610138575b600080fd5b61011e6004803603606081101561005157600080fd5b81019080803573ffffffffffffffffffffffffffffffffffffffff169060200190929190803590602001909291908035906020019064010000000081111561009857600080fd5b8201836020820111156100aa57600080fd5b803590602001918460018302840111640100000000831117156100cc57600080fd5b91908080601f016020809104026020016040519081016040528093929190818152602001838380828437600081840152601f19601f82011690508083019250505050505050919291929050505061017a565b604051808215151515815260200191505060405180910390f35b6101646004803603602081101561014e57600080fd5b8101908080359060200190929190505050610290565b6040518082815260200191505060405180910390f35b6000604182511461018e5760009050610289565b600080600060608590506020810151935060408101519250606081015160001a9150601b8260ff1610156101c357601b820191505b601b8260ff16141580156101db5750601c8260ff1614155b156101ed576000945050505050610289565b8773ffffffffffffffffffffffffffffffffffffffff1660018884878760405160008152602001604052604051808581526020018460ff1660ff1681526020018381526020018281526020019450505050506020604051602081039080840390855afa158015610261573d6000803e3d6000fd5b5050506020604051035173ffffffffffffffffffffffffffffffffffffffff16149450505050505b9392505050565b60008160405160200180807f19457468657265756d205369676e6564204d6573736167653a0a333200000000815250601c0182815260200191505060405160208183030381529060405280519060200120905091905056fea264697066735822122095b7258ee81d3084db524579003e6175c7cff276acd359c835fc2312f28385ab64736f6c63430006000033",
  "source": "pragma solidity >=0.4.24 <0.7.0;\npragma experimental ABIEncoderV2;\n\nimport \"./SimplePaymentChannel.sol\";\n\ncontract MultipartyChannel {\n    event CreateMPCSuccess(uint256 id, address[] parties, uint256[] channels_id);\n    event UpdateMPCSuccess();\n    event TransactionError(Transaction t);\n\n    struct MPC {\n        uint256 id;\n        address[] parties;\n        uint256[] channels_id;\n        uint256 version_num;\n    }\n\n    struct Transaction {\n        uint256 channel_id;\n        address src;\n        address dst;\n        uint256 weis;\n    }\n\n    LibSig libSig = new LibSig();\n\n    MPC mpc;\n    SimplePaymentChannel spc;\n\n    function createMPC(address spcAddr, address[] calldata parties, bytes[] calldata sigs, uint256[] calldata channels_id)\n        external\n        returns (uint256)\n    {\n        spc = SimplePaymentChannel(spcAddr);\n        // verify signatures\n        for (uint i = 0; i < parties.length; i++) {\n            bytes32 msgHash = libSig.prefixed(keccak256(abi.encodePacked(parties[i])));\n            require(libSig.verify(parties[i], msgHash, sigs[i]), \"createMPC verify parties failed!\");\n        }\n        // verify channels\n        for (uint256 i = 0; i < channels_id.length; i++) {\n            require(spc.verifyChannel(channels_id[i]), \"createMPC verify channel failed!\");\n        }\n\n        mpc.id = 0;\n        mpc.parties = parties;\n        mpc.channels_id = channels_id;\n        mpc.version_num = 0;\n        emit CreateMPCSuccess(mpc.id, parties, channels_id);\n        return mpc.id;\n    }\n\n    function updateMPC(uint256 mpc_id, Transaction[] calldata txs, string calldata msgstr, uint256 version, bytes[] calldata sigs)\n        external\n    {\n        // verify sigs\n        require(mpc_id == mpc.id, \"mpc id error\");\n        for (uint i = 0; i < mpc.parties.length; i++) {\n            bytes32 msgHash = libSig.prefixed(keccak256(abi.encodePacked(msgstr, mpc.parties[i], version)));\n            require(libSig.verify(mpc.parties[i], msgHash, sigs[i]), \"updateMPC verify sig failed!!!\");\n        }\n        // execute txs\n        for (uint i = 0; i < txs.length; i++) {\n            uint256 new_ab = 0;\n            uint256 new_bb = 0;\n            SimplePaymentChannel.TPC memory tpc = spc.getTPC(txs[i].channel_id);\n            if (txs[i].src == tpc.alice) {\n                new_ab = tpc.alice_balance - txs[i].weis;\n                new_bb = tpc.bob_balance + txs[i].weis;\n            } else if (txs[i].src == tpc.bob) {\n                new_ab = tpc.alice_balance + txs[i].weis;\n                new_bb = tpc.bob_balance - txs[i].weis;\n            } else {\n                emit TransactionError(txs[i]);\n            }\n            spc.updateBalanceInternal(txs[i].channel_id, new_ab, new_bb);\n        }\n        emit UpdateMPCSuccess();\n    }\n\n    function closeMPC(uint256 mpc_id)\n        external\n    {\n        // TODO\n    }\n}",
  "sourcePath": "/Users/xuxianli/work/blockchain/micropc/contracts/MultipartyChannel.sol",
  "compiler": {
    "name": "solc",
    "version": "0.6.0+commit.26b70077.Emscripten.clang"
  },
  "schemaVersion": "3.0.20",
  "updatedAt": "2019-12-27T09:08:46.288Z",
  "networkType": "ethereum",
  "devdoc": {
    "methods": {}
  },
  "userdoc": {
    "methods": {}
  }
}