{
  "contractName": "MultipartyChannel",
  "abi": [
    {
      "anonymous": false,
      "inputs": [
        {
          "indexed": false,
          "internalType": "uint256",
          "name": "mpc_id",
          "type": "uint256"
        }
      ],
      "name": "MPCClosed",
      "type": "event"
    },
    {
      "anonymous": false,
      "inputs": [
        {
          "indexed": false,
          "internalType": "uint256",
          "name": "id",
          "type": "uint256"
        },
        {
          "indexed": false,
          "internalType": "address[]",
          "name": "parties",
          "type": "address[]"
        },
        {
          "indexed": false,
          "internalType": "uint256[]",
          "name": "channels_id",
          "type": "uint256[]"
        }
      ],
      "name": "MPCCreateSuccess",
      "type": "event"
    },
    {
      "anonymous": false,
      "inputs": [
        {
          "components": [
            {
              "internalType": "uint256",
              "name": "channel_id",
              "type": "uint256"
            },
            {
              "internalType": "address",
              "name": "src",
              "type": "address"
            },
            {
              "internalType": "address",
              "name": "dst",
              "type": "address"
            },
            {
              "internalType": "uint256",
              "name": "new_ab",
              "type": "uint256"
            },
            {
              "internalType": "uint256",
              "name": "new_ba",
              "type": "uint256"
            }
          ],
          "indexed": false,
          "internalType": "struct MultipartyChannel.Transaction",
          "name": "t",
          "type": "tuple"
        }
      ],
      "name": "MPCTransactionError",
      "type": "event"
    },
    {
      "anonymous": false,
      "inputs": [],
      "name": "MPCUpdateSuccess",
      "type": "event"
    },
    {
      "anonymous": false,
      "inputs": [
        {
          "indexed": false,
          "internalType": "uint256",
          "name": "id",
          "type": "uint256"
        },
        {
          "indexed": false,
          "internalType": "address",
          "name": "alice",
          "type": "address"
        },
        {
          "indexed": false,
          "internalType": "address",
          "name": "bob",
          "type": "address"
        }
      ],
      "name": "TPCCloseChannel",
      "type": "event"
    },
    {
      "anonymous": false,
      "inputs": [
        {
          "indexed": false,
          "internalType": "address",
          "name": "alice",
          "type": "address"
        },
        {
          "indexed": false,
          "internalType": "address",
          "name": "bob",
          "type": "address"
        },
        {
          "indexed": false,
          "internalType": "uint256",
          "name": "ab",
          "type": "uint256"
        },
        {
          "indexed": false,
          "internalType": "uint256",
          "name": "bb",
          "type": "uint256"
        }
      ],
      "name": "TPCOpenRequest",
      "type": "event"
    },
    {
      "anonymous": false,
      "inputs": [
        {
          "indexed": false,
          "internalType": "uint256",
          "name": "id",
          "type": "uint256"
        },
        {
          "indexed": false,
          "internalType": "address",
          "name": "alice",
          "type": "address"
        },
        {
          "indexed": false,
          "internalType": "address",
          "name": "bob",
          "type": "address"
        },
        {
          "indexed": false,
          "internalType": "uint256",
          "name": "ab",
          "type": "uint256"
        },
        {
          "indexed": false,
          "internalType": "uint256",
          "name": "bb",
          "type": "uint256"
        }
      ],
      "name": "TPCOpenSuccess",
      "type": "event"
    },
    {
      "anonymous": false,
      "inputs": [
        {
          "indexed": false,
          "internalType": "address",
          "name": "addr",
          "type": "address"
        },
        {
          "indexed": false,
          "internalType": "uint256",
          "name": "token",
          "type": "uint256"
        }
      ],
      "name": "TPCSomeDeposit",
      "type": "event"
    },
    {
      "anonymous": false,
      "inputs": [
        {
          "indexed": false,
          "internalType": "uint256",
          "name": "id",
          "type": "uint256"
        },
        {
          "indexed": false,
          "internalType": "address",
          "name": "alice",
          "type": "address"
        },
        {
          "indexed": false,
          "internalType": "address",
          "name": "bob",
          "type": "address"
        },
        {
          "indexed": false,
          "internalType": "uint256",
          "name": "new_ab",
          "type": "uint256"
        },
        {
          "indexed": false,
          "internalType": "uint256",
          "name": "new_bb",
          "type": "uint256"
        }
      ],
      "name": "TPCUpdateSuccess",
      "type": "event"
    },
    {
      "inputs": [
        {
          "internalType": "uint256",
          "name": "id",
          "type": "uint256"
        },
        {
          "internalType": "uint256",
          "name": "version",
          "type": "uint256"
        },
        {
          "internalType": "bytes",
          "name": "sigA",
          "type": "bytes"
        },
        {
          "internalType": "bytes",
          "name": "sigB",
          "type": "bytes"
        }
      ],
      "name": "closeTPC",
      "outputs": [],
      "stateMutability": "payable",
      "type": "function",
      "payable": true
    },
    {
      "inputs": [
        {
          "internalType": "address payable",
          "name": "alice",
          "type": "address"
        },
        {
          "internalType": "address payable",
          "name": "bob",
          "type": "address"
        },
        {
          "internalType": "uint256",
          "name": "ab",
          "type": "uint256"
        },
        {
          "internalType": "uint256",
          "name": "bb",
          "type": "uint256"
        },
        {
          "internalType": "bytes",
          "name": "sigA",
          "type": "bytes"
        },
        {
          "internalType": "bytes",
          "name": "sigB",
          "type": "bytes"
        }
      ],
      "name": "createTPC",
      "outputs": [],
      "stateMutability": "payable",
      "type": "function",
      "payable": true
    },
    {
      "inputs": [
        {
          "internalType": "address",
          "name": "alice",
          "type": "address"
        },
        {
          "internalType": "address",
          "name": "bob",
          "type": "address"
        }
      ],
      "name": "deposit",
      "outputs": [
        {
          "internalType": "uint256",
          "name": "",
          "type": "uint256"
        }
      ],
      "stateMutability": "payable",
      "type": "function",
      "payable": true
    },
    {
      "inputs": [
        {
          "internalType": "uint256",
          "name": "id",
          "type": "uint256"
        }
      ],
      "name": "getChannel",
      "outputs": [
        {
          "components": [
            {
              "internalType": "address payable",
              "name": "alice",
              "type": "address"
            },
            {
              "internalType": "address payable",
              "name": "bob",
              "type": "address"
            },
            {
              "internalType": "uint256",
              "name": "alice_balance",
              "type": "uint256"
            },
            {
              "internalType": "uint256",
              "name": "bob_balance",
              "type": "uint256"
            },
            {
              "internalType": "uint256",
              "name": "version_num",
              "type": "uint256"
            },
            {
              "internalType": "bool",
              "name": "alice_deposited",
              "type": "bool"
            },
            {
              "internalType": "bool",
              "name": "bob_deposited",
              "type": "bool"
            },
            {
              "internalType": "bool",
              "name": "busy",
              "type": "bool"
            }
          ],
          "internalType": "struct SimplePaymentChannel.TPC",
          "name": "",
          "type": "tuple"
        }
      ],
      "stateMutability": "view",
      "type": "function",
      "constant": true
    },
    {
      "inputs": [
        {
          "internalType": "uint256",
          "name": "id",
          "type": "uint256"
        }
      ],
      "name": "getTPC",
      "outputs": [
        {
          "components": [
            {
              "internalType": "address payable",
              "name": "alice",
              "type": "address"
            },
            {
              "internalType": "address payable",
              "name": "bob",
              "type": "address"
            },
            {
              "internalType": "uint256",
              "name": "alice_balance",
              "type": "uint256"
            },
            {
              "internalType": "uint256",
              "name": "bob_balance",
              "type": "uint256"
            },
            {
              "internalType": "uint256",
              "name": "version_num",
              "type": "uint256"
            },
            {
              "internalType": "bool",
              "name": "alice_deposited",
              "type": "bool"
            },
            {
              "internalType": "bool",
              "name": "bob_deposited",
              "type": "bool"
            },
            {
              "internalType": "bool",
              "name": "busy",
              "type": "bool"
            }
          ],
          "internalType": "struct SimplePaymentChannel.TPC",
          "name": "",
          "type": "tuple"
        }
      ],
      "stateMutability": "view",
      "type": "function",
      "constant": true
    },
    {
      "inputs": [
        {
          "internalType": "uint256",
          "name": "",
          "type": "uint256"
        }
      ],
      "name": "mpc_map",
      "outputs": [
        {
          "internalType": "uint256",
          "name": "id",
          "type": "uint256"
        },
        {
          "internalType": "uint256",
          "name": "version_num",
          "type": "uint256"
        }
      ],
      "stateMutability": "view",
      "type": "function",
      "constant": true
    },
    {
      "inputs": [
        {
          "internalType": "uint256",
          "name": "",
          "type": "uint256"
        }
      ],
      "name": "tpc_map",
      "outputs": [
        {
          "internalType": "address payable",
          "name": "alice",
          "type": "address"
        },
        {
          "internalType": "address payable",
          "name": "bob",
          "type": "address"
        },
        {
          "internalType": "uint256",
          "name": "alice_balance",
          "type": "uint256"
        },
        {
          "internalType": "uint256",
          "name": "bob_balance",
          "type": "uint256"
        },
        {
          "internalType": "uint256",
          "name": "version_num",
          "type": "uint256"
        },
        {
          "internalType": "bool",
          "name": "alice_deposited",
          "type": "bool"
        },
        {
          "internalType": "bool",
          "name": "bob_deposited",
          "type": "bool"
        },
        {
          "internalType": "bool",
          "name": "busy",
          "type": "bool"
        }
      ],
      "stateMutability": "view",
      "type": "function",
      "constant": true
    },
    {
      "inputs": [
        {
          "internalType": "uint256",
          "name": "id",
          "type": "uint256"
        },
        {
          "internalType": "address",
          "name": "alice",
          "type": "address"
        },
        {
          "internalType": "address",
          "name": "bob",
          "type": "address"
        },
        {
          "internalType": "uint256",
          "name": "new_ab",
          "type": "uint256"
        },
        {
          "internalType": "uint256",
          "name": "new_bb",
          "type": "uint256"
        },
        {
          "internalType": "uint256",
          "name": "version",
          "type": "uint256"
        },
        {
          "internalType": "bytes",
          "name": "sigA",
          "type": "bytes"
        },
        {
          "internalType": "bytes",
          "name": "sigB",
          "type": "bytes"
        }
      ],
      "name": "updateTPC",
      "outputs": [],
      "stateMutability": "payable",
      "type": "function",
      "payable": true
    },
    {
      "inputs": [
        {
          "internalType": "address[]",
          "name": "parties",
          "type": "address[]"
        },
        {
          "internalType": "bytes[]",
          "name": "sigs",
          "type": "bytes[]"
        },
        {
          "internalType": "uint256[]",
          "name": "channels_id",
          "type": "uint256[]"
        }
      ],
      "name": "createMPC",
      "outputs": [
        {
          "internalType": "uint256",
          "name": "",
          "type": "uint256"
        }
      ],
      "stateMutability": "nonpayable",
      "type": "function"
    },
    {
      "inputs": [
        {
          "internalType": "uint256",
          "name": "mpc_id",
          "type": "uint256"
        },
        {
          "components": [
            {
              "internalType": "uint256",
              "name": "channel_id",
              "type": "uint256"
            },
            {
              "internalType": "address",
              "name": "src",
              "type": "address"
            },
            {
              "internalType": "address",
              "name": "dst",
              "type": "address"
            },
            {
              "internalType": "uint256",
              "name": "new_ab",
              "type": "uint256"
            },
            {
              "internalType": "uint256",
              "name": "new_ba",
              "type": "uint256"
            }
          ],
          "internalType": "struct MultipartyChannel.Transaction[]",
          "name": "txs",
          "type": "tuple[]"
        },
        {
          "internalType": "string",
          "name": "msgstr",
          "type": "string"
        },
        {
          "internalType": "uint256",
          "name": "version",
          "type": "uint256"
        },
        {
          "internalType": "bytes[]",
          "name": "sigs",
          "type": "bytes[]"
        }
      ],
      "name": "updateMPC",
      "outputs": [],
      "stateMutability": "nonpayable",
      "type": "function"
    },
    {
      "inputs": [
        {
          "internalType": "uint256",
          "name": "mpc_id",
          "type": "uint256"
        },
        {
          "internalType": "uint256",
          "name": "version",
          "type": "uint256"
        },
        {
          "internalType": "bytes[]",
          "name": "sigs",
          "type": "bytes[]"
        }
      ],
      "name": "closeMPC",
      "outputs": [],
      "stateMutability": "nonpayable",
      "type": "function"
    }
  ],
  "bytecode": "0x608060405260405162000012906200008d565b604051809103906000f0801580156200002f573d6000803e3d6000fd5b506000806101000a81548173ffffffffffffffffffffffffffffffffffffffff021916908373ffffffffffffffffffffffffffffffffffffffff16021790555060016002556000600e553480156200008657600080fd5b506200009b565b61033e806200429183390190565b6141e680620000ab6000396000f3fe60806040526004361061009c5760003560e01c8063851dc27611610064578063851dc2761461019157806397a5ecf8146101ce578063b2459533146101f7578063b2fae2d414610213578063e6ca4b141461023c578063f9609f08146102805761009c565b806302a5a56f146100a157806306e78f82146100bd57806310df54a0146100fb578063526653881461013857806355eb702214610175575b600080fd5b6100bb60048036036100b69190810190612fa9565b6102b0565b005b3480156100c957600080fd5b506100e460048036036100df9190810190612f80565b6107aa565b6040516100f2929190613f52565b60405180910390f35b34801561010757600080fd5b50610122600480360361011d9190810190612f80565b6107ce565b60405161012f9190613e48565b60405180910390f35b34801561014457600080fd5b5061015f600480360361015a9190810190612e8a565b610917565b60405161016c9190613e64565b60405180910390f35b61018f600480360361018a9190810190612d8b565b610d58565b005b34801561019d57600080fd5b506101b860048036036101b39190810190612f80565b6111ef565b6040516101c59190613e48565b60405180910390f35b3480156101da57600080fd5b506101f560048036036101f09190810190613160565b611338565b005b610211600480360361020c91908101906131cc565b6116f4565b005b34801561021f57600080fd5b5061023a60048036036102359190810190613094565b611dbd565b005b34801561024857600080fd5b50610263600480360361025e9190810190612f80565b6122ac565b604051610277989796959493929190613ae6565b60405180910390f35b61029a60048036036102959190810190612e4e565b61235b565b6040516102a79190613e64565b60405180910390f35b60001515600160008c815260200190815260200160002060050160029054906101000a900460ff1615151461031a576040517f08c379a000000000000000000000000000000000000000000000000000000000815260040161031190613d48565b60405180910390fd5b8873ffffffffffffffffffffffffffffffffffffffff163373ffffffffffffffffffffffffffffffffffffffff16148061037f57508773ffffffffffffffffffffffffffffffffffffffff163373ffffffffffffffffffffffffffffffffffffffff16145b6103be576040517f08c379a00000000000000000000000000000000000000000000000000000000081526004016103b590613da8565b60405180910390fd5b858701600160008c815260200190815260200160002060030154600160008d8152602001908152602001600020600201540114610430576040517f08c379a000000000000000000000000000000000000000000000000000000000815260040161042790613ce8565b60405180910390fd5b60008060009054906101000a900473ffffffffffffffffffffffffffffffffffffffff1673ffffffffffffffffffffffffffffffffffffffff16631f2757138b8b8e8c8c8c60405160200161048a96959493929190613962565b604051602081830303815290604052805190602001206040518263ffffffff1660e01b81526004016104bc9190613c4d565b60206040518083038186803b1580156104d457600080fd5b505afa1580156104e8573d6000803e3d6000fd5b505050506040513d601f19601f8201168201806040525061050c9190810190612f57565b9050600160008c8152602001908152602001600020600401548611610566576040517f08c379a000000000000000000000000000000000000000000000000000000000815260040161055d90613de8565b60405180910390fd5b6000809054906101000a900473ffffffffffffffffffffffffffffffffffffffff1673ffffffffffffffffffffffffffffffffffffffff16631a86b5508b8388886040518563ffffffff1660e01b81526004016105c69493929190613be4565b60206040518083038186803b1580156105de57600080fd5b505afa1580156105f2573d6000803e3d6000fd5b505050506040513d601f19601f820116820180604052506106169190810190612f2e565b80156106ce57506000809054906101000a900473ffffffffffffffffffffffffffffffffffffffff1673ffffffffffffffffffffffffffffffffffffffff16631a86b5508a8386866040518563ffffffff1660e01b815260040161067d9493929190613be4565b60206040518083038186803b15801561069557600080fd5b505afa1580156106a9573d6000803e3d6000fd5b505050506040513d601f19601f820116820180604052506106cd9190810190612f2e565b5b61070d576040517f08c379a000000000000000000000000000000000000000000000000000000000815260040161070490613d28565b60405180910390fd5b87600160008d81526020019081526020016000206002018190555086600160008d81526020019081526020016000206003018190555085600160008d8152602001908152602001600020600401819055507f360021256038e7800042bd766ba4b42429d89cd49327ec22493810c1996ad5068b8b8b8b8b604051610795959493929190613eb6565b60405180910390a15050505050505050505050565b60096020528060005260406000206000915090508060000154908060030154905082565b6107d661288b565b60016000838152602001908152602001600020604051806101000160405290816000820160009054906101000a900473ffffffffffffffffffffffffffffffffffffffff1673ffffffffffffffffffffffffffffffffffffffff1673ffffffffffffffffffffffffffffffffffffffff1681526020016001820160009054906101000a900473ffffffffffffffffffffffffffffffffffffffff1673ffffffffffffffffffffffffffffffffffffffff1673ffffffffffffffffffffffffffffffffffffffff1681526020016002820154815260200160038201548152602001600482015481526020016005820160009054906101000a900460ff161515151581526020016005820160019054906101000a900460ff161515151581526020016005820160029054906101000a900460ff1615151515815250509050919050565b600080600090505b87879050811015610b995760008060009054906101000a900473ffffffffffffffffffffffffffffffffffffffff1673ffffffffffffffffffffffffffffffffffffffff16631f2757138a8a8581811061097557fe5b905060200201602061098a9190810190612d62565b60405160200161099a9190613947565b604051602081830303815290604052805190602001206040518263ffffffff1660e01b81526004016109cc9190613c4d565b60206040518083038186803b1580156109e457600080fd5b505afa1580156109f8573d6000803e3d6000fd5b505050506040513d601f19601f82011682018060405250610a1c9190810190612f57565b90506000809054906101000a900473ffffffffffffffffffffffffffffffffffffffff1673ffffffffffffffffffffffffffffffffffffffff16631a86b5508a8a85818110610a6757fe5b9050602002016020610a7c9190810190612d62565b838a8a87818110610a8957fe5b9050602002810180356001602003833603038112610aa657600080fd5b8083019250508135905060208201915067ffffffffffffffff811115610acb57600080fd5b600181023603821315610add57600080fd5b6040518563ffffffff1660e01b8152600401610afc9493929190613ba4565b60206040518083038186803b158015610b1457600080fd5b505afa158015610b28573d6000803e3d6000fd5b505050506040513d601f19601f82011682018060405250610b4c9190810190612f2e565b610b8b576040517f08c379a0000000000000000000000000000000000000000000000000000000008152600401610b8290613dc8565b60405180910390fd5b50808060010191505061091f565b5060008090505b83839050811015610c5257610bc6848483818110610bba57fe5b905060200201356126fb565b610c05576040517f08c379a0000000000000000000000000000000000000000000000000000000008152600401610bfc90613c68565b60405180910390fd5b6001806000868685818110610c1657fe5b90506020020135815260200190815260200160002060050160026101000a81548160ff0219169083151502179055508080600101915050610ba0565b506001600e5401600a600001819055506001600e5401600e819055508686600a6001019190610c82929190612902565b508282600a6002019190610c979291906129a2565b506000600a60030181905550600a60096000600a600001548152602001908152602001600020600082015481600001556001820181600101908054610cdd9291906129ef565b506002820181600201908054610cf4929190612a41565b50600382015481600301559050507f335a0a14c99993cd931420c0c93e1fd4bff2edeef690b1542afa560cc98b8102600a6000015488888686604051610d3e959493929190613f09565b60405180910390a1600a6000015490509695505050505050565b60606040518060400160405280600c81526020017f6372656174652061205450430000000000000000000000000000000000000000815250905060008060009054906101000a900473ffffffffffffffffffffffffffffffffffffffff1673ffffffffffffffffffffffffffffffffffffffff16631f275713838c8c8c8c604051602001610dea959493929190613a0d565b604051602081830303815290604052805190602001206040518263ffffffff1660e01b8152600401610e1c9190613c4d565b60206040518083038186803b158015610e3457600080fd5b505afa158015610e48573d6000803e3d6000fd5b505050506040513d601f19601f82011682018060405250610e6c9190810190612f57565b90508973ffffffffffffffffffffffffffffffffffffffff163373ffffffffffffffffffffffffffffffffffffffff161480610ed357508873ffffffffffffffffffffffffffffffffffffffff163373ffffffffffffffffffffffffffffffffffffffff16145b610f12576040517f08c379a0000000000000000000000000000000000000000000000000000000008152600401610f0990613e28565b60405180910390fd5b6000809054906101000a900473ffffffffffffffffffffffffffffffffffffffff1673ffffffffffffffffffffffffffffffffffffffff16631a86b5508b8389896040518563ffffffff1660e01b8152600401610f729493929190613b64565b60206040518083038186803b158015610f8a57600080fd5b505afa158015610f9e573d6000803e3d6000fd5b505050506040513d601f19601f82011682018060405250610fc29190810190612f2e565b801561107a57506000809054906101000a900473ffffffffffffffffffffffffffffffffffffffff1673ffffffffffffffffffffffffffffffffffffffff16631a86b5508a8387876040518563ffffffff1660e01b81526004016110299493929190613b64565b60206040518083038186803b15801561104157600080fd5b505afa158015611055573d6000803e3d6000fd5b505050506040513d601f19601f820116820180604052506110799190810190612f2e565b5b6110b9576040517f08c379a00000000000000000000000000000000000000000000000000000000081526004016110b090613d28565b60405180910390fd5b89600360000160006101000a81548173ffffffffffffffffffffffffffffffffffffffff021916908373ffffffffffffffffffffffffffffffffffffffff16021790555088600360010160006101000a81548173ffffffffffffffffffffffffffffffffffffffff021916908373ffffffffffffffffffffffffffffffffffffffff16021790555060006003600401819055506000600360050160006101000a81548160ff0219169083151502179055506000600360050160016101000a81548160ff0219169083151502179055506000600360050160026101000a81548160ff0219169083151502179055507f297b58dfc4e1f810e4c375daa036abfc510e04847803884aeb98fa0eac25a3148a8a8a8a6040516111db9493929190613aa1565b60405180910390a150505050505050505050565b6111f761288b565b60016000838152602001908152602001600020604051806101000160405290816000820160009054906101000a900473ffffffffffffffffffffffffffffffffffffffff1673ffffffffffffffffffffffffffffffffffffffff1673ffffffffffffffffffffffffffffffffffffffff1681526020016001820160009054906101000a900473ffffffffffffffffffffffffffffffffffffffff1673ffffffffffffffffffffffffffffffffffffffff1673ffffffffffffffffffffffffffffffffffffffff1681526020016002820154815260200160038201548152602001600482015481526020016005820160009054906101000a900460ff161515151581526020016005820160019054906101000a900460ff161515151581526020016005820160029054906101000a900460ff1615151515815250509050919050565b82600960008681526020019081526020016000206003015414611390576040517f08c379a000000000000000000000000000000000000000000000000000000000815260040161138790613c88565b60405180910390fd5b60606040518060400160405280600d81526020017f636c6f736520746865204d504300000000000000000000000000000000000000815250905060008060009054906101000a900473ffffffffffffffffffffffffffffffffffffffff1673ffffffffffffffffffffffffffffffffffffffff16631f27571383888860405160200161141e93929190613a68565b604051602081830303815290604052805190602001206040518263ffffffff1660e01b81526004016114509190613c4d565b60206040518083038186803b15801561146857600080fd5b505afa15801561147c573d6000803e3d6000fd5b505050506040513d601f19601f820116820180604052506114a09190810190612f57565b905060008090505b600960008881526020019081526020016000206001018054905081101561166e576000809054906101000a900473ffffffffffffffffffffffffffffffffffffffff1673ffffffffffffffffffffffffffffffffffffffff16631a86b550600960008a8152602001908152602001600020600101838154811061152757fe5b9060005260206000200160009054906101000a900473ffffffffffffffffffffffffffffffffffffffff168488888681811061155f57fe5b905060200281018035600160200383360303811261157c57600080fd5b8083019250508135905060208201915067ffffffffffffffff8111156115a157600080fd5b6001810236038213156115b357600080fd5b6040518563ffffffff1660e01b81526004016115d29493929190613ba4565b60206040518083038186803b1580156115ea57600080fd5b505afa1580156115fe573d6000803e3d6000fd5b505050506040513d601f19601f820116820180604052506116229190810190612f2e565b611661576040517f08c379a000000000000000000000000000000000000000000000000000000000815260040161165890613d88565b60405180910390fd5b80806001019150506114a8565b506009600087815260200190815260200160002060008082016000905560018201600061169b9190612a93565b6002820160006116ab9190612ab4565b600382016000905550507fcf38d3653965a88e4633f795de9aa236602765678ab7ed0d802a4e40282e9356866040516116e49190613e64565b60405180910390a1505050505050565b6116fc61288b565b60016000888152602001908152602001600020604051806101000160405290816000820160009054906101000a900473ffffffffffffffffffffffffffffffffffffffff1673ffffffffffffffffffffffffffffffffffffffff1673ffffffffffffffffffffffffffffffffffffffff1681526020016001820160009054906101000a900473ffffffffffffffffffffffffffffffffffffffff1673ffffffffffffffffffffffffffffffffffffffff1673ffffffffffffffffffffffffffffffffffffffff1681526020016002820154815260200160038201548152602001600482015481526020016005820160009054906101000a900460ff161515151581526020016005820160019054906101000a900460ff161515151581526020016005820160029054906101000a900460ff1615151515815250509050806000015173ffffffffffffffffffffffffffffffffffffffff163373ffffffffffffffffffffffffffffffffffffffff1614806118a55750806020015173ffffffffffffffffffffffffffffffffffffffff163373ffffffffffffffffffffffffffffffffffffffff16145b6118e4576040517f08c379a00000000000000000000000000000000000000000000000000000000081526004016118db90613d08565b60405180910390fd5b60606040518060400160405280600d81526020017f636c6f7365207468652054504300000000000000000000000000000000000000815250905060008060009054906101000a900473ffffffffffffffffffffffffffffffffffffffff1673ffffffffffffffffffffffffffffffffffffffff16631f275713838b8b60405160200161197293929190613a68565b604051602081830303815290604052805190602001206040518263ffffffff1660e01b81526004016119a49190613c4d565b60206040518083038186803b1580156119bc57600080fd5b505afa1580156119d0573d6000803e3d6000fd5b505050506040513d601f19601f820116820180604052506119f49190810190612f57565b9050600160008a8152602001908152602001600020600401548814611a4e576040517f08c379a0000000000000000000000000000000000000000000000000000000008152600401611a4590613d68565b60405180910390fd5b6000600160008b81526020019081526020016000206004015490506000809054906101000a900473ffffffffffffffffffffffffffffffffffffffff1673ffffffffffffffffffffffffffffffffffffffff16631a86b5508560000151848b8b6040518563ffffffff1660e01b8152600401611acd9493929190613b64565b60206040518083038186803b158015611ae557600080fd5b505afa158015611af9573d6000803e3d6000fd5b505050506040513d601f19601f82011682018060405250611b1d9190810190612f2e565b8015611bd957506000809054906101000a900473ffffffffffffffffffffffffffffffffffffffff1673ffffffffffffffffffffffffffffffffffffffff16631a86b55085602001518489896040518563ffffffff1660e01b8152600401611b889493929190613b64565b60206040518083038186803b158015611ba057600080fd5b505afa158015611bb4573d6000803e3d6000fd5b505050506040513d601f19601f82011682018060405250611bd89190810190612f2e565b5b611c18576040517f08c379a0000000000000000000000000000000000000000000000000000000008152600401611c0f90613d28565b60405180910390fd5b836000015173ffffffffffffffffffffffffffffffffffffffff166108fc85604001519081150290604051600060405180830381858888f19350505050158015611c66573d6000803e3d6000fd5b50836020015173ffffffffffffffffffffffffffffffffffffffff166108fc85606001519081150290604051600060405180830381858888f19350505050158015611cb5573d6000803e3d6000fd5b50600160008b8152602001908152602001600020600080820160006101000a81549073ffffffffffffffffffffffffffffffffffffffff02191690556001820160006101000a81549073ffffffffffffffffffffffffffffffffffffffff02191690556002820160009055600382016000905560048201600090556005820160006101000a81549060ff02191690556005820160016101000a81549060ff02191690556005820160026101000a81549060ff021916905550507fc399f7691b325c207a412cae4b10a6cb4279589d0c49474b7901a02f33d214e58185600001518660200151604051611da993929190613e7f565b60405180910390a150505050505050505050565b8260096000600a6000015481526020019081526020016000206003015410611e1a576040517f08c379a0000000000000000000000000000000000000000000000000000000008152600401611e1190613e08565b60405180910390fd5b60008090505b600960008a81526020019081526020016000206001018054905081101561210c5760008060009054906101000a900473ffffffffffffffffffffffffffffffffffffffff1673ffffffffffffffffffffffffffffffffffffffff16631f2757138888600960008f81526020019081526020016000206001018681548110611ea357fe5b9060005260206000200160009054906101000a900473ffffffffffffffffffffffffffffffffffffffff1689604051602001611ee294939291906139d2565b604051602081830303815290604052805190602001206040518263ffffffff1660e01b8152600401611f149190613c4d565b60206040518083038186803b158015611f2c57600080fd5b505afa158015611f40573d6000803e3d6000fd5b505050506040513d601f19601f82011682018060405250611f649190810190612f57565b90506000809054906101000a900473ffffffffffffffffffffffffffffffffffffffff1673ffffffffffffffffffffffffffffffffffffffff16631a86b550600960008d81526020019081526020016000206001018481548110611fc457fe5b9060005260206000200160009054906101000a900473ffffffffffffffffffffffffffffffffffffffff1683878787818110611ffc57fe5b905060200281018035600160200383360303811261201957600080fd5b8083019250508135905060208201915067ffffffffffffffff81111561203e57600080fd5b60018102360382131561205057600080fd5b6040518563ffffffff1660e01b815260040161206f9493929190613ba4565b60206040518083038186803b15801561208757600080fd5b505afa15801561209b573d6000803e3d6000fd5b505050506040513d601f19601f820116820180604052506120bf9190810190612f2e565b6120fe576040517f08c379a00000000000000000000000000000000000000000000000000000000081526004016120f590613cc8565b60405180910390fd5b508080600101915050611e20565b5060008090505b878790508110156121f15787878281811061212a57fe5b905060a002016080013588888381811061214057fe5b905060a002016060013501600160008a8a8581811061215b57fe5b905060a0020160000135815260200190815260200160002060030154600160008b8b8681811061218757fe5b905060a002016000013581526020019081526020016000206002015401146121e4576040517f08c379a00000000000000000000000000000000000000000000000000000000081526004016121db90613ca8565b60405180910390fd5b8080600101915050612113565b5060008090505b8787905081101561225a5761224d88888381811061221257fe5b905060a002016000013589898481811061222857fe5b905060a00201606001358a8a8581811061223e57fe5b905060a0020160800135612850565b80806001019150506121f8565b5082600960008a8152602001908152602001600020600301819055507f7b3b5256241f99d7d02bc06f78c5d9940fd7701c2526576cda444ad773c45cb460405160405180910390a15050505050505050565b60016020528060005260406000206000915090508060000160009054906101000a900473ffffffffffffffffffffffffffffffffffffffff16908060010160009054906101000a900473ffffffffffffffffffffffffffffffffffffffff16908060020154908060030154908060040154908060050160009054906101000a900460ff16908060050160019054906101000a900460ff16908060050160029054906101000a900460ff16905088565b60008273ffffffffffffffffffffffffffffffffffffffff163373ffffffffffffffffffffffffffffffffffffffff1614156123f757346003600201819055506001600360050160006101000a81548160ff0219169083151502179055507f80e1763fe09a838f74553a255399858e08207b929434a0215d3c02106de8117583346040516123ea929190613c24565b60405180910390a161248d565b8173ffffffffffffffffffffffffffffffffffffffff163373ffffffffffffffffffffffffffffffffffffffff16141561248c573460038001819055506001600360050160016101000a81548160ff0219169083151502179055507f80e1763fe09a838f74553a255399858e08207b929434a0215d3c02106de811758234604051612483929190613c24565b60405180910390a15b5b600360050160009054906101000a900460ff1680156124bb5750600360050160019054906101000a900460ff165b156126f057600060025490506003600160008381526020019081526020016000206000820160009054906101000a900473ffffffffffffffffffffffffffffffffffffffff168160000160006101000a81548173ffffffffffffffffffffffffffffffffffffffff021916908373ffffffffffffffffffffffffffffffffffffffff1602179055506001820160009054906101000a900473ffffffffffffffffffffffffffffffffffffffff168160010160006101000a81548173ffffffffffffffffffffffffffffffffffffffff021916908373ffffffffffffffffffffffffffffffffffffffff1602179055506002820154816002015560038201548160030155600482015481600401556005820160009054906101000a900460ff168160050160006101000a81548160ff0219169083151502179055506005820160019054906101000a900460ff168160050160016101000a81548160ff0219169083151502179055506005820160029054906101000a900460ff168160050160026101000a81548160ff02191690831515021790555090505060016002600082825401925050819055506000600360050160006101000a81548160ff0219169083151502179055506000600360050160016101000a81548160ff0219169083151502179055507fd92bbbac63272d0256172b5e8fec52c552e082cbd4df853483b5b6ccf1c14d4381858560036002015460038001546040516126df959493929190613eb6565b60405180910390a1809150506126f5565b600090505b92915050565b60008073ffffffffffffffffffffffffffffffffffffffff166001600084815260200190815260200160002060000160009054906101000a900473ffffffffffffffffffffffffffffffffffffffff1673ffffffffffffffffffffffffffffffffffffffff16141580156127d25750600073ffffffffffffffffffffffffffffffffffffffff166001600084815260200190815260200160002060010160009054906101000a900473ffffffffffffffffffffffffffffffffffffffff1673ffffffffffffffffffffffffffffffffffffffff1614155b80156128055750600115156001600084815260200190815260200160002060050160009054906101000a900460ff161515145b80156128385750600115156001600084815260200190815260200160002060050160019054906101000a900460ff161515145b15612846576001905061284b565b600090505b919050565b816001600085815260200190815260200160002060020181905550806001600085815260200190815260200160002060030181905550505050565b604051806101000160405280600073ffffffffffffffffffffffffffffffffffffffff168152602001600073ffffffffffffffffffffffffffffffffffffffff1681526020016000815260200160008152602001600081526020016000151581526020016000151581526020016000151581525090565b828054828255906000526020600020908101928215612991579160200282015b8281111561299057823573ffffffffffffffffffffffffffffffffffffffff168260006101000a81548173ffffffffffffffffffffffffffffffffffffffff021916908373ffffffffffffffffffffffffffffffffffffffff16021790555091602001919060010190612922565b5b50905061299e9190612ad5565b5090565b8280548282559060005260206000209081019282156129de579160200282015b828111156129dd5782358255916020019190600101906129c2565b5b5090506129eb9190612b18565b5090565b828054828255906000526020600020908101928215612a305760005260206000209182015b82811115612a2f578254825591600101919060010190612a14565b5b509050612a3d9190612ad5565b5090565b828054828255906000526020600020908101928215612a825760005260206000209182015b82811115612a81578254825591600101919060010190612a66565b5b509050612a8f9190612b18565b5090565b5080546000825590600052602060002090810190612ab19190612b18565b50565b5080546000825590600052602060002090810190612ad29190612b18565b50565b612b1591905b80821115612b1157600081816101000a81549073ffffffffffffffffffffffffffffffffffffffff021916905550600101612adb565b5090565b90565b612b3a91905b80821115612b36576000816000905550600101612b1e565b5090565b90565b600081359050612b4c8161413d565b92915050565b600081359050612b6181614154565b92915050565b60008083601f840112612b7957600080fd5b8235905067ffffffffffffffff811115612b9257600080fd5b602083019150836020820283011115612baa57600080fd5b9250929050565b60008083601f840112612bc357600080fd5b8235905067ffffffffffffffff811115612bdc57600080fd5b602083019150836020820283011115612bf457600080fd5b9250929050565b60008083601f840112612c0d57600080fd5b8235905067ffffffffffffffff811115612c2657600080fd5b6020830191508360a0820283011115612c3e57600080fd5b9250929050565b60008083601f840112612c5757600080fd5b8235905067ffffffffffffffff811115612c7057600080fd5b602083019150836020820283011115612c8857600080fd5b9250929050565b600081519050612c9e8161416b565b92915050565b600081519050612cb381614182565b92915050565b60008083601f840112612ccb57600080fd5b8235905067ffffffffffffffff811115612ce457600080fd5b602083019150836001820283011115612cfc57600080fd5b9250929050565b60008083601f840112612d1557600080fd5b8235905067ffffffffffffffff811115612d2e57600080fd5b602083019150836001820283011115612d4657600080fd5b9250929050565b600081359050612d5c81614199565b92915050565b600060208284031215612d7457600080fd5b6000612d8284828501612b3d565b91505092915050565b60008060008060008060008060c0898b031215612da757600080fd5b6000612db58b828c01612b52565b9850506020612dc68b828c01612b52565b9750506040612dd78b828c01612d4d565b9650506060612de88b828c01612d4d565b955050608089013567ffffffffffffffff811115612e0557600080fd5b612e118b828c01612cb9565b945094505060a089013567ffffffffffffffff811115612e3057600080fd5b612e3c8b828c01612cb9565b92509250509295985092959890939650565b60008060408385031215612e6157600080fd5b6000612e6f85828601612b3d565b9250506020612e8085828601612b3d565b9150509250929050565b60008060008060008060608789031215612ea357600080fd5b600087013567ffffffffffffffff811115612ebd57600080fd5b612ec989828a01612b67565b9650965050602087013567ffffffffffffffff811115612ee857600080fd5b612ef489828a01612bb1565b9450945050604087013567ffffffffffffffff811115612f1357600080fd5b612f1f89828a01612c45565b92509250509295509295509295565b600060208284031215612f4057600080fd5b6000612f4e84828501612c8f565b91505092915050565b600060208284031215612f6957600080fd5b6000612f7784828501612ca4565b91505092915050565b600060208284031215612f9257600080fd5b6000612fa084828501612d4d565b91505092915050565b6000806000806000806000806000806101008b8d031215612fc957600080fd5b6000612fd78d828e01612d4d565b9a50506020612fe88d828e01612b3d565b9950506040612ff98d828e01612b3d565b985050606061300a8d828e01612d4d565b975050608061301b8d828e01612d4d565b96505060a061302c8d828e01612d4d565b95505060c08b013567ffffffffffffffff81111561304957600080fd5b6130558d828e01612cb9565b945094505060e08b013567ffffffffffffffff81111561307457600080fd5b6130808d828e01612cb9565b92509250509295989b9194979a5092959850565b60008060008060008060008060a0898b0312156130b057600080fd5b60006130be8b828c01612d4d565b985050602089013567ffffffffffffffff8111156130db57600080fd5b6130e78b828c01612bfb565b9750975050604089013567ffffffffffffffff81111561310657600080fd5b6131128b828c01612d03565b955095505060606131258b828c01612d4d565b935050608089013567ffffffffffffffff81111561314257600080fd5b61314e8b828c01612bb1565b92509250509295985092959890939650565b6000806000806060858703121561317657600080fd5b600061318487828801612d4d565b945050602061319587828801612d4d565b935050604085013567ffffffffffffffff8111156131b257600080fd5b6131be87828801612bb1565b925092505092959194509250565b600080600080600080608087890312156131e557600080fd5b60006131f389828a01612d4d565b965050602061320489828a01612d4d565b955050604087013567ffffffffffffffff81111561322157600080fd5b61322d89828a01612cb9565b9450945050606087013567ffffffffffffffff81111561324c57600080fd5b61325889828a01612cb9565b92509250509295509295509295565b600061327383836132c3565b60208301905092915050565b61328881614067565b82525050565b61329781614015565b82525050565b6132a681614015565b82525050565b6132bd6132b882614015565b6140f1565b82525050565b6132cc81614003565b82525050565b6132db81614003565b82525050565b6132f26132ed82614003565b6140df565b82525050565b60006133048385613f9d565b935061330f82613f7b565b8060005b85811015613348576133258284613fec565b61332f8882613267565b975061333a83613f90565b925050600181019050613313565b5085925050509392505050565b60006133618385613fae565b93507f07ffffffffffffffffffffffffffffffffffffffffffffffffffffffffffffff83111561339057600080fd5b6020830292506133a183858461409d565b82840190509392505050565b6133b681614027565b82525050565b6133c581614027565b82525050565b6133d481614033565b82525050565b60006133e68385613fbf565b93506133f383858461409d565b6133fc8361411f565b840190509392505050565b60006134138385613fbf565b935061342083858461409d565b6134298361411f565b840190509392505050565b60006134408385613fe1565b935061344d83858461409d565b82840190509392505050565b600061346482613f85565b61346e8185613fe1565b935061347e8185602086016140ac565b80840191505092915050565b6000613497602083613fd0565b91507f6372656174654d504320766572696679206368616e6e656c206661696c6564216000830152602082019050919050565b60006134d7601783613fd0565b91507f636c6f73654d50433a2077726f6e672076657273696f6e0000000000000000006000830152602082019050919050565b6000613517601883613fd0565b91507f7570646174654d50433a2062616c616e6365206572726f7200000000000000006000830152602082019050919050565b6000613557601f83613fd0565b91507f7570646174654d50433a2076657269667920736967206661696c6564212121006000830152602082019050919050565b6000613597600d83613fd0565b91507f62616c616e6365206572726f72000000000000000000000000000000000000006000830152602082019050919050565b60006135d7601683613fd0565b91507f636c6f73655450433a2077726f6e672073656e646572000000000000000000006000830152602082019050919050565b6000613617600e83613fd0565b91507f766572696679206661696c6564210000000000000000000000000000000000006000830152602082019050919050565b6000613657600f83613fd0565b91507f74686520545043206973206275737900000000000000000000000000000000006000830152602082019050919050565b6000613697601b83613fd0565b91507f636c6f73655450433a2076657273696f6e206e6f7420657175616c00000000006000830152602082019050919050565b60006136d7601d83613fd0565b91507f636c6f73654d50432076657269667920736967206661696c65642121210000006000830152602082019050919050565b6000613717600c83613fd0565b91507f73656e646572206572726f7200000000000000000000000000000000000000006000830152602082019050919050565b6000613757602083613fd0565b91507f6372656174654d5043207665726966792070617274696573206661696c6564216000830152602082019050919050565b6000613797602383613fd0565b91507f76657273696f6e206e756d206c6974746572207468616e206c6173746573742060008301527f6f6e6500000000000000000000000000000000000000000000000000000000006020830152604082019050919050565b60006137fd601883613fd0565b91507f7570646174654d50433a2076657273696f6e206572726f7200000000000000006000830152602082019050919050565b600061383d601783613fd0565b91507f6372656174655450433a2077726f6e672073656e6465720000000000000000006000830152602082019050919050565b61010082016000820151613887600085018261328e565b50602082015161389a602085018261328e565b5060408201516138ad6040850182613912565b5060608201516138c06060850182613912565b5060808201516138d36080850182613912565b5060a08201516138e660a08501826133ad565b5060c08201516138f960c08501826133ad565b5060e082015161390c60e08501826133ad565b50505050565b61391b8161405d565b82525050565b61392a8161405d565b82525050565b61394161393c8261405d565b614115565b82525050565b600061395382846132e1565b60148201915081905092915050565b600061396e82896132e1565b60148201915061397e82886132e1565b60148201915061398e8287613930565b60208201915061399e8286613930565b6020820191506139ae8285613930565b6020820191506139be8284613930565b602082019150819050979650505050505050565b60006139df828688613434565b91506139eb82856132e1565b6014820191506139fb8284613930565b60208201915081905095945050505050565b6000613a198288613459565b9150613a2582876132ac565b601482019150613a3582866132ac565b601482019150613a458285613930565b602082019150613a558284613930565b6020820191508190509695505050505050565b6000613a748286613459565b9150613a808285613930565b602082019150613a908284613930565b602082019150819050949350505050565b6000608082019050613ab6600083018761327f565b613ac3602083018661327f565b613ad06040830185613921565b613add6060830184613921565b95945050505050565b600061010082019050613afc600083018b61329d565b613b09602083018a61329d565b613b166040830189613921565b613b236060830188613921565b613b306080830187613921565b613b3d60a08301866133bc565b613b4a60c08301856133bc565b613b5760e08301846133bc565b9998505050505050505050565b6000606082019050613b79600083018761327f565b613b8660208301866133cb565b8181036040830152613b998184866133da565b905095945050505050565b6000606082019050613bb960008301876132d2565b613bc660208301866133cb565b8181036040830152613bd9818486613407565b905095945050505050565b6000606082019050613bf960008301876132d2565b613c0660208301866133cb565b8181036040830152613c198184866133da565b905095945050505050565b6000604082019050613c3960008301856132d2565b613c466020830184613921565b9392505050565b6000602082019050613c6260008301846133cb565b92915050565b60006020820190508181036000830152613c818161348a565b9050919050565b60006020820190508181036000830152613ca1816134ca565b9050919050565b60006020820190508181036000830152613cc18161350a565b9050919050565b60006020820190508181036000830152613ce18161354a565b9050919050565b60006020820190508181036000830152613d018161358a565b9050919050565b60006020820190508181036000830152613d21816135ca565b9050919050565b60006020820190508181036000830152613d418161360a565b9050919050565b60006020820190508181036000830152613d618161364a565b9050919050565b60006020820190508181036000830152613d818161368a565b9050919050565b60006020820190508181036000830152613da1816136ca565b9050919050565b60006020820190508181036000830152613dc18161370a565b9050919050565b60006020820190508181036000830152613de18161374a565b9050919050565b60006020820190508181036000830152613e018161378a565b9050919050565b60006020820190508181036000830152613e21816137f0565b9050919050565b60006020820190508181036000830152613e4181613830565b9050919050565b600061010082019050613e5e6000830184613870565b92915050565b6000602082019050613e796000830184613921565b92915050565b6000606082019050613e946000830186613921565b613ea1602083018561327f565b613eae604083018461327f565b949350505050565b600060a082019050613ecb6000830188613921565b613ed860208301876132d2565b613ee560408301866132d2565b613ef26060830185613921565b613eff6080830184613921565b9695505050505050565b6000606082019050613f1e6000830188613921565b8181036020830152613f318186886132f8565b90508181036040830152613f46818486613355565b90509695505050505050565b6000604082019050613f676000830185613921565b613f746020830184613921565b9392505050565b6000819050919050565b600081519050919050565b6000602082019050919050565b600082825260208201905092915050565b600082825260208201905092915050565b600082825260208201905092915050565b600082825260208201905092915050565b600081905092915050565b6000613ffb6020840184612b3d565b905092915050565b600061400e8261403d565b9050919050565b60006140208261403d565b9050919050565b60008115159050919050565b6000819050919050565b600073ffffffffffffffffffffffffffffffffffffffff82169050919050565b6000819050919050565b600061407282614079565b9050919050565b60006140848261408b565b9050919050565b60006140968261403d565b9050919050565b82818337600083830152505050565b60005b838110156140ca5780820151818401526020810190506140af565b838111156140d9576000848401525b50505050565b60006140ea82614103565b9050919050565b60006140fc82614103565b9050919050565b600061410e82614130565b9050919050565b6000819050919050565b6000601f19601f8301169050919050565b60008160601b9050919050565b61414681614003565b811461415157600080fd5b50565b61415d81614015565b811461416857600080fd5b50565b61417481614027565b811461417f57600080fd5b50565b61418b81614033565b811461419657600080fd5b50565b6141a28161405d565b81146141ad57600080fd5b5056fea264697066735822122000f1985e7aa940ecb44220c4240e58e5bce783d2df35ae2468a468d4f95bccd364736f6c63430006000033608060405234801561001057600080fd5b5061031e806100206000396000f3fe608060405234801561001057600080fd5b50600436106100365760003560e01c80631a86b5501461003b5780631f27571314610138575b600080fd5b61011e6004803603606081101561005157600080fd5b81019080803573ffffffffffffffffffffffffffffffffffffffff169060200190929190803590602001909291908035906020019064010000000081111561009857600080fd5b8201836020820111156100aa57600080fd5b803590602001918460018302840111640100000000831117156100cc57600080fd5b91908080601f016020809104026020016040519081016040528093929190818152602001838380828437600081840152601f19601f82011690508083019250505050505050919291929050505061017a565b604051808215151515815260200191505060405180910390f35b6101646004803603602081101561014e57600080fd5b8101908080359060200190929190505050610290565b6040518082815260200191505060405180910390f35b6000604182511461018e5760009050610289565b600080600060608590506020810151935060408101519250606081015160001a9150601b8260ff1610156101c357601b820191505b601b8260ff16141580156101db5750601c8260ff1614155b156101ed576000945050505050610289565b8773ffffffffffffffffffffffffffffffffffffffff1660018884878760405160008152602001604052604051808581526020018460ff1660ff1681526020018381526020018281526020019450505050506020604051602081039080840390855afa158015610261573d6000803e3d6000fd5b5050506020604051035173ffffffffffffffffffffffffffffffffffffffff16149450505050505b9392505050565b60008160405160200180807f19457468657265756d205369676e6564204d6573736167653a0a333200000000815250601c0182815260200191505060405160208183030381529060405280519060200120905091905056fea264697066735822122095b7258ee81d3084db524579003e6175c7cff276acd359c835fc2312f28385ab64736f6c63430006000033",
  "source": "pragma solidity >=0.4.24 <0.7.0;\npragma experimental ABIEncoderV2;\n\n// import \"./SimplePaymentChannel.sol\";\n// pragma solidity >=0.4.24 <0.7.0;\n// pragma experimental ABIEncoderV2;\n\nimport \"./ILibSig.sol\";\n\ncontract SimplePaymentChannel {\n    event TPCOpenRequest(address alice, address bob, uint256 ab, uint256 bb);\n    event TPCOpenSuccess(uint256 id, address alice, address bob, uint256 ab, uint256 bb);\n    event TPCUpdateSuccess(uint256 id, address alice, address bob, uint256 new_ab, uint256 new_bb);\n    event TPCSomeDeposit(address addr, uint256 token);\n    event TPCCloseChannel(uint256 id, address alice, address bob);\n\n    struct TPC {\n        address payable alice;\n        address payable bob;\n        uint256 alice_balance; // wei\n        uint256 bob_balance;\n        uint256 version_num;\n        bool alice_deposited;\n        bool bob_deposited;\n        bool busy;\n    }\n\n    LibSig libSig = new LibSig();\n\n    // TPC[] public tpc_array;\n    mapping (uint256 => TPC) public tpc_map;\n\n    uint256 count = 1;\n\n    TPC tpc_ab;\n\n    function createTPC(address payable alice, address payable bob, uint256 ab, uint256 bb,\n        bytes calldata sigA, bytes calldata sigB)\n        external\n        payable\n    {\n        string memory prefix = \"create a TPC\";\n        bytes32 msgHash = libSig.prefixed(keccak256(abi.encodePacked(prefix, alice, bob, ab, bb)));\n        require(msg.sender == alice || msg.sender == bob, \"createTPC: wrong sender\");\n        require(libSig.verify(alice, msgHash, sigA) && libSig.verify(bob, msgHash, sigB), \"verify failed!\");\n\n        tpc_ab.alice = alice;\n        tpc_ab.bob = bob;\n        tpc_ab.version_num = 0;\n        tpc_ab.alice_deposited = false;\n        tpc_ab.bob_deposited = false;\n        tpc_ab.busy = false;\n\n        emit TPCOpenRequest(alice, bob, ab, bb);\n    }\n\n    function getChannel(uint256 id)\n        external\n        view\n        returns (TPC memory)\n    {\n        return tpc_map[id];\n    }\n\n    function deposit(address alice, address bob)\n        external\n        payable\n        returns (uint256)\n    {\n        if (msg.sender == alice)\n        {\n            tpc_ab.alice_balance = msg.value;\n            tpc_ab.alice_deposited = true;\n            emit TPCSomeDeposit(alice, msg.value);\n        }\n        else if (msg.sender == bob)\n        {\n            tpc_ab.bob_balance = msg.value;\n            tpc_ab.bob_deposited = true;\n            emit TPCSomeDeposit(bob, msg.value);\n        }\n        if (tpc_ab.alice_deposited && tpc_ab.bob_deposited) {\n            uint256 id = count;\n            tpc_map[id] = tpc_ab;\n            count += 1;\n            tpc_ab.alice_deposited = false;\n            tpc_ab.bob_deposited = false;\n            emit TPCOpenSuccess(id, alice, bob, tpc_ab.alice_balance, tpc_ab.bob_balance);\n            return id;\n        }\n        return 0;\n    }\n\n    function updateTPC(\n            uint256 id, address alice, address bob,\n            uint256 new_ab, uint256 new_bb, uint256 version,\n            bytes calldata sigA, bytes calldata sigB\n        )\n        external\n        payable\n    {\n        require(tpc_map[id].busy == false, \"the TPC is busy\");\n        require(msg.sender == alice || msg.sender == bob, \"sender error\");\n        require((tpc_map[id].alice_balance + tpc_map[id].bob_balance) == (new_ab + new_bb), \"balance error\");\n\n        bytes32 msgHash = libSig.prefixed(keccak256(abi.encodePacked(alice, bob, id, new_ab, new_bb, version)));\n\n        require(version > tpc_map[id].version_num, \"version num litter than lastest one\");\n        require(libSig.verify(alice, msgHash, sigA) && libSig.verify(bob, msgHash, sigB), \"verify failed!\");\n\n        tpc_map[id].alice_balance = new_ab;\n        tpc_map[id].bob_balance = new_bb;\n        tpc_map[id].version_num = version;\n\n        emit TPCUpdateSuccess(id, alice, bob, new_ab, new_bb);\n    }\n\n    function updateTPCInternal(uint256 id, uint256 new_ab, uint256 new_bb)\n        internal\n    {\n        // require(tpc_map[id].alice_balance + tpc_map[id].bob_balance == new_ab + new_bb, \"updateTPCInternal: amount error\");\n        tpc_map[id].alice_balance = new_ab;\n        tpc_map[id].bob_balance = new_bb;\n    }\n\n    function closeTPC(uint256 id, uint256 version,\n            bytes calldata sigA, bytes calldata sigB)\n        external\n        payable\n    {\n        TPC memory channel = tpc_map[id];\n        require(msg.sender == channel.alice || msg.sender == channel.bob, \"closeTPC: wrong sender\");\n\n        string memory prefix = \"close the TPC\";\n        bytes32 msgHash = libSig.prefixed(keccak256(abi.encodePacked(prefix, id, version)));\n        require(version == tpc_map[id].version_num, \"closeTPC: version not equal\");\n        uint256 sc_version = tpc_map[id].version_num;\n        require(libSig.verify(channel.alice, msgHash, sigA) && libSig.verify(channel.bob, msgHash, sigB), \"verify failed!\");\n        // withdraw\n        channel.alice.transfer(channel.alice_balance);\n        channel.bob.transfer(channel.bob_balance);\n        delete tpc_map[id];\n        emit TPCCloseChannel(sc_version, channel.alice, channel.bob);\n    }\n\n    function verifyChannel(uint256 id)\n        internal\n        view\n        returns (bool)\n    {\n        if (tpc_map[id].alice != address(0) && tpc_map[id].bob != address(0) &&\n            tpc_map[id].alice_deposited == true && tpc_map[id].bob_deposited == true)\n        {\n            return true;\n        }\n        else {\n            return false;\n        }\n    }\n\n    function getTPC(uint256 id)\n        external\n        view\n        returns (TPC memory)\n    {\n        return tpc_map[id];\n    }\n}\n\ncontract MultipartyChannel is SimplePaymentChannel {\n    event MPCCreateSuccess(uint256 id, address[] parties, uint256[] channels_id);\n    event MPCUpdateSuccess();\n    event MPCTransactionError(Transaction t);\n    event MPCClosed(uint256 mpc_id);\n\n    struct MPC {\n        uint256 id;\n        address[] parties;\n        uint256[] channels_id;\n        uint256 version_num;\n    }\n\n    struct Transaction {\n        uint256 channel_id;\n        address src;\n        address dst;\n        uint256 new_ab;\n        uint256 new_ba;\n    }\n\n    mapping (uint256 => MPC) public mpc_map;\n\n    MPC mpc;\n    uint256 mpc_count = 0;\n    // SimplePaymentChannel spc;\n\n    function createMPC(address[] calldata parties, bytes[] calldata sigs, uint256[] calldata channels_id)\n        external\n        returns (uint256)\n    {\n        // spc = SimplePaymentChannel(spcAddr);\n        // verify signatures\n        for (uint i = 0; i < parties.length; i++) {\n            bytes32 msgHash = libSig.prefixed(keccak256(abi.encodePacked(parties[i])));\n            require(libSig.verify(parties[i], msgHash, sigs[i]), \"createMPC verify parties failed!\");\n        }\n        // verify channels\n        for (uint256 i = 0; i < channels_id.length; i++) {\n            require(verifyChannel(channels_id[i]), \"createMPC verify channel failed!\");\n            tpc_map[channels_id[i]].busy = true;\n        }\n\n        mpc.id = mpc_count + 1;\n        mpc_count = mpc_count + 1;\n        mpc.parties = parties;\n        mpc.channels_id = channels_id;\n        mpc.version_num = 0;\n        mpc_map[mpc.id] = mpc;\n        emit MPCCreateSuccess(mpc.id, parties, channels_id);\n        return mpc.id;\n    }\n\n    function updateMPC(uint256 mpc_id, Transaction[] calldata txs, string calldata msgstr, uint256 version, bytes[] calldata sigs)\n        external\n    {\n        // verify sigs\n        require(mpc_map[mpc.id].version_num < version, \"updateMPC: version error\");\n        for (uint i = 0; i < mpc_map[mpc_id].parties.length; i++) {\n            bytes32 msgHash = libSig.prefixed(keccak256(abi.encodePacked(msgstr, mpc_map[mpc_id].parties[i], version)));\n            require(libSig.verify(mpc_map[mpc_id].parties[i], msgHash, sigs[i]), \"updateMPC: verify sig failed!!!\");\n        }\n        for (uint i = 0; i < txs.length; i++) {\n            require(tpc_map[txs[i].channel_id].alice_balance + tpc_map[txs[i].channel_id].bob_balance == txs[i].new_ab + txs[i].new_ba, \"updateMPC: balance error\");\n        }\n        // execute txs\n        for (uint i = 0; i < txs.length; i++) {\n            updateTPCInternal(txs[i].channel_id, txs[i].new_ab, txs[i].new_ba);\n        }\n        mpc_map[mpc_id].version_num = version;\n        emit MPCUpdateSuccess();\n    }\n\n    function closeMPC(uint256 mpc_id, uint256 version, bytes[] calldata sigs)\n        external\n    {\n        // require(mpc_id == mpc.id, \"closeMPC: wrong id of the mpc\");\n        require(mpc_map[mpc_id].version_num == version, \"closeMPC: wrong version\");\n        string memory prefix = \"close the MPC\";\n        bytes32 msgHash = libSig.prefixed(keccak256(abi.encodePacked(prefix, mpc_id, version)));\n\n        for (uint i = 0; i < mpc_map[mpc_id].parties.length; i++) {\n            require(libSig.verify(mpc_map[mpc_id].parties[i], msgHash, sigs[i]), \"closeMPC verify sig failed!!!\");\n        }\n        delete mpc_map[mpc_id];\n        emit MPCClosed(mpc_id);\n    }\n}",
  "sourcePath": "/Users/xuxianli/work/blockchain/micropc/contracts/MultipartyChannel.sol",
  "compiler": {
    "name": "solc",
    "version": "0.6.0+commit.26b70077.Emscripten.clang"
  },
  "schemaVersion": "3.0.23",
  "updatedAt": "2020-03-04T08:56:20.489Z",
  "networkType": "ethereum",
  "devdoc": {
    "methods": {}
  },
  "userdoc": {
    "methods": {}
  }
}