{
  "contractName": "MultipartyChannel",
  "abi": [
    {
      "anonymous": false,
      "inputs": [
        {
          "indexed": false,
          "internalType": "uint256",
          "name": "id",
          "type": "uint256"
        },
        {
          "indexed": false,
          "internalType": "address[]",
          "name": "parties",
          "type": "address[]"
        },
        {
          "indexed": false,
          "internalType": "uint256[]",
          "name": "channels_id",
          "type": "uint256[]"
        }
      ],
      "name": "CreateMPCSuccess",
      "type": "event"
    },
    {
      "anonymous": false,
      "inputs": [],
      "name": "UpdateMPCSuccess",
      "type": "event"
    },
    {
      "inputs": [
        {
          "internalType": "address",
          "name": "spcAddr",
          "type": "address"
        },
        {
          "internalType": "address[]",
          "name": "parties",
          "type": "address[]"
        },
        {
          "internalType": "bytes[]",
          "name": "sigs",
          "type": "bytes[]"
        },
        {
          "internalType": "uint256[]",
          "name": "channels_id",
          "type": "uint256[]"
        }
      ],
      "name": "createMPC",
      "outputs": [
        {
          "internalType": "uint256",
          "name": "",
          "type": "uint256"
        }
      ],
      "stateMutability": "nonpayable",
      "type": "function"
    },
    {
      "inputs": [
        {
          "internalType": "uint256",
          "name": "mpc_id",
          "type": "uint256"
        },
        {
          "components": [
            {
              "internalType": "address",
              "name": "src",
              "type": "address"
            },
            {
              "internalType": "address",
              "name": "dst",
              "type": "address"
            },
            {
              "internalType": "uint256",
              "name": "weis",
              "type": "uint256"
            }
          ],
          "internalType": "struct MultipartyChannel.Transaction[]",
          "name": "txs",
          "type": "tuple[]"
        },
        {
          "internalType": "string",
          "name": "msgstr",
          "type": "string"
        },
        {
          "internalType": "uint256",
          "name": "version",
          "type": "uint256"
        },
        {
          "internalType": "bytes[]",
          "name": "sigs",
          "type": "bytes[]"
        }
      ],
      "name": "updateMPC",
      "outputs": [],
      "stateMutability": "nonpayable",
      "type": "function"
    },
    {
      "inputs": [
        {
          "internalType": "uint256",
          "name": "mpc_id",
          "type": "uint256"
        }
      ],
      "name": "closeMPC",
      "outputs": [],
      "stateMutability": "nonpayable",
      "type": "function"
    }
  ],
  "bytecode": "0x60806040526040516100109061007e565b604051809103906000f08015801561002c573d6000803e3d6000fd5b506000806101000a81548173ffffffffffffffffffffffffffffffffffffffff021916908373ffffffffffffffffffffffffffffffffffffffff16021790555034801561007857600080fd5b5061008b565b61033e8061143783390190565b61139d8061009a6000396000f3fe608060405234801561001057600080fd5b50600436106100415760003560e01c80631a14309d14610046578063669b2b4114610062578063cc129e6c14610092575b600080fd5b610060600480360361005b9190810190610cf7565b6100ae565b005b61007c60048036036100779190810190610bc3565b610407565b604051610089919061117d565b60405180910390f35b6100ac60048036036100a79190810190610cce565b61087c565b005b60016000015488146100f5576040517f08c379a00000000000000000000000000000000000000000000000000000000081526004016100ec9061111d565b60405180910390fd5b60008090505b60018001805490508110156103b15760008060009054906101000a900473ffffffffffffffffffffffffffffffffffffffff1673ffffffffffffffffffffffffffffffffffffffff16631f275713888860018001868154811061015a57fe5b9060005260206000200160009054906101000a900473ffffffffffffffffffffffffffffffffffffffff16896040516020016101999493929190611067565b604051602081830303815290604052805190602001206040518263ffffffff1660e01b81526004016101cb91906110e2565b60206040518083038186803b1580156101e357600080fd5b505afa1580156101f7573d6000803e3d6000fd5b505050506040513d601f19601f8201168201806040525061021b9190810190610ca5565b90506000809054906101000a900473ffffffffffffffffffffffffffffffffffffffff1673ffffffffffffffffffffffffffffffffffffffff16631a86b55060018001848154811061026957fe5b9060005260206000200160009054906101000a900473ffffffffffffffffffffffffffffffffffffffff16838787878181106102a157fe5b90506020028101803560016020038336030381126102be57600080fd5b8083019250508135905060208201915067ffffffffffffffff8111156102e357600080fd5b6001810236038213156102f557600080fd5b6040518563ffffffff1660e01b815260040161031494939291906110a2565b60206040518083038186803b15801561032c57600080fd5b505afa158015610340573d6000803e3d6000fd5b505050506040513d601f19601f820116820180604052506103649190810190610c7c565b6103a3576040517f08c379a000000000000000000000000000000000000000000000000000000000815260040161039a9061113d565b60405180910390fd5b5080806001019150506100fb565b5060008090505b878790508110156103d05780806001019150506103b8565b507ffdf1c129b40abdea50317454aee5cec556b92df34aa577f2ba6e813e858990e760405160405180910390a15050505050505050565b600087600560006101000a81548173ffffffffffffffffffffffffffffffffffffffff021916908373ffffffffffffffffffffffffffffffffffffffff16021790555060008090505b878790508110156106ca5760008060009054906101000a900473ffffffffffffffffffffffffffffffffffffffff1673ffffffffffffffffffffffffffffffffffffffff16631f2757138a8a858181106104a657fe5b90506020020160206104bb9190810190610b9a565b6040516020016104cb919061104c565b604051602081830303815290604052805190602001206040518263ffffffff1660e01b81526004016104fd91906110e2565b60206040518083038186803b15801561051557600080fd5b505afa158015610529573d6000803e3d6000fd5b505050506040513d601f19601f8201168201806040525061054d9190810190610ca5565b90506000809054906101000a900473ffffffffffffffffffffffffffffffffffffffff1673ffffffffffffffffffffffffffffffffffffffff16631a86b5508a8a8581811061059857fe5b90506020020160206105ad9190810190610b9a565b838a8a878181106105ba57fe5b90506020028101803560016020038336030381126105d757600080fd5b8083019250508135905060208201915067ffffffffffffffff8111156105fc57600080fd5b60018102360382131561060e57600080fd5b6040518563ffffffff1660e01b815260040161062d94939291906110a2565b60206040518083038186803b15801561064557600080fd5b505afa158015610659573d6000803e3d6000fd5b505050506040513d601f19601f8201168201806040525061067d9190810190610c7c565b6106bc576040517f08c379a00000000000000000000000000000000000000000000000000000000081526004016106b39061115d565b60405180910390fd5b508080600101915050610450565b5060008090505b838390508110156107e557600560009054906101000a900473ffffffffffffffffffffffffffffffffffffffff1673ffffffffffffffffffffffffffffffffffffffff1663c1c42b1a85858481811061072657fe5b905060200201356040518263ffffffff1660e01b8152600401610749919061117d565b60206040518083038186803b15801561076157600080fd5b505afa158015610775573d6000803e3d6000fd5b505050506040513d601f19601f820116820180604052506107999190810190610c7c565b6107d8576040517f08c379a00000000000000000000000000000000000000000000000000000000081526004016107cf906110fd565b60405180910390fd5b80806001019150506106d1565b506000600160000181905550868660018001919061080492919061087f565b5082826001600201919061081992919061091f565b5060006001600301819055507f3378f9c0b988e08bd618cb56c9d3f4cc62293e1103a512c7ec9918bcf831760c60016000015488888686604051610861959493929190611198565b60405180910390a16001600001549050979650505050505050565b50565b82805482825590600052602060002090810192821561090e579160200282015b8281111561090d57823573ffffffffffffffffffffffffffffffffffffffff168260006101000a81548173ffffffffffffffffffffffffffffffffffffffff021916908373ffffffffffffffffffffffffffffffffffffffff1602179055509160200191906001019061089f565b5b50905061091b919061096c565b5090565b82805482825590600052602060002090810192821561095b579160200282015b8281111561095a57823582559160200191906001019061093f565b5b50905061096891906109af565b5090565b6109ac91905b808211156109a857600081816101000a81549073ffffffffffffffffffffffffffffffffffffffff021916905550600101610972565b5090565b90565b6109d191905b808211156109cd5760008160009055506001016109b5565b5090565b90565b6000813590506109e38161130b565b92915050565b60008083601f8401126109fb57600080fd5b8235905067ffffffffffffffff811115610a1457600080fd5b602083019150836020820283011115610a2c57600080fd5b9250929050565b60008083601f840112610a4557600080fd5b8235905067ffffffffffffffff811115610a5e57600080fd5b602083019150836020820283011115610a7657600080fd5b9250929050565b60008083601f840112610a8f57600080fd5b8235905067ffffffffffffffff811115610aa857600080fd5b602083019150836060820283011115610ac057600080fd5b9250929050565b60008083601f840112610ad957600080fd5b8235905067ffffffffffffffff811115610af257600080fd5b602083019150836020820283011115610b0a57600080fd5b9250929050565b600081519050610b2081611322565b92915050565b600081519050610b3581611339565b92915050565b60008083601f840112610b4d57600080fd5b8235905067ffffffffffffffff811115610b6657600080fd5b602083019150836001820283011115610b7e57600080fd5b9250929050565b600081359050610b9481611350565b92915050565b600060208284031215610bac57600080fd5b6000610bba848285016109d4565b91505092915050565b60008060008060008060006080888a031215610bde57600080fd5b6000610bec8a828b016109d4565b975050602088013567ffffffffffffffff811115610c0957600080fd5b610c158a828b016109e9565b9650965050604088013567ffffffffffffffff811115610c3457600080fd5b610c408a828b01610a33565b9450945050606088013567ffffffffffffffff811115610c5f57600080fd5b610c6b8a828b01610ac7565b925092505092959891949750929550565b600060208284031215610c8e57600080fd5b6000610c9c84828501610b11565b91505092915050565b600060208284031215610cb757600080fd5b6000610cc584828501610b26565b91505092915050565b600060208284031215610ce057600080fd5b6000610cee84828501610b85565b91505092915050565b60008060008060008060008060a0898b031215610d1357600080fd5b6000610d218b828c01610b85565b985050602089013567ffffffffffffffff811115610d3e57600080fd5b610d4a8b828c01610a7d565b9750975050604089013567ffffffffffffffff811115610d6957600080fd5b610d758b828c01610b3b565b95509550506060610d888b828c01610b85565b935050608089013567ffffffffffffffff811115610da557600080fd5b610db18b828c01610a33565b92509250509295985092959890939650565b6000610dcf8383610ddb565b60208301905092915050565b610de48161125e565b82525050565b610df38161125e565b82525050565b610e0a610e058261125e565b6112bf565b82525050565b6000610e1c83856111f8565b9350610e27826111e1565b8060005b85811015610e6057610e3d8284611247565b610e478882610dc3565b9750610e52836111eb565b925050600181019050610e2b565b5085925050509392505050565b6000610e798385611209565b93507f07ffffffffffffffffffffffffffffffffffffffffffffffffffffffffffffff831115610ea857600080fd5b602083029250610eb98385846112b0565b82840190509392505050565b610ece8161127c565b82525050565b6000610ee0838561121a565b9350610eed8385846112b0565b610ef6836112ed565b840190509392505050565b6000610f0d838561123c565b9350610f1a8385846112b0565b82840190509392505050565b6000610f3360208361122b565b91507f6372656174654d504320766572696679206368616e6e656c206661696c6564216000830152602082019050919050565b6000610f73600c8361122b565b91507f6d7063206964206572726f7200000000000000000000000000000000000000006000830152602082019050919050565b6000610fb3601e8361122b565b91507f7570646174654d50432076657269667920736967206661696c656421212100006000830152602082019050919050565b6000610ff360208361122b565b91507f6372656174654d5043207665726966792070617274696573206661696c6564216000830152602082019050919050565b61102f816112a6565b82525050565b611046611041826112a6565b6112e3565b82525050565b60006110588284610df9565b60148201915081905092915050565b6000611074828688610f01565b91506110808285610df9565b6014820191506110908284611035565b60208201915081905095945050505050565b60006060820190506110b76000830187610dea565b6110c46020830186610ec5565b81810360408301526110d7818486610ed4565b905095945050505050565b60006020820190506110f76000830184610ec5565b92915050565b6000602082019050818103600083015261111681610f26565b9050919050565b6000602082019050818103600083015261113681610f66565b9050919050565b6000602082019050818103600083015261115681610fa6565b9050919050565b6000602082019050818103600083015261117681610fe6565b9050919050565b60006020820190506111926000830184611026565b92915050565b60006060820190506111ad6000830188611026565b81810360208301526111c0818688610e10565b905081810360408301526111d5818486610e6d565b90509695505050505050565b6000819050919050565b6000602082019050919050565b600082825260208201905092915050565b600082825260208201905092915050565b600082825260208201905092915050565b600082825260208201905092915050565b600081905092915050565b600061125660208401846109d4565b905092915050565b600061126982611286565b9050919050565b60008115159050919050565b6000819050919050565b600073ffffffffffffffffffffffffffffffffffffffff82169050919050565b6000819050919050565b82818337600083830152505050565b60006112ca826112d1565b9050919050565b60006112dc826112fe565b9050919050565b6000819050919050565b6000601f19601f8301169050919050565b60008160601b9050919050565b6113148161125e565b811461131f57600080fd5b50565b61132b81611270565b811461133657600080fd5b50565b6113428161127c565b811461134d57600080fd5b50565b611359816112a6565b811461136457600080fd5b5056fea2646970667358221220a73cf677d201e0f62a883074ce98ffe461d871d51f89bc26a0ea74239b44dbc864736f6c63430006000033608060405234801561001057600080fd5b5061031e806100206000396000f3fe608060405234801561001057600080fd5b50600436106100365760003560e01c80631a86b5501461003b5780631f27571314610138575b600080fd5b61011e6004803603606081101561005157600080fd5b81019080803573ffffffffffffffffffffffffffffffffffffffff169060200190929190803590602001909291908035906020019064010000000081111561009857600080fd5b8201836020820111156100aa57600080fd5b803590602001918460018302840111640100000000831117156100cc57600080fd5b91908080601f016020809104026020016040519081016040528093929190818152602001838380828437600081840152601f19601f82011690508083019250505050505050919291929050505061017a565b604051808215151515815260200191505060405180910390f35b6101646004803603602081101561014e57600080fd5b8101908080359060200190929190505050610290565b6040518082815260200191505060405180910390f35b6000604182511461018e5760009050610289565b600080600060608590506020810151935060408101519250606081015160001a9150601b8260ff1610156101c357601b820191505b601b8260ff16141580156101db5750601c8260ff1614155b156101ed576000945050505050610289565b8773ffffffffffffffffffffffffffffffffffffffff1660018884878760405160008152602001604052604051808581526020018460ff1660ff1681526020018381526020018281526020019450505050506020604051602081039080840390855afa158015610261573d6000803e3d6000fd5b5050506020604051035173ffffffffffffffffffffffffffffffffffffffff16149450505050505b9392505050565b60008160405160200180807f19457468657265756d205369676e6564204d6573736167653a0a333200000000815250601c0182815260200191505060405160208183030381529060405280519060200120905091905056fea264697066735822122095b7258ee81d3084db524579003e6175c7cff276acd359c835fc2312f28385ab64736f6c63430006000033",
  "source": "pragma solidity >=0.4.24 <0.7.0;\npragma experimental ABIEncoderV2;\n\nimport \"./SimplePaymentChannel.sol\";\n\ncontract MultipartyChannel {\n    event CreateMPCSuccess(uint256 id, address[] parties, uint256[] channels_id);\n    event UpdateMPCSuccess();\n\n    struct MPC {\n        uint256 id;\n        address[] parties;\n        uint256[] channels_id;\n        uint256 version_num;\n    }\n\n    struct Transaction {\n        address src;\n        address dst;\n        uint256 weis;\n    }\n\n    LibSig libSig = new LibSig();\n\n    MPC mpc;\n    SimplePaymentChannel spc;\n\n    function createMPC(address spcAddr, address[] calldata parties, bytes[] calldata sigs, uint256[] calldata channels_id)\n        external\n        returns (uint256)\n    {\n        spc = SimplePaymentChannel(spcAddr);\n        // verify signatures\n        for (uint i = 0; i < parties.length; i++) {\n            bytes32 msgHash = libSig.prefixed(keccak256(abi.encodePacked(parties[i])));\n            require(libSig.verify(parties[i], msgHash, sigs[i]), \"createMPC verify parties failed!\");\n        }\n        // verify channels\n        for (uint256 i = 0; i < channels_id.length; i++) {\n            require(spc.verifyChannel(channels_id[i]), \"createMPC verify channel failed!\");\n        }\n\n        mpc.id = 0;\n        mpc.parties = parties;\n        mpc.channels_id = channels_id;\n        mpc.version_num = 0;\n        emit CreateMPCSuccess(mpc.id, parties, channels_id);\n        return mpc.id;\n    }\n\n    function updateMPC(uint256 mpc_id, Transaction[] calldata txs, string calldata msgstr, uint256 version, bytes[] calldata sigs)\n        external\n    {\n        // verify sigs\n        require(mpc_id == mpc.id, \"mpc id error\");\n        for (uint i = 0; i < mpc.parties.length; i++) {\n            bytes32 msgHash = libSig.prefixed(keccak256(abi.encodePacked(msgstr, mpc.parties[i], version)));\n            require(libSig.verify(mpc.parties[i], msgHash, sigs[i]), \"updateMPC verify sig failed!!!\");\n        }\n        // execute txs\n        for (uint i = 0; i < txs.length; i++) {\n\n        }\n        emit UpdateMPCSuccess();\n    }\n\n    function closeMPC(uint256 mpc_id)\n        external\n    {\n        // TODO\n    }\n}",
  "sourcePath": "/Users/xuxianli/work/blockchain/micropc/contracts/MultipartyChannel.sol",
  "compiler": {
    "name": "solc",
    "version": "0.6.0+commit.26b70077.Emscripten.clang"
  },
  "schemaVersion": "3.0.20",
  "updatedAt": "2019-12-25T03:04:12.019Z",
  "networkType": "ethereum",
  "devdoc": {
    "methods": {}
  },
  "userdoc": {
    "methods": {}
  }
}