{
  "contractName": "MultipartyChannel",
  "abi": [
    {
      "anonymous": false,
      "inputs": [
        {
          "indexed": false,
          "internalType": "uint256",
          "name": "mpc_id",
          "type": "uint256"
        }
      ],
      "name": "MPCClosed",
      "type": "event"
    },
    {
      "anonymous": false,
      "inputs": [
        {
          "indexed": false,
          "internalType": "uint256",
          "name": "id",
          "type": "uint256"
        },
        {
          "indexed": false,
          "internalType": "address[]",
          "name": "parties",
          "type": "address[]"
        },
        {
          "indexed": false,
          "internalType": "uint256[]",
          "name": "channels_id",
          "type": "uint256[]"
        }
      ],
      "name": "MPCCreateSuccess",
      "type": "event"
    },
    {
      "anonymous": false,
      "inputs": [
        {
          "components": [
            {
              "internalType": "uint256",
              "name": "channel_id",
              "type": "uint256"
            },
            {
              "internalType": "address",
              "name": "src",
              "type": "address"
            },
            {
              "internalType": "address",
              "name": "dst",
              "type": "address"
            },
            {
              "internalType": "uint256",
              "name": "new_ab",
              "type": "uint256"
            },
            {
              "internalType": "uint256",
              "name": "new_ba",
              "type": "uint256"
            }
          ],
          "indexed": false,
          "internalType": "struct MultipartyChannel.Transaction",
          "name": "t",
          "type": "tuple"
        }
      ],
      "name": "MPCTransactionError",
      "type": "event"
    },
    {
      "anonymous": false,
      "inputs": [],
      "name": "MPCUpdateSuccess",
      "type": "event"
    },
    {
      "anonymous": false,
      "inputs": [
        {
          "indexed": false,
          "internalType": "uint256",
          "name": "id",
          "type": "uint256"
        },
        {
          "indexed": false,
          "internalType": "address",
          "name": "alice",
          "type": "address"
        },
        {
          "indexed": false,
          "internalType": "address",
          "name": "bob",
          "type": "address"
        }
      ],
      "name": "TPCCloseChannel",
      "type": "event"
    },
    {
      "anonymous": false,
      "inputs": [
        {
          "indexed": false,
          "internalType": "address",
          "name": "alice",
          "type": "address"
        },
        {
          "indexed": false,
          "internalType": "address",
          "name": "bob",
          "type": "address"
        },
        {
          "indexed": false,
          "internalType": "uint256",
          "name": "ab",
          "type": "uint256"
        },
        {
          "indexed": false,
          "internalType": "uint256",
          "name": "bb",
          "type": "uint256"
        }
      ],
      "name": "TPCOpenRequest",
      "type": "event"
    },
    {
      "anonymous": false,
      "inputs": [
        {
          "indexed": false,
          "internalType": "uint256",
          "name": "id",
          "type": "uint256"
        },
        {
          "indexed": false,
          "internalType": "address",
          "name": "alice",
          "type": "address"
        },
        {
          "indexed": false,
          "internalType": "address",
          "name": "bob",
          "type": "address"
        },
        {
          "indexed": false,
          "internalType": "uint256",
          "name": "ab",
          "type": "uint256"
        },
        {
          "indexed": false,
          "internalType": "uint256",
          "name": "bb",
          "type": "uint256"
        }
      ],
      "name": "TPCOpenSuccess",
      "type": "event"
    },
    {
      "anonymous": false,
      "inputs": [
        {
          "indexed": false,
          "internalType": "address",
          "name": "addr",
          "type": "address"
        },
        {
          "indexed": false,
          "internalType": "uint256",
          "name": "token",
          "type": "uint256"
        }
      ],
      "name": "TPCSomeDeposit",
      "type": "event"
    },
    {
      "anonymous": false,
      "inputs": [
        {
          "indexed": false,
          "internalType": "uint256",
          "name": "id",
          "type": "uint256"
        },
        {
          "indexed": false,
          "internalType": "address",
          "name": "alice",
          "type": "address"
        },
        {
          "indexed": false,
          "internalType": "address",
          "name": "bob",
          "type": "address"
        },
        {
          "indexed": false,
          "internalType": "uint256",
          "name": "new_ab",
          "type": "uint256"
        },
        {
          "indexed": false,
          "internalType": "uint256",
          "name": "new_bb",
          "type": "uint256"
        }
      ],
      "name": "TPCUpdateSuccess",
      "type": "event"
    },
    {
      "inputs": [
        {
          "internalType": "uint256",
          "name": "id",
          "type": "uint256"
        },
        {
          "internalType": "uint256",
          "name": "version",
          "type": "uint256"
        },
        {
          "internalType": "bytes",
          "name": "sigA",
          "type": "bytes"
        },
        {
          "internalType": "bytes",
          "name": "sigB",
          "type": "bytes"
        }
      ],
      "name": "closeTPC",
      "outputs": [],
      "stateMutability": "payable",
      "type": "function",
      "payable": true
    },
    {
      "inputs": [
        {
          "internalType": "address payable",
          "name": "alice",
          "type": "address"
        },
        {
          "internalType": "address payable",
          "name": "bob",
          "type": "address"
        },
        {
          "internalType": "uint256",
          "name": "ab",
          "type": "uint256"
        },
        {
          "internalType": "uint256",
          "name": "bb",
          "type": "uint256"
        },
        {
          "internalType": "bytes",
          "name": "sigA",
          "type": "bytes"
        },
        {
          "internalType": "bytes",
          "name": "sigB",
          "type": "bytes"
        }
      ],
      "name": "createTPC",
      "outputs": [],
      "stateMutability": "payable",
      "type": "function",
      "payable": true
    },
    {
      "inputs": [
        {
          "internalType": "address",
          "name": "alice",
          "type": "address"
        },
        {
          "internalType": "address",
          "name": "bob",
          "type": "address"
        }
      ],
      "name": "deposit",
      "outputs": [
        {
          "internalType": "uint256",
          "name": "",
          "type": "uint256"
        }
      ],
      "stateMutability": "payable",
      "type": "function",
      "payable": true
    },
    {
      "inputs": [
        {
          "internalType": "uint256",
          "name": "id",
          "type": "uint256"
        }
      ],
      "name": "getChannel",
      "outputs": [
        {
          "components": [
            {
              "internalType": "address payable",
              "name": "alice",
              "type": "address"
            },
            {
              "internalType": "address payable",
              "name": "bob",
              "type": "address"
            },
            {
              "internalType": "uint256",
              "name": "alice_balance",
              "type": "uint256"
            },
            {
              "internalType": "uint256",
              "name": "bob_balance",
              "type": "uint256"
            },
            {
              "internalType": "uint256",
              "name": "version_num",
              "type": "uint256"
            },
            {
              "internalType": "bool",
              "name": "alice_deposited",
              "type": "bool"
            },
            {
              "internalType": "bool",
              "name": "bob_deposited",
              "type": "bool"
            },
            {
              "internalType": "bool",
              "name": "busy",
              "type": "bool"
            }
          ],
          "internalType": "struct SimplePaymentChannel.TPC",
          "name": "",
          "type": "tuple"
        }
      ],
      "stateMutability": "view",
      "type": "function",
      "constant": true
    },
    {
      "inputs": [
        {
          "internalType": "uint256",
          "name": "id",
          "type": "uint256"
        }
      ],
      "name": "getTPC",
      "outputs": [
        {
          "components": [
            {
              "internalType": "address payable",
              "name": "alice",
              "type": "address"
            },
            {
              "internalType": "address payable",
              "name": "bob",
              "type": "address"
            },
            {
              "internalType": "uint256",
              "name": "alice_balance",
              "type": "uint256"
            },
            {
              "internalType": "uint256",
              "name": "bob_balance",
              "type": "uint256"
            },
            {
              "internalType": "uint256",
              "name": "version_num",
              "type": "uint256"
            },
            {
              "internalType": "bool",
              "name": "alice_deposited",
              "type": "bool"
            },
            {
              "internalType": "bool",
              "name": "bob_deposited",
              "type": "bool"
            },
            {
              "internalType": "bool",
              "name": "busy",
              "type": "bool"
            }
          ],
          "internalType": "struct SimplePaymentChannel.TPC",
          "name": "",
          "type": "tuple"
        }
      ],
      "stateMutability": "view",
      "type": "function",
      "constant": true
    },
    {
      "inputs": [
        {
          "internalType": "uint256",
          "name": "",
          "type": "uint256"
        }
      ],
      "name": "mpc_map",
      "outputs": [
        {
          "internalType": "uint256",
          "name": "id",
          "type": "uint256"
        },
        {
          "internalType": "uint256",
          "name": "version_num",
          "type": "uint256"
        }
      ],
      "stateMutability": "view",
      "type": "function",
      "constant": true
    },
    {
      "inputs": [
        {
          "internalType": "uint256",
          "name": "",
          "type": "uint256"
        }
      ],
      "name": "tpc_map",
      "outputs": [
        {
          "internalType": "address payable",
          "name": "alice",
          "type": "address"
        },
        {
          "internalType": "address payable",
          "name": "bob",
          "type": "address"
        },
        {
          "internalType": "uint256",
          "name": "alice_balance",
          "type": "uint256"
        },
        {
          "internalType": "uint256",
          "name": "bob_balance",
          "type": "uint256"
        },
        {
          "internalType": "uint256",
          "name": "version_num",
          "type": "uint256"
        },
        {
          "internalType": "bool",
          "name": "alice_deposited",
          "type": "bool"
        },
        {
          "internalType": "bool",
          "name": "bob_deposited",
          "type": "bool"
        },
        {
          "internalType": "bool",
          "name": "busy",
          "type": "bool"
        }
      ],
      "stateMutability": "view",
      "type": "function",
      "constant": true
    },
    {
      "inputs": [
        {
          "internalType": "uint256",
          "name": "id",
          "type": "uint256"
        },
        {
          "internalType": "address",
          "name": "alice",
          "type": "address"
        },
        {
          "internalType": "address",
          "name": "bob",
          "type": "address"
        },
        {
          "internalType": "uint256",
          "name": "new_ab",
          "type": "uint256"
        },
        {
          "internalType": "uint256",
          "name": "new_bb",
          "type": "uint256"
        },
        {
          "internalType": "uint256",
          "name": "version",
          "type": "uint256"
        },
        {
          "internalType": "bytes",
          "name": "sigA",
          "type": "bytes"
        },
        {
          "internalType": "bytes",
          "name": "sigB",
          "type": "bytes"
        }
      ],
      "name": "updateTPC",
      "outputs": [],
      "stateMutability": "payable",
      "type": "function",
      "payable": true
    },
    {
      "inputs": [
        {
          "internalType": "address[]",
          "name": "parties",
          "type": "address[]"
        },
        {
          "internalType": "bytes[]",
          "name": "sigs",
          "type": "bytes[]"
        },
        {
          "internalType": "uint256[]",
          "name": "channels_id",
          "type": "uint256[]"
        }
      ],
      "name": "createMPC",
      "outputs": [
        {
          "internalType": "uint256",
          "name": "",
          "type": "uint256"
        }
      ],
      "stateMutability": "nonpayable",
      "type": "function"
    },
    {
      "inputs": [
        {
          "internalType": "uint256",
          "name": "mpc_id",
          "type": "uint256"
        },
        {
          "components": [
            {
              "internalType": "uint256",
              "name": "channel_id",
              "type": "uint256"
            },
            {
              "internalType": "address",
              "name": "src",
              "type": "address"
            },
            {
              "internalType": "address",
              "name": "dst",
              "type": "address"
            },
            {
              "internalType": "uint256",
              "name": "new_ab",
              "type": "uint256"
            },
            {
              "internalType": "uint256",
              "name": "new_ba",
              "type": "uint256"
            }
          ],
          "internalType": "struct MultipartyChannel.Transaction[]",
          "name": "txs",
          "type": "tuple[]"
        },
        {
          "internalType": "string",
          "name": "msgstr",
          "type": "string"
        },
        {
          "internalType": "uint256",
          "name": "version",
          "type": "uint256"
        },
        {
          "internalType": "bytes[]",
          "name": "sigs",
          "type": "bytes[]"
        }
      ],
      "name": "updateMPC",
      "outputs": [],
      "stateMutability": "nonpayable",
      "type": "function"
    },
    {
      "inputs": [
        {
          "internalType": "uint256",
          "name": "mpc_id",
          "type": "uint256"
        },
        {
          "internalType": "uint256",
          "name": "version",
          "type": "uint256"
        },
        {
          "internalType": "bytes[]",
          "name": "sigs",
          "type": "bytes[]"
        }
      ],
      "name": "closeMPC",
      "outputs": [],
      "stateMutability": "nonpayable",
      "type": "function"
    }
  ],
  "bytecode": "0x608060405260405162000012906200008d565b604051809103906000f0801580156200002f573d6000803e3d6000fd5b506000806101000a81548173ffffffffffffffffffffffffffffffffffffffff021916908373ffffffffffffffffffffffffffffffffffffffff16021790555060016002556000600e553480156200008657600080fd5b506200009b565b61033e806200427e83390190565b6141d380620000ab6000396000f3fe60806040526004361061009c5760003560e01c8063851dc27611610064578063851dc2761461019157806397a5ecf8146101ce578063b2459533146101f7578063b2fae2d414610213578063e6ca4b141461023c578063f9609f08146102805761009c565b806302a5a56f146100a157806306e78f82146100bd57806310df54a0146100fb578063526653881461013857806355eb702214610175575b600080fd5b6100bb60048036036100b69190810190612f96565b6102b0565b005b3480156100c957600080fd5b506100e460048036036100df9190810190612f6d565b6107b3565b6040516100f2929190613f3f565b60405180910390f35b34801561010757600080fd5b50610122600480360361011d9190810190612f6d565b6107d7565b60405161012f9190613e35565b60405180910390f35b34801561014457600080fd5b5061015f600480360361015a9190810190612e77565b610920565b60405161016c9190613e51565b60405180910390f35b61018f600480360361018a9190810190612d78565b610d61565b005b34801561019d57600080fd5b506101b860048036036101b39190810190612f6d565b6111f8565b6040516101c59190613e35565b60405180910390f35b3480156101da57600080fd5b506101f560048036036101f0919081019061314d565b611341565b005b610211600480360361020c91908101906131b9565b6116fd565b005b34801561021f57600080fd5b5061023a60048036036102359190810190613081565b611daa565b005b34801561024857600080fd5b50610263600480360361025e9190810190612f6d565b612299565b604051610277989796959493929190613ad3565b60405180910390f35b61029a60048036036102959190810190612e3b565b612348565b6040516102a79190613e51565b60405180910390f35b60001515600160008c815260200190815260200160002060050160029054906101000a900460ff1615151461031a576040517f08c379a000000000000000000000000000000000000000000000000000000000815260040161031190613d35565b60405180910390fd5b8873ffffffffffffffffffffffffffffffffffffffff163373ffffffffffffffffffffffffffffffffffffffff16148061037f57508773ffffffffffffffffffffffffffffffffffffffff163373ffffffffffffffffffffffffffffffffffffffff16145b6103be576040517f08c379a00000000000000000000000000000000000000000000000000000000081526004016103b590613d95565b60405180910390fd5b858701600160008c815260200190815260200160002060030154600160008d8152602001908152602001600020600201540114610430576040517f08c379a000000000000000000000000000000000000000000000000000000000815260040161042790613cd5565b60405180910390fd5b60008060009054906101000a900473ffffffffffffffffffffffffffffffffffffffff1673ffffffffffffffffffffffffffffffffffffffff16631f2757138b8b8e8c8c8c60405160200161048a9695949392919061394f565b604051602081830303815290604052805190602001206040518263ffffffff1660e01b81526004016104bc9190613c3a565b60206040518083038186803b1580156104d457600080fd5b505afa1580156104e8573d6000803e3d6000fd5b505050506040513d601f19601f8201168201806040525061050c9190810190612f44565b9050600160008c8152602001908152602001600020600401548611610566576040517f08c379a000000000000000000000000000000000000000000000000000000000815260040161055d90613dd5565b60405180910390fd5b6000809054906101000a900473ffffffffffffffffffffffffffffffffffffffff1673ffffffffffffffffffffffffffffffffffffffff16631a86b5508b8388886040518563ffffffff1660e01b81526004016105c69493929190613bd1565b60206040518083038186803b1580156105de57600080fd5b505afa1580156105f2573d6000803e3d6000fd5b505050506040513d601f19601f820116820180604052506106169190810190612f1b565b80156106ce57506000809054906101000a900473ffffffffffffffffffffffffffffffffffffffff1673ffffffffffffffffffffffffffffffffffffffff16631a86b5508a8386866040518563ffffffff1660e01b815260040161067d9493929190613bd1565b60206040518083038186803b15801561069557600080fd5b505afa1580156106a9573d6000803e3d6000fd5b505050506040513d601f19601f820116820180604052506106cd9190810190612f1b565b5b61070d576040517f08c379a000000000000000000000000000000000000000000000000000000000815260040161070490613d15565b60405180910390fd5b87600160008d81526020019081526020016000206002018190555086600160008d81526020019081526020016000206003018190555060018060008d8152602001908152602001600020600401600082825401925050819055507f360021256038e7800042bd766ba4b42429d89cd49327ec22493810c1996ad5068b8b8b8b8b60405161079e959493929190613ea3565b60405180910390a15050505050505050505050565b60096020528060005260406000206000915090508060000154908060030154905082565b6107df612878565b60016000838152602001908152602001600020604051806101000160405290816000820160009054906101000a900473ffffffffffffffffffffffffffffffffffffffff1673ffffffffffffffffffffffffffffffffffffffff1673ffffffffffffffffffffffffffffffffffffffff1681526020016001820160009054906101000a900473ffffffffffffffffffffffffffffffffffffffff1673ffffffffffffffffffffffffffffffffffffffff1673ffffffffffffffffffffffffffffffffffffffff1681526020016002820154815260200160038201548152602001600482015481526020016005820160009054906101000a900460ff161515151581526020016005820160019054906101000a900460ff161515151581526020016005820160029054906101000a900460ff1615151515815250509050919050565b600080600090505b87879050811015610ba25760008060009054906101000a900473ffffffffffffffffffffffffffffffffffffffff1673ffffffffffffffffffffffffffffffffffffffff16631f2757138a8a8581811061097e57fe5b90506020020160206109939190810190612d4f565b6040516020016109a39190613934565b604051602081830303815290604052805190602001206040518263ffffffff1660e01b81526004016109d59190613c3a565b60206040518083038186803b1580156109ed57600080fd5b505afa158015610a01573d6000803e3d6000fd5b505050506040513d601f19601f82011682018060405250610a259190810190612f44565b90506000809054906101000a900473ffffffffffffffffffffffffffffffffffffffff1673ffffffffffffffffffffffffffffffffffffffff16631a86b5508a8a85818110610a7057fe5b9050602002016020610a859190810190612d4f565b838a8a87818110610a9257fe5b9050602002810180356001602003833603038112610aaf57600080fd5b8083019250508135905060208201915067ffffffffffffffff811115610ad457600080fd5b600181023603821315610ae657600080fd5b6040518563ffffffff1660e01b8152600401610b059493929190613b91565b60206040518083038186803b158015610b1d57600080fd5b505afa158015610b31573d6000803e3d6000fd5b505050506040513d601f19601f82011682018060405250610b559190810190612f1b565b610b94576040517f08c379a0000000000000000000000000000000000000000000000000000000008152600401610b8b90613db5565b60405180910390fd5b508080600101915050610928565b5060008090505b83839050811015610c5b57610bcf848483818110610bc357fe5b905060200201356126e8565b610c0e576040517f08c379a0000000000000000000000000000000000000000000000000000000008152600401610c0590613c55565b60405180910390fd5b6001806000868685818110610c1f57fe5b90506020020135815260200190815260200160002060050160026101000a81548160ff0219169083151502179055508080600101915050610ba9565b506001600e5401600a600001819055506001600e5401600e819055508686600a6001019190610c8b9291906128ef565b508282600a6002019190610ca092919061298f565b506000600a60030181905550600a60096000600a600001548152602001908152602001600020600082015481600001556001820181600101908054610ce69291906129dc565b506002820181600201908054610cfd929190612a2e565b50600382015481600301559050507f335a0a14c99993cd931420c0c93e1fd4bff2edeef690b1542afa560cc98b8102600a6000015488888686604051610d47959493929190613ef6565b60405180910390a1600a6000015490509695505050505050565b60606040518060400160405280600c81526020017f6372656174652061205450430000000000000000000000000000000000000000815250905060008060009054906101000a900473ffffffffffffffffffffffffffffffffffffffff1673ffffffffffffffffffffffffffffffffffffffff16631f275713838c8c8c8c604051602001610df39594939291906139fa565b604051602081830303815290604052805190602001206040518263ffffffff1660e01b8152600401610e259190613c3a565b60206040518083038186803b158015610e3d57600080fd5b505afa158015610e51573d6000803e3d6000fd5b505050506040513d601f19601f82011682018060405250610e759190810190612f44565b90508973ffffffffffffffffffffffffffffffffffffffff163373ffffffffffffffffffffffffffffffffffffffff161480610edc57508873ffffffffffffffffffffffffffffffffffffffff163373ffffffffffffffffffffffffffffffffffffffff16145b610f1b576040517f08c379a0000000000000000000000000000000000000000000000000000000008152600401610f1290613e15565b60405180910390fd5b6000809054906101000a900473ffffffffffffffffffffffffffffffffffffffff1673ffffffffffffffffffffffffffffffffffffffff16631a86b5508b8389896040518563ffffffff1660e01b8152600401610f7b9493929190613b51565b60206040518083038186803b158015610f9357600080fd5b505afa158015610fa7573d6000803e3d6000fd5b505050506040513d601f19601f82011682018060405250610fcb9190810190612f1b565b801561108357506000809054906101000a900473ffffffffffffffffffffffffffffffffffffffff1673ffffffffffffffffffffffffffffffffffffffff16631a86b5508a8387876040518563ffffffff1660e01b81526004016110329493929190613b51565b60206040518083038186803b15801561104a57600080fd5b505afa15801561105e573d6000803e3d6000fd5b505050506040513d601f19601f820116820180604052506110829190810190612f1b565b5b6110c2576040517f08c379a00000000000000000000000000000000000000000000000000000000081526004016110b990613d15565b60405180910390fd5b89600360000160006101000a81548173ffffffffffffffffffffffffffffffffffffffff021916908373ffffffffffffffffffffffffffffffffffffffff16021790555088600360010160006101000a81548173ffffffffffffffffffffffffffffffffffffffff021916908373ffffffffffffffffffffffffffffffffffffffff16021790555060006003600401819055506000600360050160006101000a81548160ff0219169083151502179055506000600360050160016101000a81548160ff0219169083151502179055506000600360050160026101000a81548160ff0219169083151502179055507f297b58dfc4e1f810e4c375daa036abfc510e04847803884aeb98fa0eac25a3148a8a8a8a6040516111e49493929190613a8e565b60405180910390a150505050505050505050565b611200612878565b60016000838152602001908152602001600020604051806101000160405290816000820160009054906101000a900473ffffffffffffffffffffffffffffffffffffffff1673ffffffffffffffffffffffffffffffffffffffff1673ffffffffffffffffffffffffffffffffffffffff1681526020016001820160009054906101000a900473ffffffffffffffffffffffffffffffffffffffff1673ffffffffffffffffffffffffffffffffffffffff1673ffffffffffffffffffffffffffffffffffffffff1681526020016002820154815260200160038201548152602001600482015481526020016005820160009054906101000a900460ff161515151581526020016005820160019054906101000a900460ff161515151581526020016005820160029054906101000a900460ff1615151515815250509050919050565b82600960008681526020019081526020016000206003015414611399576040517f08c379a000000000000000000000000000000000000000000000000000000000815260040161139090613c75565b60405180910390fd5b60606040518060400160405280600d81526020017f636c6f736520746865204d504300000000000000000000000000000000000000815250905060008060009054906101000a900473ffffffffffffffffffffffffffffffffffffffff1673ffffffffffffffffffffffffffffffffffffffff16631f27571383888860405160200161142793929190613a55565b604051602081830303815290604052805190602001206040518263ffffffff1660e01b81526004016114599190613c3a565b60206040518083038186803b15801561147157600080fd5b505afa158015611485573d6000803e3d6000fd5b505050506040513d601f19601f820116820180604052506114a99190810190612f44565b905060008090505b6009600088815260200190815260200160002060010180549050811015611677576000809054906101000a900473ffffffffffffffffffffffffffffffffffffffff1673ffffffffffffffffffffffffffffffffffffffff16631a86b550600960008a8152602001908152602001600020600101838154811061153057fe5b9060005260206000200160009054906101000a900473ffffffffffffffffffffffffffffffffffffffff168488888681811061156857fe5b905060200281018035600160200383360303811261158557600080fd5b8083019250508135905060208201915067ffffffffffffffff8111156115aa57600080fd5b6001810236038213156115bc57600080fd5b6040518563ffffffff1660e01b81526004016115db9493929190613b91565b60206040518083038186803b1580156115f357600080fd5b505afa158015611607573d6000803e3d6000fd5b505050506040513d601f19601f8201168201806040525061162b9190810190612f1b565b61166a576040517f08c379a000000000000000000000000000000000000000000000000000000000815260040161166190613d75565b60405180910390fd5b80806001019150506114b1565b50600960008781526020019081526020016000206000808201600090556001820160006116a49190612a80565b6002820160006116b49190612aa1565b600382016000905550507fcf38d3653965a88e4633f795de9aa236602765678ab7ed0d802a4e40282e9356866040516116ed9190613e51565b60405180910390a1505050505050565b611705612878565b60016000888152602001908152602001600020604051806101000160405290816000820160009054906101000a900473ffffffffffffffffffffffffffffffffffffffff1673ffffffffffffffffffffffffffffffffffffffff1673ffffffffffffffffffffffffffffffffffffffff1681526020016001820160009054906101000a900473ffffffffffffffffffffffffffffffffffffffff1673ffffffffffffffffffffffffffffffffffffffff1673ffffffffffffffffffffffffffffffffffffffff1681526020016002820154815260200160038201548152602001600482015481526020016005820160009054906101000a900460ff161515151581526020016005820160019054906101000a900460ff161515151581526020016005820160029054906101000a900460ff1615151515815250509050806000015173ffffffffffffffffffffffffffffffffffffffff163373ffffffffffffffffffffffffffffffffffffffff1614806118ae5750806020015173ffffffffffffffffffffffffffffffffffffffff163373ffffffffffffffffffffffffffffffffffffffff16145b6118ed576040517f08c379a00000000000000000000000000000000000000000000000000000000081526004016118e490613cf5565b60405180910390fd5b60606040518060400160405280600d81526020017f636c6f7365207468652054504300000000000000000000000000000000000000815250905060008060009054906101000a900473ffffffffffffffffffffffffffffffffffffffff1673ffffffffffffffffffffffffffffffffffffffff16631f275713838b8b60405160200161197b93929190613a55565b604051602081830303815290604052805190602001206040518263ffffffff1660e01b81526004016119ad9190613c3a565b60206040518083038186803b1580156119c557600080fd5b505afa1580156119d9573d6000803e3d6000fd5b505050506040513d601f19601f820116820180604052506119fd9190810190612f44565b9050600160008a8152602001908152602001600020600401548814611a57576040517f08c379a0000000000000000000000000000000000000000000000000000000008152600401611a4e90613d55565b60405180910390fd5b6000809054906101000a900473ffffffffffffffffffffffffffffffffffffffff1673ffffffffffffffffffffffffffffffffffffffff16631a86b5508460000151838a8a6040518563ffffffff1660e01b8152600401611abb9493929190613b51565b60206040518083038186803b158015611ad357600080fd5b505afa158015611ae7573d6000803e3d6000fd5b505050506040513d601f19601f82011682018060405250611b0b9190810190612f1b565b8015611bc757506000809054906101000a900473ffffffffffffffffffffffffffffffffffffffff1673ffffffffffffffffffffffffffffffffffffffff16631a86b55084602001518388886040518563ffffffff1660e01b8152600401611b769493929190613b51565b60206040518083038186803b158015611b8e57600080fd5b505afa158015611ba2573d6000803e3d6000fd5b505050506040513d601f19601f82011682018060405250611bc69190810190612f1b565b5b611c06576040517f08c379a0000000000000000000000000000000000000000000000000000000008152600401611bfd90613d15565b60405180910390fd5b826000015173ffffffffffffffffffffffffffffffffffffffff166108fc84604001519081150290604051600060405180830381858888f19350505050158015611c54573d6000803e3d6000fd5b50826020015173ffffffffffffffffffffffffffffffffffffffff166108fc84606001519081150290604051600060405180830381858888f19350505050158015611ca3573d6000803e3d6000fd5b50600160008a8152602001908152602001600020600080820160006101000a81549073ffffffffffffffffffffffffffffffffffffffff02191690556001820160006101000a81549073ffffffffffffffffffffffffffffffffffffffff02191690556002820160009055600382016000905560048201600090556005820160006101000a81549060ff02191690556005820160016101000a81549060ff02191690556005820160026101000a81549060ff021916905550507fc399f7691b325c207a412cae4b10a6cb4279589d0c49474b7901a02f33d214e58984600001518560200151604051611d9793929190613e6c565b60405180910390a1505050505050505050565b8260096000600a6000015481526020019081526020016000206003015410611e07576040517f08c379a0000000000000000000000000000000000000000000000000000000008152600401611dfe90613df5565b60405180910390fd5b60008090505b600960008a8152602001908152602001600020600101805490508110156120f95760008060009054906101000a900473ffffffffffffffffffffffffffffffffffffffff1673ffffffffffffffffffffffffffffffffffffffff16631f2757138888600960008f81526020019081526020016000206001018681548110611e9057fe5b9060005260206000200160009054906101000a900473ffffffffffffffffffffffffffffffffffffffff1689604051602001611ecf94939291906139bf565b604051602081830303815290604052805190602001206040518263ffffffff1660e01b8152600401611f019190613c3a565b60206040518083038186803b158015611f1957600080fd5b505afa158015611f2d573d6000803e3d6000fd5b505050506040513d601f19601f82011682018060405250611f519190810190612f44565b90506000809054906101000a900473ffffffffffffffffffffffffffffffffffffffff1673ffffffffffffffffffffffffffffffffffffffff16631a86b550600960008d81526020019081526020016000206001018481548110611fb157fe5b9060005260206000200160009054906101000a900473ffffffffffffffffffffffffffffffffffffffff1683878787818110611fe957fe5b905060200281018035600160200383360303811261200657600080fd5b8083019250508135905060208201915067ffffffffffffffff81111561202b57600080fd5b60018102360382131561203d57600080fd5b6040518563ffffffff1660e01b815260040161205c9493929190613b91565b60206040518083038186803b15801561207457600080fd5b505afa158015612088573d6000803e3d6000fd5b505050506040513d601f19601f820116820180604052506120ac9190810190612f1b565b6120eb576040517f08c379a00000000000000000000000000000000000000000000000000000000081526004016120e290613cb5565b60405180910390fd5b508080600101915050611e0d565b5060008090505b878790508110156121de5787878281811061211757fe5b905060a002016080013588888381811061212d57fe5b905060a002016060013501600160008a8a8581811061214857fe5b905060a0020160000135815260200190815260200160002060030154600160008b8b8681811061217457fe5b905060a002016000013581526020019081526020016000206002015401146121d1576040517f08c379a00000000000000000000000000000000000000000000000000000000081526004016121c890613c95565b60405180910390fd5b8080600101915050612100565b5060008090505b878790508110156122475761223a8888838181106121ff57fe5b905060a002016000013589898481811061221557fe5b905060a00201606001358a8a8581811061222b57fe5b905060a002016080013561283d565b80806001019150506121e5565b5082600960008a8152602001908152602001600020600301819055507f7b3b5256241f99d7d02bc06f78c5d9940fd7701c2526576cda444ad773c45cb460405160405180910390a15050505050505050565b60016020528060005260406000206000915090508060000160009054906101000a900473ffffffffffffffffffffffffffffffffffffffff16908060010160009054906101000a900473ffffffffffffffffffffffffffffffffffffffff16908060020154908060030154908060040154908060050160009054906101000a900460ff16908060050160019054906101000a900460ff16908060050160029054906101000a900460ff16905088565b60008273ffffffffffffffffffffffffffffffffffffffff163373ffffffffffffffffffffffffffffffffffffffff1614156123e457346003600201819055506001600360050160006101000a81548160ff0219169083151502179055507f80e1763fe09a838f74553a255399858e08207b929434a0215d3c02106de8117583346040516123d7929190613c11565b60405180910390a161247a565b8173ffffffffffffffffffffffffffffffffffffffff163373ffffffffffffffffffffffffffffffffffffffff161415612479573460038001819055506001600360050160016101000a81548160ff0219169083151502179055507f80e1763fe09a838f74553a255399858e08207b929434a0215d3c02106de811758234604051612470929190613c11565b60405180910390a15b5b600360050160009054906101000a900460ff1680156124a85750600360050160019054906101000a900460ff165b156126dd57600060025490506003600160008381526020019081526020016000206000820160009054906101000a900473ffffffffffffffffffffffffffffffffffffffff168160000160006101000a81548173ffffffffffffffffffffffffffffffffffffffff021916908373ffffffffffffffffffffffffffffffffffffffff1602179055506001820160009054906101000a900473ffffffffffffffffffffffffffffffffffffffff168160010160006101000a81548173ffffffffffffffffffffffffffffffffffffffff021916908373ffffffffffffffffffffffffffffffffffffffff1602179055506002820154816002015560038201548160030155600482015481600401556005820160009054906101000a900460ff168160050160006101000a81548160ff0219169083151502179055506005820160019054906101000a900460ff168160050160016101000a81548160ff0219169083151502179055506005820160029054906101000a900460ff168160050160026101000a81548160ff02191690831515021790555090505060016002600082825401925050819055506000600360050160006101000a81548160ff0219169083151502179055506000600360050160016101000a81548160ff0219169083151502179055507fd92bbbac63272d0256172b5e8fec52c552e082cbd4df853483b5b6ccf1c14d4381858560036002015460038001546040516126cc959493929190613ea3565b60405180910390a1809150506126e2565b600090505b92915050565b60008073ffffffffffffffffffffffffffffffffffffffff166001600084815260200190815260200160002060000160009054906101000a900473ffffffffffffffffffffffffffffffffffffffff1673ffffffffffffffffffffffffffffffffffffffff16141580156127bf5750600073ffffffffffffffffffffffffffffffffffffffff166001600084815260200190815260200160002060010160009054906101000a900473ffffffffffffffffffffffffffffffffffffffff1673ffffffffffffffffffffffffffffffffffffffff1614155b80156127f25750600115156001600084815260200190815260200160002060050160009054906101000a900460ff161515145b80156128255750600115156001600084815260200190815260200160002060050160019054906101000a900460ff161515145b156128335760019050612838565b600090505b919050565b816001600085815260200190815260200160002060020181905550806001600085815260200190815260200160002060030181905550505050565b604051806101000160405280600073ffffffffffffffffffffffffffffffffffffffff168152602001600073ffffffffffffffffffffffffffffffffffffffff1681526020016000815260200160008152602001600081526020016000151581526020016000151581526020016000151581525090565b82805482825590600052602060002090810192821561297e579160200282015b8281111561297d57823573ffffffffffffffffffffffffffffffffffffffff168260006101000a81548173ffffffffffffffffffffffffffffffffffffffff021916908373ffffffffffffffffffffffffffffffffffffffff1602179055509160200191906001019061290f565b5b50905061298b9190612ac2565b5090565b8280548282559060005260206000209081019282156129cb579160200282015b828111156129ca5782358255916020019190600101906129af565b5b5090506129d89190612b05565b5090565b828054828255906000526020600020908101928215612a1d5760005260206000209182015b82811115612a1c578254825591600101919060010190612a01565b5b509050612a2a9190612ac2565b5090565b828054828255906000526020600020908101928215612a6f5760005260206000209182015b82811115612a6e578254825591600101919060010190612a53565b5b509050612a7c9190612b05565b5090565b5080546000825590600052602060002090810190612a9e9190612b05565b50565b5080546000825590600052602060002090810190612abf9190612b05565b50565b612b0291905b80821115612afe57600081816101000a81549073ffffffffffffffffffffffffffffffffffffffff021916905550600101612ac8565b5090565b90565b612b2791905b80821115612b23576000816000905550600101612b0b565b5090565b90565b600081359050612b398161412a565b92915050565b600081359050612b4e81614141565b92915050565b60008083601f840112612b6657600080fd5b8235905067ffffffffffffffff811115612b7f57600080fd5b602083019150836020820283011115612b9757600080fd5b9250929050565b60008083601f840112612bb057600080fd5b8235905067ffffffffffffffff811115612bc957600080fd5b602083019150836020820283011115612be157600080fd5b9250929050565b60008083601f840112612bfa57600080fd5b8235905067ffffffffffffffff811115612c1357600080fd5b6020830191508360a0820283011115612c2b57600080fd5b9250929050565b60008083601f840112612c4457600080fd5b8235905067ffffffffffffffff811115612c5d57600080fd5b602083019150836020820283011115612c7557600080fd5b9250929050565b600081519050612c8b81614158565b92915050565b600081519050612ca08161416f565b92915050565b60008083601f840112612cb857600080fd5b8235905067ffffffffffffffff811115612cd157600080fd5b602083019150836001820283011115612ce957600080fd5b9250929050565b60008083601f840112612d0257600080fd5b8235905067ffffffffffffffff811115612d1b57600080fd5b602083019150836001820283011115612d3357600080fd5b9250929050565b600081359050612d4981614186565b92915050565b600060208284031215612d6157600080fd5b6000612d6f84828501612b2a565b91505092915050565b60008060008060008060008060c0898b031215612d9457600080fd5b6000612da28b828c01612b3f565b9850506020612db38b828c01612b3f565b9750506040612dc48b828c01612d3a565b9650506060612dd58b828c01612d3a565b955050608089013567ffffffffffffffff811115612df257600080fd5b612dfe8b828c01612ca6565b945094505060a089013567ffffffffffffffff811115612e1d57600080fd5b612e298b828c01612ca6565b92509250509295985092959890939650565b60008060408385031215612e4e57600080fd5b6000612e5c85828601612b2a565b9250506020612e6d85828601612b2a565b9150509250929050565b60008060008060008060608789031215612e9057600080fd5b600087013567ffffffffffffffff811115612eaa57600080fd5b612eb689828a01612b54565b9650965050602087013567ffffffffffffffff811115612ed557600080fd5b612ee189828a01612b9e565b9450945050604087013567ffffffffffffffff811115612f0057600080fd5b612f0c89828a01612c32565b92509250509295509295509295565b600060208284031215612f2d57600080fd5b6000612f3b84828501612c7c565b91505092915050565b600060208284031215612f5657600080fd5b6000612f6484828501612c91565b91505092915050565b600060208284031215612f7f57600080fd5b6000612f8d84828501612d3a565b91505092915050565b6000806000806000806000806000806101008b8d031215612fb657600080fd5b6000612fc48d828e01612d3a565b9a50506020612fd58d828e01612b2a565b9950506040612fe68d828e01612b2a565b9850506060612ff78d828e01612d3a565b97505060806130088d828e01612d3a565b96505060a06130198d828e01612d3a565b95505060c08b013567ffffffffffffffff81111561303657600080fd5b6130428d828e01612ca6565b945094505060e08b013567ffffffffffffffff81111561306157600080fd5b61306d8d828e01612ca6565b92509250509295989b9194979a5092959850565b60008060008060008060008060a0898b03121561309d57600080fd5b60006130ab8b828c01612d3a565b985050602089013567ffffffffffffffff8111156130c857600080fd5b6130d48b828c01612be8565b9750975050604089013567ffffffffffffffff8111156130f357600080fd5b6130ff8b828c01612cf0565b955095505060606131128b828c01612d3a565b935050608089013567ffffffffffffffff81111561312f57600080fd5b61313b8b828c01612b9e565b92509250509295985092959890939650565b6000806000806060858703121561316357600080fd5b600061317187828801612d3a565b945050602061318287828801612d3a565b935050604085013567ffffffffffffffff81111561319f57600080fd5b6131ab87828801612b9e565b925092505092959194509250565b600080600080600080608087890312156131d257600080fd5b60006131e089828a01612d3a565b96505060206131f189828a01612d3a565b955050604087013567ffffffffffffffff81111561320e57600080fd5b61321a89828a01612ca6565b9450945050606087013567ffffffffffffffff81111561323957600080fd5b61324589828a01612ca6565b92509250509295509295509295565b600061326083836132b0565b60208301905092915050565b61327581614054565b82525050565b61328481614002565b82525050565b61329381614002565b82525050565b6132aa6132a582614002565b6140de565b82525050565b6132b981613ff0565b82525050565b6132c881613ff0565b82525050565b6132df6132da82613ff0565b6140cc565b82525050565b60006132f18385613f8a565b93506132fc82613f68565b8060005b85811015613335576133128284613fd9565b61331c8882613254565b975061332783613f7d565b925050600181019050613300565b5085925050509392505050565b600061334e8385613f9b565b93507f07ffffffffffffffffffffffffffffffffffffffffffffffffffffffffffffff83111561337d57600080fd5b60208302925061338e83858461408a565b82840190509392505050565b6133a381614014565b82525050565b6133b281614014565b82525050565b6133c181614020565b82525050565b60006133d38385613fac565b93506133e083858461408a565b6133e98361410c565b840190509392505050565b60006134008385613fac565b935061340d83858461408a565b6134168361410c565b840190509392505050565b600061342d8385613fce565b935061343a83858461408a565b82840190509392505050565b600061345182613f72565b61345b8185613fce565b935061346b818560208601614099565b80840191505092915050565b6000613484602083613fbd565b91507f6372656174654d504320766572696679206368616e6e656c206661696c6564216000830152602082019050919050565b60006134c4601783613fbd565b91507f636c6f73654d50433a2077726f6e672076657273696f6e0000000000000000006000830152602082019050919050565b6000613504601883613fbd565b91507f7570646174654d50433a2062616c616e6365206572726f7200000000000000006000830152602082019050919050565b6000613544601f83613fbd565b91507f7570646174654d50433a2076657269667920736967206661696c6564212121006000830152602082019050919050565b6000613584600d83613fbd565b91507f62616c616e6365206572726f72000000000000000000000000000000000000006000830152602082019050919050565b60006135c4601683613fbd565b91507f636c6f73655450433a2077726f6e672073656e646572000000000000000000006000830152602082019050919050565b6000613604600e83613fbd565b91507f766572696679206661696c6564210000000000000000000000000000000000006000830152602082019050919050565b6000613644600f83613fbd565b91507f74686520545043206973206275737900000000000000000000000000000000006000830152602082019050919050565b6000613684601b83613fbd565b91507f636c6f73655450433a2076657273696f6e206e6f7420657175616c00000000006000830152602082019050919050565b60006136c4601d83613fbd565b91507f636c6f73654d50432076657269667920736967206661696c65642121210000006000830152602082019050919050565b6000613704600c83613fbd565b91507f73656e646572206572726f7200000000000000000000000000000000000000006000830152602082019050919050565b6000613744602083613fbd565b91507f6372656174654d5043207665726966792070617274696573206661696c6564216000830152602082019050919050565b6000613784602383613fbd565b91507f76657273696f6e206e756d206c6974746572207468616e206c6173746573742060008301527f6f6e6500000000000000000000000000000000000000000000000000000000006020830152604082019050919050565b60006137ea601883613fbd565b91507f7570646174654d50433a2076657273696f6e206572726f7200000000000000006000830152602082019050919050565b600061382a601783613fbd565b91507f6372656174655450433a2077726f6e672073656e6465720000000000000000006000830152602082019050919050565b61010082016000820151613874600085018261327b565b506020820151613887602085018261327b565b50604082015161389a60408501826138ff565b5060608201516138ad60608501826138ff565b5060808201516138c060808501826138ff565b5060a08201516138d360a085018261339a565b5060c08201516138e660c085018261339a565b5060e08201516138f960e085018261339a565b50505050565b6139088161404a565b82525050565b6139178161404a565b82525050565b61392e6139298261404a565b614102565b82525050565b600061394082846132ce565b60148201915081905092915050565b600061395b82896132ce565b60148201915061396b82886132ce565b60148201915061397b828761391d565b60208201915061398b828661391d565b60208201915061399b828561391d565b6020820191506139ab828461391d565b602082019150819050979650505050505050565b60006139cc828688613421565b91506139d882856132ce565b6014820191506139e8828461391d565b60208201915081905095945050505050565b6000613a068288613446565b9150613a128287613299565b601482019150613a228286613299565b601482019150613a32828561391d565b602082019150613a42828461391d565b6020820191508190509695505050505050565b6000613a618286613446565b9150613a6d828561391d565b602082019150613a7d828461391d565b602082019150819050949350505050565b6000608082019050613aa3600083018761326c565b613ab0602083018661326c565b613abd604083018561390e565b613aca606083018461390e565b95945050505050565b600061010082019050613ae9600083018b61328a565b613af6602083018a61328a565b613b03604083018961390e565b613b10606083018861390e565b613b1d608083018761390e565b613b2a60a08301866133a9565b613b3760c08301856133a9565b613b4460e08301846133a9565b9998505050505050505050565b6000606082019050613b66600083018761326c565b613b7360208301866133b8565b8181036040830152613b868184866133c7565b905095945050505050565b6000606082019050613ba660008301876132bf565b613bb360208301866133b8565b8181036040830152613bc68184866133f4565b905095945050505050565b6000606082019050613be660008301876132bf565b613bf360208301866133b8565b8181036040830152613c068184866133c7565b905095945050505050565b6000604082019050613c2660008301856132bf565b613c33602083018461390e565b9392505050565b6000602082019050613c4f60008301846133b8565b92915050565b60006020820190508181036000830152613c6e81613477565b9050919050565b60006020820190508181036000830152613c8e816134b7565b9050919050565b60006020820190508181036000830152613cae816134f7565b9050919050565b60006020820190508181036000830152613cce81613537565b9050919050565b60006020820190508181036000830152613cee81613577565b9050919050565b60006020820190508181036000830152613d0e816135b7565b9050919050565b60006020820190508181036000830152613d2e816135f7565b9050919050565b60006020820190508181036000830152613d4e81613637565b9050919050565b60006020820190508181036000830152613d6e81613677565b9050919050565b60006020820190508181036000830152613d8e816136b7565b9050919050565b60006020820190508181036000830152613dae816136f7565b9050919050565b60006020820190508181036000830152613dce81613737565b9050919050565b60006020820190508181036000830152613dee81613777565b9050919050565b60006020820190508181036000830152613e0e816137dd565b9050919050565b60006020820190508181036000830152613e2e8161381d565b9050919050565b600061010082019050613e4b600083018461385d565b92915050565b6000602082019050613e66600083018461390e565b92915050565b6000606082019050613e81600083018661390e565b613e8e602083018561326c565b613e9b604083018461326c565b949350505050565b600060a082019050613eb8600083018861390e565b613ec560208301876132bf565b613ed260408301866132bf565b613edf606083018561390e565b613eec608083018461390e565b9695505050505050565b6000606082019050613f0b600083018861390e565b8181036020830152613f1e8186886132e5565b90508181036040830152613f33818486613342565b90509695505050505050565b6000604082019050613f54600083018561390e565b613f61602083018461390e565b9392505050565b6000819050919050565b600081519050919050565b6000602082019050919050565b600082825260208201905092915050565b600082825260208201905092915050565b600082825260208201905092915050565b600082825260208201905092915050565b600081905092915050565b6000613fe86020840184612b2a565b905092915050565b6000613ffb8261402a565b9050919050565b600061400d8261402a565b9050919050565b60008115159050919050565b6000819050919050565b600073ffffffffffffffffffffffffffffffffffffffff82169050919050565b6000819050919050565b600061405f82614066565b9050919050565b600061407182614078565b9050919050565b60006140838261402a565b9050919050565b82818337600083830152505050565b60005b838110156140b757808201518184015260208101905061409c565b838111156140c6576000848401525b50505050565b60006140d7826140f0565b9050919050565b60006140e9826140f0565b9050919050565b60006140fb8261411d565b9050919050565b6000819050919050565b6000601f19601f8301169050919050565b60008160601b9050919050565b61413381613ff0565b811461413e57600080fd5b50565b61414a81614002565b811461415557600080fd5b50565b61416181614014565b811461416c57600080fd5b50565b61417881614020565b811461418357600080fd5b50565b61418f8161404a565b811461419a57600080fd5b5056fea2646970667358221220b0653409bb20a6ae615bf3b5011e866fb0f113c97e5e6c6411a5bc951bf5aaa064736f6c63430006000033608060405234801561001057600080fd5b5061031e806100206000396000f3fe608060405234801561001057600080fd5b50600436106100365760003560e01c80631a86b5501461003b5780631f27571314610138575b600080fd5b61011e6004803603606081101561005157600080fd5b81019080803573ffffffffffffffffffffffffffffffffffffffff169060200190929190803590602001909291908035906020019064010000000081111561009857600080fd5b8201836020820111156100aa57600080fd5b803590602001918460018302840111640100000000831117156100cc57600080fd5b91908080601f016020809104026020016040519081016040528093929190818152602001838380828437600081840152601f19601f82011690508083019250505050505050919291929050505061017a565b604051808215151515815260200191505060405180910390f35b6101646004803603602081101561014e57600080fd5b8101908080359060200190929190505050610290565b6040518082815260200191505060405180910390f35b6000604182511461018e5760009050610289565b600080600060608590506020810151935060408101519250606081015160001a9150601b8260ff1610156101c357601b820191505b601b8260ff16141580156101db5750601c8260ff1614155b156101ed576000945050505050610289565b8773ffffffffffffffffffffffffffffffffffffffff1660018884878760405160008152602001604052604051808581526020018460ff1660ff1681526020018381526020018281526020019450505050506020604051602081039080840390855afa158015610261573d6000803e3d6000fd5b5050506020604051035173ffffffffffffffffffffffffffffffffffffffff16149450505050505b9392505050565b60008160405160200180807f19457468657265756d205369676e6564204d6573736167653a0a333200000000815250601c0182815260200191505060405160208183030381529060405280519060200120905091905056fea264697066735822122095b7258ee81d3084db524579003e6175c7cff276acd359c835fc2312f28385ab64736f6c63430006000033",
  "source": "pragma solidity >=0.4.24 <0.7.0;\npragma experimental ABIEncoderV2;\n\n// import \"./SimplePaymentChannel.sol\";\n// pragma solidity >=0.4.24 <0.7.0;\n// pragma experimental ABIEncoderV2;\n\nimport \"./ILibSig.sol\";\n\ncontract SimplePaymentChannel {\n    event TPCOpenRequest(address alice, address bob, uint256 ab, uint256 bb);\n    event TPCOpenSuccess(uint256 id, address alice, address bob, uint256 ab, uint256 bb);\n    event TPCUpdateSuccess(uint256 id, address alice, address bob, uint256 new_ab, uint256 new_bb);\n    event TPCSomeDeposit(address addr, uint256 token);\n    event TPCCloseChannel(uint256 id, address alice, address bob);\n\n    struct TPC {\n        address payable alice;\n        address payable bob;\n        uint256 alice_balance; // wei\n        uint256 bob_balance;\n        uint256 version_num;\n        bool alice_deposited;\n        bool bob_deposited;\n        bool busy;\n    }\n\n    LibSig libSig = new LibSig();\n\n    // TPC[] public tpc_array;\n    mapping (uint256 => TPC) public tpc_map;\n\n    uint256 count = 1;\n\n    TPC tpc_ab;\n\n    function createTPC(address payable alice, address payable bob, uint256 ab, uint256 bb,\n        bytes calldata sigA, bytes calldata sigB)\n        external\n        payable\n    {\n        string memory prefix = \"create a TPC\";\n        bytes32 msgHash = libSig.prefixed(keccak256(abi.encodePacked(prefix, alice, bob, ab, bb)));\n        require(msg.sender == alice || msg.sender == bob, \"createTPC: wrong sender\");\n        require(libSig.verify(alice, msgHash, sigA) && libSig.verify(bob, msgHash, sigB), \"verify failed!\");\n\n        tpc_ab.alice = alice;\n        tpc_ab.bob = bob;\n        tpc_ab.version_num = 0;\n        tpc_ab.alice_deposited = false;\n        tpc_ab.bob_deposited = false;\n        tpc_ab.busy = false;\n\n        emit TPCOpenRequest(alice, bob, ab, bb);\n    }\n\n    function getChannel(uint256 id)\n        external\n        view\n        returns (TPC memory)\n    {\n        return tpc_map[id];\n    }\n\n    function deposit(address alice, address bob)\n        external\n        payable\n        returns (uint256)\n    {\n        if (msg.sender == alice)\n        {\n            tpc_ab.alice_balance = msg.value;\n            tpc_ab.alice_deposited = true;\n            emit TPCSomeDeposit(alice, msg.value);\n        }\n        else if (msg.sender == bob)\n        {\n            tpc_ab.bob_balance = msg.value;\n            tpc_ab.bob_deposited = true;\n            emit TPCSomeDeposit(bob, msg.value);\n        }\n        if (tpc_ab.alice_deposited && tpc_ab.bob_deposited) {\n            uint256 id = count;\n            tpc_map[id] = tpc_ab;\n            count += 1;\n            tpc_ab.alice_deposited = false;\n            tpc_ab.bob_deposited = false;\n            emit TPCOpenSuccess(id, alice, bob, tpc_ab.alice_balance, tpc_ab.bob_balance);\n            return id;\n        }\n        return 0;\n    }\n\n    function updateTPC(\n            uint256 id, address alice, address bob,\n            uint256 new_ab, uint256 new_bb, uint256 version,\n            bytes calldata sigA, bytes calldata sigB\n        )\n        external\n        payable\n    {\n        require(tpc_map[id].busy == false, \"the TPC is busy\");\n        require(msg.sender == alice || msg.sender == bob, \"sender error\");\n        require((tpc_map[id].alice_balance + tpc_map[id].bob_balance) == (new_ab + new_bb), \"balance error\");\n\n        bytes32 msgHash = libSig.prefixed(keccak256(abi.encodePacked(alice, bob, id, new_ab, new_bb, version)));\n\n        require(version > tpc_map[id].version_num, \"version num litter than lastest one\");\n        require(libSig.verify(alice, msgHash, sigA) && libSig.verify(bob, msgHash, sigB), \"verify failed!\");\n\n        tpc_map[id].alice_balance = new_ab;\n        tpc_map[id].bob_balance = new_bb;\n        tpc_map[id].version_num += 1;\n\n        emit TPCUpdateSuccess(id, alice, bob, new_ab, new_bb);\n    }\n\n    function updateTPCInternal(uint256 id, uint256 new_ab, uint256 new_bb)\n        internal\n    {\n        // require(tpc_map[id].alice_balance + tpc_map[id].bob_balance == new_ab + new_bb, \"updateTPCInternal: amount error\");\n        tpc_map[id].alice_balance = new_ab;\n        tpc_map[id].bob_balance = new_bb;\n    }\n\n    function closeTPC(uint256 id, uint256 version,\n            bytes calldata sigA, bytes calldata sigB)\n        external\n        payable\n    {\n        TPC memory channel = tpc_map[id];\n        require(msg.sender == channel.alice || msg.sender == channel.bob, \"closeTPC: wrong sender\");\n\n        string memory prefix = \"close the TPC\";\n        bytes32 msgHash = libSig.prefixed(keccak256(abi.encodePacked(prefix, id, version)));\n        require(version == tpc_map[id].version_num, \"closeTPC: version not equal\");\n        require(libSig.verify(channel.alice, msgHash, sigA) && libSig.verify(channel.bob, msgHash, sigB), \"verify failed!\");\n        // withdraw\n        channel.alice.transfer(channel.alice_balance);\n        channel.bob.transfer(channel.bob_balance);\n        delete tpc_map[id];\n        emit TPCCloseChannel(id, channel.alice, channel.bob);\n    }\n\n    function verifyChannel(uint256 id)\n        internal\n        view\n        returns (bool)\n    {\n        if (tpc_map[id].alice != address(0) && tpc_map[id].bob != address(0) &&\n            tpc_map[id].alice_deposited == true && tpc_map[id].bob_deposited == true)\n        {\n            return true;\n        }\n        else {\n            return false;\n        }\n    }\n\n    function getTPC(uint256 id)\n        external\n        view\n        returns (TPC memory)\n    {\n        return tpc_map[id];\n    }\n}\n\ncontract MultipartyChannel is SimplePaymentChannel {\n    event MPCCreateSuccess(uint256 id, address[] parties, uint256[] channels_id);\n    event MPCUpdateSuccess();\n    event MPCTransactionError(Transaction t);\n    event MPCClosed(uint256 mpc_id);\n\n    struct MPC {\n        uint256 id;\n        address[] parties;\n        uint256[] channels_id;\n        uint256 version_num;\n    }\n\n    struct Transaction {\n        uint256 channel_id;\n        address src;\n        address dst;\n        uint256 new_ab;\n        uint256 new_ba;\n    }\n\n    mapping (uint256 => MPC) public mpc_map;\n\n    MPC mpc;\n    uint256 mpc_count = 0;\n    // SimplePaymentChannel spc;\n\n    function createMPC(address[] calldata parties, bytes[] calldata sigs, uint256[] calldata channels_id)\n        external\n        returns (uint256)\n    {\n        // spc = SimplePaymentChannel(spcAddr);\n        // verify signatures\n        for (uint i = 0; i < parties.length; i++) {\n            bytes32 msgHash = libSig.prefixed(keccak256(abi.encodePacked(parties[i])));\n            require(libSig.verify(parties[i], msgHash, sigs[i]), \"createMPC verify parties failed!\");\n        }\n        // verify channels\n        for (uint256 i = 0; i < channels_id.length; i++) {\n            require(verifyChannel(channels_id[i]), \"createMPC verify channel failed!\");\n            tpc_map[channels_id[i]].busy = true;\n        }\n\n        mpc.id = mpc_count + 1;\n        mpc_count = mpc_count + 1;\n        mpc.parties = parties;\n        mpc.channels_id = channels_id;\n        mpc.version_num = 0;\n        mpc_map[mpc.id] = mpc;\n        emit MPCCreateSuccess(mpc.id, parties, channels_id);\n        return mpc.id;\n    }\n\n    function updateMPC(uint256 mpc_id, Transaction[] calldata txs, string calldata msgstr, uint256 version, bytes[] calldata sigs)\n        external\n    {\n        // verify sigs\n        require(mpc_map[mpc.id].version_num < version, \"updateMPC: version error\");\n        for (uint i = 0; i < mpc_map[mpc_id].parties.length; i++) {\n            bytes32 msgHash = libSig.prefixed(keccak256(abi.encodePacked(msgstr, mpc_map[mpc_id].parties[i], version)));\n            require(libSig.verify(mpc_map[mpc_id].parties[i], msgHash, sigs[i]), \"updateMPC: verify sig failed!!!\");\n        }\n        for (uint i = 0; i < txs.length; i++) {\n            require(tpc_map[txs[i].channel_id].alice_balance + tpc_map[txs[i].channel_id].bob_balance == txs[i].new_ab + txs[i].new_ba, \"updateMPC: balance error\");\n        }\n        // execute txs\n        for (uint i = 0; i < txs.length; i++) {\n            updateTPCInternal(txs[i].channel_id, txs[i].new_ab, txs[i].new_ba);\n        }\n        mpc_map[mpc_id].version_num = version;\n        emit MPCUpdateSuccess();\n    }\n\n    function closeMPC(uint256 mpc_id, uint256 version, bytes[] calldata sigs)\n        external\n    {\n        // require(mpc_id == mpc.id, \"closeMPC: wrong id of the mpc\");\n        require(mpc_map[mpc_id].version_num == version, \"closeMPC: wrong version\");\n        string memory prefix = \"close the MPC\";\n        bytes32 msgHash = libSig.prefixed(keccak256(abi.encodePacked(prefix, mpc_id, version)));\n\n        for (uint i = 0; i < mpc_map[mpc_id].parties.length; i++) {\n            require(libSig.verify(mpc_map[mpc_id].parties[i], msgHash, sigs[i]), \"closeMPC verify sig failed!!!\");\n        }\n        delete mpc_map[mpc_id];\n        emit MPCClosed(mpc_id);\n    }\n}",
  "sourcePath": "/Users/xuxianli/work/blockchain/micropc/contracts/MultipartyChannel.sol",
  "compiler": {
    "name": "solc",
    "version": "0.6.0+commit.26b70077.Emscripten.clang"
  },
  "schemaVersion": "3.0.23",
  "updatedAt": "2020-03-03T03:03:54.152Z",
  "networkType": "ethereum",
  "devdoc": {
    "methods": {}
  },
  "userdoc": {
    "methods": {}
  }
}