{
  "contractName": "MultipartyChannel",
  "abi": [
    {
      "anonymous": false,
      "inputs": [
        {
          "indexed": false,
          "internalType": "uint256",
          "name": "mpc_id",
          "type": "uint256"
        }
      ],
      "name": "MPCClosed",
      "type": "event"
    },
    {
      "anonymous": false,
      "inputs": [
        {
          "indexed": false,
          "internalType": "uint256",
          "name": "id",
          "type": "uint256"
        },
        {
          "indexed": false,
          "internalType": "address[]",
          "name": "parties",
          "type": "address[]"
        },
        {
          "indexed": false,
          "internalType": "uint256[]",
          "name": "channels_id",
          "type": "uint256[]"
        }
      ],
      "name": "MPCCreateSuccess",
      "type": "event"
    },
    {
      "anonymous": false,
      "inputs": [
        {
          "components": [
            {
              "internalType": "uint256",
              "name": "channel_id",
              "type": "uint256"
            },
            {
              "internalType": "address",
              "name": "src",
              "type": "address"
            },
            {
              "internalType": "address",
              "name": "dst",
              "type": "address"
            },
            {
              "internalType": "uint256",
              "name": "new_ab",
              "type": "uint256"
            },
            {
              "internalType": "uint256",
              "name": "new_ba",
              "type": "uint256"
            }
          ],
          "indexed": false,
          "internalType": "struct MultipartyChannel.Transaction",
          "name": "t",
          "type": "tuple"
        }
      ],
      "name": "MPCTransactionError",
      "type": "event"
    },
    {
      "anonymous": false,
      "inputs": [],
      "name": "MPCUpdateSuccess",
      "type": "event"
    },
    {
      "anonymous": false,
      "inputs": [
        {
          "indexed": false,
          "internalType": "uint256",
          "name": "id",
          "type": "uint256"
        },
        {
          "indexed": false,
          "internalType": "address",
          "name": "alice",
          "type": "address"
        },
        {
          "indexed": false,
          "internalType": "address",
          "name": "bob",
          "type": "address"
        }
      ],
      "name": "TPCCloseChannel",
      "type": "event"
    },
    {
      "anonymous": false,
      "inputs": [
        {
          "indexed": false,
          "internalType": "uint256",
          "name": "id",
          "type": "uint256"
        },
        {
          "indexed": false,
          "internalType": "address",
          "name": "alice",
          "type": "address"
        },
        {
          "indexed": false,
          "internalType": "address",
          "name": "bob",
          "type": "address"
        },
        {
          "indexed": false,
          "internalType": "uint256",
          "name": "ab",
          "type": "uint256"
        },
        {
          "indexed": false,
          "internalType": "uint256",
          "name": "bb",
          "type": "uint256"
        }
      ],
      "name": "TPCOpenRequest",
      "type": "event"
    },
    {
      "anonymous": false,
      "inputs": [
        {
          "indexed": false,
          "internalType": "uint256",
          "name": "id",
          "type": "uint256"
        },
        {
          "indexed": false,
          "internalType": "address",
          "name": "alice",
          "type": "address"
        },
        {
          "indexed": false,
          "internalType": "address",
          "name": "bob",
          "type": "address"
        },
        {
          "indexed": false,
          "internalType": "uint256",
          "name": "ab",
          "type": "uint256"
        },
        {
          "indexed": false,
          "internalType": "uint256",
          "name": "bb",
          "type": "uint256"
        }
      ],
      "name": "TPCOpenSuccess",
      "type": "event"
    },
    {
      "anonymous": false,
      "inputs": [
        {
          "indexed": false,
          "internalType": "uint256",
          "name": "id",
          "type": "uint256"
        },
        {
          "indexed": false,
          "internalType": "address",
          "name": "addr",
          "type": "address"
        },
        {
          "indexed": false,
          "internalType": "uint256",
          "name": "token",
          "type": "uint256"
        }
      ],
      "name": "TPCSomeDeposit",
      "type": "event"
    },
    {
      "anonymous": false,
      "inputs": [
        {
          "indexed": false,
          "internalType": "uint256",
          "name": "id",
          "type": "uint256"
        },
        {
          "indexed": false,
          "internalType": "address",
          "name": "alice",
          "type": "address"
        },
        {
          "indexed": false,
          "internalType": "address",
          "name": "bob",
          "type": "address"
        },
        {
          "indexed": false,
          "internalType": "uint256",
          "name": "new_ab",
          "type": "uint256"
        },
        {
          "indexed": false,
          "internalType": "uint256",
          "name": "new_bb",
          "type": "uint256"
        }
      ],
      "name": "TPCUpdateSuccess",
      "type": "event"
    },
    {
      "inputs": [
        {
          "internalType": "uint256",
          "name": "id",
          "type": "uint256"
        },
        {
          "internalType": "uint256",
          "name": "version",
          "type": "uint256"
        },
        {
          "internalType": "bytes",
          "name": "sigA",
          "type": "bytes"
        },
        {
          "internalType": "bytes",
          "name": "sigB",
          "type": "bytes"
        }
      ],
      "name": "closeTPC",
      "outputs": [],
      "stateMutability": "payable",
      "type": "function",
      "payable": true
    },
    {
      "inputs": [
        {
          "internalType": "address payable",
          "name": "alice",
          "type": "address"
        },
        {
          "internalType": "address payable",
          "name": "bob",
          "type": "address"
        },
        {
          "internalType": "uint256",
          "name": "ab",
          "type": "uint256"
        },
        {
          "internalType": "uint256",
          "name": "bb",
          "type": "uint256"
        },
        {
          "internalType": "bytes",
          "name": "sigA",
          "type": "bytes"
        },
        {
          "internalType": "bytes",
          "name": "sigB",
          "type": "bytes"
        }
      ],
      "name": "createTPC",
      "outputs": [],
      "stateMutability": "payable",
      "type": "function",
      "payable": true
    },
    {
      "inputs": [
        {
          "internalType": "uint256",
          "name": "id",
          "type": "uint256"
        },
        {
          "internalType": "address",
          "name": "alice",
          "type": "address"
        },
        {
          "internalType": "address",
          "name": "bob",
          "type": "address"
        }
      ],
      "name": "deposit",
      "outputs": [
        {
          "internalType": "uint256",
          "name": "",
          "type": "uint256"
        }
      ],
      "stateMutability": "payable",
      "type": "function",
      "payable": true
    },
    {
      "inputs": [
        {
          "internalType": "uint256",
          "name": "id",
          "type": "uint256"
        }
      ],
      "name": "getChannel",
      "outputs": [
        {
          "components": [
            {
              "internalType": "address payable",
              "name": "alice",
              "type": "address"
            },
            {
              "internalType": "address payable",
              "name": "bob",
              "type": "address"
            },
            {
              "internalType": "uint256",
              "name": "alice_balance",
              "type": "uint256"
            },
            {
              "internalType": "uint256",
              "name": "bob_balance",
              "type": "uint256"
            },
            {
              "internalType": "uint256",
              "name": "version_num",
              "type": "uint256"
            },
            {
              "internalType": "bool",
              "name": "alice_deposited",
              "type": "bool"
            },
            {
              "internalType": "bool",
              "name": "bob_deposited",
              "type": "bool"
            },
            {
              "internalType": "bool",
              "name": "busy",
              "type": "bool"
            }
          ],
          "internalType": "struct SimplePaymentChannel.TPC",
          "name": "",
          "type": "tuple"
        }
      ],
      "stateMutability": "view",
      "type": "function",
      "constant": true
    },
    {
      "inputs": [
        {
          "internalType": "uint256",
          "name": "id",
          "type": "uint256"
        }
      ],
      "name": "getTPC",
      "outputs": [
        {
          "components": [
            {
              "internalType": "address payable",
              "name": "alice",
              "type": "address"
            },
            {
              "internalType": "address payable",
              "name": "bob",
              "type": "address"
            },
            {
              "internalType": "uint256",
              "name": "alice_balance",
              "type": "uint256"
            },
            {
              "internalType": "uint256",
              "name": "bob_balance",
              "type": "uint256"
            },
            {
              "internalType": "uint256",
              "name": "version_num",
              "type": "uint256"
            },
            {
              "internalType": "bool",
              "name": "alice_deposited",
              "type": "bool"
            },
            {
              "internalType": "bool",
              "name": "bob_deposited",
              "type": "bool"
            },
            {
              "internalType": "bool",
              "name": "busy",
              "type": "bool"
            }
          ],
          "internalType": "struct SimplePaymentChannel.TPC",
          "name": "",
          "type": "tuple"
        }
      ],
      "stateMutability": "view",
      "type": "function",
      "constant": true
    },
    {
      "inputs": [
        {
          "internalType": "uint256",
          "name": "",
          "type": "uint256"
        }
      ],
      "name": "mpc_map",
      "outputs": [
        {
          "internalType": "uint256",
          "name": "id",
          "type": "uint256"
        },
        {
          "internalType": "uint256",
          "name": "version_num",
          "type": "uint256"
        }
      ],
      "stateMutability": "view",
      "type": "function",
      "constant": true
    },
    {
      "inputs": [
        {
          "internalType": "uint256",
          "name": "",
          "type": "uint256"
        }
      ],
      "name": "tpc_map",
      "outputs": [
        {
          "internalType": "address payable",
          "name": "alice",
          "type": "address"
        },
        {
          "internalType": "address payable",
          "name": "bob",
          "type": "address"
        },
        {
          "internalType": "uint256",
          "name": "alice_balance",
          "type": "uint256"
        },
        {
          "internalType": "uint256",
          "name": "bob_balance",
          "type": "uint256"
        },
        {
          "internalType": "uint256",
          "name": "version_num",
          "type": "uint256"
        },
        {
          "internalType": "bool",
          "name": "alice_deposited",
          "type": "bool"
        },
        {
          "internalType": "bool",
          "name": "bob_deposited",
          "type": "bool"
        },
        {
          "internalType": "bool",
          "name": "busy",
          "type": "bool"
        }
      ],
      "stateMutability": "view",
      "type": "function",
      "constant": true
    },
    {
      "inputs": [
        {
          "internalType": "uint256",
          "name": "id",
          "type": "uint256"
        },
        {
          "internalType": "address",
          "name": "alice",
          "type": "address"
        },
        {
          "internalType": "address",
          "name": "bob",
          "type": "address"
        },
        {
          "internalType": "uint256",
          "name": "new_ab",
          "type": "uint256"
        },
        {
          "internalType": "uint256",
          "name": "new_bb",
          "type": "uint256"
        },
        {
          "internalType": "uint256",
          "name": "version",
          "type": "uint256"
        },
        {
          "internalType": "bytes",
          "name": "sigA",
          "type": "bytes"
        },
        {
          "internalType": "bytes",
          "name": "sigB",
          "type": "bytes"
        }
      ],
      "name": "updateTPC",
      "outputs": [],
      "stateMutability": "payable",
      "type": "function",
      "payable": true
    },
    {
      "inputs": [
        {
          "internalType": "address[]",
          "name": "parties",
          "type": "address[]"
        },
        {
          "internalType": "bytes[]",
          "name": "sigs",
          "type": "bytes[]"
        },
        {
          "internalType": "uint256[]",
          "name": "channels_id",
          "type": "uint256[]"
        }
      ],
      "name": "createMPC",
      "outputs": [
        {
          "internalType": "uint256",
          "name": "",
          "type": "uint256"
        }
      ],
      "stateMutability": "nonpayable",
      "type": "function"
    },
    {
      "inputs": [
        {
          "internalType": "uint256",
          "name": "mpc_id",
          "type": "uint256"
        },
        {
          "components": [
            {
              "internalType": "uint256",
              "name": "channel_id",
              "type": "uint256"
            },
            {
              "internalType": "address",
              "name": "src",
              "type": "address"
            },
            {
              "internalType": "address",
              "name": "dst",
              "type": "address"
            },
            {
              "internalType": "uint256",
              "name": "new_ab",
              "type": "uint256"
            },
            {
              "internalType": "uint256",
              "name": "new_ba",
              "type": "uint256"
            }
          ],
          "internalType": "struct MultipartyChannel.Transaction[]",
          "name": "txs",
          "type": "tuple[]"
        },
        {
          "internalType": "string",
          "name": "msgstr",
          "type": "string"
        },
        {
          "internalType": "uint256",
          "name": "version",
          "type": "uint256"
        },
        {
          "internalType": "bytes[]",
          "name": "sigs",
          "type": "bytes[]"
        }
      ],
      "name": "updateMPC",
      "outputs": [],
      "stateMutability": "nonpayable",
      "type": "function"
    },
    {
      "inputs": [
        {
          "internalType": "uint256",
          "name": "mpc_id",
          "type": "uint256"
        },
        {
          "internalType": "uint256",
          "name": "version",
          "type": "uint256"
        },
        {
          "internalType": "bytes[]",
          "name": "sigs",
          "type": "bytes[]"
        }
      ],
      "name": "closeMPC",
      "outputs": [],
      "stateMutability": "nonpayable",
      "type": "function"
    }
  ],
  "bytecode": "0x608060405260405162000012906200008d565b604051809103906000f0801580156200002f573d6000803e3d6000fd5b506000806101000a81548173ffffffffffffffffffffffffffffffffffffffff021916908373ffffffffffffffffffffffffffffffffffffffff160217905550600160025560006008553480156200008657600080fd5b506200009b565b61033e806200430283390190565b61425780620000ab6000396000f3fe60806040526004361061009c5760003560e01c806355eb70221161006457806355eb7022146101a5578063851dc276146101c157806397a5ecf8146101fe578063b245953314610227578063b2fae2d414610243578063e6ca4b141461026c5761009c565b806302a5a56f146100a157806306e78f82146100bd57806310df54a0146100fb5780632e2d2984146101385780635266538814610168575b600080fd5b6100bb60048036036100b69190810190612ffe565b6102b0565b005b3480156100c957600080fd5b506100e460048036036100df9190810190612f86565b6107aa565b6040516100f2929190613fc3565b60405180910390f35b34801561010757600080fd5b50610122600480360361011d9190810190612f86565b6107ce565b60405161012f9190613e2f565b60405180910390f35b610152600480360361014d9190810190612faf565b610917565b60405161015f9190613e4b565b60405180910390f35b34801561017457600080fd5b5061018f600480360361018a9190810190612e90565b610bd0565b60405161019c9190613e4b565b60405180910390f35b6101bf60048036036101ba9190810190612dcd565b611011565b005b3480156101cd57600080fd5b506101e860048036036101e39190810190612f86565b6115d1565b6040516101f59190613e2f565b60405180910390f35b34801561020a57600080fd5b50610225600480360361022091908101906131b5565b61171a565b005b610241600480360361023c9190810190613221565b611ad6565b005b34801561024f57600080fd5b5061026a600480360361026591908101906130e9565b61219f565b005b34801561027857600080fd5b50610293600480360361028e9190810190612f86565b61268e565b6040516102a7989796959493929190613af6565b60405180910390f35b60001515600160008c815260200190815260200160002060050160029054906101000a900460ff1615151461031a576040517f08c379a000000000000000000000000000000000000000000000000000000000815260040161031190613d2f565b60405180910390fd5b8873ffffffffffffffffffffffffffffffffffffffff163373ffffffffffffffffffffffffffffffffffffffff16148061037f57508773ffffffffffffffffffffffffffffffffffffffff163373ffffffffffffffffffffffffffffffffffffffff16145b6103be576040517f08c379a00000000000000000000000000000000000000000000000000000000081526004016103b590613d8f565b60405180910390fd5b858701600160008c815260200190815260200160002060030154600160008d8152602001908152602001600020600201540114610430576040517f08c379a000000000000000000000000000000000000000000000000000000000815260040161042790613ccf565b60405180910390fd5b60008060009054906101000a900473ffffffffffffffffffffffffffffffffffffffff1673ffffffffffffffffffffffffffffffffffffffff16631f2757138b8b8e8c8c8c60405160200161048a969594939291906139b7565b604051602081830303815290604052805190602001206040518263ffffffff1660e01b81526004016104bc9190613c34565b60206040518083038186803b1580156104d457600080fd5b505afa1580156104e8573d6000803e3d6000fd5b505050506040513d601f19601f8201168201806040525061050c9190810190612f5d565b9050600160008c8152602001908152602001600020600401548611610566576040517f08c379a000000000000000000000000000000000000000000000000000000000815260040161055d90613dcf565b60405180910390fd5b6000809054906101000a900473ffffffffffffffffffffffffffffffffffffffff1673ffffffffffffffffffffffffffffffffffffffff16631a86b5508b8388886040518563ffffffff1660e01b81526004016105c69493929190613bf4565b60206040518083038186803b1580156105de57600080fd5b505afa1580156105f2573d6000803e3d6000fd5b505050506040513d601f19601f820116820180604052506106169190810190612f34565b80156106ce57506000809054906101000a900473ffffffffffffffffffffffffffffffffffffffff1673ffffffffffffffffffffffffffffffffffffffff16631a86b5508a8386866040518563ffffffff1660e01b815260040161067d9493929190613bf4565b60206040518083038186803b15801561069557600080fd5b505afa1580156106a9573d6000803e3d6000fd5b505050506040513d601f19601f820116820180604052506106cd9190810190612f34565b5b61070d576040517f08c379a000000000000000000000000000000000000000000000000000000000815260040161070490613d0f565b60405180910390fd5b87600160008d81526020019081526020016000206002018190555086600160008d81526020019081526020016000206003018190555085600160008d8152602001908152602001600020600401819055507f360021256038e7800042bd766ba4b42429d89cd49327ec22493810c1996ad5068b8b8b8b8b604051610795959493929190613ef0565b60405180910390a15050505050505050505050565b60036020528060005260406000206000915090508060000154908060030154905082565b6107d66128cd565b60016000838152602001908152602001600020604051806101000160405290816000820160009054906101000a900473ffffffffffffffffffffffffffffffffffffffff1673ffffffffffffffffffffffffffffffffffffffff1673ffffffffffffffffffffffffffffffffffffffff1681526020016001820160009054906101000a900473ffffffffffffffffffffffffffffffffffffffff1673ffffffffffffffffffffffffffffffffffffffff1673ffffffffffffffffffffffffffffffffffffffff1681526020016002820154815260200160038201548152602001600482015481526020016005820160009054906101000a900460ff161515151581526020016005820160019054906101000a900460ff161515151581526020016005820160029054906101000a900460ff1615151515815250509050919050565b60006001600085815260200190815260200160002060000160009054906101000a900473ffffffffffffffffffffffffffffffffffffffff1673ffffffffffffffffffffffffffffffffffffffff163373ffffffffffffffffffffffffffffffffffffffff161415610a0c57346001600086815260200190815260200160002060020181905550600180600086815260200190815260200160002060050160006101000a81548160ff0219169083151502179055507fe84eba7ab097914da75daebb57b4481a5b1fd4f04954e8c8cda4aaa6b45a3f738484346040516109ff93929190613f43565b60405180910390a1610afc565b6001600085815260200190815260200160002060010160009054906101000a900473ffffffffffffffffffffffffffffffffffffffff1673ffffffffffffffffffffffffffffffffffffffff163373ffffffffffffffffffffffffffffffffffffffff161415610afb57346001600086815260200190815260200160002060030181905550600180600086815260200190815260200160002060050160016101000a81548160ff0219169083151502179055507fe84eba7ab097914da75daebb57b4481a5b1fd4f04954e8c8cda4aaa6b45a3f73848334604051610af293929190613f43565b60405180910390a15b5b6001600085815260200190815260200160002060050160009054906101000a900460ff168015610b4c57506001600085815260200190815260200160002060050160019054906101000a900460ff165b15610bc4577fd92bbbac63272d0256172b5e8fec52c552e082cbd4df853483b5b6ccf1c14d438484846001600089815260200190815260200160002060020154600160008a815260200190815260200160002060030154604051610bb4959493929190613ef0565b60405180910390a1839050610bc9565b600090505b9392505050565b600080600090505b87879050811015610e525760008060009054906101000a900473ffffffffffffffffffffffffffffffffffffffff1673ffffffffffffffffffffffffffffffffffffffff16631f2757138a8a85818110610c2e57fe5b9050602002016020610c439190810190612da4565b604051602001610c53919061399c565b604051602081830303815290604052805190602001206040518263ffffffff1660e01b8152600401610c859190613c34565b60206040518083038186803b158015610c9d57600080fd5b505afa158015610cb1573d6000803e3d6000fd5b505050506040513d601f19601f82011682018060405250610cd59190810190612f5d565b90506000809054906101000a900473ffffffffffffffffffffffffffffffffffffffff1673ffffffffffffffffffffffffffffffffffffffff16631a86b5508a8a85818110610d2057fe5b9050602002016020610d359190810190612da4565b838a8a87818110610d4257fe5b9050602002810180356001602003833603038112610d5f57600080fd5b8083019250508135905060208201915067ffffffffffffffff811115610d8457600080fd5b600181023603821315610d9657600080fd5b6040518563ffffffff1660e01b8152600401610db59493929190613bb4565b60206040518083038186803b158015610dcd57600080fd5b505afa158015610de1573d6000803e3d6000fd5b505050506040513d601f19601f82011682018060405250610e059190810190612f34565b610e44576040517f08c379a0000000000000000000000000000000000000000000000000000000008152600401610e3b90613daf565b60405180910390fd5b508080600101915050610bd8565b5060008090505b83839050811015610f0b57610e7f848483818110610e7357fe5b9050602002013561273d565b610ebe576040517f08c379a0000000000000000000000000000000000000000000000000000000008152600401610eb590613c4f565b60405180910390fd5b6001806000868685818110610ecf57fe5b90506020020135815260200190815260200160002060050160026101000a81548160ff0219169083151502179055508080600101915050610e59565b50600160085401600460000181905550600160085401600881905550868660046001019190610f3b929190612944565b50828260046002019190610f509291906129e4565b5060006004600301819055506004600360006004600001548152602001908152602001600020600082015481600001556001820181600101908054610f96929190612a31565b506002820181600201908054610fad929190612a83565b50600382015481600301559050507f335a0a14c99993cd931420c0c93e1fd4bff2edeef690b1542afa560cc98b810260046000015488888686604051610ff7959493929190613f7a565b60405180910390a160046000015490509695505050505050565b60606040518060400160405280600c81526020017f6372656174652061205450430000000000000000000000000000000000000000815250905060008060009054906101000a900473ffffffffffffffffffffffffffffffffffffffff1673ffffffffffffffffffffffffffffffffffffffff16631f275713838c8c8c8c6040516020016110a3959493929190613a62565b604051602081830303815290604052805190602001206040518263ffffffff1660e01b81526004016110d59190613c34565b60206040518083038186803b1580156110ed57600080fd5b505afa158015611101573d6000803e3d6000fd5b505050506040513d601f19601f820116820180604052506111259190810190612f5d565b90508973ffffffffffffffffffffffffffffffffffffffff163373ffffffffffffffffffffffffffffffffffffffff16148061118c57508873ffffffffffffffffffffffffffffffffffffffff163373ffffffffffffffffffffffffffffffffffffffff16145b6111cb576040517f08c379a00000000000000000000000000000000000000000000000000000000081526004016111c290613e0f565b60405180910390fd5b6000809054906101000a900473ffffffffffffffffffffffffffffffffffffffff1673ffffffffffffffffffffffffffffffffffffffff16631a86b5508b8389896040518563ffffffff1660e01b815260040161122b9493929190613b74565b60206040518083038186803b15801561124357600080fd5b505afa158015611257573d6000803e3d6000fd5b505050506040513d601f19601f8201168201806040525061127b9190810190612f34565b801561133357506000809054906101000a900473ffffffffffffffffffffffffffffffffffffffff1673ffffffffffffffffffffffffffffffffffffffff16631a86b5508a8387876040518563ffffffff1660e01b81526004016112e29493929190613b74565b60206040518083038186803b1580156112fa57600080fd5b505afa15801561130e573d6000803e3d6000fd5b505050506040513d601f19601f820116820180604052506113329190810190612f34565b5b611372576040517f08c379a000000000000000000000000000000000000000000000000000000000815260040161136990613d0f565b60405180910390fd5b61137a6128cd565b8a816000019073ffffffffffffffffffffffffffffffffffffffff16908173ffffffffffffffffffffffffffffffffffffffff168152505089816020019073ffffffffffffffffffffffffffffffffffffffff16908173ffffffffffffffffffffffffffffffffffffffff1681525050600081608001818152505060008160a001901515908115158152505060008160c001901515908115158152505060008160e001901515908115158152505060008160a001901515908115158152505060008160c001901515908115158152505060006002549050816001600083815260200190815260200160002060008201518160000160006101000a81548173ffffffffffffffffffffffffffffffffffffffff021916908373ffffffffffffffffffffffffffffffffffffffff16021790555060208201518160010160006101000a81548173ffffffffffffffffffffffffffffffffffffffff021916908373ffffffffffffffffffffffffffffffffffffffff16021790555060408201518160020155606082015181600301556080820151816004015560a08201518160050160006101000a81548160ff02191690831515021790555060c08201518160050160016101000a81548160ff02191690831515021790555060e08201518160050160026101000a81548160ff02191690831515021790555090505060016002600082825401925050819055507e12dcff0c9c2fabb23155dfd13ef15c1b472007879c2a43805b151fa3e7a61e818d8d8d8d6040516115bb959493929190613e9d565b60405180910390a1505050505050505050505050565b6115d96128cd565b60016000838152602001908152602001600020604051806101000160405290816000820160009054906101000a900473ffffffffffffffffffffffffffffffffffffffff1673ffffffffffffffffffffffffffffffffffffffff1673ffffffffffffffffffffffffffffffffffffffff1681526020016001820160009054906101000a900473ffffffffffffffffffffffffffffffffffffffff1673ffffffffffffffffffffffffffffffffffffffff1673ffffffffffffffffffffffffffffffffffffffff1681526020016002820154815260200160038201548152602001600482015481526020016005820160009054906101000a900460ff161515151581526020016005820160019054906101000a900460ff161515151581526020016005820160029054906101000a900460ff1615151515815250509050919050565b82600360008681526020019081526020016000206003015414611772576040517f08c379a000000000000000000000000000000000000000000000000000000000815260040161176990613c6f565b60405180910390fd5b60606040518060400160405280600d81526020017f636c6f736520746865204d504300000000000000000000000000000000000000815250905060008060009054906101000a900473ffffffffffffffffffffffffffffffffffffffff1673ffffffffffffffffffffffffffffffffffffffff16631f27571383888860405160200161180093929190613abd565b604051602081830303815290604052805190602001206040518263ffffffff1660e01b81526004016118329190613c34565b60206040518083038186803b15801561184a57600080fd5b505afa15801561185e573d6000803e3d6000fd5b505050506040513d601f19601f820116820180604052506118829190810190612f5d565b905060008090505b6003600088815260200190815260200160002060010180549050811015611a50576000809054906101000a900473ffffffffffffffffffffffffffffffffffffffff1673ffffffffffffffffffffffffffffffffffffffff16631a86b550600360008a8152602001908152602001600020600101838154811061190957fe5b9060005260206000200160009054906101000a900473ffffffffffffffffffffffffffffffffffffffff168488888681811061194157fe5b905060200281018035600160200383360303811261195e57600080fd5b8083019250508135905060208201915067ffffffffffffffff81111561198357600080fd5b60018102360382131561199557600080fd5b6040518563ffffffff1660e01b81526004016119b49493929190613bb4565b60206040518083038186803b1580156119cc57600080fd5b505afa1580156119e0573d6000803e3d6000fd5b505050506040513d601f19601f82011682018060405250611a049190810190612f34565b611a43576040517f08c379a0000000000000000000000000000000000000000000000000000000008152600401611a3a90613d6f565b60405180910390fd5b808060010191505061188a565b5060036000878152602001908152602001600020600080820160009055600182016000611a7d9190612ad5565b600282016000611a8d9190612af6565b600382016000905550507fcf38d3653965a88e4633f795de9aa236602765678ab7ed0d802a4e40282e935686604051611ac69190613e4b565b60405180910390a1505050505050565b611ade6128cd565b60016000888152602001908152602001600020604051806101000160405290816000820160009054906101000a900473ffffffffffffffffffffffffffffffffffffffff1673ffffffffffffffffffffffffffffffffffffffff1673ffffffffffffffffffffffffffffffffffffffff1681526020016001820160009054906101000a900473ffffffffffffffffffffffffffffffffffffffff1673ffffffffffffffffffffffffffffffffffffffff1673ffffffffffffffffffffffffffffffffffffffff1681526020016002820154815260200160038201548152602001600482015481526020016005820160009054906101000a900460ff161515151581526020016005820160019054906101000a900460ff161515151581526020016005820160029054906101000a900460ff1615151515815250509050806000015173ffffffffffffffffffffffffffffffffffffffff163373ffffffffffffffffffffffffffffffffffffffff161480611c875750806020015173ffffffffffffffffffffffffffffffffffffffff163373ffffffffffffffffffffffffffffffffffffffff16145b611cc6576040517f08c379a0000000000000000000000000000000000000000000000000000000008152600401611cbd90613cef565b60405180910390fd5b60606040518060400160405280600d81526020017f636c6f7365207468652054504300000000000000000000000000000000000000815250905060008060009054906101000a900473ffffffffffffffffffffffffffffffffffffffff1673ffffffffffffffffffffffffffffffffffffffff16631f275713838b8b604051602001611d5493929190613abd565b604051602081830303815290604052805190602001206040518263ffffffff1660e01b8152600401611d869190613c34565b60206040518083038186803b158015611d9e57600080fd5b505afa158015611db2573d6000803e3d6000fd5b505050506040513d601f19601f82011682018060405250611dd69190810190612f5d565b9050600160008a8152602001908152602001600020600401548814611e30576040517f08c379a0000000000000000000000000000000000000000000000000000000008152600401611e2790613d4f565b60405180910390fd5b6000600160008b81526020019081526020016000206004015490506000809054906101000a900473ffffffffffffffffffffffffffffffffffffffff1673ffffffffffffffffffffffffffffffffffffffff16631a86b5508560000151848b8b6040518563ffffffff1660e01b8152600401611eaf9493929190613b74565b60206040518083038186803b158015611ec757600080fd5b505afa158015611edb573d6000803e3d6000fd5b505050506040513d601f19601f82011682018060405250611eff9190810190612f34565b8015611fbb57506000809054906101000a900473ffffffffffffffffffffffffffffffffffffffff1673ffffffffffffffffffffffffffffffffffffffff16631a86b55085602001518489896040518563ffffffff1660e01b8152600401611f6a9493929190613b74565b60206040518083038186803b158015611f8257600080fd5b505afa158015611f96573d6000803e3d6000fd5b505050506040513d601f19601f82011682018060405250611fba9190810190612f34565b5b611ffa576040517f08c379a0000000000000000000000000000000000000000000000000000000008152600401611ff190613d0f565b60405180910390fd5b836000015173ffffffffffffffffffffffffffffffffffffffff166108fc85604001519081150290604051600060405180830381858888f19350505050158015612048573d6000803e3d6000fd5b50836020015173ffffffffffffffffffffffffffffffffffffffff166108fc85606001519081150290604051600060405180830381858888f19350505050158015612097573d6000803e3d6000fd5b50600160008b8152602001908152602001600020600080820160006101000a81549073ffffffffffffffffffffffffffffffffffffffff02191690556001820160006101000a81549073ffffffffffffffffffffffffffffffffffffffff02191690556002820160009055600382016000905560048201600090556005820160006101000a81549060ff02191690556005820160016101000a81549060ff02191690556005820160026101000a81549060ff021916905550507fc399f7691b325c207a412cae4b10a6cb4279589d0c49474b7901a02f33d214e5818560000151866020015160405161218b93929190613e66565b60405180910390a150505050505050505050565b8260036000600460000154815260200190815260200160002060030154106121fc576040517f08c379a00000000000000000000000000000000000000000000000000000000081526004016121f390613def565b60405180910390fd5b60008090505b600360008a8152602001908152602001600020600101805490508110156124ee5760008060009054906101000a900473ffffffffffffffffffffffffffffffffffffffff1673ffffffffffffffffffffffffffffffffffffffff16631f2757138888600360008f8152602001908152602001600020600101868154811061228557fe5b9060005260206000200160009054906101000a900473ffffffffffffffffffffffffffffffffffffffff16896040516020016122c49493929190613a27565b604051602081830303815290604052805190602001206040518263ffffffff1660e01b81526004016122f69190613c34565b60206040518083038186803b15801561230e57600080fd5b505afa158015612322573d6000803e3d6000fd5b505050506040513d601f19601f820116820180604052506123469190810190612f5d565b90506000809054906101000a900473ffffffffffffffffffffffffffffffffffffffff1673ffffffffffffffffffffffffffffffffffffffff16631a86b550600360008d815260200190815260200160002060010184815481106123a657fe5b9060005260206000200160009054906101000a900473ffffffffffffffffffffffffffffffffffffffff16838787878181106123de57fe5b90506020028101803560016020038336030381126123fb57600080fd5b8083019250508135905060208201915067ffffffffffffffff81111561242057600080fd5b60018102360382131561243257600080fd5b6040518563ffffffff1660e01b81526004016124519493929190613bb4565b60206040518083038186803b15801561246957600080fd5b505afa15801561247d573d6000803e3d6000fd5b505050506040513d601f19601f820116820180604052506124a19190810190612f34565b6124e0576040517f08c379a00000000000000000000000000000000000000000000000000000000081526004016124d790613caf565b60405180910390fd5b508080600101915050612202565b5060008090505b878790508110156125d35787878281811061250c57fe5b905060a002016080013588888381811061252257fe5b905060a002016060013501600160008a8a8581811061253d57fe5b905060a0020160000135815260200190815260200160002060030154600160008b8b8681811061256957fe5b905060a002016000013581526020019081526020016000206002015401146125c6576040517f08c379a00000000000000000000000000000000000000000000000000000000081526004016125bd90613c8f565b60405180910390fd5b80806001019150506124f5565b5060008090505b8787905081101561263c5761262f8888838181106125f457fe5b905060a002016000013589898481811061260a57fe5b905060a00201606001358a8a8581811061262057fe5b905060a0020160800135612892565b80806001019150506125da565b5082600360008a8152602001908152602001600020600301819055507f7b3b5256241f99d7d02bc06f78c5d9940fd7701c2526576cda444ad773c45cb460405160405180910390a15050505050505050565b60016020528060005260406000206000915090508060000160009054906101000a900473ffffffffffffffffffffffffffffffffffffffff16908060010160009054906101000a900473ffffffffffffffffffffffffffffffffffffffff16908060020154908060030154908060040154908060050160009054906101000a900460ff16908060050160019054906101000a900460ff16908060050160029054906101000a900460ff16905088565b60008073ffffffffffffffffffffffffffffffffffffffff166001600084815260200190815260200160002060000160009054906101000a900473ffffffffffffffffffffffffffffffffffffffff1673ffffffffffffffffffffffffffffffffffffffff16141580156128145750600073ffffffffffffffffffffffffffffffffffffffff166001600084815260200190815260200160002060010160009054906101000a900473ffffffffffffffffffffffffffffffffffffffff1673ffffffffffffffffffffffffffffffffffffffff1614155b80156128475750600115156001600084815260200190815260200160002060050160009054906101000a900460ff161515145b801561287a5750600115156001600084815260200190815260200160002060050160019054906101000a900460ff161515145b15612888576001905061288d565b600090505b919050565b816001600085815260200190815260200160002060020181905550806001600085815260200190815260200160002060030181905550505050565b604051806101000160405280600073ffffffffffffffffffffffffffffffffffffffff168152602001600073ffffffffffffffffffffffffffffffffffffffff1681526020016000815260200160008152602001600081526020016000151581526020016000151581526020016000151581525090565b8280548282559060005260206000209081019282156129d3579160200282015b828111156129d257823573ffffffffffffffffffffffffffffffffffffffff168260006101000a81548173ffffffffffffffffffffffffffffffffffffffff021916908373ffffffffffffffffffffffffffffffffffffffff16021790555091602001919060010190612964565b5b5090506129e09190612b17565b5090565b828054828255906000526020600020908101928215612a20579160200282015b82811115612a1f578235825591602001919060010190612a04565b5b509050612a2d9190612b5a565b5090565b828054828255906000526020600020908101928215612a725760005260206000209182015b82811115612a71578254825591600101919060010190612a56565b5b509050612a7f9190612b17565b5090565b828054828255906000526020600020908101928215612ac45760005260206000209182015b82811115612ac3578254825591600101919060010190612aa8565b5b509050612ad19190612b5a565b5090565b5080546000825590600052602060002090810190612af39190612b5a565b50565b5080546000825590600052602060002090810190612b149190612b5a565b50565b612b5791905b80821115612b5357600081816101000a81549073ffffffffffffffffffffffffffffffffffffffff021916905550600101612b1d565b5090565b90565b612b7c91905b80821115612b78576000816000905550600101612b60565b5090565b90565b600081359050612b8e816141ae565b92915050565b600081359050612ba3816141c5565b92915050565b60008083601f840112612bbb57600080fd5b8235905067ffffffffffffffff811115612bd457600080fd5b602083019150836020820283011115612bec57600080fd5b9250929050565b60008083601f840112612c0557600080fd5b8235905067ffffffffffffffff811115612c1e57600080fd5b602083019150836020820283011115612c3657600080fd5b9250929050565b60008083601f840112612c4f57600080fd5b8235905067ffffffffffffffff811115612c6857600080fd5b6020830191508360a0820283011115612c8057600080fd5b9250929050565b60008083601f840112612c9957600080fd5b8235905067ffffffffffffffff811115612cb257600080fd5b602083019150836020820283011115612cca57600080fd5b9250929050565b600081519050612ce0816141dc565b92915050565b600081519050612cf5816141f3565b92915050565b60008083601f840112612d0d57600080fd5b8235905067ffffffffffffffff811115612d2657600080fd5b602083019150836001820283011115612d3e57600080fd5b9250929050565b60008083601f840112612d5757600080fd5b8235905067ffffffffffffffff811115612d7057600080fd5b602083019150836001820283011115612d8857600080fd5b9250929050565b600081359050612d9e8161420a565b92915050565b600060208284031215612db657600080fd5b6000612dc484828501612b7f565b91505092915050565b60008060008060008060008060c0898b031215612de957600080fd5b6000612df78b828c01612b94565b9850506020612e088b828c01612b94565b9750506040612e198b828c01612d8f565b9650506060612e2a8b828c01612d8f565b955050608089013567ffffffffffffffff811115612e4757600080fd5b612e538b828c01612cfb565b945094505060a089013567ffffffffffffffff811115612e7257600080fd5b612e7e8b828c01612cfb565b92509250509295985092959890939650565b60008060008060008060608789031215612ea957600080fd5b600087013567ffffffffffffffff811115612ec357600080fd5b612ecf89828a01612ba9565b9650965050602087013567ffffffffffffffff811115612eee57600080fd5b612efa89828a01612bf3565b9450945050604087013567ffffffffffffffff811115612f1957600080fd5b612f2589828a01612c87565b92509250509295509295509295565b600060208284031215612f4657600080fd5b6000612f5484828501612cd1565b91505092915050565b600060208284031215612f6f57600080fd5b6000612f7d84828501612ce6565b91505092915050565b600060208284031215612f9857600080fd5b6000612fa684828501612d8f565b91505092915050565b600080600060608486031215612fc457600080fd5b6000612fd286828701612d8f565b9350506020612fe386828701612b7f565b9250506040612ff486828701612b7f565b9150509250925092565b6000806000806000806000806000806101008b8d03121561301e57600080fd5b600061302c8d828e01612d8f565b9a5050602061303d8d828e01612b7f565b995050604061304e8d828e01612b7f565b985050606061305f8d828e01612d8f565b97505060806130708d828e01612d8f565b96505060a06130818d828e01612d8f565b95505060c08b013567ffffffffffffffff81111561309e57600080fd5b6130aa8d828e01612cfb565b945094505060e08b013567ffffffffffffffff8111156130c957600080fd5b6130d58d828e01612cfb565b92509250509295989b9194979a5092959850565b60008060008060008060008060a0898b03121561310557600080fd5b60006131138b828c01612d8f565b985050602089013567ffffffffffffffff81111561313057600080fd5b61313c8b828c01612c3d565b9750975050604089013567ffffffffffffffff81111561315b57600080fd5b6131678b828c01612d45565b9550955050606061317a8b828c01612d8f565b935050608089013567ffffffffffffffff81111561319757600080fd5b6131a38b828c01612bf3565b92509250509295985092959890939650565b600080600080606085870312156131cb57600080fd5b60006131d987828801612d8f565b94505060206131ea87828801612d8f565b935050604085013567ffffffffffffffff81111561320757600080fd5b61321387828801612bf3565b925092505092959194509250565b6000806000806000806080878903121561323a57600080fd5b600061324889828a01612d8f565b965050602061325989828a01612d8f565b955050604087013567ffffffffffffffff81111561327657600080fd5b61328289828a01612cfb565b9450945050606087013567ffffffffffffffff8111156132a157600080fd5b6132ad89828a01612cfb565b92509250509295509295509295565b60006132c88383613318565b60208301905092915050565b6132dd816140d8565b82525050565b6132ec81614086565b82525050565b6132fb81614086565b82525050565b61331261330d82614086565b614162565b82525050565b61332181614074565b82525050565b61333081614074565b82525050565b61334761334282614074565b614150565b82525050565b6000613359838561400e565b935061336482613fec565b8060005b8581101561339d5761337a828461405d565b61338488826132bc565b975061338f83614001565b925050600181019050613368565b5085925050509392505050565b60006133b6838561401f565b93507f07ffffffffffffffffffffffffffffffffffffffffffffffffffffffffffffff8311156133e557600080fd5b6020830292506133f683858461410e565b82840190509392505050565b61340b81614098565b82525050565b61341a81614098565b82525050565b613429816140a4565b82525050565b600061343b8385614030565b935061344883858461410e565b61345183614190565b840190509392505050565b60006134688385614030565b935061347583858461410e565b61347e83614190565b840190509392505050565b60006134958385614052565b93506134a283858461410e565b82840190509392505050565b60006134b982613ff6565b6134c38185614052565b93506134d381856020860161411d565b80840191505092915050565b60006134ec602083614041565b91507f6372656174654d504320766572696679206368616e6e656c206661696c6564216000830152602082019050919050565b600061352c601783614041565b91507f636c6f73654d50433a2077726f6e672076657273696f6e0000000000000000006000830152602082019050919050565b600061356c601883614041565b91507f7570646174654d50433a2062616c616e6365206572726f7200000000000000006000830152602082019050919050565b60006135ac601f83614041565b91507f7570646174654d50433a2076657269667920736967206661696c6564212121006000830152602082019050919050565b60006135ec600d83614041565b91507f62616c616e6365206572726f72000000000000000000000000000000000000006000830152602082019050919050565b600061362c601683614041565b91507f636c6f73655450433a2077726f6e672073656e646572000000000000000000006000830152602082019050919050565b600061366c600e83614041565b91507f766572696679206661696c6564210000000000000000000000000000000000006000830152602082019050919050565b60006136ac600f83614041565b91507f74686520545043206973206275737900000000000000000000000000000000006000830152602082019050919050565b60006136ec601b83614041565b91507f636c6f73655450433a2076657273696f6e206e6f7420657175616c00000000006000830152602082019050919050565b600061372c601d83614041565b91507f636c6f73654d50432076657269667920736967206661696c65642121210000006000830152602082019050919050565b600061376c600c83614041565b91507f73656e646572206572726f7200000000000000000000000000000000000000006000830152602082019050919050565b60006137ac602083614041565b91507f6372656174654d5043207665726966792070617274696573206661696c6564216000830152602082019050919050565b60006137ec602383614041565b91507f76657273696f6e206e756d206c6974746572207468616e206c6173746573742060008301527f6f6e6500000000000000000000000000000000000000000000000000000000006020830152604082019050919050565b6000613852601883614041565b91507f7570646174654d50433a2076657273696f6e206572726f7200000000000000006000830152602082019050919050565b6000613892601783614041565b91507f6372656174655450433a2077726f6e672073656e6465720000000000000000006000830152602082019050919050565b610100820160008201516138dc60008501826132e3565b5060208201516138ef60208501826132e3565b5060408201516139026040850182613967565b5060608201516139156060850182613967565b5060808201516139286080850182613967565b5060a082015161393b60a0850182613402565b5060c082015161394e60c0850182613402565b5060e082015161396160e0850182613402565b50505050565b613970816140ce565b82525050565b61397f816140ce565b82525050565b613996613991826140ce565b614186565b82525050565b60006139a88284613336565b60148201915081905092915050565b60006139c38289613336565b6014820191506139d38288613336565b6014820191506139e38287613985565b6020820191506139f38286613985565b602082019150613a038285613985565b602082019150613a138284613985565b602082019150819050979650505050505050565b6000613a34828688613489565b9150613a408285613336565b601482019150613a508284613985565b60208201915081905095945050505050565b6000613a6e82886134ae565b9150613a7a8287613301565b601482019150613a8a8286613301565b601482019150613a9a8285613985565b602082019150613aaa8284613985565b6020820191508190509695505050505050565b6000613ac982866134ae565b9150613ad58285613985565b602082019150613ae58284613985565b602082019150819050949350505050565b600061010082019050613b0c600083018b6132f2565b613b19602083018a6132f2565b613b266040830189613976565b613b336060830188613976565b613b406080830187613976565b613b4d60a0830186613411565b613b5a60c0830185613411565b613b6760e0830184613411565b9998505050505050505050565b6000606082019050613b8960008301876132d4565b613b966020830186613420565b8181036040830152613ba981848661342f565b905095945050505050565b6000606082019050613bc96000830187613327565b613bd66020830186613420565b8181036040830152613be981848661345c565b905095945050505050565b6000606082019050613c096000830187613327565b613c166020830186613420565b8181036040830152613c2981848661342f565b905095945050505050565b6000602082019050613c496000830184613420565b92915050565b60006020820190508181036000830152613c68816134df565b9050919050565b60006020820190508181036000830152613c888161351f565b9050919050565b60006020820190508181036000830152613ca88161355f565b9050919050565b60006020820190508181036000830152613cc88161359f565b9050919050565b60006020820190508181036000830152613ce8816135df565b9050919050565b60006020820190508181036000830152613d088161361f565b9050919050565b60006020820190508181036000830152613d288161365f565b9050919050565b60006020820190508181036000830152613d488161369f565b9050919050565b60006020820190508181036000830152613d68816136df565b9050919050565b60006020820190508181036000830152613d888161371f565b9050919050565b60006020820190508181036000830152613da88161375f565b9050919050565b60006020820190508181036000830152613dc88161379f565b9050919050565b60006020820190508181036000830152613de8816137df565b9050919050565b60006020820190508181036000830152613e0881613845565b9050919050565b60006020820190508181036000830152613e2881613885565b9050919050565b600061010082019050613e4560008301846138c5565b92915050565b6000602082019050613e606000830184613976565b92915050565b6000606082019050613e7b6000830186613976565b613e8860208301856132d4565b613e9560408301846132d4565b949350505050565b600060a082019050613eb26000830188613976565b613ebf60208301876132d4565b613ecc60408301866132d4565b613ed96060830185613976565b613ee66080830184613976565b9695505050505050565b600060a082019050613f056000830188613976565b613f126020830187613327565b613f1f6040830186613327565b613f2c6060830185613976565b613f396080830184613976565b9695505050505050565b6000606082019050613f586000830186613976565b613f656020830185613327565b613f726040830184613976565b949350505050565b6000606082019050613f8f6000830188613976565b8181036020830152613fa281868861334d565b90508181036040830152613fb78184866133aa565b90509695505050505050565b6000604082019050613fd86000830185613976565b613fe56020830184613976565b9392505050565b6000819050919050565b600081519050919050565b6000602082019050919050565b600082825260208201905092915050565b600082825260208201905092915050565b600082825260208201905092915050565b600082825260208201905092915050565b600081905092915050565b600061406c6020840184612b7f565b905092915050565b600061407f826140ae565b9050919050565b6000614091826140ae565b9050919050565b60008115159050919050565b6000819050919050565b600073ffffffffffffffffffffffffffffffffffffffff82169050919050565b6000819050919050565b60006140e3826140ea565b9050919050565b60006140f5826140fc565b9050919050565b6000614107826140ae565b9050919050565b82818337600083830152505050565b60005b8381101561413b578082015181840152602081019050614120565b8381111561414a576000848401525b50505050565b600061415b82614174565b9050919050565b600061416d82614174565b9050919050565b600061417f826141a1565b9050919050565b6000819050919050565b6000601f19601f8301169050919050565b60008160601b9050919050565b6141b781614074565b81146141c257600080fd5b50565b6141ce81614086565b81146141d957600080fd5b50565b6141e581614098565b81146141f057600080fd5b50565b6141fc816140a4565b811461420757600080fd5b50565b614213816140ce565b811461421e57600080fd5b5056fea2646970667358221220f8f1aee9121c4f6f4567923df1a9212b7899d5888a91afb270115ed6227fb05b64736f6c63430006000033608060405234801561001057600080fd5b5061031e806100206000396000f3fe608060405234801561001057600080fd5b50600436106100365760003560e01c80631a86b5501461003b5780631f27571314610138575b600080fd5b61011e6004803603606081101561005157600080fd5b81019080803573ffffffffffffffffffffffffffffffffffffffff169060200190929190803590602001909291908035906020019064010000000081111561009857600080fd5b8201836020820111156100aa57600080fd5b803590602001918460018302840111640100000000831117156100cc57600080fd5b91908080601f016020809104026020016040519081016040528093929190818152602001838380828437600081840152601f19601f82011690508083019250505050505050919291929050505061017a565b604051808215151515815260200191505060405180910390f35b6101646004803603602081101561014e57600080fd5b8101908080359060200190929190505050610290565b6040518082815260200191505060405180910390f35b6000604182511461018e5760009050610289565b600080600060608590506020810151935060408101519250606081015160001a9150601b8260ff1610156101c357601b820191505b601b8260ff16141580156101db5750601c8260ff1614155b156101ed576000945050505050610289565b8773ffffffffffffffffffffffffffffffffffffffff1660018884878760405160008152602001604052604051808581526020018460ff1660ff1681526020018381526020018281526020019450505050506020604051602081039080840390855afa158015610261573d6000803e3d6000fd5b5050506020604051035173ffffffffffffffffffffffffffffffffffffffff16149450505050505b9392505050565b60008160405160200180807f19457468657265756d205369676e6564204d6573736167653a0a333200000000815250601c0182815260200191505060405160208183030381529060405280519060200120905091905056fea264697066735822122095b7258ee81d3084db524579003e6175c7cff276acd359c835fc2312f28385ab64736f6c63430006000033",
  "source": "pragma solidity >=0.4.24 <0.7.0;\npragma experimental ABIEncoderV2;\n\n// import \"./SimplePaymentChannel.sol\";\n// pragma solidity >=0.4.24 <0.7.0;\n// pragma experimental ABIEncoderV2;\n\nimport \"./ILibSig.sol\";\n\ncontract SimplePaymentChannel {\n    event TPCOpenRequest(uint256 id, address alice, address bob, uint256 ab, uint256 bb);\n    event TPCOpenSuccess(uint256 id, address alice, address bob, uint256 ab, uint256 bb);\n    event TPCUpdateSuccess(uint256 id, address alice, address bob, uint256 new_ab, uint256 new_bb);\n    event TPCSomeDeposit(uint256 id, address addr, uint256 token);\n    event TPCCloseChannel(uint256 id, address alice, address bob);\n\n    struct TPC {\n        address payable alice;\n        address payable bob;\n        uint256 alice_balance; // wei\n        uint256 bob_balance;\n        uint256 version_num;\n        bool alice_deposited;\n        bool bob_deposited;\n        bool busy;\n    }\n\n    LibSig libSig = new LibSig();\n\n    // TPC[] public tpc_array;\n    mapping (uint256 => TPC) public tpc_map;\n\n    uint256 count = 1;\n\n    // TPC tpc_ab;\n\n    function createTPC(address payable alice, address payable bob, uint256 ab, uint256 bb,\n        bytes calldata sigA, bytes calldata sigB)\n        external\n        payable\n    {\n        string memory prefix = \"create a TPC\";\n        bytes32 msgHash = libSig.prefixed(keccak256(abi.encodePacked(prefix, alice, bob, ab, bb)));\n        require(msg.sender == alice || msg.sender == bob, \"createTPC: wrong sender\");\n        require(libSig.verify(alice, msgHash, sigA) && libSig.verify(bob, msgHash, sigB), \"verify failed!\");\n\n        TPC memory tpc;\n        tpc.alice = alice;\n        tpc.bob = bob;\n        tpc.version_num = 0;\n        tpc.alice_deposited = false;\n        tpc.bob_deposited = false;\n        tpc.busy = false;\n        tpc.alice_deposited = false;\n        tpc.bob_deposited = false;\n\n        uint256 id = count;\n        tpc_map[id] = tpc;\n        count += 1;\n        emit TPCOpenRequest(id, alice, bob, ab, bb);\n    }\n\n    function getChannel(uint256 id)\n        external\n        view\n        returns (TPC memory)\n    {\n        return tpc_map[id];\n    }\n\n    function deposit(uint256 id, address alice, address bob)\n        external\n        payable\n        returns (uint256)\n    {\n        //  TPC memory tpc = tpc_map[id];\n        if (msg.sender == tpc_map[id].alice)\n        {\n            tpc_map[id].alice_balance = msg.value;\n            tpc_map[id].alice_deposited = true;\n            emit TPCSomeDeposit(id, alice, msg.value);\n        }\n        else if (msg.sender == tpc_map[id].bob)\n        {\n            tpc_map[id].bob_balance = msg.value;\n            tpc_map[id].bob_deposited = true;\n            emit TPCSomeDeposit(id, bob, msg.value);\n        }\n        if (tpc_map[id].alice_deposited && tpc_map[id].bob_deposited) {\n            // uint256 id = count;\n            // tpc_map[id] = tpc_ab;\n            // count += 1;\n            // tpc_ab.alice_deposited = false;\n            // tpc_ab.bob_deposited = false;\n            emit TPCOpenSuccess(id, alice, bob, tpc_map[id].alice_balance, tpc_map[id].bob_balance);\n            return id;\n        }\n        return 0;\n    }\n\n    function updateTPC(\n            uint256 id, address alice, address bob,\n            uint256 new_ab, uint256 new_bb, uint256 version,\n            bytes calldata sigA, bytes calldata sigB\n        )\n        external\n        payable\n    {\n        require(tpc_map[id].busy == false, \"the TPC is busy\");\n        require(msg.sender == alice || msg.sender == bob, \"sender error\");\n        require((tpc_map[id].alice_balance + tpc_map[id].bob_balance) == (new_ab + new_bb), \"balance error\");\n\n        bytes32 msgHash = libSig.prefixed(keccak256(abi.encodePacked(alice, bob, id, new_ab, new_bb, version)));\n\n        require(version > tpc_map[id].version_num, \"version num litter than lastest one\");\n        require(libSig.verify(alice, msgHash, sigA) && libSig.verify(bob, msgHash, sigB), \"verify failed!\");\n\n        tpc_map[id].alice_balance = new_ab;\n        tpc_map[id].bob_balance = new_bb;\n        tpc_map[id].version_num = version;\n\n        emit TPCUpdateSuccess(id, alice, bob, new_ab, new_bb);\n    }\n\n    function updateTPCInternal(uint256 id, uint256 new_ab, uint256 new_bb)\n        internal\n    {\n        // require(tpc_map[id].alice_balance + tpc_map[id].bob_balance == new_ab + new_bb, \"updateTPCInternal: amount error\");\n        tpc_map[id].alice_balance = new_ab;\n        tpc_map[id].bob_balance = new_bb;\n    }\n\n    function closeTPC(uint256 id, uint256 version,\n            bytes calldata sigA, bytes calldata sigB)\n        external\n        payable\n    {\n        TPC memory channel = tpc_map[id];\n        require(msg.sender == channel.alice || msg.sender == channel.bob, \"closeTPC: wrong sender\");\n\n        string memory prefix = \"close the TPC\";\n        bytes32 msgHash = libSig.prefixed(keccak256(abi.encodePacked(prefix, id, version)));\n        require(version == tpc_map[id].version_num, \"closeTPC: version not equal\");\n        uint256 sc_version = tpc_map[id].version_num;\n        require(libSig.verify(channel.alice, msgHash, sigA) && libSig.verify(channel.bob, msgHash, sigB), \"verify failed!\");\n        // withdraw\n        channel.alice.transfer(channel.alice_balance);\n        channel.bob.transfer(channel.bob_balance);\n        delete tpc_map[id];\n        emit TPCCloseChannel(sc_version, channel.alice, channel.bob);\n    }\n\n    function verifyChannel(uint256 id)\n        internal\n        view\n        returns (bool)\n    {\n        if (tpc_map[id].alice != address(0) && tpc_map[id].bob != address(0) &&\n            tpc_map[id].alice_deposited == true && tpc_map[id].bob_deposited == true)\n        {\n            return true;\n        }\n        else {\n            return false;\n        }\n    }\n\n    function getTPC(uint256 id)\n        external\n        view\n        returns (TPC memory)\n    {\n        return tpc_map[id];\n    }\n}\n\ncontract MultipartyChannel is SimplePaymentChannel {\n    event MPCCreateSuccess(uint256 id, address[] parties, uint256[] channels_id);\n    event MPCUpdateSuccess();\n    event MPCTransactionError(Transaction t);\n    event MPCClosed(uint256 mpc_id);\n\n    struct MPC {\n        uint256 id;\n        address[] parties;\n        uint256[] channels_id;\n        uint256 version_num;\n    }\n\n    struct Transaction {\n        uint256 channel_id;\n        address src;\n        address dst;\n        uint256 new_ab;\n        uint256 new_ba;\n    }\n\n    mapping (uint256 => MPC) public mpc_map;\n\n    MPC mpc;\n    uint256 mpc_count = 0;\n    // SimplePaymentChannel spc;\n\n    function createMPC(address[] calldata parties, bytes[] calldata sigs, uint256[] calldata channels_id)\n        external\n        returns (uint256)\n    {\n        // spc = SimplePaymentChannel(spcAddr);\n        // verify signatures\n        for (uint i = 0; i < parties.length; i++) {\n            bytes32 msgHash = libSig.prefixed(keccak256(abi.encodePacked(parties[i])));\n            require(libSig.verify(parties[i], msgHash, sigs[i]), \"createMPC verify parties failed!\");\n        }\n        // verify channels\n        for (uint256 i = 0; i < channels_id.length; i++) {\n            require(verifyChannel(channels_id[i]), \"createMPC verify channel failed!\");\n            tpc_map[channels_id[i]].busy = true;\n        }\n\n        mpc.id = mpc_count + 1;\n        mpc_count = mpc_count + 1;\n        mpc.parties = parties;\n        mpc.channels_id = channels_id;\n        mpc.version_num = 0;\n        mpc_map[mpc.id] = mpc;\n        emit MPCCreateSuccess(mpc.id, parties, channels_id);\n        return mpc.id;\n    }\n\n    function updateMPC(uint256 mpc_id, Transaction[] calldata txs, string calldata msgstr, uint256 version, bytes[] calldata sigs)\n        external\n    {\n        // verify sigs\n        require(mpc_map[mpc.id].version_num < version, \"updateMPC: version error\");\n        for (uint i = 0; i < mpc_map[mpc_id].parties.length; i++) {\n            bytes32 msgHash = libSig.prefixed(keccak256(abi.encodePacked(msgstr, mpc_map[mpc_id].parties[i], version)));\n            require(libSig.verify(mpc_map[mpc_id].parties[i], msgHash, sigs[i]), \"updateMPC: verify sig failed!!!\");\n        }\n        for (uint i = 0; i < txs.length; i++) {\n            require(tpc_map[txs[i].channel_id].alice_balance + tpc_map[txs[i].channel_id].bob_balance == txs[i].new_ab + txs[i].new_ba, \"updateMPC: balance error\");\n        }\n        // execute txs\n        for (uint i = 0; i < txs.length; i++) {\n            updateTPCInternal(txs[i].channel_id, txs[i].new_ab, txs[i].new_ba);\n        }\n        mpc_map[mpc_id].version_num = version;\n        emit MPCUpdateSuccess();\n    }\n\n    function closeMPC(uint256 mpc_id, uint256 version, bytes[] calldata sigs)\n        external\n    {\n        // require(mpc_id == mpc.id, \"closeMPC: wrong id of the mpc\");\n        require(mpc_map[mpc_id].version_num == version, \"closeMPC: wrong version\");\n        string memory prefix = \"close the MPC\";\n        bytes32 msgHash = libSig.prefixed(keccak256(abi.encodePacked(prefix, mpc_id, version)));\n\n        for (uint i = 0; i < mpc_map[mpc_id].parties.length; i++) {\n            require(libSig.verify(mpc_map[mpc_id].parties[i], msgHash, sigs[i]), \"closeMPC verify sig failed!!!\");\n        }\n        delete mpc_map[mpc_id];\n        emit MPCClosed(mpc_id);\n    }\n}",
  "sourcePath": "/Users/xuxianli/work/blockchain/micropc/contracts/MultipartyChannel.sol",
  "compiler": {
    "name": "solc",
    "version": "0.6.0+commit.26b70077.Emscripten.clang"
  },
  "schemaVersion": "3.0.23",
  "updatedAt": "2020-03-09T07:59:30.205Z",
  "networkType": "ethereum",
  "devdoc": {
    "methods": {}
  },
  "userdoc": {
    "methods": {}
  }
}