{
  "contractName": "MultipartyChannel",
  "abi": [
    {
      "anonymous": false,
      "inputs": [
        {
          "indexed": false,
          "name": "id",
          "type": "uint256"
        },
        {
          "indexed": false,
          "name": "parties",
          "type": "address[]"
        },
        {
          "indexed": false,
          "name": "channels_id",
          "type": "uint256[]"
        }
      ],
      "name": "CreateMPCSuccess",
      "type": "event"
    },
    {
      "constant": false,
      "inputs": [
        {
          "name": "spcAddr",
          "type": "address"
        },
        {
          "name": "parties",
          "type": "address[]"
        },
        {
          "name": "sigs",
          "type": "bytes[]"
        },
        {
          "name": "channels_id",
          "type": "uint256[]"
        }
      ],
      "name": "createMPC",
      "outputs": [
        {
          "name": "",
          "type": "uint256"
        }
      ],
      "payable": false,
      "stateMutability": "nonpayable",
      "type": "function"
    },
    {
      "constant": false,
      "inputs": [
        {
          "name": "mpc_id",
          "type": "uint256"
        }
      ],
      "name": "updateMPC",
      "outputs": [],
      "payable": false,
      "stateMutability": "nonpayable",
      "type": "function"
    },
    {
      "constant": false,
      "inputs": [
        {
          "name": "mpc_id",
          "type": "uint256"
        }
      ],
      "name": "closeMPC",
      "outputs": [],
      "payable": false,
      "stateMutability": "nonpayable",
      "type": "function"
    }
  ],
  "bytecode": "0x60806040526040516100109061007e565b604051809103906000f08015801561002c573d6000803e3d6000fd5b506000806101000a81548173ffffffffffffffffffffffffffffffffffffffff021916908373ffffffffffffffffffffffffffffffffffffffff16021790555034801561007857600080fd5b5061008b565b61033480610e3983390190565b610d9f8061009a6000396000f3fe608060405234801561001057600080fd5b50600436106100415760003560e01c80634dda0a4414610046578063669b2b4114610062578063cc129e6c14610092575b600080fd5b610060600480360361005b91908101906108e4565b6100ae565b005b61007c600480360361007791908101906107d9565b6100b1565b6040516100899190610b90565b60405180910390f35b6100ac60048036036100a791908101906108e4565b610526565b005b50565b600087600560006101000a81548173ffffffffffffffffffffffffffffffffffffffff021916908373ffffffffffffffffffffffffffffffffffffffff16021790555060008090505b878790508110156103745760008060009054906101000a900473ffffffffffffffffffffffffffffffffffffffff1673ffffffffffffffffffffffffffffffffffffffff16631f2757138a8a8581811061015057fe5b905060200201602061016591908101906107b0565b6040516020016101759190610ada565b604051602081830303815290604052805190602001206040518263ffffffff1660e01b81526004016101a79190610b35565b60206040518083038186803b1580156101bf57600080fd5b505afa1580156101d3573d6000803e3d6000fd5b505050506040513d601f19601f820116820180604052506101f791908101906108bb565b90506000809054906101000a900473ffffffffffffffffffffffffffffffffffffffff1673ffffffffffffffffffffffffffffffffffffffff16631a86b5508a8a8581811061024257fe5b905060200201602061025791908101906107b0565b838a8a8781811061026457fe5b905060200281018035600160200383360303811261028157600080fd5b8083019250508135905060208201915067ffffffffffffffff8111156102a657600080fd5b6001810236038213156102b857600080fd5b6040518563ffffffff1660e01b81526004016102d79493929190610af5565b60206040518083038186803b1580156102ef57600080fd5b505afa158015610303573d6000803e3d6000fd5b505050506040513d601f19601f820116820180604052506103279190810190610892565b610366576040517f08c379a000000000000000000000000000000000000000000000000000000000815260040161035d90610b70565b60405180910390fd5b5080806001019150506100fa565b5060008090505b8383905081101561048f57600560009054906101000a900473ffffffffffffffffffffffffffffffffffffffff1673ffffffffffffffffffffffffffffffffffffffff1663c1c42b1a8585848181106103d057fe5b905060200201356040518263ffffffff1660e01b81526004016103f39190610b90565b60206040518083038186803b15801561040b57600080fd5b505afa15801561041f573d6000803e3d6000fd5b505050506040513d601f19601f820116820180604052506104439190810190610892565b610482576040517f08c379a000000000000000000000000000000000000000000000000000000000815260040161047990610b50565b60405180910390fd5b808060010191505061037b565b50600060016000018190555086866001800191906104ae929190610529565b508282600160020191906104c39291906105c9565b5060006001600301819055507f3378f9c0b988e08bd618cb56c9d3f4cc62293e1103a512c7ec9918bcf831760c6001600001548888868660405161050b959493929190610bab565b60405180910390a16001600001549050979650505050505050565b50565b8280548282559060005260206000209081019282156105b8579160200282015b828111156105b757823573ffffffffffffffffffffffffffffffffffffffff168260006101000a81548173ffffffffffffffffffffffffffffffffffffffff021916908373ffffffffffffffffffffffffffffffffffffffff16021790555091602001919060010190610549565b5b5090506105c59190610616565b5090565b828054828255906000526020600020908101928215610605579160200282015b828111156106045782358255916020019190600101906105e9565b5b5090506106129190610659565b5090565b61065691905b8082111561065257600081816101000a81549073ffffffffffffffffffffffffffffffffffffffff02191690555060010161061c565b5090565b90565b61067b91905b8082111561067757600081600090555060010161065f565b5090565b90565b60008135905061068d81610d09565b92915050565b60008083601f8401126106a557600080fd5b8235905067ffffffffffffffff8111156106be57600080fd5b6020830191508360208202830111156106d657600080fd5b9250929050565b60008083601f8401126106ef57600080fd5b8235905067ffffffffffffffff81111561070857600080fd5b60208301915083602082028301111561072057600080fd5b9250929050565b60008083601f84011261073957600080fd5b8235905067ffffffffffffffff81111561075257600080fd5b60208301915083602082028301111561076a57600080fd5b9250929050565b60008151905061078081610d20565b92915050565b60008151905061079581610d37565b92915050565b6000813590506107aa81610d4e565b92915050565b6000602082840312156107c257600080fd5b60006107d08482850161067e565b91505092915050565b60008060008060008060006080888a0312156107f457600080fd5b60006108028a828b0161067e565b975050602088013567ffffffffffffffff81111561081f57600080fd5b61082b8a828b01610693565b9650965050604088013567ffffffffffffffff81111561084a57600080fd5b6108568a828b016106dd565b9450945050606088013567ffffffffffffffff81111561087557600080fd5b6108818a828b01610727565b925092505092959891949750929550565b6000602082840312156108a457600080fd5b60006108b284828501610771565b91505092915050565b6000602082840312156108cd57600080fd5b60006108db84828501610786565b91505092915050565b6000602082840312156108f657600080fd5b60006109048482850161079b565b91505092915050565b60006109198383610925565b60208301905092915050565b61092e81610c66565b82525050565b61093d81610c66565b82525050565b61095461094f82610c66565b610cc7565b82525050565b60006109668385610c0b565b935061097182610bf4565b8060005b858110156109aa576109878284610c4f565b610991888261090d565b975061099c83610bfe565b925050600181019050610975565b5085925050509392505050565b60006109c38385610c1c565b93507f07ffffffffffffffffffffffffffffffffffffffffffffffffffffffffffffff8311156109f257600080fd5b602083029250610a03838584610cb8565b82840190509392505050565b610a1881610c84565b82525050565b6000610a2a8385610c2d565b9350610a37838584610cb8565b610a4083610ceb565b840190509392505050565b6000610a58602083610c3e565b91507f6372656174654d504320766572696679206368616e6e656c206661696c6564216000830152602082019050919050565b6000610a98602083610c3e565b91507f6372656174654d5043207665726966792070617274696573206661696c6564216000830152602082019050919050565b610ad481610cae565b82525050565b6000610ae68284610943565b60148201915081905092915050565b6000606082019050610b0a6000830187610934565b610b176020830186610a0f565b8181036040830152610b2a818486610a1e565b905095945050505050565b6000602082019050610b4a6000830184610a0f565b92915050565b60006020820190508181036000830152610b6981610a4b565b9050919050565b60006020820190508181036000830152610b8981610a8b565b9050919050565b6000602082019050610ba56000830184610acb565b92915050565b6000606082019050610bc06000830188610acb565b8181036020830152610bd381868861095a565b90508181036040830152610be88184866109b7565b90509695505050505050565b6000819050919050565b6000602082019050919050565b600082825260208201905092915050565b600082825260208201905092915050565b600082825260208201905092915050565b600082825260208201905092915050565b6000610c5e602084018461067e565b905092915050565b6000610c7182610c8e565b9050919050565b60008115159050919050565b6000819050919050565b600073ffffffffffffffffffffffffffffffffffffffff82169050919050565b6000819050919050565b82818337600083830152505050565b6000610cd282610cd9565b9050919050565b6000610ce482610cfc565b9050919050565b6000601f19601f8301169050919050565b60008160601b9050919050565b610d1281610c66565b8114610d1d57600080fd5b50565b610d2981610c78565b8114610d3457600080fd5b50565b610d4081610c84565b8114610d4b57600080fd5b50565b610d5781610cae565b8114610d6257600080fd5b5056fea265627a7a7230582050670ce19e09044d715359506a0f9bf30263215d4ad0258901ce06181b3e8bc46c6578706572696d656e74616cf50037608060405234801561001057600080fd5b50610314806100206000396000f3fe608060405234801561001057600080fd5b50600436106100365760003560e01c80631a86b5501461003b5780631f27571314610138575b600080fd5b61011e6004803603606081101561005157600080fd5b81019080803573ffffffffffffffffffffffffffffffffffffffff169060200190929190803590602001909291908035906020019064010000000081111561009857600080fd5b8201836020820111156100aa57600080fd5b803590602001918460018302840111640100000000831117156100cc57600080fd5b91908080601f016020809104026020016040519081016040528093929190818152602001838380828437600081840152601f19601f82011690508083019250505050505050919291929050505061017a565b604051808215151515815260200191505060405180910390f35b6101646004803603602081101561014e57600080fd5b8101908080359060200190929190505050610290565b6040518082815260200191505060405180910390f35b6000604182511461018e5760009050610289565b600080600060608590506020810151935060408101519250606081015160001a9150601b8260ff1610156101c357601b820191505b601b8260ff16141580156101db5750601c8260ff1614155b156101ed576000945050505050610289565b8773ffffffffffffffffffffffffffffffffffffffff1660018884878760405160008152602001604052604051808581526020018460ff1660ff1681526020018381526020018281526020019450505050506020604051602081039080840390855afa158015610261573d6000803e3d6000fd5b5050506020604051035173ffffffffffffffffffffffffffffffffffffffff16149450505050505b9392505050565b60008160405160200180807f19457468657265756d205369676e6564204d6573736167653a0a333200000000815250601c0182815260200191505060405160208183030381529060405280519060200120905091905056fea165627a7a72305820a7d61f61b95b56ec93ea4c00a8598c181a2fc09580d3028a651c72877acb90e00029",
  "source": "pragma solidity >=0.4.24 <0.7.0;\npragma experimental ABIEncoderV2;\n\nimport \"./SimplePaymentChannel.sol\";\n\ncontract MultipartyChannel {\n    event CreateMPCSuccess(uint256 id, address[] parties, uint256[] channels_id);\n\n    struct MPC {\n        uint256 id;\n        address[] parties;\n        uint256[] channels_id;\n        uint256 version_num;\n    }\n\n    LibSig libSig = new LibSig();\n\n    MPC mpc;\n    SimplePaymentChannel spc;\n\n    function createMPC(address spcAddr, address[] calldata parties, bytes[] calldata sigs, uint256[] calldata channels_id)\n        external\n        returns (uint256)\n    {\n        spc = SimplePaymentChannel(spcAddr);\n        // verify signatures\n        for (uint i = 0; i < parties.length; i++) {\n            bytes32 msgHash = libSig.prefixed(keccak256(abi.encodePacked(parties[i])));\n            require(libSig.verify(parties[i], msgHash, sigs[i]), \"createMPC verify parties failed!\");\n        }\n        // verify channels\n        for (uint256 i = 0; i < channels_id.length; i++) {\n            require(spc.verifyChannel(channels_id[i]), \"createMPC verify channel failed!\");\n        }\n\n        mpc.id = 0;\n        mpc.parties = parties;\n        mpc.channels_id = channels_id;\n        mpc.version_num = 0;\n        emit CreateMPCSuccess(mpc.id, parties, channels_id);\n        return mpc.id;\n    }\n\n    function updateMPC(uint256 mpc_id)\n        external\n    {\n        // TODO\n    }\n\n    function closeMPC(uint256 mpc_id)\n        external\n    {\n        // TODO\n    }\n}",
  "sourcePath": "/Users/lixuxian/blockchain/micropc/contracts/MultipartyChannel.sol",
  "compiler": {
    "name": "solc",
    "version": "0.5.8+commit.23d335f2.Emscripten.clang"
  },
  "schemaVersion": "3.0.16",
  "updatedAt": "2019-12-19T08:56:13.314Z",
  "devdoc": {
    "methods": {}
  },
  "userdoc": {
    "methods": {}
  }
}