{
  "contractName": "MultipartyChannel",
  "abi": [
    {
      "anonymous": false,
      "inputs": [
        {
          "indexed": false,
          "internalType": "uint256",
          "name": "mpc_id",
          "type": "uint256"
        }
      ],
      "name": "MPCClosed",
      "type": "event"
    },
    {
      "anonymous": false,
      "inputs": [
        {
          "indexed": false,
          "internalType": "uint256",
          "name": "id",
          "type": "uint256"
        },
        {
          "indexed": false,
          "internalType": "address[]",
          "name": "parties",
          "type": "address[]"
        },
        {
          "indexed": false,
          "internalType": "uint256[]",
          "name": "channels_id",
          "type": "uint256[]"
        }
      ],
      "name": "MPCCreateSuccess",
      "type": "event"
    },
    {
      "anonymous": false,
      "inputs": [
        {
          "components": [
            {
              "internalType": "uint256",
              "name": "channel_id",
              "type": "uint256"
            },
            {
              "internalType": "address",
              "name": "src",
              "type": "address"
            },
            {
              "internalType": "address",
              "name": "dst",
              "type": "address"
            },
            {
              "internalType": "uint256",
              "name": "new_ab",
              "type": "uint256"
            },
            {
              "internalType": "uint256",
              "name": "new_ba",
              "type": "uint256"
            }
          ],
          "indexed": false,
          "internalType": "struct MultipartyChannel.Transaction",
          "name": "t",
          "type": "tuple"
        }
      ],
      "name": "MPCTransactionError",
      "type": "event"
    },
    {
      "anonymous": false,
      "inputs": [],
      "name": "MPCUpdateSuccess",
      "type": "event"
    },
    {
      "anonymous": false,
      "inputs": [
        {
          "indexed": false,
          "internalType": "uint256",
          "name": "id",
          "type": "uint256"
        },
        {
          "indexed": false,
          "internalType": "address",
          "name": "alice",
          "type": "address"
        },
        {
          "indexed": false,
          "internalType": "address",
          "name": "bob",
          "type": "address"
        }
      ],
      "name": "TPCCloseChannel",
      "type": "event"
    },
    {
      "anonymous": false,
      "inputs": [
        {
          "indexed": false,
          "internalType": "uint256",
          "name": "id",
          "type": "uint256"
        },
        {
          "indexed": false,
          "internalType": "address",
          "name": "alice",
          "type": "address"
        },
        {
          "indexed": false,
          "internalType": "address",
          "name": "bob",
          "type": "address"
        },
        {
          "indexed": false,
          "internalType": "uint256",
          "name": "ab",
          "type": "uint256"
        },
        {
          "indexed": false,
          "internalType": "uint256",
          "name": "bb",
          "type": "uint256"
        }
      ],
      "name": "TPCOpenRequest",
      "type": "event"
    },
    {
      "anonymous": false,
      "inputs": [
        {
          "indexed": false,
          "internalType": "uint256",
          "name": "id",
          "type": "uint256"
        },
        {
          "indexed": false,
          "internalType": "address",
          "name": "alice",
          "type": "address"
        },
        {
          "indexed": false,
          "internalType": "address",
          "name": "bob",
          "type": "address"
        },
        {
          "indexed": false,
          "internalType": "uint256",
          "name": "ab",
          "type": "uint256"
        },
        {
          "indexed": false,
          "internalType": "uint256",
          "name": "bb",
          "type": "uint256"
        }
      ],
      "name": "TPCOpenSuccess",
      "type": "event"
    },
    {
      "anonymous": false,
      "inputs": [
        {
          "indexed": false,
          "internalType": "uint256",
          "name": "id",
          "type": "uint256"
        },
        {
          "indexed": false,
          "internalType": "address",
          "name": "addr",
          "type": "address"
        },
        {
          "indexed": false,
          "internalType": "uint256",
          "name": "token",
          "type": "uint256"
        }
      ],
      "name": "TPCSomeDeposit",
      "type": "event"
    },
    {
      "anonymous": false,
      "inputs": [
        {
          "indexed": false,
          "internalType": "uint256",
          "name": "id",
          "type": "uint256"
        },
        {
          "indexed": false,
          "internalType": "address",
          "name": "alice",
          "type": "address"
        },
        {
          "indexed": false,
          "internalType": "address",
          "name": "bob",
          "type": "address"
        },
        {
          "indexed": false,
          "internalType": "uint256",
          "name": "new_ab",
          "type": "uint256"
        },
        {
          "indexed": false,
          "internalType": "uint256",
          "name": "new_bb",
          "type": "uint256"
        }
      ],
      "name": "TPCUpdateSuccess",
      "type": "event"
    },
    {
      "inputs": [
        {
          "internalType": "uint256",
          "name": "id",
          "type": "uint256"
        },
        {
          "internalType": "uint256",
          "name": "version",
          "type": "uint256"
        },
        {
          "internalType": "bytes",
          "name": "sigA",
          "type": "bytes"
        },
        {
          "internalType": "bytes",
          "name": "sigB",
          "type": "bytes"
        }
      ],
      "name": "closeTPC",
      "outputs": [],
      "stateMutability": "payable",
      "type": "function",
      "payable": true
    },
    {
      "inputs": [
        {
          "internalType": "address payable",
          "name": "alice",
          "type": "address"
        },
        {
          "internalType": "address payable",
          "name": "bob",
          "type": "address"
        },
        {
          "internalType": "uint256",
          "name": "ab",
          "type": "uint256"
        },
        {
          "internalType": "uint256",
          "name": "bb",
          "type": "uint256"
        },
        {
          "internalType": "bytes",
          "name": "sigA",
          "type": "bytes"
        },
        {
          "internalType": "bytes",
          "name": "sigB",
          "type": "bytes"
        }
      ],
      "name": "createTPC",
      "outputs": [],
      "stateMutability": "payable",
      "type": "function",
      "payable": true
    },
    {
      "inputs": [
        {
          "internalType": "uint256",
          "name": "id",
          "type": "uint256"
        },
        {
          "internalType": "address",
          "name": "alice",
          "type": "address"
        },
        {
          "internalType": "address",
          "name": "bob",
          "type": "address"
        }
      ],
      "name": "deposit",
      "outputs": [
        {
          "internalType": "uint256",
          "name": "",
          "type": "uint256"
        }
      ],
      "stateMutability": "payable",
      "type": "function",
      "payable": true
    },
    {
      "inputs": [
        {
          "internalType": "uint256",
          "name": "id",
          "type": "uint256"
        }
      ],
      "name": "getChannel",
      "outputs": [
        {
          "components": [
            {
              "internalType": "address payable",
              "name": "alice",
              "type": "address"
            },
            {
              "internalType": "address payable",
              "name": "bob",
              "type": "address"
            },
            {
              "internalType": "uint256",
              "name": "alice_balance",
              "type": "uint256"
            },
            {
              "internalType": "uint256",
              "name": "bob_balance",
              "type": "uint256"
            },
            {
              "internalType": "uint256",
              "name": "version_num",
              "type": "uint256"
            },
            {
              "internalType": "bool",
              "name": "alice_deposited",
              "type": "bool"
            },
            {
              "internalType": "bool",
              "name": "bob_deposited",
              "type": "bool"
            },
            {
              "internalType": "bool",
              "name": "busy",
              "type": "bool"
            }
          ],
          "internalType": "struct SimplePaymentChannel.TPC",
          "name": "",
          "type": "tuple"
        }
      ],
      "stateMutability": "view",
      "type": "function",
      "constant": true
    },
    {
      "inputs": [
        {
          "internalType": "uint256",
          "name": "id",
          "type": "uint256"
        }
      ],
      "name": "getTPC",
      "outputs": [
        {
          "components": [
            {
              "internalType": "address payable",
              "name": "alice",
              "type": "address"
            },
            {
              "internalType": "address payable",
              "name": "bob",
              "type": "address"
            },
            {
              "internalType": "uint256",
              "name": "alice_balance",
              "type": "uint256"
            },
            {
              "internalType": "uint256",
              "name": "bob_balance",
              "type": "uint256"
            },
            {
              "internalType": "uint256",
              "name": "version_num",
              "type": "uint256"
            },
            {
              "internalType": "bool",
              "name": "alice_deposited",
              "type": "bool"
            },
            {
              "internalType": "bool",
              "name": "bob_deposited",
              "type": "bool"
            },
            {
              "internalType": "bool",
              "name": "busy",
              "type": "bool"
            }
          ],
          "internalType": "struct SimplePaymentChannel.TPC",
          "name": "",
          "type": "tuple"
        }
      ],
      "stateMutability": "view",
      "type": "function",
      "constant": true
    },
    {
      "inputs": [
        {
          "internalType": "uint256",
          "name": "",
          "type": "uint256"
        }
      ],
      "name": "mpc_map",
      "outputs": [
        {
          "internalType": "uint256",
          "name": "id",
          "type": "uint256"
        },
        {
          "internalType": "uint256",
          "name": "version_num",
          "type": "uint256"
        }
      ],
      "stateMutability": "view",
      "type": "function",
      "constant": true
    },
    {
      "inputs": [
        {
          "internalType": "uint256",
          "name": "",
          "type": "uint256"
        }
      ],
      "name": "tpc_map",
      "outputs": [
        {
          "internalType": "address payable",
          "name": "alice",
          "type": "address"
        },
        {
          "internalType": "address payable",
          "name": "bob",
          "type": "address"
        },
        {
          "internalType": "uint256",
          "name": "alice_balance",
          "type": "uint256"
        },
        {
          "internalType": "uint256",
          "name": "bob_balance",
          "type": "uint256"
        },
        {
          "internalType": "uint256",
          "name": "version_num",
          "type": "uint256"
        },
        {
          "internalType": "bool",
          "name": "alice_deposited",
          "type": "bool"
        },
        {
          "internalType": "bool",
          "name": "bob_deposited",
          "type": "bool"
        },
        {
          "internalType": "bool",
          "name": "busy",
          "type": "bool"
        }
      ],
      "stateMutability": "view",
      "type": "function",
      "constant": true
    },
    {
      "inputs": [
        {
          "internalType": "uint256",
          "name": "id",
          "type": "uint256"
        },
        {
          "internalType": "address",
          "name": "alice",
          "type": "address"
        },
        {
          "internalType": "address",
          "name": "bob",
          "type": "address"
        },
        {
          "internalType": "uint256",
          "name": "new_ab",
          "type": "uint256"
        },
        {
          "internalType": "uint256",
          "name": "new_bb",
          "type": "uint256"
        },
        {
          "internalType": "uint256",
          "name": "version",
          "type": "uint256"
        },
        {
          "internalType": "bytes",
          "name": "sigA",
          "type": "bytes"
        },
        {
          "internalType": "bytes",
          "name": "sigB",
          "type": "bytes"
        }
      ],
      "name": "updateTPC",
      "outputs": [],
      "stateMutability": "payable",
      "type": "function",
      "payable": true
    },
    {
      "inputs": [
        {
          "internalType": "address[]",
          "name": "parties",
          "type": "address[]"
        },
        {
          "internalType": "bytes[]",
          "name": "sigs",
          "type": "bytes[]"
        },
        {
          "internalType": "uint256[]",
          "name": "channels_id",
          "type": "uint256[]"
        }
      ],
      "name": "createMPC",
      "outputs": [
        {
          "internalType": "uint256",
          "name": "",
          "type": "uint256"
        }
      ],
      "stateMutability": "nonpayable",
      "type": "function"
    },
    {
      "inputs": [
        {
          "internalType": "uint256",
          "name": "mpc_id",
          "type": "uint256"
        },
        {
          "components": [
            {
              "internalType": "uint256",
              "name": "channel_id",
              "type": "uint256"
            },
            {
              "internalType": "address",
              "name": "src",
              "type": "address"
            },
            {
              "internalType": "address",
              "name": "dst",
              "type": "address"
            },
            {
              "internalType": "uint256",
              "name": "new_ab",
              "type": "uint256"
            },
            {
              "internalType": "uint256",
              "name": "new_ba",
              "type": "uint256"
            }
          ],
          "internalType": "struct MultipartyChannel.Transaction[]",
          "name": "txs",
          "type": "tuple[]"
        },
        {
          "internalType": "string",
          "name": "msgstr",
          "type": "string"
        },
        {
          "internalType": "uint256",
          "name": "version",
          "type": "uint256"
        },
        {
          "internalType": "bytes[]",
          "name": "sigs",
          "type": "bytes[]"
        }
      ],
      "name": "updateMPC",
      "outputs": [],
      "stateMutability": "nonpayable",
      "type": "function"
    },
    {
      "inputs": [
        {
          "internalType": "uint256",
          "name": "mpc_id",
          "type": "uint256"
        },
        {
          "internalType": "uint256",
          "name": "version",
          "type": "uint256"
        },
        {
          "internalType": "bytes[]",
          "name": "sigs",
          "type": "bytes[]"
        }
      ],
      "name": "closeMPC",
      "outputs": [],
      "stateMutability": "nonpayable",
      "type": "function"
    }
  ],
  "bytecode": "0x608060405260405162000012906200008d565b604051809103906000f0801580156200002f573d6000803e3d6000fd5b506000806101000a81548173ffffffffffffffffffffffffffffffffffffffff021916908373ffffffffffffffffffffffffffffffffffffffff160217905550600160025560006008553480156200008657600080fd5b506200009b565b61033e806200451c83390190565b61447180620000ab6000396000f3fe60806040526004361061009c5760003560e01c806355eb70221161006457806355eb7022146101a5578063851dc276146101c157806397a5ecf8146101fe578063b245953314610227578063b2fae2d414610243578063e6ca4b141461026c5761009c565b806302a5a56f146100a157806306e78f82146100bd57806310df54a0146100fb5780632e2d2984146101385780635266538814610168575b600080fd5b6100bb60048036036100b691908101906131e1565b6102b0565b005b3480156100c957600080fd5b506100e460048036036100df9190810190613169565b6107aa565b6040516100f29291906141dd565b60405180910390f35b34801561010757600080fd5b50610122600480360361011d9190810190613169565b6107ce565b60405161012f9190614012565b60405180910390f35b610152600480360361014d9190810190613192565b610917565b60405161015f919061402e565b60405180910390f35b34801561017457600080fd5b5061018f600480360361018a9190810190613073565b610bd0565b60405161019c919061402e565b60405180910390f35b6101bf60048036036101ba9190810190612fb0565b611011565b005b3480156101cd57600080fd5b506101e860048036036101e39190810190613169565b6117b4565b6040516101f59190614012565b60405180910390f35b34801561020a57600080fd5b5061022560048036036102209190810190613398565b6118fd565b005b610241600480360361023c9190810190613404565b611cb9565b005b34801561024f57600080fd5b5061026a600480360361026591908101906132cc565b612382565b005b34801561027857600080fd5b50610293600480360361028e9190810190613169565b612871565b6040516102a7989796959493929190613cd9565b60405180910390f35b60001515600160008c815260200190815260200160002060050160029054906101000a900460ff1615151461031a576040517f08c379a000000000000000000000000000000000000000000000000000000000815260040161031190613f12565b60405180910390fd5b8873ffffffffffffffffffffffffffffffffffffffff163373ffffffffffffffffffffffffffffffffffffffff16148061037f57508773ffffffffffffffffffffffffffffffffffffffff163373ffffffffffffffffffffffffffffffffffffffff16145b6103be576040517f08c379a00000000000000000000000000000000000000000000000000000000081526004016103b590613f72565b60405180910390fd5b858701600160008c815260200190815260200160002060030154600160008d8152602001908152602001600020600201540114610430576040517f08c379a000000000000000000000000000000000000000000000000000000000815260040161042790613eb2565b60405180910390fd5b60008060009054906101000a900473ffffffffffffffffffffffffffffffffffffffff1673ffffffffffffffffffffffffffffffffffffffff16631f2757138b8b8e8c8c8c60405160200161048a96959493929190613b9a565b604051602081830303815290604052805190602001206040518263ffffffff1660e01b81526004016104bc9190613e17565b60206040518083038186803b1580156104d457600080fd5b505afa1580156104e8573d6000803e3d6000fd5b505050506040513d601f19601f8201168201806040525061050c9190810190613140565b9050600160008c8152602001908152602001600020600401548611610566576040517f08c379a000000000000000000000000000000000000000000000000000000000815260040161055d90613fb2565b60405180910390fd5b6000809054906101000a900473ffffffffffffffffffffffffffffffffffffffff1673ffffffffffffffffffffffffffffffffffffffff16631a86b5508b8388886040518563ffffffff1660e01b81526004016105c69493929190613dd7565b60206040518083038186803b1580156105de57600080fd5b505afa1580156105f2573d6000803e3d6000fd5b505050506040513d601f19601f820116820180604052506106169190810190613117565b80156106ce57506000809054906101000a900473ffffffffffffffffffffffffffffffffffffffff1673ffffffffffffffffffffffffffffffffffffffff16631a86b5508a8386866040518563ffffffff1660e01b815260040161067d9493929190613dd7565b60206040518083038186803b15801561069557600080fd5b505afa1580156106a9573d6000803e3d6000fd5b505050506040513d601f19601f820116820180604052506106cd9190810190613117565b5b61070d576040517f08c379a000000000000000000000000000000000000000000000000000000000815260040161070490613ef2565b60405180910390fd5b87600160008d81526020019081526020016000206002018190555086600160008d81526020019081526020016000206003018190555085600160008d8152602001908152602001600020600401819055507f360021256038e7800042bd766ba4b42429d89cd49327ec22493810c1996ad5068b8b8b8b8b60405161079595949392919061410a565b60405180910390a15050505050505050505050565b60036020528060005260406000206000915090508060000154908060030154905082565b6107d6612ab0565b60016000838152602001908152602001600020604051806101000160405290816000820160009054906101000a900473ffffffffffffffffffffffffffffffffffffffff1673ffffffffffffffffffffffffffffffffffffffff1673ffffffffffffffffffffffffffffffffffffffff1681526020016001820160009054906101000a900473ffffffffffffffffffffffffffffffffffffffff1673ffffffffffffffffffffffffffffffffffffffff1673ffffffffffffffffffffffffffffffffffffffff1681526020016002820154815260200160038201548152602001600482015481526020016005820160009054906101000a900460ff161515151581526020016005820160019054906101000a900460ff161515151581526020016005820160029054906101000a900460ff1615151515815250509050919050565b60006001600085815260200190815260200160002060000160009054906101000a900473ffffffffffffffffffffffffffffffffffffffff1673ffffffffffffffffffffffffffffffffffffffff163373ffffffffffffffffffffffffffffffffffffffff161415610a0c57346001600086815260200190815260200160002060020181905550600180600086815260200190815260200160002060050160006101000a81548160ff0219169083151502179055507fe84eba7ab097914da75daebb57b4481a5b1fd4f04954e8c8cda4aaa6b45a3f738484346040516109ff9392919061415d565b60405180910390a1610afc565b6001600085815260200190815260200160002060010160009054906101000a900473ffffffffffffffffffffffffffffffffffffffff1673ffffffffffffffffffffffffffffffffffffffff163373ffffffffffffffffffffffffffffffffffffffff161415610afb57346001600086815260200190815260200160002060030181905550600180600086815260200190815260200160002060050160016101000a81548160ff0219169083151502179055507fe84eba7ab097914da75daebb57b4481a5b1fd4f04954e8c8cda4aaa6b45a3f73848334604051610af29392919061415d565b60405180910390a15b5b6001600085815260200190815260200160002060050160009054906101000a900460ff168015610b4c57506001600085815260200190815260200160002060050160019054906101000a900460ff165b15610bc4577fd92bbbac63272d0256172b5e8fec52c552e082cbd4df853483b5b6ccf1c14d438484846001600089815260200190815260200160002060020154600160008a815260200190815260200160002060030154604051610bb495949392919061410a565b60405180910390a1839050610bc9565b600090505b9392505050565b600080600090505b87879050811015610e525760008060009054906101000a900473ffffffffffffffffffffffffffffffffffffffff1673ffffffffffffffffffffffffffffffffffffffff16631f2757138a8a85818110610c2e57fe5b9050602002016020610c439190810190612f87565b604051602001610c539190613b7f565b604051602081830303815290604052805190602001206040518263ffffffff1660e01b8152600401610c859190613e17565b60206040518083038186803b158015610c9d57600080fd5b505afa158015610cb1573d6000803e3d6000fd5b505050506040513d601f19601f82011682018060405250610cd59190810190613140565b90506000809054906101000a900473ffffffffffffffffffffffffffffffffffffffff1673ffffffffffffffffffffffffffffffffffffffff16631a86b5508a8a85818110610d2057fe5b9050602002016020610d359190810190612f87565b838a8a87818110610d4257fe5b9050602002810180356001602003833603038112610d5f57600080fd5b8083019250508135905060208201915067ffffffffffffffff811115610d8457600080fd5b600181023603821315610d9657600080fd5b6040518563ffffffff1660e01b8152600401610db59493929190613d97565b60206040518083038186803b158015610dcd57600080fd5b505afa158015610de1573d6000803e3d6000fd5b505050506040513d601f19601f82011682018060405250610e059190810190613117565b610e44576040517f08c379a0000000000000000000000000000000000000000000000000000000008152600401610e3b90613f92565b60405180910390fd5b508080600101915050610bd8565b5060008090505b83839050811015610f0b57610e7f848483818110610e7357fe5b90506020020135612920565b610ebe576040517f08c379a0000000000000000000000000000000000000000000000000000000008152600401610eb590613e32565b60405180910390fd5b6001806000868685818110610ecf57fe5b90506020020135815260200190815260200160002060050160026101000a81548160ff0219169083151502179055508080600101915050610e59565b50600160085401600460000181905550600160085401600881905550868660046001019190610f3b929190612b27565b50828260046002019190610f50929190612bc7565b5060006004600301819055506004600360006004600001548152602001908152602001600020600082015481600001556001820181600101908054610f96929190612c14565b506002820181600201908054610fad929190612c66565b50600382015481600301559050507f335a0a14c99993cd931420c0c93e1fd4bff2edeef690b1542afa560cc98b810260046000015488888686604051610ff7959493929190614194565b60405180910390a160046000015490509695505050505050565b60606040518060400160405280600c81526020017f6372656174652061205450430000000000000000000000000000000000000000815250905060008060009054906101000a900473ffffffffffffffffffffffffffffffffffffffff1673ffffffffffffffffffffffffffffffffffffffff16631f275713838c8c8c8c6040516020016110a3959493929190613c45565b604051602081830303815290604052805190602001206040518263ffffffff1660e01b81526004016110d59190613e17565b60206040518083038186803b1580156110ed57600080fd5b505afa158015611101573d6000803e3d6000fd5b505050506040513d601f19601f820116820180604052506111259190810190613140565b90508973ffffffffffffffffffffffffffffffffffffffff163373ffffffffffffffffffffffffffffffffffffffff16148061118c57508873ffffffffffffffffffffffffffffffffffffffff163373ffffffffffffffffffffffffffffffffffffffff16145b6111cb576040517f08c379a00000000000000000000000000000000000000000000000000000000081526004016111c290613ff2565b60405180910390fd5b6000809054906101000a900473ffffffffffffffffffffffffffffffffffffffff1673ffffffffffffffffffffffffffffffffffffffff16631a86b5508b8389896040518563ffffffff1660e01b815260040161122b9493929190613d57565b60206040518083038186803b15801561124357600080fd5b505afa158015611257573d6000803e3d6000fd5b505050506040513d601f19601f8201168201806040525061127b9190810190613117565b801561133357506000809054906101000a900473ffffffffffffffffffffffffffffffffffffffff1673ffffffffffffffffffffffffffffffffffffffff16631a86b5508a8387876040518563ffffffff1660e01b81526004016112e29493929190613d57565b60206040518083038186803b1580156112fa57600080fd5b505afa15801561130e573d6000803e3d6000fd5b505050506040513d601f19601f820116820180604052506113329190810190613117565b5b611372576040517f08c379a000000000000000000000000000000000000000000000000000000000815260040161136990613ef2565b60405180910390fd5b61137a612ab0565b8a816000019073ffffffffffffffffffffffffffffffffffffffff16908173ffffffffffffffffffffffffffffffffffffffff168152505089816020019073ffffffffffffffffffffffffffffffffffffffff16908173ffffffffffffffffffffffffffffffffffffffff1681525050600081608001818152505060008160a001901515908115158152505060008160c001901515908115158152505060008160e001901515908115158152505060008160a001901515908115158152505060008160c001901515908115158152505060006002549050816001600083815260200190815260200160002060008201518160000160006101000a81548173ffffffffffffffffffffffffffffffffffffffff021916908373ffffffffffffffffffffffffffffffffffffffff16021790555060208201518160010160006101000a81548173ffffffffffffffffffffffffffffffffffffffff021916908373ffffffffffffffffffffffffffffffffffffffff16021790555060408201518160020155606082015181600301556080820151816004015560a08201518160050160006101000a81548160ff02191690831515021790555060c08201518160050160016101000a81548160ff02191690831515021790555060e08201518160050160026101000a81548160ff02191690831515021790555090505060016002600082825401925050819055507e12dcff0c9c2fabb23155dfd13ef15c1b472007879c2a43805b151fa3e7a61e818d8d8d8d6040516115bb959493929190614080565b60405180910390a16001600082815260200190815260200160002060000160009054906101000a900473ffffffffffffffffffffffffffffffffffffffff1673ffffffffffffffffffffffffffffffffffffffff163373ffffffffffffffffffffffffffffffffffffffff1614156116b657346001600083815260200190815260200160002060020181905550600180600083815260200190815260200160002060050160006101000a81548160ff0219169083151502179055507fe84eba7ab097914da75daebb57b4481a5b1fd4f04954e8c8cda4aaa6b45a3f73818d346040516116a9939291906140d3565b60405180910390a16117a6565b6001600082815260200190815260200160002060010160009054906101000a900473ffffffffffffffffffffffffffffffffffffffff1673ffffffffffffffffffffffffffffffffffffffff163373ffffffffffffffffffffffffffffffffffffffff1614156117a557346001600083815260200190815260200160002060030181905550600180600083815260200190815260200160002060050160016101000a81548160ff0219169083151502179055507fe84eba7ab097914da75daebb57b4481a5b1fd4f04954e8c8cda4aaa6b45a3f73818c3460405161179c939291906140d3565b60405180910390a15b5b505050505050505050505050565b6117bc612ab0565b60016000838152602001908152602001600020604051806101000160405290816000820160009054906101000a900473ffffffffffffffffffffffffffffffffffffffff1673ffffffffffffffffffffffffffffffffffffffff1673ffffffffffffffffffffffffffffffffffffffff1681526020016001820160009054906101000a900473ffffffffffffffffffffffffffffffffffffffff1673ffffffffffffffffffffffffffffffffffffffff1673ffffffffffffffffffffffffffffffffffffffff1681526020016002820154815260200160038201548152602001600482015481526020016005820160009054906101000a900460ff161515151581526020016005820160019054906101000a900460ff161515151581526020016005820160029054906101000a900460ff1615151515815250509050919050565b82600360008681526020019081526020016000206003015414611955576040517f08c379a000000000000000000000000000000000000000000000000000000000815260040161194c90613e52565b60405180910390fd5b60606040518060400160405280600d81526020017f636c6f736520746865204d504300000000000000000000000000000000000000815250905060008060009054906101000a900473ffffffffffffffffffffffffffffffffffffffff1673ffffffffffffffffffffffffffffffffffffffff16631f2757138388886040516020016119e393929190613ca0565b604051602081830303815290604052805190602001206040518263ffffffff1660e01b8152600401611a159190613e17565b60206040518083038186803b158015611a2d57600080fd5b505afa158015611a41573d6000803e3d6000fd5b505050506040513d601f19601f82011682018060405250611a659190810190613140565b905060008090505b6003600088815260200190815260200160002060010180549050811015611c33576000809054906101000a900473ffffffffffffffffffffffffffffffffffffffff1673ffffffffffffffffffffffffffffffffffffffff16631a86b550600360008a81526020019081526020016000206001018381548110611aec57fe5b9060005260206000200160009054906101000a900473ffffffffffffffffffffffffffffffffffffffff1684888886818110611b2457fe5b9050602002810180356001602003833603038112611b4157600080fd5b8083019250508135905060208201915067ffffffffffffffff811115611b6657600080fd5b600181023603821315611b7857600080fd5b6040518563ffffffff1660e01b8152600401611b979493929190613d97565b60206040518083038186803b158015611baf57600080fd5b505afa158015611bc3573d6000803e3d6000fd5b505050506040513d601f19601f82011682018060405250611be79190810190613117565b611c26576040517f08c379a0000000000000000000000000000000000000000000000000000000008152600401611c1d90613f52565b60405180910390fd5b8080600101915050611a6d565b507fcf38d3653965a88e4633f795de9aa236602765678ab7ed0d802a4e40282e935686604051611c63919061402e565b60405180910390a160036000878152602001908152602001600020600080820160009055600182016000611c979190612cb8565b600282016000611ca79190612cd9565b60038201600090555050505050505050565b611cc1612ab0565b60016000888152602001908152602001600020604051806101000160405290816000820160009054906101000a900473ffffffffffffffffffffffffffffffffffffffff1673ffffffffffffffffffffffffffffffffffffffff1673ffffffffffffffffffffffffffffffffffffffff1681526020016001820160009054906101000a900473ffffffffffffffffffffffffffffffffffffffff1673ffffffffffffffffffffffffffffffffffffffff1673ffffffffffffffffffffffffffffffffffffffff1681526020016002820154815260200160038201548152602001600482015481526020016005820160009054906101000a900460ff161515151581526020016005820160019054906101000a900460ff161515151581526020016005820160029054906101000a900460ff1615151515815250509050806000015173ffffffffffffffffffffffffffffffffffffffff163373ffffffffffffffffffffffffffffffffffffffff161480611e6a5750806020015173ffffffffffffffffffffffffffffffffffffffff163373ffffffffffffffffffffffffffffffffffffffff16145b611ea9576040517f08c379a0000000000000000000000000000000000000000000000000000000008152600401611ea090613ed2565b60405180910390fd5b60606040518060400160405280600d81526020017f636c6f7365207468652054504300000000000000000000000000000000000000815250905060008060009054906101000a900473ffffffffffffffffffffffffffffffffffffffff1673ffffffffffffffffffffffffffffffffffffffff16631f275713838b8b604051602001611f3793929190613ca0565b604051602081830303815290604052805190602001206040518263ffffffff1660e01b8152600401611f699190613e17565b60206040518083038186803b158015611f8157600080fd5b505afa158015611f95573d6000803e3d6000fd5b505050506040513d601f19601f82011682018060405250611fb99190810190613140565b9050600160008a8152602001908152602001600020600401548814612013576040517f08c379a000000000000000000000000000000000000000000000000000000000815260040161200a90613f32565b60405180910390fd5b6000600160008b81526020019081526020016000206004015490506000809054906101000a900473ffffffffffffffffffffffffffffffffffffffff1673ffffffffffffffffffffffffffffffffffffffff16631a86b5508560000151848b8b6040518563ffffffff1660e01b81526004016120929493929190613d57565b60206040518083038186803b1580156120aa57600080fd5b505afa1580156120be573d6000803e3d6000fd5b505050506040513d601f19601f820116820180604052506120e29190810190613117565b801561219e57506000809054906101000a900473ffffffffffffffffffffffffffffffffffffffff1673ffffffffffffffffffffffffffffffffffffffff16631a86b55085602001518489896040518563ffffffff1660e01b815260040161214d9493929190613d57565b60206040518083038186803b15801561216557600080fd5b505afa158015612179573d6000803e3d6000fd5b505050506040513d601f19601f8201168201806040525061219d9190810190613117565b5b6121dd576040517f08c379a00000000000000000000000000000000000000000000000000000000081526004016121d490613ef2565b60405180910390fd5b836000015173ffffffffffffffffffffffffffffffffffffffff166108fc85604001519081150290604051600060405180830381858888f1935050505015801561222b573d6000803e3d6000fd5b50836020015173ffffffffffffffffffffffffffffffffffffffff166108fc85606001519081150290604051600060405180830381858888f1935050505015801561227a573d6000803e3d6000fd5b50600160008b8152602001908152602001600020600080820160006101000a81549073ffffffffffffffffffffffffffffffffffffffff02191690556001820160006101000a81549073ffffffffffffffffffffffffffffffffffffffff02191690556002820160009055600382016000905560048201600090556005820160006101000a81549060ff02191690556005820160016101000a81549060ff02191690556005820160026101000a81549060ff021916905550507fc399f7691b325c207a412cae4b10a6cb4279589d0c49474b7901a02f33d214e5818560000151866020015160405161236e93929190614049565b60405180910390a150505050505050505050565b8260036000600460000154815260200190815260200160002060030154106123df576040517f08c379a00000000000000000000000000000000000000000000000000000000081526004016123d690613fd2565b60405180910390fd5b60008090505b600360008a8152602001908152602001600020600101805490508110156126d15760008060009054906101000a900473ffffffffffffffffffffffffffffffffffffffff1673ffffffffffffffffffffffffffffffffffffffff16631f2757138888600360008f8152602001908152602001600020600101868154811061246857fe5b9060005260206000200160009054906101000a900473ffffffffffffffffffffffffffffffffffffffff16896040516020016124a79493929190613c0a565b604051602081830303815290604052805190602001206040518263ffffffff1660e01b81526004016124d99190613e17565b60206040518083038186803b1580156124f157600080fd5b505afa158015612505573d6000803e3d6000fd5b505050506040513d601f19601f820116820180604052506125299190810190613140565b90506000809054906101000a900473ffffffffffffffffffffffffffffffffffffffff1673ffffffffffffffffffffffffffffffffffffffff16631a86b550600360008d8152602001908152602001600020600101848154811061258957fe5b9060005260206000200160009054906101000a900473ffffffffffffffffffffffffffffffffffffffff16838787878181106125c157fe5b90506020028101803560016020038336030381126125de57600080fd5b8083019250508135905060208201915067ffffffffffffffff81111561260357600080fd5b60018102360382131561261557600080fd5b6040518563ffffffff1660e01b81526004016126349493929190613d97565b60206040518083038186803b15801561264c57600080fd5b505afa158015612660573d6000803e3d6000fd5b505050506040513d601f19601f820116820180604052506126849190810190613117565b6126c3576040517f08c379a00000000000000000000000000000000000000000000000000000000081526004016126ba90613e92565b60405180910390fd5b5080806001019150506123e5565b5060008090505b878790508110156127b6578787828181106126ef57fe5b905060a002016080013588888381811061270557fe5b905060a002016060013501600160008a8a8581811061272057fe5b905060a0020160000135815260200190815260200160002060030154600160008b8b8681811061274c57fe5b905060a002016000013581526020019081526020016000206002015401146127a9576040517f08c379a00000000000000000000000000000000000000000000000000000000081526004016127a090613e72565b60405180910390fd5b80806001019150506126d8565b5060008090505b8787905081101561281f576128128888838181106127d757fe5b905060a00201600001358989848181106127ed57fe5b905060a00201606001358a8a8581811061280357fe5b905060a0020160800135612a75565b80806001019150506127bd565b5082600360008a8152602001908152602001600020600301819055507f7b3b5256241f99d7d02bc06f78c5d9940fd7701c2526576cda444ad773c45cb460405160405180910390a15050505050505050565b60016020528060005260406000206000915090508060000160009054906101000a900473ffffffffffffffffffffffffffffffffffffffff16908060010160009054906101000a900473ffffffffffffffffffffffffffffffffffffffff16908060020154908060030154908060040154908060050160009054906101000a900460ff16908060050160019054906101000a900460ff16908060050160029054906101000a900460ff16905088565b60008073ffffffffffffffffffffffffffffffffffffffff166001600084815260200190815260200160002060000160009054906101000a900473ffffffffffffffffffffffffffffffffffffffff1673ffffffffffffffffffffffffffffffffffffffff16141580156129f75750600073ffffffffffffffffffffffffffffffffffffffff166001600084815260200190815260200160002060010160009054906101000a900473ffffffffffffffffffffffffffffffffffffffff1673ffffffffffffffffffffffffffffffffffffffff1614155b8015612a2a5750600115156001600084815260200190815260200160002060050160009054906101000a900460ff161515145b8015612a5d5750600115156001600084815260200190815260200160002060050160019054906101000a900460ff161515145b15612a6b5760019050612a70565b600090505b919050565b816001600085815260200190815260200160002060020181905550806001600085815260200190815260200160002060030181905550505050565b604051806101000160405280600073ffffffffffffffffffffffffffffffffffffffff168152602001600073ffffffffffffffffffffffffffffffffffffffff1681526020016000815260200160008152602001600081526020016000151581526020016000151581526020016000151581525090565b828054828255906000526020600020908101928215612bb6579160200282015b82811115612bb557823573ffffffffffffffffffffffffffffffffffffffff168260006101000a81548173ffffffffffffffffffffffffffffffffffffffff021916908373ffffffffffffffffffffffffffffffffffffffff16021790555091602001919060010190612b47565b5b509050612bc39190612cfa565b5090565b828054828255906000526020600020908101928215612c03579160200282015b82811115612c02578235825591602001919060010190612be7565b5b509050612c109190612d3d565b5090565b828054828255906000526020600020908101928215612c555760005260206000209182015b82811115612c54578254825591600101919060010190612c39565b5b509050612c629190612cfa565b5090565b828054828255906000526020600020908101928215612ca75760005260206000209182015b82811115612ca6578254825591600101919060010190612c8b565b5b509050612cb49190612d3d565b5090565b5080546000825590600052602060002090810190612cd69190612d3d565b50565b5080546000825590600052602060002090810190612cf79190612d3d565b50565b612d3a91905b80821115612d3657600081816101000a81549073ffffffffffffffffffffffffffffffffffffffff021916905550600101612d00565b5090565b90565b612d5f91905b80821115612d5b576000816000905550600101612d43565b5090565b90565b600081359050612d71816143c8565b92915050565b600081359050612d86816143df565b92915050565b60008083601f840112612d9e57600080fd5b8235905067ffffffffffffffff811115612db757600080fd5b602083019150836020820283011115612dcf57600080fd5b9250929050565b60008083601f840112612de857600080fd5b8235905067ffffffffffffffff811115612e0157600080fd5b602083019150836020820283011115612e1957600080fd5b9250929050565b60008083601f840112612e3257600080fd5b8235905067ffffffffffffffff811115612e4b57600080fd5b6020830191508360a0820283011115612e6357600080fd5b9250929050565b60008083601f840112612e7c57600080fd5b8235905067ffffffffffffffff811115612e9557600080fd5b602083019150836020820283011115612ead57600080fd5b9250929050565b600081519050612ec3816143f6565b92915050565b600081519050612ed88161440d565b92915050565b60008083601f840112612ef057600080fd5b8235905067ffffffffffffffff811115612f0957600080fd5b602083019150836001820283011115612f2157600080fd5b9250929050565b60008083601f840112612f3a57600080fd5b8235905067ffffffffffffffff811115612f5357600080fd5b602083019150836001820283011115612f6b57600080fd5b9250929050565b600081359050612f8181614424565b92915050565b600060208284031215612f9957600080fd5b6000612fa784828501612d62565b91505092915050565b60008060008060008060008060c0898b031215612fcc57600080fd5b6000612fda8b828c01612d77565b9850506020612feb8b828c01612d77565b9750506040612ffc8b828c01612f72565b965050606061300d8b828c01612f72565b955050608089013567ffffffffffffffff81111561302a57600080fd5b6130368b828c01612ede565b945094505060a089013567ffffffffffffffff81111561305557600080fd5b6130618b828c01612ede565b92509250509295985092959890939650565b6000806000806000806060878903121561308c57600080fd5b600087013567ffffffffffffffff8111156130a657600080fd5b6130b289828a01612d8c565b9650965050602087013567ffffffffffffffff8111156130d157600080fd5b6130dd89828a01612dd6565b9450945050604087013567ffffffffffffffff8111156130fc57600080fd5b61310889828a01612e6a565b92509250509295509295509295565b60006020828403121561312957600080fd5b600061313784828501612eb4565b91505092915050565b60006020828403121561315257600080fd5b600061316084828501612ec9565b91505092915050565b60006020828403121561317b57600080fd5b600061318984828501612f72565b91505092915050565b6000806000606084860312156131a757600080fd5b60006131b586828701612f72565b93505060206131c686828701612d62565b92505060406131d786828701612d62565b9150509250925092565b6000806000806000806000806000806101008b8d03121561320157600080fd5b600061320f8d828e01612f72565b9a505060206132208d828e01612d62565b99505060406132318d828e01612d62565b98505060606132428d828e01612f72565b97505060806132538d828e01612f72565b96505060a06132648d828e01612f72565b95505060c08b013567ffffffffffffffff81111561328157600080fd5b61328d8d828e01612ede565b945094505060e08b013567ffffffffffffffff8111156132ac57600080fd5b6132b88d828e01612ede565b92509250509295989b9194979a5092959850565b60008060008060008060008060a0898b0312156132e857600080fd5b60006132f68b828c01612f72565b985050602089013567ffffffffffffffff81111561331357600080fd5b61331f8b828c01612e20565b9750975050604089013567ffffffffffffffff81111561333e57600080fd5b61334a8b828c01612f28565b9550955050606061335d8b828c01612f72565b935050608089013567ffffffffffffffff81111561337a57600080fd5b6133868b828c01612dd6565b92509250509295985092959890939650565b600080600080606085870312156133ae57600080fd5b60006133bc87828801612f72565b94505060206133cd87828801612f72565b935050604085013567ffffffffffffffff8111156133ea57600080fd5b6133f687828801612dd6565b925092505092959194509250565b6000806000806000806080878903121561341d57600080fd5b600061342b89828a01612f72565b965050602061343c89828a01612f72565b955050604087013567ffffffffffffffff81111561345957600080fd5b61346589828a01612ede565b9450945050606087013567ffffffffffffffff81111561348457600080fd5b61349089828a01612ede565b92509250509295509295509295565b60006134ab83836134fb565b60208301905092915050565b6134c0816142f2565b82525050565b6134cf816142a0565b82525050565b6134de816142a0565b82525050565b6134f56134f0826142a0565b61437c565b82525050565b6135048161428e565b82525050565b6135138161428e565b82525050565b61352a6135258261428e565b61436a565b82525050565b600061353c8385614228565b935061354782614206565b8060005b858110156135805761355d8284614277565b613567888261349f565b97506135728361421b565b92505060018101905061354b565b5085925050509392505050565b60006135998385614239565b93507f07ffffffffffffffffffffffffffffffffffffffffffffffffffffffffffffff8311156135c857600080fd5b6020830292506135d9838584614328565b82840190509392505050565b6135ee816142b2565b82525050565b6135fd816142b2565b82525050565b61360c816142be565b82525050565b600061361e838561424a565b935061362b838584614328565b613634836143aa565b840190509392505050565b600061364b838561424a565b9350613658838584614328565b613661836143aa565b840190509392505050565b6000613678838561426c565b9350613685838584614328565b82840190509392505050565b600061369c82614210565b6136a6818561426c565b93506136b6818560208601614337565b80840191505092915050565b60006136cf60208361425b565b91507f6372656174654d504320766572696679206368616e6e656c206661696c6564216000830152602082019050919050565b600061370f60178361425b565b91507f636c6f73654d50433a2077726f6e672076657273696f6e0000000000000000006000830152602082019050919050565b600061374f60188361425b565b91507f7570646174654d50433a2062616c616e6365206572726f7200000000000000006000830152602082019050919050565b600061378f601f8361425b565b91507f7570646174654d50433a2076657269667920736967206661696c6564212121006000830152602082019050919050565b60006137cf600d8361425b565b91507f62616c616e6365206572726f72000000000000000000000000000000000000006000830152602082019050919050565b600061380f60168361425b565b91507f636c6f73655450433a2077726f6e672073656e646572000000000000000000006000830152602082019050919050565b600061384f600e8361425b565b91507f766572696679206661696c6564210000000000000000000000000000000000006000830152602082019050919050565b600061388f600f8361425b565b91507f74686520545043206973206275737900000000000000000000000000000000006000830152602082019050919050565b60006138cf601b8361425b565b91507f636c6f73655450433a2076657273696f6e206e6f7420657175616c00000000006000830152602082019050919050565b600061390f601d8361425b565b91507f636c6f73654d50432076657269667920736967206661696c65642121210000006000830152602082019050919050565b600061394f600c8361425b565b91507f73656e646572206572726f7200000000000000000000000000000000000000006000830152602082019050919050565b600061398f60208361425b565b91507f6372656174654d5043207665726966792070617274696573206661696c6564216000830152602082019050919050565b60006139cf60238361425b565b91507f76657273696f6e206e756d206c6974746572207468616e206c6173746573742060008301527f6f6e6500000000000000000000000000000000000000000000000000000000006020830152604082019050919050565b6000613a3560188361425b565b91507f7570646174654d50433a2076657273696f6e206572726f7200000000000000006000830152602082019050919050565b6000613a7560178361425b565b91507f6372656174655450433a2077726f6e672073656e6465720000000000000000006000830152602082019050919050565b61010082016000820151613abf60008501826134c6565b506020820151613ad260208501826134c6565b506040820151613ae56040850182613b4a565b506060820151613af86060850182613b4a565b506080820151613b0b6080850182613b4a565b5060a0820151613b1e60a08501826135e5565b5060c0820151613b3160c08501826135e5565b5060e0820151613b4460e08501826135e5565b50505050565b613b53816142e8565b82525050565b613b62816142e8565b82525050565b613b79613b74826142e8565b6143a0565b82525050565b6000613b8b8284613519565b60148201915081905092915050565b6000613ba68289613519565b601482019150613bb68288613519565b601482019150613bc68287613b68565b602082019150613bd68286613b68565b602082019150613be68285613b68565b602082019150613bf68284613b68565b602082019150819050979650505050505050565b6000613c1782868861366c565b9150613c238285613519565b601482019150613c338284613b68565b60208201915081905095945050505050565b6000613c518288613691565b9150613c5d82876134e4565b601482019150613c6d82866134e4565b601482019150613c7d8285613b68565b602082019150613c8d8284613b68565b6020820191508190509695505050505050565b6000613cac8286613691565b9150613cb88285613b68565b602082019150613cc88284613b68565b602082019150819050949350505050565b600061010082019050613cef600083018b6134d5565b613cfc602083018a6134d5565b613d096040830189613b59565b613d166060830188613b59565b613d236080830187613b59565b613d3060a08301866135f4565b613d3d60c08301856135f4565b613d4a60e08301846135f4565b9998505050505050505050565b6000606082019050613d6c60008301876134b7565b613d796020830186613603565b8181036040830152613d8c818486613612565b905095945050505050565b6000606082019050613dac600083018761350a565b613db96020830186613603565b8181036040830152613dcc81848661363f565b905095945050505050565b6000606082019050613dec600083018761350a565b613df96020830186613603565b8181036040830152613e0c818486613612565b905095945050505050565b6000602082019050613e2c6000830184613603565b92915050565b60006020820190508181036000830152613e4b816136c2565b9050919050565b60006020820190508181036000830152613e6b81613702565b9050919050565b60006020820190508181036000830152613e8b81613742565b9050919050565b60006020820190508181036000830152613eab81613782565b9050919050565b60006020820190508181036000830152613ecb816137c2565b9050919050565b60006020820190508181036000830152613eeb81613802565b9050919050565b60006020820190508181036000830152613f0b81613842565b9050919050565b60006020820190508181036000830152613f2b81613882565b9050919050565b60006020820190508181036000830152613f4b816138c2565b9050919050565b60006020820190508181036000830152613f6b81613902565b9050919050565b60006020820190508181036000830152613f8b81613942565b9050919050565b60006020820190508181036000830152613fab81613982565b9050919050565b60006020820190508181036000830152613fcb816139c2565b9050919050565b60006020820190508181036000830152613feb81613a28565b9050919050565b6000602082019050818103600083015261400b81613a68565b9050919050565b6000610100820190506140286000830184613aa8565b92915050565b60006020820190506140436000830184613b59565b92915050565b600060608201905061405e6000830186613b59565b61406b60208301856134b7565b61407860408301846134b7565b949350505050565b600060a0820190506140956000830188613b59565b6140a260208301876134b7565b6140af60408301866134b7565b6140bc6060830185613b59565b6140c96080830184613b59565b9695505050505050565b60006060820190506140e86000830186613b59565b6140f560208301856134b7565b6141026040830184613b59565b949350505050565b600060a08201905061411f6000830188613b59565b61412c602083018761350a565b614139604083018661350a565b6141466060830185613b59565b6141536080830184613b59565b9695505050505050565b60006060820190506141726000830186613b59565b61417f602083018561350a565b61418c6040830184613b59565b949350505050565b60006060820190506141a96000830188613b59565b81810360208301526141bc818688613530565b905081810360408301526141d181848661358d565b90509695505050505050565b60006040820190506141f26000830185613b59565b6141ff6020830184613b59565b9392505050565b6000819050919050565b600081519050919050565b6000602082019050919050565b600082825260208201905092915050565b600082825260208201905092915050565b600082825260208201905092915050565b600082825260208201905092915050565b600081905092915050565b60006142866020840184612d62565b905092915050565b6000614299826142c8565b9050919050565b60006142ab826142c8565b9050919050565b60008115159050919050565b6000819050919050565b600073ffffffffffffffffffffffffffffffffffffffff82169050919050565b6000819050919050565b60006142fd82614304565b9050919050565b600061430f82614316565b9050919050565b6000614321826142c8565b9050919050565b82818337600083830152505050565b60005b8381101561435557808201518184015260208101905061433a565b83811115614364576000848401525b50505050565b60006143758261438e565b9050919050565b60006143878261438e565b9050919050565b6000614399826143bb565b9050919050565b6000819050919050565b6000601f19601f8301169050919050565b60008160601b9050919050565b6143d18161428e565b81146143dc57600080fd5b50565b6143e8816142a0565b81146143f357600080fd5b50565b6143ff816142b2565b811461440a57600080fd5b50565b614416816142be565b811461442157600080fd5b50565b61442d816142e8565b811461443857600080fd5b5056fea264697066735822122033b73b3e60ddc784da525b3bdd3715b4dd953609bcc98d5dd3606607a9c110bd64736f6c63430006000033608060405234801561001057600080fd5b5061031e806100206000396000f3fe608060405234801561001057600080fd5b50600436106100365760003560e01c80631a86b5501461003b5780631f27571314610138575b600080fd5b61011e6004803603606081101561005157600080fd5b81019080803573ffffffffffffffffffffffffffffffffffffffff169060200190929190803590602001909291908035906020019064010000000081111561009857600080fd5b8201836020820111156100aa57600080fd5b803590602001918460018302840111640100000000831117156100cc57600080fd5b91908080601f016020809104026020016040519081016040528093929190818152602001838380828437600081840152601f19601f82011690508083019250505050505050919291929050505061017a565b604051808215151515815260200191505060405180910390f35b6101646004803603602081101561014e57600080fd5b8101908080359060200190929190505050610290565b6040518082815260200191505060405180910390f35b6000604182511461018e5760009050610289565b600080600060608590506020810151935060408101519250606081015160001a9150601b8260ff1610156101c357601b820191505b601b8260ff16141580156101db5750601c8260ff1614155b156101ed576000945050505050610289565b8773ffffffffffffffffffffffffffffffffffffffff1660018884878760405160008152602001604052604051808581526020018460ff1660ff1681526020018381526020018281526020019450505050506020604051602081039080840390855afa158015610261573d6000803e3d6000fd5b5050506020604051035173ffffffffffffffffffffffffffffffffffffffff16149450505050505b9392505050565b60008160405160200180807f19457468657265756d205369676e6564204d6573736167653a0a333200000000815250601c0182815260200191505060405160208183030381529060405280519060200120905091905056fea264697066735822122095b7258ee81d3084db524579003e6175c7cff276acd359c835fc2312f28385ab64736f6c63430006000033",
  "source": "pragma solidity >=0.4.24 <0.7.0;\npragma experimental ABIEncoderV2;\n\n// import \"./SimplePaymentChannel.sol\";\n// pragma solidity >=0.4.24 <0.7.0;\n// pragma experimental ABIEncoderV2;\n\nimport \"./ILibSig.sol\";\n\ncontract SimplePaymentChannel {\n    event TPCOpenRequest(uint256 id, address alice, address bob, uint256 ab, uint256 bb);\n    event TPCOpenSuccess(uint256 id, address alice, address bob, uint256 ab, uint256 bb);\n    event TPCUpdateSuccess(uint256 id, address alice, address bob, uint256 new_ab, uint256 new_bb);\n    event TPCSomeDeposit(uint256 id, address addr, uint256 token);\n    event TPCCloseChannel(uint256 id, address alice, address bob);\n\n    struct TPC {\n        address payable alice;\n        address payable bob;\n        uint256 alice_balance; // wei\n        uint256 bob_balance;\n        uint256 version_num;\n        bool alice_deposited;\n        bool bob_deposited;\n        bool busy;\n    }\n\n    LibSig libSig = new LibSig();\n\n    // TPC[] public tpc_array;\n    mapping (uint256 => TPC) public tpc_map;\n\n    uint256 count = 1;\n\n    // TPC tpc_ab;\n\n    function createTPC(address payable alice, address payable bob, uint256 ab, uint256 bb,\n        bytes calldata sigA, bytes calldata sigB)\n        external\n        payable\n    {\n        string memory prefix = \"create a TPC\";\n        bytes32 msgHash = libSig.prefixed(keccak256(abi.encodePacked(prefix, alice, bob, ab, bb)));\n        require(msg.sender == alice || msg.sender == bob, \"createTPC: wrong sender\");\n        require(libSig.verify(alice, msgHash, sigA) && libSig.verify(bob, msgHash, sigB), \"verify failed!\");\n\n        TPC memory tpc;\n        tpc.alice = alice;\n        tpc.bob = bob;\n        tpc.version_num = 0;\n        tpc.alice_deposited = false;\n        tpc.bob_deposited = false;\n        tpc.busy = false;\n        tpc.alice_deposited = false;\n        tpc.bob_deposited = false;\n\n        uint256 id = count;\n        tpc_map[id] = tpc;\n        count += 1;\n        emit TPCOpenRequest(id, alice, bob, ab, bb);\n\n        if (msg.sender == tpc_map[id].alice)\n        {\n            tpc_map[id].alice_balance = msg.value;\n            tpc_map[id].alice_deposited = true;\n            emit TPCSomeDeposit(id, alice, msg.value);\n        }\n        else if (msg.sender == tpc_map[id].bob)\n        {\n            tpc_map[id].bob_balance = msg.value;\n            tpc_map[id].bob_deposited = true;\n            emit TPCSomeDeposit(id, bob, msg.value);\n        }\n    }\n\n    function getChannel(uint256 id)\n        external\n        view\n        returns (TPC memory)\n    {\n        return tpc_map[id];\n    }\n\n    function deposit(uint256 id, address alice, address bob)\n        external\n        payable\n        returns (uint256)\n    {\n        //  TPC memory tpc = tpc_map[id];\n        if (msg.sender == tpc_map[id].alice)\n        {\n            tpc_map[id].alice_balance = msg.value;\n            tpc_map[id].alice_deposited = true;\n            emit TPCSomeDeposit(id, alice, msg.value);\n        }\n        else if (msg.sender == tpc_map[id].bob)\n        {\n            tpc_map[id].bob_balance = msg.value;\n            tpc_map[id].bob_deposited = true;\n            emit TPCSomeDeposit(id, bob, msg.value);\n        }\n        if (tpc_map[id].alice_deposited && tpc_map[id].bob_deposited) {\n            // uint256 id = count;\n            // tpc_map[id] = tpc_ab;\n            // count += 1;\n            // tpc_ab.alice_deposited = false;\n            // tpc_ab.bob_deposited = false;\n            emit TPCOpenSuccess(id, alice, bob, tpc_map[id].alice_balance, tpc_map[id].bob_balance);\n            return id;\n        }\n        return 0;\n    }\n\n    function updateTPC(\n            uint256 id, address alice, address bob,\n            uint256 new_ab, uint256 new_bb, uint256 version,\n            bytes calldata sigA, bytes calldata sigB\n        )\n        external\n        payable\n    {\n        require(tpc_map[id].busy == false, \"the TPC is busy\");\n        require(msg.sender == alice || msg.sender == bob, \"sender error\");\n        require((tpc_map[id].alice_balance + tpc_map[id].bob_balance) == (new_ab + new_bb), \"balance error\");\n\n        bytes32 msgHash = libSig.prefixed(keccak256(abi.encodePacked(alice, bob, id, new_ab, new_bb, version)));\n\n        require(version > tpc_map[id].version_num, \"version num litter than lastest one\");\n        require(libSig.verify(alice, msgHash, sigA) && libSig.verify(bob, msgHash, sigB), \"verify failed!\");\n\n        tpc_map[id].alice_balance = new_ab;\n        tpc_map[id].bob_balance = new_bb;\n        tpc_map[id].version_num = version;\n\n        emit TPCUpdateSuccess(id, alice, bob, new_ab, new_bb);\n    }\n\n    function updateTPCInternal(uint256 id, uint256 new_ab, uint256 new_bb)\n        internal\n    {\n        // require(tpc_map[id].alice_balance + tpc_map[id].bob_balance == new_ab + new_bb, \"updateTPCInternal: amount error\");\n        tpc_map[id].alice_balance = new_ab;\n        tpc_map[id].bob_balance = new_bb;\n    }\n\n    function closeTPC(uint256 id, uint256 version,\n            bytes calldata sigA, bytes calldata sigB)\n        external\n        payable\n    {\n        TPC memory channel = tpc_map[id];\n        require(msg.sender == channel.alice || msg.sender == channel.bob, \"closeTPC: wrong sender\");\n\n        string memory prefix = \"close the TPC\";\n        bytes32 msgHash = libSig.prefixed(keccak256(abi.encodePacked(prefix, id, version)));\n        require(version == tpc_map[id].version_num, \"closeTPC: version not equal\");\n        uint256 sc_version = tpc_map[id].version_num;\n        require(libSig.verify(channel.alice, msgHash, sigA) && libSig.verify(channel.bob, msgHash, sigB), \"verify failed!\");\n        // withdraw\n        channel.alice.transfer(channel.alice_balance);\n        channel.bob.transfer(channel.bob_balance);\n        delete tpc_map[id];\n        emit TPCCloseChannel(sc_version, channel.alice, channel.bob);\n    }\n\n    function verifyChannel(uint256 id)\n        internal\n        view\n        returns (bool)\n    {\n        if (tpc_map[id].alice != address(0) && tpc_map[id].bob != address(0) &&\n            tpc_map[id].alice_deposited == true && tpc_map[id].bob_deposited == true)\n        {\n            return true;\n        }\n        else {\n            return false;\n        }\n    }\n\n    function getTPC(uint256 id)\n        external\n        view\n        returns (TPC memory)\n    {\n        return tpc_map[id];\n    }\n}\n\ncontract MultipartyChannel is SimplePaymentChannel {\n    event MPCCreateSuccess(uint256 id, address[] parties, uint256[] channels_id);\n    event MPCUpdateSuccess();\n    event MPCTransactionError(Transaction t);\n    event MPCClosed(uint256 mpc_id);\n\n    struct MPC {\n        uint256 id;\n        address[] parties;\n        uint256[] channels_id;\n        uint256 version_num;\n    }\n\n    struct Transaction {\n        uint256 channel_id;\n        address src;\n        address dst;\n        uint256 new_ab;\n        uint256 new_ba;\n    }\n\n    mapping (uint256 => MPC) public mpc_map;\n\n    MPC mpc;\n    uint256 mpc_count = 0;\n    // SimplePaymentChannel spc;\n\n    function createMPC(address[] calldata parties, bytes[] calldata sigs, uint256[] calldata channels_id)\n        external\n        returns (uint256)\n    {\n        // spc = SimplePaymentChannel(spcAddr);\n        // verify signatures\n        for (uint i = 0; i < parties.length; i++) {\n            bytes32 msgHash = libSig.prefixed(keccak256(abi.encodePacked(parties[i])));\n            require(libSig.verify(parties[i], msgHash, sigs[i]), \"createMPC verify parties failed!\");\n        }\n        // verify channels\n        for (uint256 i = 0; i < channels_id.length; i++) {\n            require(verifyChannel(channels_id[i]), \"createMPC verify channel failed!\");\n            tpc_map[channels_id[i]].busy = true;\n        }\n\n        mpc.id = mpc_count + 1;\n        mpc_count = mpc_count + 1;\n        mpc.parties = parties;\n        mpc.channels_id = channels_id;\n        mpc.version_num = 0;\n        mpc_map[mpc.id] = mpc;\n        emit MPCCreateSuccess(mpc.id, parties, channels_id);\n        return mpc.id;\n    }\n\n    function updateMPC(uint256 mpc_id, Transaction[] calldata txs, string calldata msgstr, uint256 version, bytes[] calldata sigs)\n        external\n    {\n        // verify sigs\n        require(mpc_map[mpc.id].version_num < version, \"updateMPC: version error\");\n        for (uint i = 0; i < mpc_map[mpc_id].parties.length; i++) {\n            bytes32 msgHash = libSig.prefixed(keccak256(abi.encodePacked(msgstr, mpc_map[mpc_id].parties[i], version)));\n            require(libSig.verify(mpc_map[mpc_id].parties[i], msgHash, sigs[i]), \"updateMPC: verify sig failed!!!\");\n        }\n        for (uint i = 0; i < txs.length; i++) {\n            require(tpc_map[txs[i].channel_id].alice_balance + tpc_map[txs[i].channel_id].bob_balance == txs[i].new_ab + txs[i].new_ba, \"updateMPC: balance error\");\n        }\n        // execute txs\n        for (uint i = 0; i < txs.length; i++) {\n            updateTPCInternal(txs[i].channel_id, txs[i].new_ab, txs[i].new_ba);\n        }\n        mpc_map[mpc_id].version_num = version;\n        emit MPCUpdateSuccess();\n    }\n\n    function closeMPC(uint256 mpc_id, uint256 version, bytes[] calldata sigs)\n        external\n    {\n        // require(mpc_id == mpc.id, \"closeMPC: wrong id of the mpc\");\n        require(mpc_map[mpc_id].version_num == version, \"closeMPC: wrong version\");\n        string memory prefix = \"close the MPC\";\n        bytes32 msgHash = libSig.prefixed(keccak256(abi.encodePacked(prefix, mpc_id, version)));\n\n        for (uint i = 0; i < mpc_map[mpc_id].parties.length; i++) {\n            require(libSig.verify(mpc_map[mpc_id].parties[i], msgHash, sigs[i]), \"closeMPC verify sig failed!!!\");\n        }\n        emit MPCClosed(mpc_id);\n        delete mpc_map[mpc_id];\n    }\n}",
  "sourcePath": "/Users/xuxianli/work/blockchain/micropc/contracts/MultipartyChannel.sol",
  "compiler": {
    "name": "solc",
    "version": "0.6.0+commit.26b70077.Emscripten.clang"
  },
  "schemaVersion": "3.0.23",
  "updatedAt": "2020-03-11T01:45:39.438Z",
  "networkType": "ethereum",
  "devdoc": {
    "methods": {}
  },
  "userdoc": {
    "methods": {}
  }
}