{
  "contractName": "MultipartyChannel",
  "abi": [
    {
      "anonymous": false,
      "inputs": [
        {
          "indexed": false,
          "internalType": "uint256",
          "name": "mpc_id",
          "type": "uint256"
        }
      ],
      "name": "MPCClosed",
      "type": "event"
    },
    {
      "anonymous": false,
      "inputs": [
        {
          "indexed": false,
          "internalType": "uint256",
          "name": "id",
          "type": "uint256"
        },
        {
          "indexed": false,
          "internalType": "address[]",
          "name": "parties",
          "type": "address[]"
        },
        {
          "indexed": false,
          "internalType": "uint256[]",
          "name": "channels_id",
          "type": "uint256[]"
        }
      ],
      "name": "MPCCreateSuccess",
      "type": "event"
    },
    {
      "anonymous": false,
      "inputs": [
        {
          "components": [
            {
              "internalType": "uint256",
              "name": "channel_id",
              "type": "uint256"
            },
            {
              "internalType": "address",
              "name": "src",
              "type": "address"
            },
            {
              "internalType": "address",
              "name": "dst",
              "type": "address"
            },
            {
              "internalType": "uint256",
              "name": "new_ab",
              "type": "uint256"
            },
            {
              "internalType": "uint256",
              "name": "new_ba",
              "type": "uint256"
            }
          ],
          "indexed": false,
          "internalType": "struct MultipartyChannel.Transaction",
          "name": "t",
          "type": "tuple"
        }
      ],
      "name": "MPCTransactionError",
      "type": "event"
    },
    {
      "anonymous": false,
      "inputs": [],
      "name": "MPCUpdateSuccess",
      "type": "event"
    },
    {
      "anonymous": false,
      "inputs": [
        {
          "indexed": false,
          "internalType": "uint256",
          "name": "id",
          "type": "uint256"
        },
        {
          "indexed": false,
          "internalType": "address",
          "name": "alice",
          "type": "address"
        },
        {
          "indexed": false,
          "internalType": "address",
          "name": "bob",
          "type": "address"
        }
      ],
      "name": "TPCCloseChannel",
      "type": "event"
    },
    {
      "anonymous": false,
      "inputs": [
        {
          "indexed": false,
          "internalType": "address",
          "name": "alice",
          "type": "address"
        },
        {
          "indexed": false,
          "internalType": "address",
          "name": "bob",
          "type": "address"
        },
        {
          "indexed": false,
          "internalType": "uint256",
          "name": "ab",
          "type": "uint256"
        },
        {
          "indexed": false,
          "internalType": "uint256",
          "name": "bb",
          "type": "uint256"
        }
      ],
      "name": "TPCOpenRequest",
      "type": "event"
    },
    {
      "anonymous": false,
      "inputs": [
        {
          "indexed": false,
          "internalType": "uint256",
          "name": "id",
          "type": "uint256"
        },
        {
          "indexed": false,
          "internalType": "address",
          "name": "alice",
          "type": "address"
        },
        {
          "indexed": false,
          "internalType": "address",
          "name": "bob",
          "type": "address"
        },
        {
          "indexed": false,
          "internalType": "uint256",
          "name": "ab",
          "type": "uint256"
        },
        {
          "indexed": false,
          "internalType": "uint256",
          "name": "bb",
          "type": "uint256"
        }
      ],
      "name": "TPCOpenSuccess",
      "type": "event"
    },
    {
      "anonymous": false,
      "inputs": [
        {
          "indexed": false,
          "internalType": "address",
          "name": "addr",
          "type": "address"
        },
        {
          "indexed": false,
          "internalType": "uint256",
          "name": "token",
          "type": "uint256"
        }
      ],
      "name": "TPCSomeDeposit",
      "type": "event"
    },
    {
      "anonymous": false,
      "inputs": [
        {
          "indexed": false,
          "internalType": "uint256",
          "name": "id",
          "type": "uint256"
        },
        {
          "indexed": false,
          "internalType": "address",
          "name": "alice",
          "type": "address"
        },
        {
          "indexed": false,
          "internalType": "address",
          "name": "bob",
          "type": "address"
        },
        {
          "indexed": false,
          "internalType": "uint256",
          "name": "new_ab",
          "type": "uint256"
        },
        {
          "indexed": false,
          "internalType": "uint256",
          "name": "new_bb",
          "type": "uint256"
        }
      ],
      "name": "TPCUpdateSuccess",
      "type": "event"
    },
    {
      "inputs": [
        {
          "internalType": "uint256",
          "name": "id",
          "type": "uint256"
        },
        {
          "internalType": "uint256",
          "name": "version",
          "type": "uint256"
        },
        {
          "internalType": "bytes",
          "name": "sigA",
          "type": "bytes"
        },
        {
          "internalType": "bytes",
          "name": "sigB",
          "type": "bytes"
        }
      ],
      "name": "closeTPC",
      "outputs": [],
      "stateMutability": "payable",
      "type": "function",
      "payable": true
    },
    {
      "inputs": [
        {
          "internalType": "address payable",
          "name": "alice",
          "type": "address"
        },
        {
          "internalType": "address payable",
          "name": "bob",
          "type": "address"
        },
        {
          "internalType": "uint256",
          "name": "ab",
          "type": "uint256"
        },
        {
          "internalType": "uint256",
          "name": "bb",
          "type": "uint256"
        }
      ],
      "name": "createTPC",
      "outputs": [],
      "stateMutability": "payable",
      "type": "function",
      "payable": true
    },
    {
      "inputs": [
        {
          "internalType": "address",
          "name": "alice",
          "type": "address"
        },
        {
          "internalType": "address",
          "name": "bob",
          "type": "address"
        }
      ],
      "name": "deposit",
      "outputs": [
        {
          "internalType": "uint256",
          "name": "",
          "type": "uint256"
        }
      ],
      "stateMutability": "payable",
      "type": "function",
      "payable": true
    },
    {
      "inputs": [
        {
          "internalType": "uint256",
          "name": "id",
          "type": "uint256"
        }
      ],
      "name": "getChannel",
      "outputs": [
        {
          "components": [
            {
              "internalType": "address payable",
              "name": "alice",
              "type": "address"
            },
            {
              "internalType": "address payable",
              "name": "bob",
              "type": "address"
            },
            {
              "internalType": "uint256",
              "name": "alice_balance",
              "type": "uint256"
            },
            {
              "internalType": "uint256",
              "name": "bob_balance",
              "type": "uint256"
            },
            {
              "internalType": "uint256",
              "name": "version_num",
              "type": "uint256"
            },
            {
              "internalType": "bool",
              "name": "alice_deposited",
              "type": "bool"
            },
            {
              "internalType": "bool",
              "name": "bob_deposited",
              "type": "bool"
            },
            {
              "internalType": "bool",
              "name": "busy",
              "type": "bool"
            }
          ],
          "internalType": "struct SimplePaymentChannel.TPC",
          "name": "",
          "type": "tuple"
        }
      ],
      "stateMutability": "view",
      "type": "function",
      "constant": true
    },
    {
      "inputs": [
        {
          "internalType": "uint256",
          "name": "id",
          "type": "uint256"
        }
      ],
      "name": "getTPC",
      "outputs": [
        {
          "components": [
            {
              "internalType": "address payable",
              "name": "alice",
              "type": "address"
            },
            {
              "internalType": "address payable",
              "name": "bob",
              "type": "address"
            },
            {
              "internalType": "uint256",
              "name": "alice_balance",
              "type": "uint256"
            },
            {
              "internalType": "uint256",
              "name": "bob_balance",
              "type": "uint256"
            },
            {
              "internalType": "uint256",
              "name": "version_num",
              "type": "uint256"
            },
            {
              "internalType": "bool",
              "name": "alice_deposited",
              "type": "bool"
            },
            {
              "internalType": "bool",
              "name": "bob_deposited",
              "type": "bool"
            },
            {
              "internalType": "bool",
              "name": "busy",
              "type": "bool"
            }
          ],
          "internalType": "struct SimplePaymentChannel.TPC",
          "name": "",
          "type": "tuple"
        }
      ],
      "stateMutability": "view",
      "type": "function",
      "constant": true
    },
    {
      "inputs": [
        {
          "internalType": "uint256",
          "name": "",
          "type": "uint256"
        }
      ],
      "name": "mpc_map",
      "outputs": [
        {
          "internalType": "uint256",
          "name": "id",
          "type": "uint256"
        },
        {
          "internalType": "uint256",
          "name": "version_num",
          "type": "uint256"
        }
      ],
      "stateMutability": "view",
      "type": "function",
      "constant": true
    },
    {
      "inputs": [
        {
          "internalType": "uint256",
          "name": "",
          "type": "uint256"
        }
      ],
      "name": "tpc_map",
      "outputs": [
        {
          "internalType": "address payable",
          "name": "alice",
          "type": "address"
        },
        {
          "internalType": "address payable",
          "name": "bob",
          "type": "address"
        },
        {
          "internalType": "uint256",
          "name": "alice_balance",
          "type": "uint256"
        },
        {
          "internalType": "uint256",
          "name": "bob_balance",
          "type": "uint256"
        },
        {
          "internalType": "uint256",
          "name": "version_num",
          "type": "uint256"
        },
        {
          "internalType": "bool",
          "name": "alice_deposited",
          "type": "bool"
        },
        {
          "internalType": "bool",
          "name": "bob_deposited",
          "type": "bool"
        },
        {
          "internalType": "bool",
          "name": "busy",
          "type": "bool"
        }
      ],
      "stateMutability": "view",
      "type": "function",
      "constant": true
    },
    {
      "inputs": [
        {
          "internalType": "uint256",
          "name": "id",
          "type": "uint256"
        },
        {
          "internalType": "address",
          "name": "alice",
          "type": "address"
        },
        {
          "internalType": "address",
          "name": "bob",
          "type": "address"
        },
        {
          "internalType": "uint256",
          "name": "new_ab",
          "type": "uint256"
        },
        {
          "internalType": "uint256",
          "name": "new_bb",
          "type": "uint256"
        },
        {
          "internalType": "uint256",
          "name": "version",
          "type": "uint256"
        },
        {
          "internalType": "bytes",
          "name": "sigA",
          "type": "bytes"
        },
        {
          "internalType": "bytes",
          "name": "sigB",
          "type": "bytes"
        }
      ],
      "name": "updateTPC",
      "outputs": [],
      "stateMutability": "payable",
      "type": "function",
      "payable": true
    },
    {
      "inputs": [
        {
          "internalType": "address[]",
          "name": "parties",
          "type": "address[]"
        },
        {
          "internalType": "bytes[]",
          "name": "sigs",
          "type": "bytes[]"
        },
        {
          "internalType": "uint256[]",
          "name": "channels_id",
          "type": "uint256[]"
        }
      ],
      "name": "createMPC",
      "outputs": [
        {
          "internalType": "uint256",
          "name": "",
          "type": "uint256"
        }
      ],
      "stateMutability": "nonpayable",
      "type": "function"
    },
    {
      "inputs": [
        {
          "internalType": "uint256",
          "name": "mpc_id",
          "type": "uint256"
        },
        {
          "components": [
            {
              "internalType": "uint256",
              "name": "channel_id",
              "type": "uint256"
            },
            {
              "internalType": "address",
              "name": "src",
              "type": "address"
            },
            {
              "internalType": "address",
              "name": "dst",
              "type": "address"
            },
            {
              "internalType": "uint256",
              "name": "new_ab",
              "type": "uint256"
            },
            {
              "internalType": "uint256",
              "name": "new_ba",
              "type": "uint256"
            }
          ],
          "internalType": "struct MultipartyChannel.Transaction[]",
          "name": "txs",
          "type": "tuple[]"
        },
        {
          "internalType": "string",
          "name": "msgstr",
          "type": "string"
        },
        {
          "internalType": "uint256",
          "name": "version",
          "type": "uint256"
        },
        {
          "internalType": "bytes[]",
          "name": "sigs",
          "type": "bytes[]"
        }
      ],
      "name": "updateMPC",
      "outputs": [],
      "stateMutability": "nonpayable",
      "type": "function"
    },
    {
      "inputs": [
        {
          "internalType": "uint256",
          "name": "mpc_id",
          "type": "uint256"
        },
        {
          "internalType": "uint256",
          "name": "version",
          "type": "uint256"
        },
        {
          "internalType": "bytes[]",
          "name": "sigs",
          "type": "bytes[]"
        }
      ],
      "name": "closeMPC",
      "outputs": [],
      "stateMutability": "nonpayable",
      "type": "function"
    }
  ],
  "bytecode": "0x608060405260405162000012906200008d565b604051809103906000f0801580156200002f573d6000803e3d6000fd5b506000806101000a81548173ffffffffffffffffffffffffffffffffffffffff021916908373ffffffffffffffffffffffffffffffffffffffff16021790555060016002556000600e553480156200008657600080fd5b506200009b565b61033e8062003dd383390190565b613d2880620000ab6000396000f3fe60806040526004361061009c5760003560e01c8063851dc27611610064578063851dc2761461019157806397a5ecf8146101ce578063b2459533146101f7578063b2fae2d414610213578063e6ca4b141461023c578063f9609f08146102805761009c565b806302a5a56f146100a157806306e78f82146100bd57806310df54a0146100fb578063266833bb146101385780635266538814610154575b600080fd5b6100bb60048036036100b69190810190612bcf565b6102b0565b005b3480156100c957600080fd5b506100e460048036036100df9190810190612ba6565b6107b3565b6040516100f2929190613aa6565b60405180910390f35b34801561010757600080fd5b50610122600480360361011d9190810190612ba6565b6107d7565b60405161012f919061399c565b60405180910390f35b610152600480360361014d9190810190612a11565b610920565b005b34801561016057600080fd5b5061017b60048036036101769190810190612ab0565b610a50565b60405161018891906139b8565b60405180910390f35b34801561019d57600080fd5b506101b860048036036101b39190810190612ba6565b610e91565b6040516101c5919061399c565b60405180910390f35b3480156101da57600080fd5b506101f560048036036101f09190810190612d86565b610fda565b005b610211600480360361020c9190810190612df2565b611396565b005b34801561021f57600080fd5b5061023a60048036036102359190810190612cba565b611a43565b005b34801561024857600080fd5b50610263600480360361025e9190810190612ba6565b611f32565b60405161027798979695949392919061365a565b60405180910390f35b61029a60048036036102959190810190612a74565b611fe1565b6040516102a791906139b8565b60405180910390f35b60001515600160008c815260200190815260200160002060050160029054906101000a900460ff1615151461031a576040517f08c379a0000000000000000000000000000000000000000000000000000000008152600401610311906138bc565b60405180910390fd5b8873ffffffffffffffffffffffffffffffffffffffff163373ffffffffffffffffffffffffffffffffffffffff16148061037f57508773ffffffffffffffffffffffffffffffffffffffff163373ffffffffffffffffffffffffffffffffffffffff16145b6103be576040517f08c379a00000000000000000000000000000000000000000000000000000000081526004016103b59061391c565b60405180910390fd5b858701600160008c815260200190815260200160002060030154600160008d8152602001908152602001600020600201540114610430576040517f08c379a00000000000000000000000000000000000000000000000000000000081526004016104279061385c565b60405180910390fd5b60008060009054906101000a900473ffffffffffffffffffffffffffffffffffffffff1673ffffffffffffffffffffffffffffffffffffffff16631f2757138b8b8e8c8c8c60405160200161048a96959493929190613531565b604051602081830303815290604052805190602001206040518263ffffffff1660e01b81526004016104bc91906137c1565b60206040518083038186803b1580156104d457600080fd5b505afa1580156104e8573d6000803e3d6000fd5b505050506040513d601f19601f8201168201806040525061050c9190810190612b7d565b9050600160008c8152602001908152602001600020600401548611610566576040517f08c379a000000000000000000000000000000000000000000000000000000000815260040161055d9061395c565b60405180910390fd5b6000809054906101000a900473ffffffffffffffffffffffffffffffffffffffff1673ffffffffffffffffffffffffffffffffffffffff16631a86b5508b8388886040518563ffffffff1660e01b81526004016105c69493929190613758565b60206040518083038186803b1580156105de57600080fd5b505afa1580156105f2573d6000803e3d6000fd5b505050506040513d601f19601f820116820180604052506106169190810190612b54565b80156106ce57506000809054906101000a900473ffffffffffffffffffffffffffffffffffffffff1673ffffffffffffffffffffffffffffffffffffffff16631a86b5508a8386866040518563ffffffff1660e01b815260040161067d9493929190613758565b60206040518083038186803b15801561069557600080fd5b505afa1580156106a9573d6000803e3d6000fd5b505050506040513d601f19601f820116820180604052506106cd9190810190612b54565b5b61070d576040517f08c379a00000000000000000000000000000000000000000000000000000000081526004016107049061389c565b60405180910390fd5b87600160008d81526020019081526020016000206002018190555086600160008d81526020019081526020016000206003018190555060018060008d8152602001908152602001600020600401600082825401925050819055507f360021256038e7800042bd766ba4b42429d89cd49327ec22493810c1996ad5068b8b8b8b8b60405161079e959493929190613a0a565b60405180910390a15050505050505050505050565b60096020528060005260406000206000915090508060000154908060030154905082565b6107df612511565b60016000838152602001908152602001600020604051806101000160405290816000820160009054906101000a900473ffffffffffffffffffffffffffffffffffffffff1673ffffffffffffffffffffffffffffffffffffffff1673ffffffffffffffffffffffffffffffffffffffff1681526020016001820160009054906101000a900473ffffffffffffffffffffffffffffffffffffffff1673ffffffffffffffffffffffffffffffffffffffff1673ffffffffffffffffffffffffffffffffffffffff1681526020016002820154815260200160038201548152602001600482015481526020016005820160009054906101000a900460ff161515151581526020016005820160019054906101000a900460ff161515151581526020016005820160029054906101000a900460ff1615151515815250509050919050565b83600360000160006101000a81548173ffffffffffffffffffffffffffffffffffffffff021916908373ffffffffffffffffffffffffffffffffffffffff16021790555082600360010160006101000a81548173ffffffffffffffffffffffffffffffffffffffff021916908373ffffffffffffffffffffffffffffffffffffffff16021790555060006003600401819055506000600360050160006101000a81548160ff0219169083151502179055506000600360050160016101000a81548160ff0219169083151502179055506000600360050160026101000a81548160ff0219169083151502179055507f297b58dfc4e1f810e4c375daa036abfc510e04847803884aeb98fa0eac25a31484848484604051610a429493929190613615565b60405180910390a150505050565b600080600090505b87879050811015610cd25760008060009054906101000a900473ffffffffffffffffffffffffffffffffffffffff1673ffffffffffffffffffffffffffffffffffffffff16631f2757138a8a85818110610aae57fe5b9050602002016020610ac391908101906129e8565b604051602001610ad39190613516565b604051602081830303815290604052805190602001206040518263ffffffff1660e01b8152600401610b0591906137c1565b60206040518083038186803b158015610b1d57600080fd5b505afa158015610b31573d6000803e3d6000fd5b505050506040513d601f19601f82011682018060405250610b559190810190612b7d565b90506000809054906101000a900473ffffffffffffffffffffffffffffffffffffffff1673ffffffffffffffffffffffffffffffffffffffff16631a86b5508a8a85818110610ba057fe5b9050602002016020610bb591908101906129e8565b838a8a87818110610bc257fe5b9050602002810180356001602003833603038112610bdf57600080fd5b8083019250508135905060208201915067ffffffffffffffff811115610c0457600080fd5b600181023603821315610c1657600080fd5b6040518563ffffffff1660e01b8152600401610c359493929190613718565b60206040518083038186803b158015610c4d57600080fd5b505afa158015610c61573d6000803e3d6000fd5b505050506040513d601f19601f82011682018060405250610c859190810190612b54565b610cc4576040517f08c379a0000000000000000000000000000000000000000000000000000000008152600401610cbb9061393c565b60405180910390fd5b508080600101915050610a58565b5060008090505b83839050811015610d8b57610cff848483818110610cf357fe5b90506020020135612381565b610d3e576040517f08c379a0000000000000000000000000000000000000000000000000000000008152600401610d35906137dc565b60405180910390fd5b6001806000868685818110610d4f57fe5b90506020020135815260200190815260200160002060050160026101000a81548160ff0219169083151502179055508080600101915050610cd9565b506001600e5401600a600001819055506001600e5401600e819055508686600a6001019190610dbb929190612588565b508282600a6002019190610dd0929190612628565b506000600a60030181905550600a60096000600a600001548152602001908152602001600020600082015481600001556001820181600101908054610e16929190612675565b506002820181600201908054610e2d9291906126c7565b50600382015481600301559050507f335a0a14c99993cd931420c0c93e1fd4bff2edeef690b1542afa560cc98b8102600a6000015488888686604051610e77959493929190613a5d565b60405180910390a1600a6000015490509695505050505050565b610e99612511565b60016000838152602001908152602001600020604051806101000160405290816000820160009054906101000a900473ffffffffffffffffffffffffffffffffffffffff1673ffffffffffffffffffffffffffffffffffffffff1673ffffffffffffffffffffffffffffffffffffffff1681526020016001820160009054906101000a900473ffffffffffffffffffffffffffffffffffffffff1673ffffffffffffffffffffffffffffffffffffffff1673ffffffffffffffffffffffffffffffffffffffff1681526020016002820154815260200160038201548152602001600482015481526020016005820160009054906101000a900460ff161515151581526020016005820160019054906101000a900460ff161515151581526020016005820160029054906101000a900460ff1615151515815250509050919050565b82600960008681526020019081526020016000206003015414611032576040517f08c379a0000000000000000000000000000000000000000000000000000000008152600401611029906137fc565b60405180910390fd5b60606040518060400160405280600d81526020017f636c6f736520746865204d504300000000000000000000000000000000000000815250905060008060009054906101000a900473ffffffffffffffffffffffffffffffffffffffff1673ffffffffffffffffffffffffffffffffffffffff16631f2757138388886040516020016110c0939291906135dc565b604051602081830303815290604052805190602001206040518263ffffffff1660e01b81526004016110f291906137c1565b60206040518083038186803b15801561110a57600080fd5b505afa15801561111e573d6000803e3d6000fd5b505050506040513d601f19601f820116820180604052506111429190810190612b7d565b905060008090505b6009600088815260200190815260200160002060010180549050811015611310576000809054906101000a900473ffffffffffffffffffffffffffffffffffffffff1673ffffffffffffffffffffffffffffffffffffffff16631a86b550600960008a815260200190815260200160002060010183815481106111c957fe5b9060005260206000200160009054906101000a900473ffffffffffffffffffffffffffffffffffffffff168488888681811061120157fe5b905060200281018035600160200383360303811261121e57600080fd5b8083019250508135905060208201915067ffffffffffffffff81111561124357600080fd5b60018102360382131561125557600080fd5b6040518563ffffffff1660e01b81526004016112749493929190613718565b60206040518083038186803b15801561128c57600080fd5b505afa1580156112a0573d6000803e3d6000fd5b505050506040513d601f19601f820116820180604052506112c49190810190612b54565b611303576040517f08c379a00000000000000000000000000000000000000000000000000000000081526004016112fa906138fc565b60405180910390fd5b808060010191505061114a565b506009600087815260200190815260200160002060008082016000905560018201600061133d9190612719565b60028201600061134d919061273a565b600382016000905550507fcf38d3653965a88e4633f795de9aa236602765678ab7ed0d802a4e40282e93568660405161138691906139b8565b60405180910390a1505050505050565b61139e612511565b60016000888152602001908152602001600020604051806101000160405290816000820160009054906101000a900473ffffffffffffffffffffffffffffffffffffffff1673ffffffffffffffffffffffffffffffffffffffff1673ffffffffffffffffffffffffffffffffffffffff1681526020016001820160009054906101000a900473ffffffffffffffffffffffffffffffffffffffff1673ffffffffffffffffffffffffffffffffffffffff1673ffffffffffffffffffffffffffffffffffffffff1681526020016002820154815260200160038201548152602001600482015481526020016005820160009054906101000a900460ff161515151581526020016005820160019054906101000a900460ff161515151581526020016005820160029054906101000a900460ff1615151515815250509050806000015173ffffffffffffffffffffffffffffffffffffffff163373ffffffffffffffffffffffffffffffffffffffff1614806115475750806020015173ffffffffffffffffffffffffffffffffffffffff163373ffffffffffffffffffffffffffffffffffffffff16145b611586576040517f08c379a000000000000000000000000000000000000000000000000000000000815260040161157d9061387c565b60405180910390fd5b60606040518060400160405280600d81526020017f636c6f7365207468652054504300000000000000000000000000000000000000815250905060008060009054906101000a900473ffffffffffffffffffffffffffffffffffffffff1673ffffffffffffffffffffffffffffffffffffffff16631f275713838b8b604051602001611614939291906135dc565b604051602081830303815290604052805190602001206040518263ffffffff1660e01b815260040161164691906137c1565b60206040518083038186803b15801561165e57600080fd5b505afa158015611672573d6000803e3d6000fd5b505050506040513d601f19601f820116820180604052506116969190810190612b7d565b9050600160008a81526020019081526020016000206004015488146116f0576040517f08c379a00000000000000000000000000000000000000000000000000000000081526004016116e7906138dc565b60405180910390fd5b6000809054906101000a900473ffffffffffffffffffffffffffffffffffffffff1673ffffffffffffffffffffffffffffffffffffffff16631a86b5508460000151838a8a6040518563ffffffff1660e01b815260040161175494939291906136d8565b60206040518083038186803b15801561176c57600080fd5b505afa158015611780573d6000803e3d6000fd5b505050506040513d601f19601f820116820180604052506117a49190810190612b54565b801561186057506000809054906101000a900473ffffffffffffffffffffffffffffffffffffffff1673ffffffffffffffffffffffffffffffffffffffff16631a86b55084602001518388886040518563ffffffff1660e01b815260040161180f94939291906136d8565b60206040518083038186803b15801561182757600080fd5b505afa15801561183b573d6000803e3d6000fd5b505050506040513d601f19601f8201168201806040525061185f9190810190612b54565b5b61189f576040517f08c379a00000000000000000000000000000000000000000000000000000000081526004016118969061389c565b60405180910390fd5b826000015173ffffffffffffffffffffffffffffffffffffffff166108fc84604001519081150290604051600060405180830381858888f193505050501580156118ed573d6000803e3d6000fd5b50826020015173ffffffffffffffffffffffffffffffffffffffff166108fc84606001519081150290604051600060405180830381858888f1935050505015801561193c573d6000803e3d6000fd5b50600160008a8152602001908152602001600020600080820160006101000a81549073ffffffffffffffffffffffffffffffffffffffff02191690556001820160006101000a81549073ffffffffffffffffffffffffffffffffffffffff02191690556002820160009055600382016000905560048201600090556005820160006101000a81549060ff02191690556005820160016101000a81549060ff02191690556005820160026101000a81549060ff021916905550507fc399f7691b325c207a412cae4b10a6cb4279589d0c49474b7901a02f33d214e58984600001518560200151604051611a30939291906139d3565b60405180910390a1505050505050505050565b8260096000600a6000015481526020019081526020016000206003015410611aa0576040517f08c379a0000000000000000000000000000000000000000000000000000000008152600401611a979061397c565b60405180910390fd5b60008090505b600960008a815260200190815260200160002060010180549050811015611d925760008060009054906101000a900473ffffffffffffffffffffffffffffffffffffffff1673ffffffffffffffffffffffffffffffffffffffff16631f2757138888600960008f81526020019081526020016000206001018681548110611b2957fe5b9060005260206000200160009054906101000a900473ffffffffffffffffffffffffffffffffffffffff1689604051602001611b6894939291906135a1565b604051602081830303815290604052805190602001206040518263ffffffff1660e01b8152600401611b9a91906137c1565b60206040518083038186803b158015611bb257600080fd5b505afa158015611bc6573d6000803e3d6000fd5b505050506040513d601f19601f82011682018060405250611bea9190810190612b7d565b90506000809054906101000a900473ffffffffffffffffffffffffffffffffffffffff1673ffffffffffffffffffffffffffffffffffffffff16631a86b550600960008d81526020019081526020016000206001018481548110611c4a57fe5b9060005260206000200160009054906101000a900473ffffffffffffffffffffffffffffffffffffffff1683878787818110611c8257fe5b9050602002810180356001602003833603038112611c9f57600080fd5b8083019250508135905060208201915067ffffffffffffffff811115611cc457600080fd5b600181023603821315611cd657600080fd5b6040518563ffffffff1660e01b8152600401611cf59493929190613718565b60206040518083038186803b158015611d0d57600080fd5b505afa158015611d21573d6000803e3d6000fd5b505050506040513d601f19601f82011682018060405250611d459190810190612b54565b611d84576040517f08c379a0000000000000000000000000000000000000000000000000000000008152600401611d7b9061383c565b60405180910390fd5b508080600101915050611aa6565b5060008090505b87879050811015611e7757878782818110611db057fe5b905060a0020160800135888883818110611dc657fe5b905060a002016060013501600160008a8a85818110611de157fe5b905060a0020160000135815260200190815260200160002060030154600160008b8b86818110611e0d57fe5b905060a00201600001358152602001908152602001600020600201540114611e6a576040517f08c379a0000000000000000000000000000000000000000000000000000000008152600401611e619061381c565b60405180910390fd5b8080600101915050611d99565b5060008090505b87879050811015611ee057611ed3888883818110611e9857fe5b905060a0020160000135898984818110611eae57fe5b905060a00201606001358a8a85818110611ec457fe5b905060a00201608001356124d6565b8080600101915050611e7e565b5082600960008a8152602001908152602001600020600301819055507f7b3b5256241f99d7d02bc06f78c5d9940fd7701c2526576cda444ad773c45cb460405160405180910390a15050505050505050565b60016020528060005260406000206000915090508060000160009054906101000a900473ffffffffffffffffffffffffffffffffffffffff16908060010160009054906101000a900473ffffffffffffffffffffffffffffffffffffffff16908060020154908060030154908060040154908060050160009054906101000a900460ff16908060050160019054906101000a900460ff16908060050160029054906101000a900460ff16905088565b60008273ffffffffffffffffffffffffffffffffffffffff163373ffffffffffffffffffffffffffffffffffffffff16141561207d57346003600201819055506001600360050160006101000a81548160ff0219169083151502179055507f80e1763fe09a838f74553a255399858e08207b929434a0215d3c02106de811758334604051612070929190613798565b60405180910390a1612113565b8173ffffffffffffffffffffffffffffffffffffffff163373ffffffffffffffffffffffffffffffffffffffff161415612112573460038001819055506001600360050160016101000a81548160ff0219169083151502179055507f80e1763fe09a838f74553a255399858e08207b929434a0215d3c02106de811758234604051612109929190613798565b60405180910390a15b5b600360050160009054906101000a900460ff1680156121415750600360050160019054906101000a900460ff165b1561237657600060025490506003600160008381526020019081526020016000206000820160009054906101000a900473ffffffffffffffffffffffffffffffffffffffff168160000160006101000a81548173ffffffffffffffffffffffffffffffffffffffff021916908373ffffffffffffffffffffffffffffffffffffffff1602179055506001820160009054906101000a900473ffffffffffffffffffffffffffffffffffffffff168160010160006101000a81548173ffffffffffffffffffffffffffffffffffffffff021916908373ffffffffffffffffffffffffffffffffffffffff1602179055506002820154816002015560038201548160030155600482015481600401556005820160009054906101000a900460ff168160050160006101000a81548160ff0219169083151502179055506005820160019054906101000a900460ff168160050160016101000a81548160ff0219169083151502179055506005820160029054906101000a900460ff168160050160026101000a81548160ff02191690831515021790555090505060016002600082825401925050819055506000600360050160006101000a81548160ff0219169083151502179055506000600360050160016101000a81548160ff0219169083151502179055507fd92bbbac63272d0256172b5e8fec52c552e082cbd4df853483b5b6ccf1c14d438185856003600201546003800154604051612365959493929190613a0a565b60405180910390a18091505061237b565b600090505b92915050565b60008073ffffffffffffffffffffffffffffffffffffffff166001600084815260200190815260200160002060000160009054906101000a900473ffffffffffffffffffffffffffffffffffffffff1673ffffffffffffffffffffffffffffffffffffffff16141580156124585750600073ffffffffffffffffffffffffffffffffffffffff166001600084815260200190815260200160002060010160009054906101000a900473ffffffffffffffffffffffffffffffffffffffff1673ffffffffffffffffffffffffffffffffffffffff1614155b801561248b5750600115156001600084815260200190815260200160002060050160009054906101000a900460ff161515145b80156124be5750600115156001600084815260200190815260200160002060050160019054906101000a900460ff161515145b156124cc57600190506124d1565b600090505b919050565b816001600085815260200190815260200160002060020181905550806001600085815260200190815260200160002060030181905550505050565b604051806101000160405280600073ffffffffffffffffffffffffffffffffffffffff168152602001600073ffffffffffffffffffffffffffffffffffffffff1681526020016000815260200160008152602001600081526020016000151581526020016000151581526020016000151581525090565b828054828255906000526020600020908101928215612617579160200282015b8281111561261657823573ffffffffffffffffffffffffffffffffffffffff168260006101000a81548173ffffffffffffffffffffffffffffffffffffffff021916908373ffffffffffffffffffffffffffffffffffffffff160217905550916020019190600101906125a8565b5b509050612624919061275b565b5090565b828054828255906000526020600020908101928215612664579160200282015b82811115612663578235825591602001919060010190612648565b5b509050612671919061279e565b5090565b8280548282559060005260206000209081019282156126b65760005260206000209182015b828111156126b557825482559160010191906001019061269a565b5b5090506126c3919061275b565b5090565b8280548282559060005260206000209081019282156127085760005260206000209182015b828111156127075782548255916001019190600101906126ec565b5b509050612715919061279e565b5090565b5080546000825590600052602060002090810190612737919061279e565b50565b5080546000825590600052602060002090810190612758919061279e565b50565b61279b91905b8082111561279757600081816101000a81549073ffffffffffffffffffffffffffffffffffffffff021916905550600101612761565b5090565b90565b6127c091905b808211156127bc5760008160009055506001016127a4565b5090565b90565b6000813590506127d281613c7f565b92915050565b6000813590506127e781613c96565b92915050565b60008083601f8401126127ff57600080fd5b8235905067ffffffffffffffff81111561281857600080fd5b60208301915083602082028301111561283057600080fd5b9250929050565b60008083601f84011261284957600080fd5b8235905067ffffffffffffffff81111561286257600080fd5b60208301915083602082028301111561287a57600080fd5b9250929050565b60008083601f84011261289357600080fd5b8235905067ffffffffffffffff8111156128ac57600080fd5b6020830191508360a08202830111156128c457600080fd5b9250929050565b60008083601f8401126128dd57600080fd5b8235905067ffffffffffffffff8111156128f657600080fd5b60208301915083602082028301111561290e57600080fd5b9250929050565b60008151905061292481613cad565b92915050565b60008151905061293981613cc4565b92915050565b60008083601f84011261295157600080fd5b8235905067ffffffffffffffff81111561296a57600080fd5b60208301915083600182028301111561298257600080fd5b9250929050565b60008083601f84011261299b57600080fd5b8235905067ffffffffffffffff8111156129b457600080fd5b6020830191508360018202830111156129cc57600080fd5b9250929050565b6000813590506129e281613cdb565b92915050565b6000602082840312156129fa57600080fd5b6000612a08848285016127c3565b91505092915050565b60008060008060808587031215612a2757600080fd5b6000612a35878288016127d8565b9450506020612a46878288016127d8565b9350506040612a57878288016129d3565b9250506060612a68878288016129d3565b91505092959194509250565b60008060408385031215612a8757600080fd5b6000612a95858286016127c3565b9250506020612aa6858286016127c3565b9150509250929050565b60008060008060008060608789031215612ac957600080fd5b600087013567ffffffffffffffff811115612ae357600080fd5b612aef89828a016127ed565b9650965050602087013567ffffffffffffffff811115612b0e57600080fd5b612b1a89828a01612837565b9450945050604087013567ffffffffffffffff811115612b3957600080fd5b612b4589828a016128cb565b92509250509295509295509295565b600060208284031215612b6657600080fd5b6000612b7484828501612915565b91505092915050565b600060208284031215612b8f57600080fd5b6000612b9d8482850161292a565b91505092915050565b600060208284031215612bb857600080fd5b6000612bc6848285016129d3565b91505092915050565b6000806000806000806000806000806101008b8d031215612bef57600080fd5b6000612bfd8d828e016129d3565b9a50506020612c0e8d828e016127c3565b9950506040612c1f8d828e016127c3565b9850506060612c308d828e016129d3565b9750506080612c418d828e016129d3565b96505060a0612c528d828e016129d3565b95505060c08b013567ffffffffffffffff811115612c6f57600080fd5b612c7b8d828e0161293f565b945094505060e08b013567ffffffffffffffff811115612c9a57600080fd5b612ca68d828e0161293f565b92509250509295989b9194979a5092959850565b60008060008060008060008060a0898b031215612cd657600080fd5b6000612ce48b828c016129d3565b985050602089013567ffffffffffffffff811115612d0157600080fd5b612d0d8b828c01612881565b9750975050604089013567ffffffffffffffff811115612d2c57600080fd5b612d388b828c01612989565b95509550506060612d4b8b828c016129d3565b935050608089013567ffffffffffffffff811115612d6857600080fd5b612d748b828c01612837565b92509250509295985092959890939650565b60008060008060608587031215612d9c57600080fd5b6000612daa878288016129d3565b9450506020612dbb878288016129d3565b935050604085013567ffffffffffffffff811115612dd857600080fd5b612de487828801612837565b925092505092959194509250565b60008060008060008060808789031215612e0b57600080fd5b6000612e1989828a016129d3565b9650506020612e2a89828a016129d3565b955050604087013567ffffffffffffffff811115612e4757600080fd5b612e5389828a0161293f565b9450945050606087013567ffffffffffffffff811115612e7257600080fd5b612e7e89828a0161293f565b92509250509295509295509295565b6000612e998383612ed2565b60208301905092915050565b612eae81613bbb565b82525050565b612ebd81613b69565b82525050565b612ecc81613b69565b82525050565b612edb81613b57565b82525050565b612eea81613b57565b82525050565b612f01612efc82613b57565b613c33565b82525050565b6000612f138385613af1565b9350612f1e82613acf565b8060005b85811015612f5757612f348284613b40565b612f3e8882612e8d565b9750612f4983613ae4565b925050600181019050612f22565b5085925050509392505050565b6000612f708385613b02565b93507f07ffffffffffffffffffffffffffffffffffffffffffffffffffffffffffffff831115612f9f57600080fd5b602083029250612fb0838584613bf1565b82840190509392505050565b612fc581613b7b565b82525050565b612fd481613b7b565b82525050565b612fe381613b87565b82525050565b6000612ff58385613b13565b9350613002838584613bf1565b61300b83613c61565b840190509392505050565b60006130228385613b13565b935061302f838584613bf1565b61303883613c61565b840190509392505050565b600061304f8385613b35565b935061305c838584613bf1565b82840190509392505050565b600061307382613ad9565b61307d8185613b35565b935061308d818560208601613c00565b80840191505092915050565b60006130a6602083613b24565b91507f6372656174654d504320766572696679206368616e6e656c206661696c6564216000830152602082019050919050565b60006130e6601783613b24565b91507f636c6f73654d50433a2077726f6e672076657273696f6e0000000000000000006000830152602082019050919050565b6000613126601883613b24565b91507f7570646174654d50433a2062616c616e6365206572726f7200000000000000006000830152602082019050919050565b6000613166601f83613b24565b91507f7570646174654d50433a2076657269667920736967206661696c6564212121006000830152602082019050919050565b60006131a6600d83613b24565b91507f62616c616e6365206572726f72000000000000000000000000000000000000006000830152602082019050919050565b60006131e6601683613b24565b91507f636c6f73655450433a2077726f6e672073656e646572000000000000000000006000830152602082019050919050565b6000613226600e83613b24565b91507f766572696679206661696c6564210000000000000000000000000000000000006000830152602082019050919050565b6000613266600f83613b24565b91507f74686520545043206973206275737900000000000000000000000000000000006000830152602082019050919050565b60006132a6601b83613b24565b91507f636c6f73655450433a2076657273696f6e206e6f7420657175616c00000000006000830152602082019050919050565b60006132e6601d83613b24565b91507f636c6f73654d50432076657269667920736967206661696c65642121210000006000830152602082019050919050565b6000613326600c83613b24565b91507f73656e646572206572726f7200000000000000000000000000000000000000006000830152602082019050919050565b6000613366602083613b24565b91507f6372656174654d5043207665726966792070617274696573206661696c6564216000830152602082019050919050565b60006133a6602383613b24565b91507f76657273696f6e206e756d206c6974746572207468616e206c6173746573742060008301527f6f6e6500000000000000000000000000000000000000000000000000000000006020830152604082019050919050565b600061340c601883613b24565b91507f7570646174654d50433a2076657273696f6e206572726f7200000000000000006000830152602082019050919050565b610100820160008201516134566000850182612eb4565b5060208201516134696020850182612eb4565b50604082015161347c60408501826134e1565b50606082015161348f60608501826134e1565b5060808201516134a260808501826134e1565b5060a08201516134b560a0850182612fbc565b5060c08201516134c860c0850182612fbc565b5060e08201516134db60e0850182612fbc565b50505050565b6134ea81613bb1565b82525050565b6134f981613bb1565b82525050565b61351061350b82613bb1565b613c57565b82525050565b60006135228284612ef0565b60148201915081905092915050565b600061353d8289612ef0565b60148201915061354d8288612ef0565b60148201915061355d82876134ff565b60208201915061356d82866134ff565b60208201915061357d82856134ff565b60208201915061358d82846134ff565b602082019150819050979650505050505050565b60006135ae828688613043565b91506135ba8285612ef0565b6014820191506135ca82846134ff565b60208201915081905095945050505050565b60006135e88286613068565b91506135f482856134ff565b60208201915061360482846134ff565b602082019150819050949350505050565b600060808201905061362a6000830187612ea5565b6136376020830186612ea5565b61364460408301856134f0565b61365160608301846134f0565b95945050505050565b600061010082019050613670600083018b612ec3565b61367d602083018a612ec3565b61368a60408301896134f0565b61369760608301886134f0565b6136a460808301876134f0565b6136b160a0830186612fcb565b6136be60c0830185612fcb565b6136cb60e0830184612fcb565b9998505050505050505050565b60006060820190506136ed6000830187612ea5565b6136fa6020830186612fda565b818103604083015261370d818486612fe9565b905095945050505050565b600060608201905061372d6000830187612ee1565b61373a6020830186612fda565b818103604083015261374d818486613016565b905095945050505050565b600060608201905061376d6000830187612ee1565b61377a6020830186612fda565b818103604083015261378d818486612fe9565b905095945050505050565b60006040820190506137ad6000830185612ee1565b6137ba60208301846134f0565b9392505050565b60006020820190506137d66000830184612fda565b92915050565b600060208201905081810360008301526137f581613099565b9050919050565b60006020820190508181036000830152613815816130d9565b9050919050565b6000602082019050818103600083015261383581613119565b9050919050565b6000602082019050818103600083015261385581613159565b9050919050565b6000602082019050818103600083015261387581613199565b9050919050565b60006020820190508181036000830152613895816131d9565b9050919050565b600060208201905081810360008301526138b581613219565b9050919050565b600060208201905081810360008301526138d581613259565b9050919050565b600060208201905081810360008301526138f581613299565b9050919050565b60006020820190508181036000830152613915816132d9565b9050919050565b6000602082019050818103600083015261393581613319565b9050919050565b6000602082019050818103600083015261395581613359565b9050919050565b6000602082019050818103600083015261397581613399565b9050919050565b60006020820190508181036000830152613995816133ff565b9050919050565b6000610100820190506139b2600083018461343f565b92915050565b60006020820190506139cd60008301846134f0565b92915050565b60006060820190506139e860008301866134f0565b6139f56020830185612ea5565b613a026040830184612ea5565b949350505050565b600060a082019050613a1f60008301886134f0565b613a2c6020830187612ee1565b613a396040830186612ee1565b613a4660608301856134f0565b613a5360808301846134f0565b9695505050505050565b6000606082019050613a7260008301886134f0565b8181036020830152613a85818688612f07565b90508181036040830152613a9a818486612f64565b90509695505050505050565b6000604082019050613abb60008301856134f0565b613ac860208301846134f0565b9392505050565b6000819050919050565b600081519050919050565b6000602082019050919050565b600082825260208201905092915050565b600082825260208201905092915050565b600082825260208201905092915050565b600082825260208201905092915050565b600081905092915050565b6000613b4f60208401846127c3565b905092915050565b6000613b6282613b91565b9050919050565b6000613b7482613b91565b9050919050565b60008115159050919050565b6000819050919050565b600073ffffffffffffffffffffffffffffffffffffffff82169050919050565b6000819050919050565b6000613bc682613bcd565b9050919050565b6000613bd882613bdf565b9050919050565b6000613bea82613b91565b9050919050565b82818337600083830152505050565b60005b83811015613c1e578082015181840152602081019050613c03565b83811115613c2d576000848401525b50505050565b6000613c3e82613c45565b9050919050565b6000613c5082613c72565b9050919050565b6000819050919050565b6000601f19601f8301169050919050565b60008160601b9050919050565b613c8881613b57565b8114613c9357600080fd5b50565b613c9f81613b69565b8114613caa57600080fd5b50565b613cb681613b7b565b8114613cc157600080fd5b50565b613ccd81613b87565b8114613cd857600080fd5b50565b613ce481613bb1565b8114613cef57600080fd5b5056fea2646970667358221220f2b7badf15c50301c2408b51e4effb3b922df9e020b2b5732dda82e4c872520e64736f6c63430006000033608060405234801561001057600080fd5b5061031e806100206000396000f3fe608060405234801561001057600080fd5b50600436106100365760003560e01c80631a86b5501461003b5780631f27571314610138575b600080fd5b61011e6004803603606081101561005157600080fd5b81019080803573ffffffffffffffffffffffffffffffffffffffff169060200190929190803590602001909291908035906020019064010000000081111561009857600080fd5b8201836020820111156100aa57600080fd5b803590602001918460018302840111640100000000831117156100cc57600080fd5b91908080601f016020809104026020016040519081016040528093929190818152602001838380828437600081840152601f19601f82011690508083019250505050505050919291929050505061017a565b604051808215151515815260200191505060405180910390f35b6101646004803603602081101561014e57600080fd5b8101908080359060200190929190505050610290565b6040518082815260200191505060405180910390f35b6000604182511461018e5760009050610289565b600080600060608590506020810151935060408101519250606081015160001a9150601b8260ff1610156101c357601b820191505b601b8260ff16141580156101db5750601c8260ff1614155b156101ed576000945050505050610289565b8773ffffffffffffffffffffffffffffffffffffffff1660018884878760405160008152602001604052604051808581526020018460ff1660ff1681526020018381526020018281526020019450505050506020604051602081039080840390855afa158015610261573d6000803e3d6000fd5b5050506020604051035173ffffffffffffffffffffffffffffffffffffffff16149450505050505b9392505050565b60008160405160200180807f19457468657265756d205369676e6564204d6573736167653a0a333200000000815250601c0182815260200191505060405160208183030381529060405280519060200120905091905056fea264697066735822122095b7258ee81d3084db524579003e6175c7cff276acd359c835fc2312f28385ab64736f6c63430006000033",
  "source": "pragma solidity >=0.4.24 <0.7.0;\npragma experimental ABIEncoderV2;\n\n// import \"./SimplePaymentChannel.sol\";\n// pragma solidity >=0.4.24 <0.7.0;\n// pragma experimental ABIEncoderV2;\n\nimport \"./ILibSig.sol\";\n\ncontract SimplePaymentChannel {\n    event TPCOpenRequest(address alice, address bob, uint256 ab, uint256 bb);\n    event TPCOpenSuccess(uint256 id, address alice, address bob, uint256 ab, uint256 bb);\n    event TPCUpdateSuccess(uint256 id, address alice, address bob, uint256 new_ab, uint256 new_bb);\n    event TPCSomeDeposit(address addr, uint256 token);\n    event TPCCloseChannel(uint256 id, address alice, address bob);\n\n    struct TPC {\n        address payable alice;\n        address payable bob;\n        uint256 alice_balance; // wei\n        uint256 bob_balance;\n        uint256 version_num;\n        bool alice_deposited;\n        bool bob_deposited;\n        bool busy;\n    }\n\n    LibSig libSig = new LibSig();\n\n    // TPC[] public tpc_array;\n    mapping (uint256 => TPC) public tpc_map;\n\n    uint256 count = 1;\n\n    TPC tpc_ab;\n\n    function createTPC(address payable alice, address payable bob, uint256 ab, uint256 bb)\n        external\n        payable\n    {\n        tpc_ab.alice = alice;\n        tpc_ab.bob = bob;\n        tpc_ab.version_num = 0;\n        tpc_ab.alice_deposited = false;\n        tpc_ab.bob_deposited = false;\n        tpc_ab.busy = false;\n\n        emit TPCOpenRequest(alice, bob, ab, bb);\n    }\n\n    function getChannel(uint256 id)\n        external\n        view\n        returns (TPC memory)\n    {\n        return tpc_map[id];\n    }\n\n    function deposit(address alice, address bob)\n        external\n        payable\n        returns (uint256)\n    {\n        if (msg.sender == alice)\n        {\n            tpc_ab.alice_balance = msg.value;\n            tpc_ab.alice_deposited = true;\n            emit TPCSomeDeposit(alice, msg.value);\n        }\n        else if (msg.sender == bob)\n        {\n            tpc_ab.bob_balance = msg.value;\n            tpc_ab.bob_deposited = true;\n            emit TPCSomeDeposit(bob, msg.value);\n        }\n        if (tpc_ab.alice_deposited && tpc_ab.bob_deposited) {\n            uint256 id = count;\n            tpc_map[id] = tpc_ab;\n            count += 1;\n            tpc_ab.alice_deposited = false;\n            tpc_ab.bob_deposited = false;\n            emit TPCOpenSuccess(id, alice, bob, tpc_ab.alice_balance, tpc_ab.bob_balance);\n            return id;\n        }\n        return 0;\n    }\n\n    function updateTPC(\n            uint256 id, address alice, address bob,\n            uint256 new_ab, uint256 new_bb, uint256 version,\n            bytes calldata sigA, bytes calldata sigB\n        )\n        external\n        payable\n    {\n        require(tpc_map[id].busy == false, \"the TPC is busy\");\n        require(msg.sender == alice || msg.sender == bob, \"sender error\");\n        require((tpc_map[id].alice_balance + tpc_map[id].bob_balance) == (new_ab + new_bb), \"balance error\");\n\n        bytes32 msgHash = libSig.prefixed(keccak256(abi.encodePacked(alice, bob, id, new_ab, new_bb, version)));\n\n        require(version > tpc_map[id].version_num, \"version num litter than lastest one\");\n        require(libSig.verify(alice, msgHash, sigA) && libSig.verify(bob, msgHash, sigB), \"verify failed!\");\n\n        tpc_map[id].alice_balance = new_ab;\n        tpc_map[id].bob_balance = new_bb;\n        tpc_map[id].version_num += 1;\n\n        emit TPCUpdateSuccess(id, alice, bob, new_ab, new_bb);\n    }\n\n    function updateTPCInternal(uint256 id, uint256 new_ab, uint256 new_bb)\n        internal\n    {\n        // require(tpc_map[id].alice_balance + tpc_map[id].bob_balance == new_ab + new_bb, \"updateTPCInternal: amount error\");\n        tpc_map[id].alice_balance = new_ab;\n        tpc_map[id].bob_balance = new_bb;\n    }\n\n    function closeTPC(uint256 id, uint256 version,\n            bytes calldata sigA, bytes calldata sigB)\n        external\n        payable\n    {\n        TPC memory channel = tpc_map[id];\n        require(msg.sender == channel.alice || msg.sender == channel.bob, \"closeTPC: wrong sender\");\n\n        string memory prefix = \"close the TPC\";\n        bytes32 msgHash = libSig.prefixed(keccak256(abi.encodePacked(prefix, id, version)));\n        require(version == tpc_map[id].version_num, \"closeTPC: version not equal\");\n        require(libSig.verify(channel.alice, msgHash, sigA) && libSig.verify(channel.bob, msgHash, sigB), \"verify failed!\");\n        // withdraw\n        channel.alice.transfer(channel.alice_balance);\n        channel.bob.transfer(channel.bob_balance);\n        delete tpc_map[id];\n        emit TPCCloseChannel(id, channel.alice, channel.bob);\n    }\n\n    function verifyChannel(uint256 id)\n        internal\n        view\n        returns (bool)\n    {\n        if (tpc_map[id].alice != address(0) && tpc_map[id].bob != address(0) &&\n            tpc_map[id].alice_deposited == true && tpc_map[id].bob_deposited == true)\n        {\n            return true;\n        }\n        else {\n            return false;\n        }\n    }\n\n    function getTPC(uint256 id)\n        external\n        view\n        returns (TPC memory)\n    {\n        return tpc_map[id];\n    }\n}\n\ncontract MultipartyChannel is SimplePaymentChannel {\n    event MPCCreateSuccess(uint256 id, address[] parties, uint256[] channels_id);\n    event MPCUpdateSuccess();\n    event MPCTransactionError(Transaction t);\n    event MPCClosed(uint256 mpc_id);\n\n    struct MPC {\n        uint256 id;\n        address[] parties;\n        uint256[] channels_id;\n        uint256 version_num;\n    }\n\n    struct Transaction {\n        uint256 channel_id;\n        address src;\n        address dst;\n        uint256 new_ab;\n        uint256 new_ba;\n    }\n\n    mapping (uint256 => MPC) public mpc_map;\n\n    MPC mpc;\n    uint256 mpc_count = 0;\n    // SimplePaymentChannel spc;\n\n    function createMPC(address[] calldata parties, bytes[] calldata sigs, uint256[] calldata channels_id)\n        external\n        returns (uint256)\n    {\n        // spc = SimplePaymentChannel(spcAddr);\n        // verify signatures\n        for (uint i = 0; i < parties.length; i++) {\n            bytes32 msgHash = libSig.prefixed(keccak256(abi.encodePacked(parties[i])));\n            require(libSig.verify(parties[i], msgHash, sigs[i]), \"createMPC verify parties failed!\");\n        }\n        // verify channels\n        for (uint256 i = 0; i < channels_id.length; i++) {\n            require(verifyChannel(channels_id[i]), \"createMPC verify channel failed!\");\n            tpc_map[channels_id[i]].busy = true;\n        }\n\n        mpc.id = mpc_count + 1;\n        mpc_count = mpc_count + 1;\n        mpc.parties = parties;\n        mpc.channels_id = channels_id;\n        mpc.version_num = 0;\n        mpc_map[mpc.id] = mpc;\n        emit MPCCreateSuccess(mpc.id, parties, channels_id);\n        return mpc.id;\n    }\n\n    function updateMPC(uint256 mpc_id, Transaction[] calldata txs, string calldata msgstr, uint256 version, bytes[] calldata sigs)\n        external\n    {\n        // verify sigs\n        require(mpc_map[mpc.id].version_num < version, \"updateMPC: version error\");\n        for (uint i = 0; i < mpc_map[mpc_id].parties.length; i++) {\n            bytes32 msgHash = libSig.prefixed(keccak256(abi.encodePacked(msgstr, mpc_map[mpc_id].parties[i], version)));\n            require(libSig.verify(mpc_map[mpc_id].parties[i], msgHash, sigs[i]), \"updateMPC: verify sig failed!!!\");\n        }\n        for (uint i = 0; i < txs.length; i++) {\n            require(tpc_map[txs[i].channel_id].alice_balance + tpc_map[txs[i].channel_id].bob_balance == txs[i].new_ab + txs[i].new_ba, \"updateMPC: balance error\");\n        }\n        // execute txs\n        for (uint i = 0; i < txs.length; i++) {\n            updateTPCInternal(txs[i].channel_id, txs[i].new_ab, txs[i].new_ba);\n        }\n        mpc_map[mpc_id].version_num = version;\n        emit MPCUpdateSuccess();\n    }\n\n    function closeMPC(uint256 mpc_id, uint256 version, bytes[] calldata sigs)\n        external\n    {\n        // require(mpc_id == mpc.id, \"closeMPC: wrong id of the mpc\");\n        require(mpc_map[mpc_id].version_num == version, \"closeMPC: wrong version\");\n        string memory prefix = \"close the MPC\";\n        bytes32 msgHash = libSig.prefixed(keccak256(abi.encodePacked(prefix, mpc_id, version)));\n\n        for (uint i = 0; i < mpc_map[mpc_id].parties.length; i++) {\n            require(libSig.verify(mpc_map[mpc_id].parties[i], msgHash, sigs[i]), \"closeMPC verify sig failed!!!\");\n        }\n        delete mpc_map[mpc_id];\n        emit MPCClosed(mpc_id);\n    }\n}",
  "sourcePath": "/Users/xuxianli/work/blockchain/micropc/contracts/MultipartyChannel.sol",
  "compiler": {
    "name": "solc",
    "version": "0.6.0+commit.26b70077.Emscripten.clang"
  },
  "schemaVersion": "3.0.23",
  "updatedAt": "2020-03-02T09:45:46.624Z",
  "networkType": "ethereum",
  "devdoc": {
    "methods": {}
  },
  "userdoc": {
    "methods": {}
  }
}