{
  "contractName": "SimplePaymentChannel",
  "abi": [
    {
      "anonymous": false,
      "inputs": [
        {
          "indexed": false,
          "internalType": "uint256",
          "name": "id",
          "type": "uint256"
        },
        {
          "indexed": false,
          "internalType": "address",
          "name": "alice",
          "type": "address"
        },
        {
          "indexed": false,
          "internalType": "address",
          "name": "bob",
          "type": "address"
        }
      ],
      "name": "TPCCloseChannel",
      "type": "event"
    },
    {
      "anonymous": false,
      "inputs": [
        {
          "indexed": false,
          "internalType": "address",
          "name": "alice",
          "type": "address"
        },
        {
          "indexed": false,
          "internalType": "address",
          "name": "bob",
          "type": "address"
        },
        {
          "indexed": false,
          "internalType": "uint256",
          "name": "ab",
          "type": "uint256"
        },
        {
          "indexed": false,
          "internalType": "uint256",
          "name": "bb",
          "type": "uint256"
        }
      ],
      "name": "TPCOpenRequest",
      "type": "event"
    },
    {
      "anonymous": false,
      "inputs": [
        {
          "indexed": false,
          "internalType": "uint256",
          "name": "id",
          "type": "uint256"
        },
        {
          "indexed": false,
          "internalType": "address",
          "name": "alice",
          "type": "address"
        },
        {
          "indexed": false,
          "internalType": "address",
          "name": "bob",
          "type": "address"
        },
        {
          "indexed": false,
          "internalType": "uint256",
          "name": "ab",
          "type": "uint256"
        },
        {
          "indexed": false,
          "internalType": "uint256",
          "name": "bb",
          "type": "uint256"
        }
      ],
      "name": "TPCOpenSuccess",
      "type": "event"
    },
    {
      "anonymous": false,
      "inputs": [
        {
          "indexed": false,
          "internalType": "address",
          "name": "addr",
          "type": "address"
        },
        {
          "indexed": false,
          "internalType": "uint256",
          "name": "token",
          "type": "uint256"
        }
      ],
      "name": "TPCSomeDeposit",
      "type": "event"
    },
    {
      "anonymous": false,
      "inputs": [
        {
          "indexed": false,
          "internalType": "uint256",
          "name": "id",
          "type": "uint256"
        },
        {
          "indexed": false,
          "internalType": "address",
          "name": "alice",
          "type": "address"
        },
        {
          "indexed": false,
          "internalType": "address",
          "name": "bob",
          "type": "address"
        },
        {
          "indexed": false,
          "internalType": "uint256",
          "name": "new_ab",
          "type": "uint256"
        },
        {
          "indexed": false,
          "internalType": "uint256",
          "name": "new_bb",
          "type": "uint256"
        }
      ],
      "name": "TPCUpdateSuccess",
      "type": "event"
    },
    {
      "inputs": [
        {
          "internalType": "uint256",
          "name": "",
          "type": "uint256"
        }
      ],
      "name": "tpc_map",
      "outputs": [
        {
          "internalType": "address payable",
          "name": "alice",
          "type": "address"
        },
        {
          "internalType": "address payable",
          "name": "bob",
          "type": "address"
        },
        {
          "internalType": "uint256",
          "name": "alice_balance",
          "type": "uint256"
        },
        {
          "internalType": "uint256",
          "name": "bob_balance",
          "type": "uint256"
        },
        {
          "internalType": "uint256",
          "name": "version_num",
          "type": "uint256"
        },
        {
          "internalType": "bool",
          "name": "alice_deposited",
          "type": "bool"
        },
        {
          "internalType": "bool",
          "name": "bob_deposited",
          "type": "bool"
        },
        {
          "internalType": "bool",
          "name": "busy",
          "type": "bool"
        }
      ],
      "stateMutability": "view",
      "type": "function"
    },
    {
      "inputs": [
        {
          "internalType": "address payable",
          "name": "alice",
          "type": "address"
        },
        {
          "internalType": "address payable",
          "name": "bob",
          "type": "address"
        },
        {
          "internalType": "uint256",
          "name": "ab",
          "type": "uint256"
        },
        {
          "internalType": "uint256",
          "name": "bb",
          "type": "uint256"
        }
      ],
      "name": "createTPC",
      "outputs": [],
      "stateMutability": "payable",
      "type": "function"
    },
    {
      "inputs": [
        {
          "internalType": "uint256",
          "name": "id",
          "type": "uint256"
        }
      ],
      "name": "getChannel",
      "outputs": [
        {
          "components": [
            {
              "internalType": "address payable",
              "name": "alice",
              "type": "address"
            },
            {
              "internalType": "address payable",
              "name": "bob",
              "type": "address"
            },
            {
              "internalType": "uint256",
              "name": "alice_balance",
              "type": "uint256"
            },
            {
              "internalType": "uint256",
              "name": "bob_balance",
              "type": "uint256"
            },
            {
              "internalType": "uint256",
              "name": "version_num",
              "type": "uint256"
            },
            {
              "internalType": "bool",
              "name": "alice_deposited",
              "type": "bool"
            },
            {
              "internalType": "bool",
              "name": "bob_deposited",
              "type": "bool"
            },
            {
              "internalType": "bool",
              "name": "busy",
              "type": "bool"
            }
          ],
          "internalType": "struct SimplePaymentChannel.TPC",
          "name": "",
          "type": "tuple"
        }
      ],
      "stateMutability": "view",
      "type": "function"
    },
    {
      "inputs": [
        {
          "internalType": "address",
          "name": "alice",
          "type": "address"
        },
        {
          "internalType": "address",
          "name": "bob",
          "type": "address"
        }
      ],
      "name": "deposit",
      "outputs": [
        {
          "internalType": "uint256",
          "name": "",
          "type": "uint256"
        }
      ],
      "stateMutability": "payable",
      "type": "function"
    },
    {
      "inputs": [
        {
          "internalType": "uint256",
          "name": "id",
          "type": "uint256"
        },
        {
          "internalType": "address",
          "name": "alice",
          "type": "address"
        },
        {
          "internalType": "address",
          "name": "bob",
          "type": "address"
        },
        {
          "internalType": "uint256",
          "name": "new_ab",
          "type": "uint256"
        },
        {
          "internalType": "uint256",
          "name": "new_bb",
          "type": "uint256"
        },
        {
          "internalType": "uint256",
          "name": "version",
          "type": "uint256"
        },
        {
          "internalType": "bytes",
          "name": "sigA",
          "type": "bytes"
        },
        {
          "internalType": "bytes",
          "name": "sigB",
          "type": "bytes"
        }
      ],
      "name": "updateTPC",
      "outputs": [],
      "stateMutability": "payable",
      "type": "function"
    },
    {
      "inputs": [
        {
          "internalType": "uint256",
          "name": "id",
          "type": "uint256"
        },
        {
          "internalType": "uint256",
          "name": "version",
          "type": "uint256"
        },
        {
          "internalType": "bytes",
          "name": "sigA",
          "type": "bytes"
        },
        {
          "internalType": "bytes",
          "name": "sigB",
          "type": "bytes"
        }
      ],
      "name": "closeTPC",
      "outputs": [],
      "stateMutability": "payable",
      "type": "function"
    },
    {
      "inputs": [
        {
          "internalType": "uint256",
          "name": "id",
          "type": "uint256"
        }
      ],
      "name": "getTPC",
      "outputs": [
        {
          "components": [
            {
              "internalType": "address payable",
              "name": "alice",
              "type": "address"
            },
            {
              "internalType": "address payable",
              "name": "bob",
              "type": "address"
            },
            {
              "internalType": "uint256",
              "name": "alice_balance",
              "type": "uint256"
            },
            {
              "internalType": "uint256",
              "name": "bob_balance",
              "type": "uint256"
            },
            {
              "internalType": "uint256",
              "name": "version_num",
              "type": "uint256"
            },
            {
              "internalType": "bool",
              "name": "alice_deposited",
              "type": "bool"
            },
            {
              "internalType": "bool",
              "name": "bob_deposited",
              "type": "bool"
            },
            {
              "internalType": "bool",
              "name": "busy",
              "type": "bool"
            }
          ],
          "internalType": "struct SimplePaymentChannel.TPC",
          "name": "",
          "type": "tuple"
        }
      ],
      "stateMutability": "view",
      "type": "function"
    }
  ],
  "bytecode": "0x608060405260405161001090610083565b604051809103906000f08015801561002c573d6000803e3d6000fd5b506000806101000a81548173ffffffffffffffffffffffffffffffffffffffff021916908373ffffffffffffffffffffffffffffffffffffffff160217905550600160025534801561007d57600080fd5b50610091565b61033e806200235883390190565b6122b780620000a16000396000f3fe6080604052600436106100705760003560e01c8063851dc2761161004e578063851dc276146100ea578063b245953314610127578063e6ca4b1414610143578063f9609f081461018757610070565b806302a5a56f1461007557806310df54a014610091578063266833bb146100ce575b600080fd5b61008f600480360361008a91908101906117bc565b6101b7565b005b34801561009d57600080fd5b506100b860048036036100b39190810190611793565b6106ba565b6040516100c59190611fed565b60405180910390f35b6100e860048036036100e391908101906116a2565b610803565b005b3480156100f657600080fd5b50610111600480360361010c9190810190611793565b610933565b60405161011e9190611fed565b60405180910390f35b610141600480360361013c91908101906118a7565b610a7c565b005b34801561014f57600080fd5b5061016a60048036036101659190810190611793565b611129565b60405161017e989796959493929190611dcb565b60405180910390f35b6101a1600480360361019c9190810190611705565b6111d8565b6040516101ae9190612009565b60405180910390f35b60001515600160008c815260200190815260200160002060050160029054906101000a900460ff16151514610221576040517f08c379a000000000000000000000000000000000000000000000000000000000815260040161021890611f6d565b60405180910390fd5b8873ffffffffffffffffffffffffffffffffffffffff163373ffffffffffffffffffffffffffffffffffffffff16148061028657508773ffffffffffffffffffffffffffffffffffffffff163373ffffffffffffffffffffffffffffffffffffffff16145b6102c5576040517f08c379a00000000000000000000000000000000000000000000000000000000081526004016102bc90611fad565b60405180910390fd5b858701600160008c815260200190815260200160002060030154600160008d8152602001908152602001600020600201540114610337576040517f08c379a000000000000000000000000000000000000000000000000000000000815260040161032e90611f0d565b60405180910390fd5b60008060009054906101000a900473ffffffffffffffffffffffffffffffffffffffff1673ffffffffffffffffffffffffffffffffffffffff16631f2757138b8b8e8c8c8c60405160200161039196959493929190611cdd565b604051602081830303815290604052805190602001206040518263ffffffff1660e01b81526004016103c39190611ef2565b60206040518083038186803b1580156103db57600080fd5b505afa1580156103ef573d6000803e3d6000fd5b505050506040513d601f19601f82011682018060405250610413919081019061176a565b9050600160008c815260200190815260200160002060040154861161046d576040517f08c379a000000000000000000000000000000000000000000000000000000000815260040161046490611fcd565b60405180910390fd5b6000809054906101000a900473ffffffffffffffffffffffffffffffffffffffff1673ffffffffffffffffffffffffffffffffffffffff16631a86b5508b8388886040518563ffffffff1660e01b81526004016104cd9493929190611e89565b60206040518083038186803b1580156104e557600080fd5b505afa1580156104f9573d6000803e3d6000fd5b505050506040513d601f19601f8201168201806040525061051d9190810190611741565b80156105d557506000809054906101000a900473ffffffffffffffffffffffffffffffffffffffff1673ffffffffffffffffffffffffffffffffffffffff16631a86b5508a8386866040518563ffffffff1660e01b81526004016105849493929190611e89565b60206040518083038186803b15801561059c57600080fd5b505afa1580156105b0573d6000803e3d6000fd5b505050506040513d601f19601f820116820180604052506105d49190810190611741565b5b610614576040517f08c379a000000000000000000000000000000000000000000000000000000000815260040161060b90611f4d565b60405180910390fd5b87600160008d81526020019081526020016000206002018190555086600160008d81526020019081526020016000206003018190555060018060008d8152602001908152602001600020600401600082825401925050819055507f360021256038e7800042bd766ba4b42429d89cd49327ec22493810c1996ad5068b8b8b8b8b6040516106a595949392919061205b565b60405180910390a15050505050505050505050565b6106c2611578565b60016000838152602001908152602001600020604051806101000160405290816000820160009054906101000a900473ffffffffffffffffffffffffffffffffffffffff1673ffffffffffffffffffffffffffffffffffffffff1673ffffffffffffffffffffffffffffffffffffffff1681526020016001820160009054906101000a900473ffffffffffffffffffffffffffffffffffffffff1673ffffffffffffffffffffffffffffffffffffffff1673ffffffffffffffffffffffffffffffffffffffff1681526020016002820154815260200160038201548152602001600482015481526020016005820160009054906101000a900460ff161515151581526020016005820160019054906101000a900460ff161515151581526020016005820160029054906101000a900460ff1615151515815250509050919050565b83600360000160006101000a81548173ffffffffffffffffffffffffffffffffffffffff021916908373ffffffffffffffffffffffffffffffffffffffff16021790555082600360010160006101000a81548173ffffffffffffffffffffffffffffffffffffffff021916908373ffffffffffffffffffffffffffffffffffffffff16021790555060006003600401819055506000600360050160006101000a81548160ff0219169083151502179055506000600360050160016101000a81548160ff0219169083151502179055506000600360050160026101000a81548160ff0219169083151502179055507f297b58dfc4e1f810e4c375daa036abfc510e04847803884aeb98fa0eac25a314848484846040516109259493929190611d86565b60405180910390a150505050565b61093b611578565b60016000838152602001908152602001600020604051806101000160405290816000820160009054906101000a900473ffffffffffffffffffffffffffffffffffffffff1673ffffffffffffffffffffffffffffffffffffffff1673ffffffffffffffffffffffffffffffffffffffff1681526020016001820160009054906101000a900473ffffffffffffffffffffffffffffffffffffffff1673ffffffffffffffffffffffffffffffffffffffff1673ffffffffffffffffffffffffffffffffffffffff1681526020016002820154815260200160038201548152602001600482015481526020016005820160009054906101000a900460ff161515151581526020016005820160019054906101000a900460ff161515151581526020016005820160029054906101000a900460ff1615151515815250509050919050565b610a84611578565b60016000888152602001908152602001600020604051806101000160405290816000820160009054906101000a900473ffffffffffffffffffffffffffffffffffffffff1673ffffffffffffffffffffffffffffffffffffffff1673ffffffffffffffffffffffffffffffffffffffff1681526020016001820160009054906101000a900473ffffffffffffffffffffffffffffffffffffffff1673ffffffffffffffffffffffffffffffffffffffff1673ffffffffffffffffffffffffffffffffffffffff1681526020016002820154815260200160038201548152602001600482015481526020016005820160009054906101000a900460ff161515151581526020016005820160019054906101000a900460ff161515151581526020016005820160029054906101000a900460ff1615151515815250509050806000015173ffffffffffffffffffffffffffffffffffffffff163373ffffffffffffffffffffffffffffffffffffffff161480610c2d5750806020015173ffffffffffffffffffffffffffffffffffffffff163373ffffffffffffffffffffffffffffffffffffffff16145b610c6c576040517f08c379a0000000000000000000000000000000000000000000000000000000008152600401610c6390611f2d565b60405180910390fd5b60606040518060400160405280600d81526020017f636c6f7365207468652054504300000000000000000000000000000000000000815250905060008060009054906101000a900473ffffffffffffffffffffffffffffffffffffffff1673ffffffffffffffffffffffffffffffffffffffff16631f275713838b8b604051602001610cfa93929190611d4d565b604051602081830303815290604052805190602001206040518263ffffffff1660e01b8152600401610d2c9190611ef2565b60206040518083038186803b158015610d4457600080fd5b505afa158015610d58573d6000803e3d6000fd5b505050506040513d601f19601f82011682018060405250610d7c919081019061176a565b9050600160008a8152602001908152602001600020600401548814610dd6576040517f08c379a0000000000000000000000000000000000000000000000000000000008152600401610dcd90611f8d565b60405180910390fd5b6000809054906101000a900473ffffffffffffffffffffffffffffffffffffffff1673ffffffffffffffffffffffffffffffffffffffff16631a86b5508460000151838a8a6040518563ffffffff1660e01b8152600401610e3a9493929190611e49565b60206040518083038186803b158015610e5257600080fd5b505afa158015610e66573d6000803e3d6000fd5b505050506040513d601f19601f82011682018060405250610e8a9190810190611741565b8015610f4657506000809054906101000a900473ffffffffffffffffffffffffffffffffffffffff1673ffffffffffffffffffffffffffffffffffffffff16631a86b55084602001518388886040518563ffffffff1660e01b8152600401610ef59493929190611e49565b60206040518083038186803b158015610f0d57600080fd5b505afa158015610f21573d6000803e3d6000fd5b505050506040513d601f19601f82011682018060405250610f459190810190611741565b5b610f85576040517f08c379a0000000000000000000000000000000000000000000000000000000008152600401610f7c90611f4d565b60405180910390fd5b826000015173ffffffffffffffffffffffffffffffffffffffff166108fc84604001519081150290604051600060405180830381858888f19350505050158015610fd3573d6000803e3d6000fd5b50826020015173ffffffffffffffffffffffffffffffffffffffff166108fc84606001519081150290604051600060405180830381858888f19350505050158015611022573d6000803e3d6000fd5b50600160008a8152602001908152602001600020600080820160006101000a81549073ffffffffffffffffffffffffffffffffffffffff02191690556001820160006101000a81549073ffffffffffffffffffffffffffffffffffffffff02191690556002820160009055600382016000905560048201600090556005820160006101000a81549060ff02191690556005820160016101000a81549060ff02191690556005820160026101000a81549060ff021916905550507fc399f7691b325c207a412cae4b10a6cb4279589d0c49474b7901a02f33d214e5898460000151856020015160405161111693929190612024565b60405180910390a1505050505050505050565b60016020528060005260406000206000915090508060000160009054906101000a900473ffffffffffffffffffffffffffffffffffffffff16908060010160009054906101000a900473ffffffffffffffffffffffffffffffffffffffff16908060020154908060030154908060040154908060050160009054906101000a900460ff16908060050160019054906101000a900460ff16908060050160029054906101000a900460ff16905088565b60008273ffffffffffffffffffffffffffffffffffffffff163373ffffffffffffffffffffffffffffffffffffffff16141561127457346003600201819055506001600360050160006101000a81548160ff0219169083151502179055507f80e1763fe09a838f74553a255399858e08207b929434a0215d3c02106de811758334604051611267929190611ec9565b60405180910390a161130a565b8173ffffffffffffffffffffffffffffffffffffffff163373ffffffffffffffffffffffffffffffffffffffff161415611309573460038001819055506001600360050160016101000a81548160ff0219169083151502179055507f80e1763fe09a838f74553a255399858e08207b929434a0215d3c02106de811758234604051611300929190611ec9565b60405180910390a15b5b600360050160009054906101000a900460ff1680156113385750600360050160019054906101000a900460ff165b1561156d57600060025490506003600160008381526020019081526020016000206000820160009054906101000a900473ffffffffffffffffffffffffffffffffffffffff168160000160006101000a81548173ffffffffffffffffffffffffffffffffffffffff021916908373ffffffffffffffffffffffffffffffffffffffff1602179055506001820160009054906101000a900473ffffffffffffffffffffffffffffffffffffffff168160010160006101000a81548173ffffffffffffffffffffffffffffffffffffffff021916908373ffffffffffffffffffffffffffffffffffffffff1602179055506002820154816002015560038201548160030155600482015481600401556005820160009054906101000a900460ff168160050160006101000a81548160ff0219169083151502179055506005820160019054906101000a900460ff168160050160016101000a81548160ff0219169083151502179055506005820160029054906101000a900460ff168160050160026101000a81548160ff02191690831515021790555090505060016002600082825401925050819055506000600360050160006101000a81548160ff0219169083151502179055506000600360050160016101000a81548160ff0219169083151502179055507fd92bbbac63272d0256172b5e8fec52c552e082cbd4df853483b5b6ccf1c14d43818585600360020154600380015460405161155c95949392919061205b565b60405180910390a180915050611572565b600090505b92915050565b604051806101000160405280600073ffffffffffffffffffffffffffffffffffffffff168152602001600073ffffffffffffffffffffffffffffffffffffffff1681526020016000815260200160008152602001600081526020016000151581526020016000151581526020016000151581525090565b6000813590506115fe8161220e565b92915050565b60008135905061161381612225565b92915050565b6000815190506116288161223c565b92915050565b60008151905061163d81612253565b92915050565b60008083601f84011261165557600080fd5b8235905067ffffffffffffffff81111561166e57600080fd5b60208301915083600182028301111561168657600080fd5b9250929050565b60008135905061169c8161226a565b92915050565b600080600080608085870312156116b857600080fd5b60006116c687828801611604565b94505060206116d787828801611604565b93505060406116e88782880161168d565b92505060606116f98782880161168d565b91505092959194509250565b6000806040838503121561171857600080fd5b6000611726858286016115ef565b9250506020611737858286016115ef565b9150509250929050565b60006020828403121561175357600080fd5b600061176184828501611619565b91505092915050565b60006020828403121561177c57600080fd5b600061178a8482850161162e565b91505092915050565b6000602082840312156117a557600080fd5b60006117b38482850161168d565b91505092915050565b6000806000806000806000806000806101008b8d0312156117dc57600080fd5b60006117ea8d828e0161168d565b9a505060206117fb8d828e016115ef565b995050604061180c8d828e016115ef565b985050606061181d8d828e0161168d565b975050608061182e8d828e0161168d565b96505060a061183f8d828e0161168d565b95505060c08b013567ffffffffffffffff81111561185c57600080fd5b6118688d828e01611643565b945094505060e08b013567ffffffffffffffff81111561188757600080fd5b6118938d828e01611643565b92509250509295989b9194979a5092959850565b600080600080600080608087890312156118c057600080fd5b60006118ce89828a0161168d565b96505060206118df89828a0161168d565b955050604087013567ffffffffffffffff8111156118fc57600080fd5b61190889828a01611643565b9450945050606087013567ffffffffffffffff81111561192757600080fd5b61193389828a01611643565b92509250509295509295509295565b61194b8161214a565b82525050565b61195a816120f8565b82525050565b611969816120f8565b82525050565b611978816120e6565b82525050565b61198f61198a826120e6565b6121c2565b82525050565b61199e8161210a565b82525050565b6119ad8161210a565b82525050565b6119bc81612116565b82525050565b60006119ce83856120b9565b93506119db838584612180565b6119e4836121f0565b840190509392505050565b60006119fa826120ae565b611a0481856120db565b9350611a1481856020860161218f565b80840191505092915050565b6000611a2d600d836120ca565b91507f62616c616e6365206572726f72000000000000000000000000000000000000006000830152602082019050919050565b6000611a6d6016836120ca565b91507f636c6f73655450433a2077726f6e672073656e646572000000000000000000006000830152602082019050919050565b6000611aad600e836120ca565b91507f766572696679206661696c6564210000000000000000000000000000000000006000830152602082019050919050565b6000611aed600f836120ca565b91507f74686520545043206973206275737900000000000000000000000000000000006000830152602082019050919050565b6000611b2d601b836120ca565b91507f636c6f73655450433a2076657273696f6e206e6f7420657175616c00000000006000830152602082019050919050565b6000611b6d600c836120ca565b91507f73656e646572206572726f7200000000000000000000000000000000000000006000830152602082019050919050565b6000611bad6023836120ca565b91507f76657273696f6e206e756d206c6974746572207468616e206c6173746573742060008301527f6f6e6500000000000000000000000000000000000000000000000000000000006020830152604082019050919050565b61010082016000820151611c1d6000850182611951565b506020820151611c306020850182611951565b506040820151611c436040850182611ca8565b506060820151611c566060850182611ca8565b506080820151611c696080850182611ca8565b5060a0820151611c7c60a0850182611995565b5060c0820151611c8f60c0850182611995565b5060e0820151611ca260e0850182611995565b50505050565b611cb181612140565b82525050565b611cc081612140565b82525050565b611cd7611cd282612140565b6121e6565b82525050565b6000611ce9828961197e565b601482019150611cf9828861197e565b601482019150611d098287611cc6565b602082019150611d198286611cc6565b602082019150611d298285611cc6565b602082019150611d398284611cc6565b602082019150819050979650505050505050565b6000611d5982866119ef565b9150611d658285611cc6565b602082019150611d758284611cc6565b602082019150819050949350505050565b6000608082019050611d9b6000830187611942565b611da86020830186611942565b611db56040830185611cb7565b611dc26060830184611cb7565b95945050505050565b600061010082019050611de1600083018b611960565b611dee602083018a611960565b611dfb6040830189611cb7565b611e086060830188611cb7565b611e156080830187611cb7565b611e2260a08301866119a4565b611e2f60c08301856119a4565b611e3c60e08301846119a4565b9998505050505050505050565b6000606082019050611e5e6000830187611942565b611e6b60208301866119b3565b8181036040830152611e7e8184866119c2565b905095945050505050565b6000606082019050611e9e600083018761196f565b611eab60208301866119b3565b8181036040830152611ebe8184866119c2565b905095945050505050565b6000604082019050611ede600083018561196f565b611eeb6020830184611cb7565b9392505050565b6000602082019050611f0760008301846119b3565b92915050565b60006020820190508181036000830152611f2681611a20565b9050919050565b60006020820190508181036000830152611f4681611a60565b9050919050565b60006020820190508181036000830152611f6681611aa0565b9050919050565b60006020820190508181036000830152611f8681611ae0565b9050919050565b60006020820190508181036000830152611fa681611b20565b9050919050565b60006020820190508181036000830152611fc681611b60565b9050919050565b60006020820190508181036000830152611fe681611ba0565b9050919050565b6000610100820190506120036000830184611c06565b92915050565b600060208201905061201e6000830184611cb7565b92915050565b60006060820190506120396000830186611cb7565b6120466020830185611942565b6120536040830184611942565b949350505050565b600060a0820190506120706000830188611cb7565b61207d602083018761196f565b61208a604083018661196f565b6120976060830185611cb7565b6120a46080830184611cb7565b9695505050505050565b600081519050919050565b600082825260208201905092915050565b600082825260208201905092915050565b600081905092915050565b60006120f182612120565b9050919050565b600061210382612120565b9050919050565b60008115159050919050565b6000819050919050565b600073ffffffffffffffffffffffffffffffffffffffff82169050919050565b6000819050919050565b60006121558261215c565b9050919050565b60006121678261216e565b9050919050565b600061217982612120565b9050919050565b82818337600083830152505050565b60005b838110156121ad578082015181840152602081019050612192565b838111156121bc576000848401525b50505050565b60006121cd826121d4565b9050919050565b60006121df82612201565b9050919050565b6000819050919050565b6000601f19601f8301169050919050565b60008160601b9050919050565b612217816120e6565b811461222257600080fd5b50565b61222e816120f8565b811461223957600080fd5b50565b6122458161210a565b811461225057600080fd5b50565b61225c81612116565b811461226757600080fd5b50565b61227381612140565b811461227e57600080fd5b5056fea2646970667358221220e29352270f45d58e6fc58e0b433a0391a860231f3f82996b8bfa4e6522ae29b664736f6c63430006000033608060405234801561001057600080fd5b5061031e806100206000396000f3fe608060405234801561001057600080fd5b50600436106100365760003560e01c80631a86b5501461003b5780631f27571314610138575b600080fd5b61011e6004803603606081101561005157600080fd5b81019080803573ffffffffffffffffffffffffffffffffffffffff169060200190929190803590602001909291908035906020019064010000000081111561009857600080fd5b8201836020820111156100aa57600080fd5b803590602001918460018302840111640100000000831117156100cc57600080fd5b91908080601f016020809104026020016040519081016040528093929190818152602001838380828437600081840152601f19601f82011690508083019250505050505050919291929050505061017a565b604051808215151515815260200191505060405180910390f35b6101646004803603602081101561014e57600080fd5b8101908080359060200190929190505050610290565b6040518082815260200191505060405180910390f35b6000604182511461018e5760009050610289565b600080600060608590506020810151935060408101519250606081015160001a9150601b8260ff1610156101c357601b820191505b601b8260ff16141580156101db5750601c8260ff1614155b156101ed576000945050505050610289565b8773ffffffffffffffffffffffffffffffffffffffff1660018884878760405160008152602001604052604051808581526020018460ff1660ff1681526020018381526020018281526020019450505050506020604051602081039080840390855afa158015610261573d6000803e3d6000fd5b5050506020604051035173ffffffffffffffffffffffffffffffffffffffff16149450505050505b9392505050565b60008160405160200180807f19457468657265756d205369676e6564204d6573736167653a0a333200000000815250601c0182815260200191505060405160208183030381529060405280519060200120905091905056fea264697066735822122095b7258ee81d3084db524579003e6175c7cff276acd359c835fc2312f28385ab64736f6c63430006000033",
  "source": "pragma solidity >=0.4.24 <0.7.0;\npragma experimental ABIEncoderV2;\n\n// import \"./SimplePaymentChannel.sol\";\n// pragma solidity >=0.4.24 <0.7.0;\n// pragma experimental ABIEncoderV2;\n\nimport \"./ILibSig.sol\";\n\ncontract SimplePaymentChannel {\n    event TPCOpenRequest(address alice, address bob, uint256 ab, uint256 bb);\n    event TPCOpenSuccess(uint256 id, address alice, address bob, uint256 ab, uint256 bb);\n    event TPCUpdateSuccess(uint256 id, address alice, address bob, uint256 new_ab, uint256 new_bb);\n    event TPCSomeDeposit(address addr, uint256 token);\n    event TPCCloseChannel(uint256 id, address alice, address bob);\n\n    struct TPC {\n        address payable alice;\n        address payable bob;\n        uint256 alice_balance; // wei\n        uint256 bob_balance;\n        uint256 version_num;\n        bool alice_deposited;\n        bool bob_deposited;\n        bool busy;\n    }\n\n    LibSig libSig = new LibSig();\n\n    // TPC[] public tpc_array;\n    mapping (uint256 => TPC) public tpc_map;\n\n    uint256 count = 1;\n\n    TPC tpc_ab;\n\n    function createTPC(address payable alice, address payable bob, uint256 ab, uint256 bb)\n        external\n        payable\n    {\n        tpc_ab.alice = alice;\n        tpc_ab.bob = bob;\n        tpc_ab.version_num = 0;\n        tpc_ab.alice_deposited = false;\n        tpc_ab.bob_deposited = false;\n        tpc_ab.busy = false;\n\n        emit TPCOpenRequest(alice, bob, ab, bb);\n    }\n\n    function getChannel(uint256 id)\n        external\n        view\n        returns (TPC memory)\n    {\n        return tpc_map[id];\n    }\n\n    function deposit(address alice, address bob)\n        external\n        payable\n        returns (uint256)\n    {\n        if (msg.sender == alice)\n        {\n            tpc_ab.alice_balance = msg.value;\n            tpc_ab.alice_deposited = true;\n            emit TPCSomeDeposit(alice, msg.value);\n        }\n        else if (msg.sender == bob)\n        {\n            tpc_ab.bob_balance = msg.value;\n            tpc_ab.bob_deposited = true;\n            emit TPCSomeDeposit(bob, msg.value);\n        }\n        if (tpc_ab.alice_deposited && tpc_ab.bob_deposited) {\n            uint256 id = count;\n            tpc_map[id] = tpc_ab;\n            count += 1;\n            tpc_ab.alice_deposited = false;\n            tpc_ab.bob_deposited = false;\n            emit TPCOpenSuccess(id, alice, bob, tpc_ab.alice_balance, tpc_ab.bob_balance);\n            return id;\n        }\n        return 0;\n    }\n\n    function updateTPC(\n            uint256 id, address alice, address bob,\n            uint256 new_ab, uint256 new_bb, uint256 version,\n            bytes calldata sigA, bytes calldata sigB\n        )\n        external\n        payable\n    {\n        require(tpc_map[id].busy == false, \"the TPC is busy\");\n        require(msg.sender == alice || msg.sender == bob, \"sender error\");\n        require((tpc_map[id].alice_balance + tpc_map[id].bob_balance) == (new_ab + new_bb), \"balance error\");\n\n        bytes32 msgHash = libSig.prefixed(keccak256(abi.encodePacked(alice, bob, id, new_ab, new_bb, version)));\n\n        require(version > tpc_map[id].version_num, \"version num litter than lastest one\");\n        require(libSig.verify(alice, msgHash, sigA) && libSig.verify(bob, msgHash, sigB), \"verify failed!\");\n\n        tpc_map[id].alice_balance = new_ab;\n        tpc_map[id].bob_balance = new_bb;\n        tpc_map[id].version_num += 1;\n\n        emit TPCUpdateSuccess(id, alice, bob, new_ab, new_bb);\n    }\n\n    function updateTPCInternal(uint256 id, uint256 new_ab, uint256 new_bb)\n        internal\n    {\n        // require(tpc_map[id].alice_balance + tpc_map[id].bob_balance == new_ab + new_bb, \"updateTPCInternal: amount error\");\n        tpc_map[id].alice_balance = new_ab;\n        tpc_map[id].bob_balance = new_bb;\n    }\n\n    function closeTPC(uint256 id, uint256 version,\n            bytes calldata sigA, bytes calldata sigB)\n        external\n        payable\n    {\n        TPC memory channel = tpc_map[id];\n        require(msg.sender == channel.alice || msg.sender == channel.bob, \"closeTPC: wrong sender\");\n\n        string memory prefix = \"close the TPC\";\n        bytes32 msgHash = libSig.prefixed(keccak256(abi.encodePacked(prefix, id, version)));\n        require(version == tpc_map[id].version_num, \"closeTPC: version not equal\");\n        require(libSig.verify(channel.alice, msgHash, sigA) && libSig.verify(channel.bob, msgHash, sigB), \"verify failed!\");\n        // withdraw\n        channel.alice.transfer(channel.alice_balance);\n        channel.bob.transfer(channel.bob_balance);\n        delete tpc_map[id];\n        emit TPCCloseChannel(id, channel.alice, channel.bob);\n    }\n\n    function verifyChannel(uint256 id)\n        internal\n        view\n        returns (bool)\n    {\n        if (tpc_map[id].alice != address(0) && tpc_map[id].bob != address(0) &&\n            tpc_map[id].alice_deposited == true && tpc_map[id].bob_deposited == true)\n        {\n            return true;\n        }\n        else {\n            return false;\n        }\n    }\n\n    function getTPC(uint256 id)\n        external\n        view\n        returns (TPC memory)\n    {\n        return tpc_map[id];\n    }\n}\n\ncontract MultipartyChannel is SimplePaymentChannel {\n    event MPCCreateSuccess(uint256 id, address[] parties, uint256[] channels_id);\n    event MPCUpdateSuccess();\n    event MPCTransactionError(Transaction t);\n    event MPCClosed(uint256 mpc_id);\n\n    struct MPC {\n        uint256 id;\n        address[] parties;\n        uint256[] channels_id;\n        uint256 version_num;\n    }\n\n    struct Transaction {\n        uint256 channel_id;\n        address src;\n        address dst;\n        uint256 new_ab;\n        uint256 new_ba;\n    }\n\n    mapping (uint256 => MPC) public mpc_map;\n\n    MPC mpc;\n    uint256 mpc_count = 0;\n    // SimplePaymentChannel spc;\n\n    function createMPC(address[] calldata parties, bytes[] calldata sigs, uint256[] calldata channels_id)\n        external\n        returns (uint256)\n    {\n        // spc = SimplePaymentChannel(spcAddr);\n        // verify signatures\n        for (uint i = 0; i < parties.length; i++) {\n            bytes32 msgHash = libSig.prefixed(keccak256(abi.encodePacked(parties[i])));\n            require(libSig.verify(parties[i], msgHash, sigs[i]), \"createMPC verify parties failed!\");\n        }\n        // verify channels\n        for (uint256 i = 0; i < channels_id.length; i++) {\n            require(verifyChannel(channels_id[i]), \"createMPC verify channel failed!\");\n            tpc_map[channels_id[i]].busy = true;\n        }\n\n        mpc.id = mpc_count + 1;\n        mpc_count = mpc_count + 1;\n        mpc.parties = parties;\n        mpc.channels_id = channels_id;\n        mpc.version_num = 0;\n        mpc_map[mpc.id] = mpc;\n        emit MPCCreateSuccess(mpc.id, parties, channels_id);\n        return mpc.id;\n    }\n\n    function updateMPC(uint256 mpc_id, Transaction[] calldata txs, string calldata msgstr, uint256 version, bytes[] calldata sigs)\n        external\n    {\n        // verify sigs\n        require(mpc_map[mpc.id].version_num < version, \"updateMPC: version error\");\n        for (uint i = 0; i < mpc_map[mpc_id].parties.length; i++) {\n            bytes32 msgHash = libSig.prefixed(keccak256(abi.encodePacked(msgstr, mpc_map[mpc_id].parties[i], version)));\n            require(libSig.verify(mpc_map[mpc_id].parties[i], msgHash, sigs[i]), \"updateMPC: verify sig failed!!!\");\n        }\n        for (uint i = 0; i < txs.length; i++) {\n            require(tpc_map[txs[i].channel_id].alice_balance + tpc_map[txs[i].channel_id].bob_balance == txs[i].new_ab + txs[i].new_ba, \"updateMPC: balance error\");\n        }\n        // execute txs\n        for (uint i = 0; i < txs.length; i++) {\n            updateTPCInternal(txs[i].channel_id, txs[i].new_ab, txs[i].new_ba);\n        }\n        mpc_map[mpc_id].version_num = version;\n        emit MPCUpdateSuccess();\n    }\n\n    function closeMPC(uint256 mpc_id, uint256 version, bytes[] calldata sigs)\n        external\n    {\n        // require(mpc_id == mpc.id, \"closeMPC: wrong id of the mpc\");\n        require(mpc_map[mpc_id].version_num == version, \"closeMPC: wrong version\");\n        string memory prefix = \"close the MPC\";\n        bytes32 msgHash = libSig.prefixed(keccak256(abi.encodePacked(prefix, mpc_id, version)));\n\n        for (uint i = 0; i < mpc_map[mpc_id].parties.length; i++) {\n            require(libSig.verify(mpc_map[mpc_id].parties[i], msgHash, sigs[i]), \"closeMPC verify sig failed!!!\");\n        }\n        delete mpc_map[mpc_id];\n        emit MPCClosed(mpc_id);\n    }\n}",
  "sourcePath": "/Users/xuxianli/work/blockchain/micropc/contracts/MultipartyChannel.sol",
  "compiler": {
    "name": "solc",
    "version": "0.6.0+commit.26b70077.Emscripten.clang"
  },
  "schemaVersion": "3.0.23",
  "updatedAt": "2020-03-02T09:45:45.938Z",
  "devdoc": {
    "methods": {}
  },
  "userdoc": {
    "methods": {}
  }
}