{
  "contractName": "SimplePaymentChannel",
  "abi": [
    {
      "anonymous": false,
      "inputs": [
        {
          "indexed": false,
          "internalType": "uint256",
          "name": "id",
          "type": "uint256"
        },
        {
          "indexed": false,
          "internalType": "address",
          "name": "alice",
          "type": "address"
        },
        {
          "indexed": false,
          "internalType": "address",
          "name": "bob",
          "type": "address"
        }
      ],
      "name": "CloseChannel",
      "type": "event"
    },
    {
      "anonymous": false,
      "inputs": [
        {
          "indexed": false,
          "internalType": "address",
          "name": "alice",
          "type": "address"
        },
        {
          "indexed": false,
          "internalType": "address",
          "name": "bob",
          "type": "address"
        },
        {
          "indexed": false,
          "internalType": "uint256",
          "name": "ab",
          "type": "uint256"
        },
        {
          "indexed": false,
          "internalType": "uint256",
          "name": "bb",
          "type": "uint256"
        }
      ],
      "name": "OpenRequest",
      "type": "event"
    },
    {
      "anonymous": false,
      "inputs": [
        {
          "indexed": false,
          "internalType": "uint256",
          "name": "id",
          "type": "uint256"
        },
        {
          "indexed": false,
          "internalType": "address",
          "name": "alice",
          "type": "address"
        },
        {
          "indexed": false,
          "internalType": "address",
          "name": "bob",
          "type": "address"
        },
        {
          "indexed": false,
          "internalType": "uint256",
          "name": "ab",
          "type": "uint256"
        },
        {
          "indexed": false,
          "internalType": "uint256",
          "name": "bb",
          "type": "uint256"
        }
      ],
      "name": "OpenSuccess",
      "type": "event"
    },
    {
      "anonymous": false,
      "inputs": [
        {
          "indexed": false,
          "internalType": "address",
          "name": "addr",
          "type": "address"
        },
        {
          "indexed": false,
          "internalType": "uint256",
          "name": "token",
          "type": "uint256"
        }
      ],
      "name": "SomeDeposit",
      "type": "event"
    },
    {
      "anonymous": false,
      "inputs": [
        {
          "indexed": false,
          "internalType": "uint256",
          "name": "id",
          "type": "uint256"
        },
        {
          "indexed": false,
          "internalType": "address",
          "name": "alice",
          "type": "address"
        },
        {
          "indexed": false,
          "internalType": "address",
          "name": "bob",
          "type": "address"
        },
        {
          "indexed": false,
          "internalType": "uint256",
          "name": "new_ab",
          "type": "uint256"
        },
        {
          "indexed": false,
          "internalType": "uint256",
          "name": "new_bb",
          "type": "uint256"
        }
      ],
      "name": "UpdateSuccess",
      "type": "event"
    },
    {
      "inputs": [
        {
          "internalType": "uint256",
          "name": "",
          "type": "uint256"
        }
      ],
      "name": "tpc_map",
      "outputs": [
        {
          "internalType": "address payable",
          "name": "alice",
          "type": "address"
        },
        {
          "internalType": "address payable",
          "name": "bob",
          "type": "address"
        },
        {
          "internalType": "uint256",
          "name": "alice_balance",
          "type": "uint256"
        },
        {
          "internalType": "uint256",
          "name": "bob_balance",
          "type": "uint256"
        },
        {
          "internalType": "uint256",
          "name": "version_num",
          "type": "uint256"
        },
        {
          "internalType": "bool",
          "name": "alice_deposited",
          "type": "bool"
        },
        {
          "internalType": "bool",
          "name": "bob_deposited",
          "type": "bool"
        }
      ],
      "stateMutability": "view",
      "type": "function",
      "constant": true
    },
    {
      "inputs": [
        {
          "internalType": "address payable",
          "name": "alice",
          "type": "address"
        },
        {
          "internalType": "address payable",
          "name": "bob",
          "type": "address"
        },
        {
          "internalType": "uint256",
          "name": "ab",
          "type": "uint256"
        },
        {
          "internalType": "uint256",
          "name": "bb",
          "type": "uint256"
        }
      ],
      "name": "openChannel",
      "outputs": [],
      "stateMutability": "payable",
      "type": "function",
      "payable": true
    },
    {
      "inputs": [
        {
          "internalType": "uint256",
          "name": "id",
          "type": "uint256"
        }
      ],
      "name": "getChannel",
      "outputs": [
        {
          "components": [
            {
              "internalType": "address payable",
              "name": "alice",
              "type": "address"
            },
            {
              "internalType": "address payable",
              "name": "bob",
              "type": "address"
            },
            {
              "internalType": "uint256",
              "name": "alice_balance",
              "type": "uint256"
            },
            {
              "internalType": "uint256",
              "name": "bob_balance",
              "type": "uint256"
            },
            {
              "internalType": "uint256",
              "name": "version_num",
              "type": "uint256"
            },
            {
              "internalType": "bool",
              "name": "alice_deposited",
              "type": "bool"
            },
            {
              "internalType": "bool",
              "name": "bob_deposited",
              "type": "bool"
            }
          ],
          "internalType": "struct SimplePaymentChannel.TPC",
          "name": "",
          "type": "tuple"
        }
      ],
      "stateMutability": "view",
      "type": "function",
      "constant": true
    },
    {
      "inputs": [
        {
          "internalType": "address",
          "name": "alice",
          "type": "address"
        },
        {
          "internalType": "address",
          "name": "bob",
          "type": "address"
        }
      ],
      "name": "deposit",
      "outputs": [
        {
          "internalType": "uint256",
          "name": "",
          "type": "uint256"
        }
      ],
      "stateMutability": "payable",
      "type": "function",
      "payable": true
    },
    {
      "inputs": [
        {
          "internalType": "uint256",
          "name": "id",
          "type": "uint256"
        },
        {
          "internalType": "address",
          "name": "alice",
          "type": "address"
        },
        {
          "internalType": "address",
          "name": "bob",
          "type": "address"
        },
        {
          "internalType": "uint256",
          "name": "new_ab",
          "type": "uint256"
        },
        {
          "internalType": "uint256",
          "name": "new_bb",
          "type": "uint256"
        },
        {
          "internalType": "uint256",
          "name": "version",
          "type": "uint256"
        },
        {
          "internalType": "bytes",
          "name": "sigA",
          "type": "bytes"
        },
        {
          "internalType": "bytes",
          "name": "sigB",
          "type": "bytes"
        }
      ],
      "name": "updateBalance",
      "outputs": [],
      "stateMutability": "payable",
      "type": "function",
      "payable": true
    },
    {
      "inputs": [
        {
          "internalType": "uint256",
          "name": "id",
          "type": "uint256"
        },
        {
          "internalType": "uint256",
          "name": "new_ab",
          "type": "uint256"
        },
        {
          "internalType": "uint256",
          "name": "new_bb",
          "type": "uint256"
        }
      ],
      "name": "updateBalanceInternal",
      "outputs": [],
      "stateMutability": "nonpayable",
      "type": "function"
    },
    {
      "inputs": [
        {
          "internalType": "uint256",
          "name": "id",
          "type": "uint256"
        },
        {
          "internalType": "address payable",
          "name": "alice",
          "type": "address"
        },
        {
          "internalType": "address payable",
          "name": "bob",
          "type": "address"
        }
      ],
      "name": "closeChannel",
      "outputs": [],
      "stateMutability": "payable",
      "type": "function",
      "payable": true
    },
    {
      "inputs": [
        {
          "internalType": "uint256",
          "name": "id",
          "type": "uint256"
        }
      ],
      "name": "verifyChannel",
      "outputs": [
        {
          "internalType": "bool",
          "name": "",
          "type": "bool"
        }
      ],
      "stateMutability": "view",
      "type": "function",
      "constant": true
    },
    {
      "inputs": [
        {
          "internalType": "uint256",
          "name": "id",
          "type": "uint256"
        }
      ],
      "name": "getTPC",
      "outputs": [
        {
          "components": [
            {
              "internalType": "address payable",
              "name": "alice",
              "type": "address"
            },
            {
              "internalType": "address payable",
              "name": "bob",
              "type": "address"
            },
            {
              "internalType": "uint256",
              "name": "alice_balance",
              "type": "uint256"
            },
            {
              "internalType": "uint256",
              "name": "bob_balance",
              "type": "uint256"
            },
            {
              "internalType": "uint256",
              "name": "version_num",
              "type": "uint256"
            },
            {
              "internalType": "bool",
              "name": "alice_deposited",
              "type": "bool"
            },
            {
              "internalType": "bool",
              "name": "bob_deposited",
              "type": "bool"
            }
          ],
          "internalType": "struct SimplePaymentChannel.TPC",
          "name": "",
          "type": "tuple"
        }
      ],
      "stateMutability": "view",
      "type": "function",
      "constant": true
    }
  ],
  "bytecode": "0x608060405260405161001090610083565b604051809103906000f08015801561002c573d6000803e3d6000fd5b506000806101000a81548173ffffffffffffffffffffffffffffffffffffffff021916908373ffffffffffffffffffffffffffffffffffffffff160217905550600160025534801561007d57600080fd5b50610090565b61033e8061204483390190565b611fa58061009f6000396000f3fe6080604052600436106100865760003560e01c8063c1c42b1a11610059578063c1c42b1a1461013d578063d8d9965a1461017a578063e6ca4b1414610196578063e7cf353f146101d9578063f9609f081461020257610086565b806310df54a01461008b578063224892bb146100c85780637da60960146100e4578063851dc27614610100575b600080fd5b34801561009757600080fd5b506100b260048036036100ad91908101906115da565b610232565b6040516100bf9190611d25565b60405180910390f35b6100e260048036036100dd9190810190611603565b61035f565b005b6100fe60048036036100f99190810190611652565b610753565b005b34801561010c57600080fd5b50610127600480360361012291908101906115da565b610bec565b6040516101349190611d25565b60405180910390f35b34801561014957600080fd5b50610164600480360361015f91908101906115da565b610d19565b6040516101719190611c2f565b60405180910390f35b610194600480360361018f91908101906114e9565b610e6e565b005b3480156101a257600080fd5b506101bd60048036036101b891908101906115da565b610f80565b6040516101d09796959493929190611b57565b60405180910390f35b3480156101e557600080fd5b5061020060048036036101fb919081019061173d565b61101c565b005b61021c6004803603610217919081019061154c565b611057565b6040516102299190611d40565b60405180910390f35b61023a6113c9565b600160008381526020019081526020016000206040518060e00160405290816000820160009054906101000a900473ffffffffffffffffffffffffffffffffffffffff1673ffffffffffffffffffffffffffffffffffffffff1673ffffffffffffffffffffffffffffffffffffffff1681526020016001820160009054906101000a900473ffffffffffffffffffffffffffffffffffffffff1673ffffffffffffffffffffffffffffffffffffffff1673ffffffffffffffffffffffffffffffffffffffff1681526020016002820154815260200160038201548152602001600482015481526020016005820160009054906101000a900460ff161515151581526020016005820160019054906101000a900460ff1615151515815250509050919050565b6103676113c9565b600160008581526020019081526020016000206040518060e00160405290816000820160009054906101000a900473ffffffffffffffffffffffffffffffffffffffff1673ffffffffffffffffffffffffffffffffffffffff1673ffffffffffffffffffffffffffffffffffffffff1681526020016001820160009054906101000a900473ffffffffffffffffffffffffffffffffffffffff1673ffffffffffffffffffffffffffffffffffffffff1673ffffffffffffffffffffffffffffffffffffffff1681526020016002820154815260200160038201548152602001600482015481526020016005820160009054906101000a900460ff161515151581526020016005820160019054906101000a900460ff16151515158152505090508273ffffffffffffffffffffffffffffffffffffffff16816000015173ffffffffffffffffffffffffffffffffffffffff161480156104f557508173ffffffffffffffffffffffffffffffffffffffff16816020015173ffffffffffffffffffffffffffffffffffffffff16145b610534576040517f08c379a000000000000000000000000000000000000000000000000000000000815260040161052b90611ca5565b60405180910390fd5b8273ffffffffffffffffffffffffffffffffffffffff163373ffffffffffffffffffffffffffffffffffffffff16148061059957508173ffffffffffffffffffffffffffffffffffffffff163373ffffffffffffffffffffffffffffffffffffffff16145b6105d8576040517f08c379a00000000000000000000000000000000000000000000000000000000081526004016105cf90611d05565b60405180910390fd5b8273ffffffffffffffffffffffffffffffffffffffff166108fc82604001519081150290604051600060405180830381858888f19350505050158015610622573d6000803e3d6000fd5b508173ffffffffffffffffffffffffffffffffffffffff166108fc82606001519081150290604051600060405180830381858888f1935050505015801561066d573d6000803e3d6000fd5b5060016000858152602001908152602001600020600080820160006101000a81549073ffffffffffffffffffffffffffffffffffffffff02191690556001820160006101000a81549073ffffffffffffffffffffffffffffffffffffffff02191690556002820160009055600382016000905560048201600090556005820160006101000a81549060ff02191690556005820160016101000a81549060ff021916905550507f3bcae4bc91258e385f1b1980238f547b90b28f652e1ff26b017d9248fc97283184848460405161074593929190611d5b565b60405180910390a150505050565b8873ffffffffffffffffffffffffffffffffffffffff163373ffffffffffffffffffffffffffffffffffffffff1614806107b857508773ffffffffffffffffffffffffffffffffffffffff163373ffffffffffffffffffffffffffffffffffffffff16145b6107f7576040517f08c379a00000000000000000000000000000000000000000000000000000000081526004016107ee90611cc5565b60405180910390fd5b858701600160008c815260200190815260200160002060030154600160008d8152602001908152602001600020600201540114610869576040517f08c379a000000000000000000000000000000000000000000000000000000000815260040161086090611c65565b60405180910390fd5b60008060009054906101000a900473ffffffffffffffffffffffffffffffffffffffff1673ffffffffffffffffffffffffffffffffffffffff16631f2757138b8b8e8c8c8c6040516020016108c396959493929190611aa2565b604051602081830303815290604052805190602001206040518263ffffffff1660e01b81526004016108f59190611c4a565b60206040518083038186803b15801561090d57600080fd5b505afa158015610921573d6000803e3d6000fd5b505050506040513d601f19601f8201168201806040525061094591908101906115b1565b9050600160008c815260200190815260200160002060040154861161099f576040517f08c379a000000000000000000000000000000000000000000000000000000000815260040161099690611ce5565b60405180910390fd5b6000809054906101000a900473ffffffffffffffffffffffffffffffffffffffff1673ffffffffffffffffffffffffffffffffffffffff16631a86b5508b8388886040518563ffffffff1660e01b81526004016109ff9493929190611bc6565b60206040518083038186803b158015610a1757600080fd5b505afa158015610a2b573d6000803e3d6000fd5b505050506040513d601f19601f82011682018060405250610a4f9190810190611588565b8015610b0757506000809054906101000a900473ffffffffffffffffffffffffffffffffffffffff1673ffffffffffffffffffffffffffffffffffffffff16631a86b5508a8386866040518563ffffffff1660e01b8152600401610ab69493929190611bc6565b60206040518083038186803b158015610ace57600080fd5b505afa158015610ae2573d6000803e3d6000fd5b505050506040513d601f19601f82011682018060405250610b069190810190611588565b5b610b46576040517f08c379a0000000000000000000000000000000000000000000000000000000008152600401610b3d90611c85565b60405180910390fd5b87600160008d81526020019081526020016000206002018190555086600160008d81526020019081526020016000206003018190555060018060008d8152602001908152602001600020600401600082825401925050819055507fc96576286834e9f521831facd26c3753943f1e7ce1ec4d9f2fba01db0b9ebcad8b8b8b8b8b604051610bd7959493929190611d92565b60405180910390a15050505050505050505050565b610bf46113c9565b600160008381526020019081526020016000206040518060e00160405290816000820160009054906101000a900473ffffffffffffffffffffffffffffffffffffffff1673ffffffffffffffffffffffffffffffffffffffff1673ffffffffffffffffffffffffffffffffffffffff1681526020016001820160009054906101000a900473ffffffffffffffffffffffffffffffffffffffff1673ffffffffffffffffffffffffffffffffffffffff1673ffffffffffffffffffffffffffffffffffffffff1681526020016002820154815260200160038201548152602001600482015481526020016005820160009054906101000a900460ff161515151581526020016005820160019054906101000a900460ff1615151515815250509050919050565b60008073ffffffffffffffffffffffffffffffffffffffff166001600084815260200190815260200160002060000160009054906101000a900473ffffffffffffffffffffffffffffffffffffffff1673ffffffffffffffffffffffffffffffffffffffff1614158015610df05750600073ffffffffffffffffffffffffffffffffffffffff166001600084815260200190815260200160002060010160009054906101000a900473ffffffffffffffffffffffffffffffffffffffff1673ffffffffffffffffffffffffffffffffffffffff1614155b8015610e235750600115156001600084815260200190815260200160002060050160009054906101000a900460ff161515145b8015610e565750600115156001600084815260200190815260200160002060050160019054906101000a900460ff161515145b15610e645760019050610e69565b600090505b919050565b83600360000160006101000a81548173ffffffffffffffffffffffffffffffffffffffff021916908373ffffffffffffffffffffffffffffffffffffffff16021790555082600360010160006101000a81548173ffffffffffffffffffffffffffffffffffffffff021916908373ffffffffffffffffffffffffffffffffffffffff16021790555060006003600401819055506000600360050160006101000a81548160ff0219169083151502179055506000600360050160016101000a81548160ff0219169083151502179055507f255cf6a019897b9867c4d57e9d0b54de6553703560d9f35f4c94f9a55db6781184848484604051610f729493929190611b12565b60405180910390a150505050565b60016020528060005260406000206000915090508060000160009054906101000a900473ffffffffffffffffffffffffffffffffffffffff16908060010160009054906101000a900473ffffffffffffffffffffffffffffffffffffffff16908060020154908060030154908060040154908060050160009054906101000a900460ff16908060050160019054906101000a900460ff16905087565b816001600085815260200190815260200160002060020181905550806001600085815260200190815260200160002060030181905550505050565b60008273ffffffffffffffffffffffffffffffffffffffff163373ffffffffffffffffffffffffffffffffffffffff1614156110f357346003600201819055506001600360050160006101000a81548160ff0219169083151502179055507fa3494481445e00f96a965dda2f74a0435adc379bbd159bdc8804e291ec0f247183346040516110e6929190611c06565b60405180910390a1611189565b8173ffffffffffffffffffffffffffffffffffffffff163373ffffffffffffffffffffffffffffffffffffffff161415611188573460038001819055506001600360050160016101000a81548160ff0219169083151502179055507fa3494481445e00f96a965dda2f74a0435adc379bbd159bdc8804e291ec0f2471823460405161117f929190611c06565b60405180910390a15b5b600360050160009054906101000a900460ff1680156111b75750600360050160019054906101000a900460ff165b156113be57600060025490506003600160008381526020019081526020016000206000820160009054906101000a900473ffffffffffffffffffffffffffffffffffffffff168160000160006101000a81548173ffffffffffffffffffffffffffffffffffffffff021916908373ffffffffffffffffffffffffffffffffffffffff1602179055506001820160009054906101000a900473ffffffffffffffffffffffffffffffffffffffff168160010160006101000a81548173ffffffffffffffffffffffffffffffffffffffff021916908373ffffffffffffffffffffffffffffffffffffffff1602179055506002820154816002015560038201548160030155600482015481600401556005820160009054906101000a900460ff168160050160006101000a81548160ff0219169083151502179055506005820160019054906101000a900460ff168160050160016101000a81548160ff02191690831515021790555090505060016002600082825401925050819055506000600360050160006101000a81548160ff0219169083151502179055506000600360050160016101000a81548160ff0219169083151502179055507e9047abb98ee4e692f01ee1d99289f3a7abc70560be13c5d99121479588057f81858560036002015460038001546040516113ad959493929190611d92565b60405180910390a1809150506113c3565b600090505b92915050565b6040518060e00160405280600073ffffffffffffffffffffffffffffffffffffffff168152602001600073ffffffffffffffffffffffffffffffffffffffff1681526020016000815260200160008152602001600081526020016000151581526020016000151581525090565b60008135905061144581611efc565b92915050565b60008135905061145a81611f13565b92915050565b60008151905061146f81611f2a565b92915050565b60008151905061148481611f41565b92915050565b60008083601f84011261149c57600080fd5b8235905067ffffffffffffffff8111156114b557600080fd5b6020830191508360018202830111156114cd57600080fd5b9250929050565b6000813590506114e381611f58565b92915050565b600080600080608085870312156114ff57600080fd5b600061150d8782880161144b565b945050602061151e8782880161144b565b935050604061152f878288016114d4565b9250506060611540878288016114d4565b91505092959194509250565b6000806040838503121561155f57600080fd5b600061156d85828601611436565b925050602061157e85828601611436565b9150509250929050565b60006020828403121561159a57600080fd5b60006115a884828501611460565b91505092915050565b6000602082840312156115c357600080fd5b60006115d184828501611475565b91505092915050565b6000602082840312156115ec57600080fd5b60006115fa848285016114d4565b91505092915050565b60008060006060848603121561161857600080fd5b6000611626868287016114d4565b93505060206116378682870161144b565b92505060406116488682870161144b565b9150509250925092565b6000806000806000806000806000806101008b8d03121561167257600080fd5b60006116808d828e016114d4565b9a505060206116918d828e01611436565b99505060406116a28d828e01611436565b98505060606116b38d828e016114d4565b97505060806116c48d828e016114d4565b96505060a06116d58d828e016114d4565b95505060c08b013567ffffffffffffffff8111156116f257600080fd5b6116fe8d828e0161148a565b945094505060e08b013567ffffffffffffffff81111561171d57600080fd5b6117298d828e0161148a565b92509250509295989b9194979a5092959850565b60008060006060848603121561175257600080fd5b6000611760868287016114d4565b9350506020611771868287016114d4565b9250506040611782868287016114d4565b9150509250925092565b61179581611e6b565b82525050565b6117a481611e19565b82525050565b6117b381611e19565b82525050565b6117c281611e07565b82525050565b6117d96117d482611e07565b611eb0565b82525050565b6117e881611e2b565b82525050565b6117f781611e2b565b82525050565b61180681611e37565b82525050565b60006118188385611de5565b9350611825838584611ea1565b61182e83611ede565b840190509392505050565b6000611846600d83611df6565b91507f62616c616e6365206572726f72000000000000000000000000000000000000006000830152602082019050919050565b6000611886600e83611df6565b91507f766572696679206661696c6564210000000000000000000000000000000000006000830152602082019050919050565b60006118c6600d83611df6565b91507f6368616e6e656c206572726f72000000000000000000000000000000000000006000830152602082019050919050565b6000611906600c83611df6565b91507f73656e646572206572726f7200000000000000000000000000000000000000006000830152602082019050919050565b6000611946602383611df6565b91507f76657273696f6e206e756d206c6974746572207468616e206c6173746573742060008301527f6f6e6500000000000000000000000000000000000000000000000000000000006020830152604082019050919050565b60006119ac600c83611df6565b91507f77726f6e672073656e64657200000000000000000000000000000000000000006000830152602082019050919050565b60e0820160008201516119f5600085018261179b565b506020820151611a08602085018261179b565b506040820151611a1b6040850182611a6d565b506060820151611a2e6060850182611a6d565b506080820151611a416080850182611a6d565b5060a0820151611a5460a08501826117df565b5060c0820151611a6760c08501826117df565b50505050565b611a7681611e61565b82525050565b611a8581611e61565b82525050565b611a9c611a9782611e61565b611ed4565b82525050565b6000611aae82896117c8565b601482019150611abe82886117c8565b601482019150611ace8287611a8b565b602082019150611ade8286611a8b565b602082019150611aee8285611a8b565b602082019150611afe8284611a8b565b602082019150819050979650505050505050565b6000608082019050611b27600083018761178c565b611b34602083018661178c565b611b416040830185611a7c565b611b4e6060830184611a7c565b95945050505050565b600060e082019050611b6c600083018a6117aa565b611b7960208301896117aa565b611b866040830188611a7c565b611b936060830187611a7c565b611ba06080830186611a7c565b611bad60a08301856117ee565b611bba60c08301846117ee565b98975050505050505050565b6000606082019050611bdb60008301876117b9565b611be860208301866117fd565b8181036040830152611bfb81848661180c565b905095945050505050565b6000604082019050611c1b60008301856117b9565b611c286020830184611a7c565b9392505050565b6000602082019050611c4460008301846117ee565b92915050565b6000602082019050611c5f60008301846117fd565b92915050565b60006020820190508181036000830152611c7e81611839565b9050919050565b60006020820190508181036000830152611c9e81611879565b9050919050565b60006020820190508181036000830152611cbe816118b9565b9050919050565b60006020820190508181036000830152611cde816118f9565b9050919050565b60006020820190508181036000830152611cfe81611939565b9050919050565b60006020820190508181036000830152611d1e8161199f565b9050919050565b600060e082019050611d3a60008301846119df565b92915050565b6000602082019050611d556000830184611a7c565b92915050565b6000606082019050611d706000830186611a7c565b611d7d602083018561178c565b611d8a604083018461178c565b949350505050565b600060a082019050611da76000830188611a7c565b611db460208301876117b9565b611dc160408301866117b9565b611dce6060830185611a7c565b611ddb6080830184611a7c565b9695505050505050565b600082825260208201905092915050565b600082825260208201905092915050565b6000611e1282611e41565b9050919050565b6000611e2482611e41565b9050919050565b60008115159050919050565b6000819050919050565b600073ffffffffffffffffffffffffffffffffffffffff82169050919050565b6000819050919050565b6000611e7682611e7d565b9050919050565b6000611e8882611e8f565b9050919050565b6000611e9a82611e41565b9050919050565b82818337600083830152505050565b6000611ebb82611ec2565b9050919050565b6000611ecd82611eef565b9050919050565b6000819050919050565b6000601f19601f8301169050919050565b60008160601b9050919050565b611f0581611e07565b8114611f1057600080fd5b50565b611f1c81611e19565b8114611f2757600080fd5b50565b611f3381611e2b565b8114611f3e57600080fd5b50565b611f4a81611e37565b8114611f5557600080fd5b50565b611f6181611e61565b8114611f6c57600080fd5b5056fea264697066735822122036835c5c1c2639778e4481af5ae36a740ffc4abe9d63413b6811d7e25ee3ce1264736f6c63430006000033608060405234801561001057600080fd5b5061031e806100206000396000f3fe608060405234801561001057600080fd5b50600436106100365760003560e01c80631a86b5501461003b5780631f27571314610138575b600080fd5b61011e6004803603606081101561005157600080fd5b81019080803573ffffffffffffffffffffffffffffffffffffffff169060200190929190803590602001909291908035906020019064010000000081111561009857600080fd5b8201836020820111156100aa57600080fd5b803590602001918460018302840111640100000000831117156100cc57600080fd5b91908080601f016020809104026020016040519081016040528093929190818152602001838380828437600081840152601f19601f82011690508083019250505050505050919291929050505061017a565b604051808215151515815260200191505060405180910390f35b6101646004803603602081101561014e57600080fd5b8101908080359060200190929190505050610290565b6040518082815260200191505060405180910390f35b6000604182511461018e5760009050610289565b600080600060608590506020810151935060408101519250606081015160001a9150601b8260ff1610156101c357601b820191505b601b8260ff16141580156101db5750601c8260ff1614155b156101ed576000945050505050610289565b8773ffffffffffffffffffffffffffffffffffffffff1660018884878760405160008152602001604052604051808581526020018460ff1660ff1681526020018381526020018281526020019450505050506020604051602081039080840390855afa158015610261573d6000803e3d6000fd5b5050506020604051035173ffffffffffffffffffffffffffffffffffffffff16149450505050505b9392505050565b60008160405160200180807f19457468657265756d205369676e6564204d6573736167653a0a333200000000815250601c0182815260200191505060405160208183030381529060405280519060200120905091905056fea264697066735822122095b7258ee81d3084db524579003e6175c7cff276acd359c835fc2312f28385ab64736f6c63430006000033",
  "source": "pragma solidity >=0.4.24 <0.7.0;\npragma experimental ABIEncoderV2;\n\nimport \"./ILibSig.sol\";\n\ncontract SimplePaymentChannel {\n    event OpenRequest(address alice, address bob, uint256 ab, uint256 bb);\n    event OpenSuccess(uint256 id, address alice, address bob, uint256 ab, uint256 bb);\n    event UpdateSuccess(uint256 id, address alice, address bob, uint256 new_ab, uint256 new_bb);\n    event SomeDeposit(address addr, uint256 token);\n    event CloseChannel(uint256 id, address alice, address bob);\n\n    struct TPC {\n        address payable alice;\n        address payable bob;\n        uint256 alice_balance; // wei\n        uint256 bob_balance;\n        uint256 version_num;\n        bool alice_deposited;\n        bool bob_deposited;\n    }\n\n    LibSig libSig = new LibSig();\n\n    // TPC[] public tpc_array;\n    mapping (uint256 => TPC) public tpc_map;\n\n    uint256 count = 1;\n\n    TPC tpc_ab;\n\n    function openChannel(address payable alice, address payable bob, uint256 ab, uint256 bb)\n        external\n        payable\n    {\n        tpc_ab.alice = alice;\n        tpc_ab.bob = bob;\n        tpc_ab.version_num = 0;\n        tpc_ab.alice_deposited = false;\n        tpc_ab.bob_deposited = false;\n\n        emit OpenRequest(alice, bob, ab, bb);\n    }\n\n    function getChannel(uint256 id)\n        external\n        view\n        returns (TPC memory)\n    {\n        return tpc_map[id];\n    }\n\n    function deposit(address alice, address bob)\n        external\n        payable\n        returns (uint256)\n    {\n        if (msg.sender == alice)\n        {\n            tpc_ab.alice_balance = msg.value;\n            tpc_ab.alice_deposited = true;\n            emit SomeDeposit(alice, msg.value);\n        }\n        else if (msg.sender == bob)\n        {\n            tpc_ab.bob_balance = msg.value;\n            tpc_ab.bob_deposited = true;\n            emit SomeDeposit(bob, msg.value);\n        }\n        if (tpc_ab.alice_deposited && tpc_ab.bob_deposited) {\n            uint256 id = count;\n            tpc_map[id] = tpc_ab;\n            count += 1;\n            tpc_ab.alice_deposited = false;\n            tpc_ab.bob_deposited = false;\n            emit OpenSuccess(id, alice, bob, tpc_ab.alice_balance, tpc_ab.bob_balance);\n            return id;\n        }\n        return 0;\n    }\n\n    function updateBalance(\n            uint256 id, address alice, address bob,\n            uint256 new_ab, uint256 new_bb, uint256 version,\n            bytes calldata sigA, bytes calldata sigB\n        )\n        external\n        payable\n    {\n        require(msg.sender == alice || msg.sender == bob, \"sender error\");\n        require((tpc_map[id].alice_balance + tpc_map[id].bob_balance) == (new_ab + new_bb), \"balance error\");\n\n        bytes32 msgHash = libSig.prefixed(keccak256(abi.encodePacked(alice, bob, id, new_ab, new_bb, version)));\n\n        require(version > tpc_map[id].version_num, \"version num litter than lastest one\");\n        require(libSig.verify(alice, msgHash, sigA) && libSig.verify(bob, msgHash, sigB), \"verify failed!\");\n\n        // updateBalanceInternal(id, new_ab, new_bb);\n\n        tpc_map[id].alice_balance = new_ab;\n        tpc_map[id].bob_balance = new_bb;\n        tpc_map[id].version_num += 1;\n\n        emit UpdateSuccess(id, alice, bob, new_ab, new_bb);\n    }\n\n    function updateBalanceInternal(uint256 id, uint256 new_ab, uint256 new_bb)\n        external\n    {\n        tpc_map[id].alice_balance = new_ab;\n        tpc_map[id].bob_balance = new_bb;\n        // tpc_map[id].version_num += 1;\n    }\n\n    function closeChannel(uint256 id, address payable alice, address payable bob)\n        external\n        payable\n    {\n        TPC memory channel = tpc_map[id];\n        require(channel.alice == alice && channel.bob == bob, \"channel error\");\n        require(msg.sender == alice || msg.sender == bob, \"wrong sender\");\n        alice.transfer(channel.alice_balance);\n        bob.transfer(channel.bob_balance);\n        delete tpc_map[id];\n        emit CloseChannel(id, alice, bob);\n    }\n\n    function verifyChannel(uint256 id)\n        external\n        view\n        returns (bool)\n    {\n        if (tpc_map[id].alice != address(0) && tpc_map[id].bob != address(0) &&\n            tpc_map[id].alice_deposited == true && tpc_map[id].bob_deposited == true)\n        {\n            return true;\n        }\n        else {\n            return false;\n        }\n    }\n\n    function getTPC(uint256 id)\n        external\n        view\n        returns (TPC memory)\n    {\n        return tpc_map[id];\n    }\n}",
  "sourcePath": "/Users/xuxianli/work/blockchain/micropc/contracts/SimplePaymentChannel.sol",
  "compiler": {
    "name": "solc",
    "version": "0.6.0+commit.26b70077.Emscripten.clang"
  },
  "schemaVersion": "3.0.23",
  "updatedAt": "2020-02-13T11:29:38.491Z",
  "networkType": "ethereum",
  "devdoc": {
    "methods": {}
  },
  "userdoc": {
    "methods": {}
  }
}