{
  "contractName": "SimplePaymentChannel",
  "abi": [
    {
      "anonymous": false,
      "inputs": [
        {
          "indexed": false,
          "internalType": "uint256",
          "name": "id",
          "type": "uint256"
        },
        {
          "indexed": false,
          "internalType": "address",
          "name": "alice",
          "type": "address"
        },
        {
          "indexed": false,
          "internalType": "address",
          "name": "bob",
          "type": "address"
        }
      ],
      "name": "TPCCloseChannel",
      "type": "event"
    },
    {
      "anonymous": false,
      "inputs": [
        {
          "indexed": false,
          "internalType": "uint256",
          "name": "id",
          "type": "uint256"
        },
        {
          "indexed": false,
          "internalType": "address",
          "name": "alice",
          "type": "address"
        },
        {
          "indexed": false,
          "internalType": "address",
          "name": "bob",
          "type": "address"
        },
        {
          "indexed": false,
          "internalType": "uint256",
          "name": "ab",
          "type": "uint256"
        },
        {
          "indexed": false,
          "internalType": "uint256",
          "name": "bb",
          "type": "uint256"
        }
      ],
      "name": "TPCOpenRequest",
      "type": "event"
    },
    {
      "anonymous": false,
      "inputs": [
        {
          "indexed": false,
          "internalType": "uint256",
          "name": "id",
          "type": "uint256"
        },
        {
          "indexed": false,
          "internalType": "address",
          "name": "alice",
          "type": "address"
        },
        {
          "indexed": false,
          "internalType": "address",
          "name": "bob",
          "type": "address"
        },
        {
          "indexed": false,
          "internalType": "uint256",
          "name": "ab",
          "type": "uint256"
        },
        {
          "indexed": false,
          "internalType": "uint256",
          "name": "bb",
          "type": "uint256"
        }
      ],
      "name": "TPCOpenSuccess",
      "type": "event"
    },
    {
      "anonymous": false,
      "inputs": [
        {
          "indexed": false,
          "internalType": "uint256",
          "name": "id",
          "type": "uint256"
        },
        {
          "indexed": false,
          "internalType": "address",
          "name": "addr",
          "type": "address"
        },
        {
          "indexed": false,
          "internalType": "uint256",
          "name": "token",
          "type": "uint256"
        }
      ],
      "name": "TPCSomeDeposit",
      "type": "event"
    },
    {
      "anonymous": false,
      "inputs": [
        {
          "indexed": false,
          "internalType": "uint256",
          "name": "id",
          "type": "uint256"
        },
        {
          "indexed": false,
          "internalType": "address",
          "name": "alice",
          "type": "address"
        },
        {
          "indexed": false,
          "internalType": "address",
          "name": "bob",
          "type": "address"
        },
        {
          "indexed": false,
          "internalType": "uint256",
          "name": "new_ab",
          "type": "uint256"
        },
        {
          "indexed": false,
          "internalType": "uint256",
          "name": "new_bb",
          "type": "uint256"
        }
      ],
      "name": "TPCUpdateSuccess",
      "type": "event"
    },
    {
      "inputs": [
        {
          "internalType": "uint256",
          "name": "",
          "type": "uint256"
        }
      ],
      "name": "tpc_map",
      "outputs": [
        {
          "internalType": "address payable",
          "name": "alice",
          "type": "address"
        },
        {
          "internalType": "address payable",
          "name": "bob",
          "type": "address"
        },
        {
          "internalType": "uint256",
          "name": "alice_balance",
          "type": "uint256"
        },
        {
          "internalType": "uint256",
          "name": "bob_balance",
          "type": "uint256"
        },
        {
          "internalType": "uint256",
          "name": "version_num",
          "type": "uint256"
        },
        {
          "internalType": "bool",
          "name": "alice_deposited",
          "type": "bool"
        },
        {
          "internalType": "bool",
          "name": "bob_deposited",
          "type": "bool"
        },
        {
          "internalType": "bool",
          "name": "busy",
          "type": "bool"
        }
      ],
      "stateMutability": "view",
      "type": "function"
    },
    {
      "inputs": [
        {
          "internalType": "address payable",
          "name": "alice",
          "type": "address"
        },
        {
          "internalType": "address payable",
          "name": "bob",
          "type": "address"
        },
        {
          "internalType": "uint256",
          "name": "ab",
          "type": "uint256"
        },
        {
          "internalType": "uint256",
          "name": "bb",
          "type": "uint256"
        },
        {
          "internalType": "bytes",
          "name": "sigA",
          "type": "bytes"
        },
        {
          "internalType": "bytes",
          "name": "sigB",
          "type": "bytes"
        }
      ],
      "name": "createTPC",
      "outputs": [],
      "stateMutability": "payable",
      "type": "function"
    },
    {
      "inputs": [
        {
          "internalType": "uint256",
          "name": "id",
          "type": "uint256"
        }
      ],
      "name": "getChannel",
      "outputs": [
        {
          "components": [
            {
              "internalType": "address payable",
              "name": "alice",
              "type": "address"
            },
            {
              "internalType": "address payable",
              "name": "bob",
              "type": "address"
            },
            {
              "internalType": "uint256",
              "name": "alice_balance",
              "type": "uint256"
            },
            {
              "internalType": "uint256",
              "name": "bob_balance",
              "type": "uint256"
            },
            {
              "internalType": "uint256",
              "name": "version_num",
              "type": "uint256"
            },
            {
              "internalType": "bool",
              "name": "alice_deposited",
              "type": "bool"
            },
            {
              "internalType": "bool",
              "name": "bob_deposited",
              "type": "bool"
            },
            {
              "internalType": "bool",
              "name": "busy",
              "type": "bool"
            }
          ],
          "internalType": "struct SimplePaymentChannel.TPC",
          "name": "",
          "type": "tuple"
        }
      ],
      "stateMutability": "view",
      "type": "function"
    },
    {
      "inputs": [
        {
          "internalType": "uint256",
          "name": "id",
          "type": "uint256"
        },
        {
          "internalType": "address",
          "name": "alice",
          "type": "address"
        },
        {
          "internalType": "address",
          "name": "bob",
          "type": "address"
        }
      ],
      "name": "deposit",
      "outputs": [
        {
          "internalType": "uint256",
          "name": "",
          "type": "uint256"
        }
      ],
      "stateMutability": "payable",
      "type": "function"
    },
    {
      "inputs": [
        {
          "internalType": "uint256",
          "name": "id",
          "type": "uint256"
        },
        {
          "internalType": "address",
          "name": "alice",
          "type": "address"
        },
        {
          "internalType": "address",
          "name": "bob",
          "type": "address"
        },
        {
          "internalType": "uint256",
          "name": "new_ab",
          "type": "uint256"
        },
        {
          "internalType": "uint256",
          "name": "new_bb",
          "type": "uint256"
        },
        {
          "internalType": "uint256",
          "name": "version",
          "type": "uint256"
        },
        {
          "internalType": "bytes",
          "name": "sigA",
          "type": "bytes"
        },
        {
          "internalType": "bytes",
          "name": "sigB",
          "type": "bytes"
        }
      ],
      "name": "updateTPC",
      "outputs": [],
      "stateMutability": "payable",
      "type": "function"
    },
    {
      "inputs": [
        {
          "internalType": "uint256",
          "name": "id",
          "type": "uint256"
        },
        {
          "internalType": "uint256",
          "name": "version",
          "type": "uint256"
        },
        {
          "internalType": "bytes",
          "name": "sigA",
          "type": "bytes"
        },
        {
          "internalType": "bytes",
          "name": "sigB",
          "type": "bytes"
        }
      ],
      "name": "closeTPC",
      "outputs": [],
      "stateMutability": "payable",
      "type": "function"
    },
    {
      "inputs": [
        {
          "internalType": "uint256",
          "name": "id",
          "type": "uint256"
        }
      ],
      "name": "getTPC",
      "outputs": [
        {
          "components": [
            {
              "internalType": "address payable",
              "name": "alice",
              "type": "address"
            },
            {
              "internalType": "address payable",
              "name": "bob",
              "type": "address"
            },
            {
              "internalType": "uint256",
              "name": "alice_balance",
              "type": "uint256"
            },
            {
              "internalType": "uint256",
              "name": "bob_balance",
              "type": "uint256"
            },
            {
              "internalType": "uint256",
              "name": "version_num",
              "type": "uint256"
            },
            {
              "internalType": "bool",
              "name": "alice_deposited",
              "type": "bool"
            },
            {
              "internalType": "bool",
              "name": "bob_deposited",
              "type": "bool"
            },
            {
              "internalType": "bool",
              "name": "busy",
              "type": "bool"
            }
          ],
          "internalType": "struct SimplePaymentChannel.TPC",
          "name": "",
          "type": "tuple"
        }
      ],
      "stateMutability": "view",
      "type": "function"
    }
  ],
  "bytecode": "0x6080604052604051620000129062000088565b604051809103906000f0801580156200002f573d6000803e3d6000fd5b506000806101000a81548173ffffffffffffffffffffffffffffffffffffffff021916908373ffffffffffffffffffffffffffffffffffffffff16021790555060016002553480156200008157600080fd5b5062000096565b61033e806200288c83390190565b6127e680620000a66000396000f3fe6080604052600436106100705760003560e01c806355eb70221161004e57806355eb7022146100fe578063851dc2761461011a578063b245953314610157578063e6ca4b141461017357610070565b806302a5a56f1461007557806310df54a0146100915780632e2d2984146100ce575b600080fd5b61008f600480360361008a9190810190611beb565b6101b7565b005b34801561009d57600080fd5b506100b860048036036100b39190810190611b73565b6106b1565b6040516100c59190612480565b60405180910390f35b6100e860048036036100e39190810190611b9c565b6107fa565b6040516100f5919061249c565b60405180910390f35b61011860048036036101139190810190611a5e565b610ab3565b005b34801561012657600080fd5b50610141600480360361013c9190810190611b73565b611073565b60405161014e9190612480565b60405180910390f35b610171600480360361016c9190810190611cd6565b6111bc565b005b34801561017f57600080fd5b5061019a60048036036101959190810190611b73565b611885565b6040516101ae989796959493929190612267565b60405180910390f35b60001515600160008c815260200190815260200160002060050160029054906101000a900460ff16151514610221576040517f08c379a0000000000000000000000000000000000000000000000000000000008152600401610218906123e0565b60405180910390fd5b8873ffffffffffffffffffffffffffffffffffffffff163373ffffffffffffffffffffffffffffffffffffffff16148061028657508773ffffffffffffffffffffffffffffffffffffffff163373ffffffffffffffffffffffffffffffffffffffff16145b6102c5576040517f08c379a00000000000000000000000000000000000000000000000000000000081526004016102bc90612420565b60405180910390fd5b858701600160008c815260200190815260200160002060030154600160008d8152602001908152602001600020600201540114610337576040517f08c379a000000000000000000000000000000000000000000000000000000000815260040161032e90612380565b60405180910390fd5b60008060009054906101000a900473ffffffffffffffffffffffffffffffffffffffff1673ffffffffffffffffffffffffffffffffffffffff16631f2757138b8b8e8c8c8c60405160200161039196959493929190612163565b604051602081830303815290604052805190602001206040518263ffffffff1660e01b81526004016103c39190612365565b60206040518083038186803b1580156103db57600080fd5b505afa1580156103ef573d6000803e3d6000fd5b505050506040513d601f19601f820116820180604052506104139190810190611b4a565b9050600160008c815260200190815260200160002060040154861161046d576040517f08c379a000000000000000000000000000000000000000000000000000000000815260040161046490612440565b60405180910390fd5b6000809054906101000a900473ffffffffffffffffffffffffffffffffffffffff1673ffffffffffffffffffffffffffffffffffffffff16631a86b5508b8388886040518563ffffffff1660e01b81526004016104cd9493929190612325565b60206040518083038186803b1580156104e557600080fd5b505afa1580156104f9573d6000803e3d6000fd5b505050506040513d601f19601f8201168201806040525061051d9190810190611b21565b80156105d557506000809054906101000a900473ffffffffffffffffffffffffffffffffffffffff1673ffffffffffffffffffffffffffffffffffffffff16631a86b5508a8386866040518563ffffffff1660e01b81526004016105849493929190612325565b60206040518083038186803b15801561059c57600080fd5b505afa1580156105b0573d6000803e3d6000fd5b505050506040513d601f19601f820116820180604052506105d49190810190611b21565b5b610614576040517f08c379a000000000000000000000000000000000000000000000000000000000815260040161060b906123c0565b60405180910390fd5b87600160008d81526020019081526020016000206002018190555086600160008d81526020019081526020016000206003018190555085600160008d8152602001908152602001600020600401819055507f360021256038e7800042bd766ba4b42429d89cd49327ec22493810c1996ad5068b8b8b8b8b60405161069c959493929190612541565b60405180910390a15050505050505050505050565b6106b9611934565b60016000838152602001908152602001600020604051806101000160405290816000820160009054906101000a900473ffffffffffffffffffffffffffffffffffffffff1673ffffffffffffffffffffffffffffffffffffffff1673ffffffffffffffffffffffffffffffffffffffff1681526020016001820160009054906101000a900473ffffffffffffffffffffffffffffffffffffffff1673ffffffffffffffffffffffffffffffffffffffff1673ffffffffffffffffffffffffffffffffffffffff1681526020016002820154815260200160038201548152602001600482015481526020016005820160009054906101000a900460ff161515151581526020016005820160019054906101000a900460ff161515151581526020016005820160029054906101000a900460ff1615151515815250509050919050565b60006001600085815260200190815260200160002060000160009054906101000a900473ffffffffffffffffffffffffffffffffffffffff1673ffffffffffffffffffffffffffffffffffffffff163373ffffffffffffffffffffffffffffffffffffffff1614156108ef57346001600086815260200190815260200160002060020181905550600180600086815260200190815260200160002060050160006101000a81548160ff0219169083151502179055507fe84eba7ab097914da75daebb57b4481a5b1fd4f04954e8c8cda4aaa6b45a3f738484346040516108e293929190612594565b60405180910390a16109df565b6001600085815260200190815260200160002060010160009054906101000a900473ffffffffffffffffffffffffffffffffffffffff1673ffffffffffffffffffffffffffffffffffffffff163373ffffffffffffffffffffffffffffffffffffffff1614156109de57346001600086815260200190815260200160002060030181905550600180600086815260200190815260200160002060050160016101000a81548160ff0219169083151502179055507fe84eba7ab097914da75daebb57b4481a5b1fd4f04954e8c8cda4aaa6b45a3f738483346040516109d593929190612594565b60405180910390a15b5b6001600085815260200190815260200160002060050160009054906101000a900460ff168015610a2f57506001600085815260200190815260200160002060050160019054906101000a900460ff165b15610aa7577fd92bbbac63272d0256172b5e8fec52c552e082cbd4df853483b5b6ccf1c14d438484846001600089815260200190815260200160002060020154600160008a815260200190815260200160002060030154604051610a97959493929190612541565b60405180910390a1839050610aac565b600090505b9392505050565b60606040518060400160405280600c81526020017f6372656174652061205450430000000000000000000000000000000000000000815250905060008060009054906101000a900473ffffffffffffffffffffffffffffffffffffffff1673ffffffffffffffffffffffffffffffffffffffff16631f275713838c8c8c8c604051602001610b459594939291906121d3565b604051602081830303815290604052805190602001206040518263ffffffff1660e01b8152600401610b779190612365565b60206040518083038186803b158015610b8f57600080fd5b505afa158015610ba3573d6000803e3d6000fd5b505050506040513d601f19601f82011682018060405250610bc79190810190611b4a565b90508973ffffffffffffffffffffffffffffffffffffffff163373ffffffffffffffffffffffffffffffffffffffff161480610c2e57508873ffffffffffffffffffffffffffffffffffffffff163373ffffffffffffffffffffffffffffffffffffffff16145b610c6d576040517f08c379a0000000000000000000000000000000000000000000000000000000008152600401610c6490612460565b60405180910390fd5b6000809054906101000a900473ffffffffffffffffffffffffffffffffffffffff1673ffffffffffffffffffffffffffffffffffffffff16631a86b5508b8389896040518563ffffffff1660e01b8152600401610ccd94939291906122e5565b60206040518083038186803b158015610ce557600080fd5b505afa158015610cf9573d6000803e3d6000fd5b505050506040513d601f19601f82011682018060405250610d1d9190810190611b21565b8015610dd557506000809054906101000a900473ffffffffffffffffffffffffffffffffffffffff1673ffffffffffffffffffffffffffffffffffffffff16631a86b5508a8387876040518563ffffffff1660e01b8152600401610d8494939291906122e5565b60206040518083038186803b158015610d9c57600080fd5b505afa158015610db0573d6000803e3d6000fd5b505050506040513d601f19601f82011682018060405250610dd49190810190611b21565b5b610e14576040517f08c379a0000000000000000000000000000000000000000000000000000000008152600401610e0b906123c0565b60405180910390fd5b610e1c611934565b8a816000019073ffffffffffffffffffffffffffffffffffffffff16908173ffffffffffffffffffffffffffffffffffffffff168152505089816020019073ffffffffffffffffffffffffffffffffffffffff16908173ffffffffffffffffffffffffffffffffffffffff1681525050600081608001818152505060008160a001901515908115158152505060008160c001901515908115158152505060008160e001901515908115158152505060008160a001901515908115158152505060008160c001901515908115158152505060006002549050816001600083815260200190815260200160002060008201518160000160006101000a81548173ffffffffffffffffffffffffffffffffffffffff021916908373ffffffffffffffffffffffffffffffffffffffff16021790555060208201518160010160006101000a81548173ffffffffffffffffffffffffffffffffffffffff021916908373ffffffffffffffffffffffffffffffffffffffff16021790555060408201518160020155606082015181600301556080820151816004015560a08201518160050160006101000a81548160ff02191690831515021790555060c08201518160050160016101000a81548160ff02191690831515021790555060e08201518160050160026101000a81548160ff02191690831515021790555090505060016002600082825401925050819055507e12dcff0c9c2fabb23155dfd13ef15c1b472007879c2a43805b151fa3e7a61e818d8d8d8d60405161105d9594939291906124ee565b60405180910390a1505050505050505050505050565b61107b611934565b60016000838152602001908152602001600020604051806101000160405290816000820160009054906101000a900473ffffffffffffffffffffffffffffffffffffffff1673ffffffffffffffffffffffffffffffffffffffff1673ffffffffffffffffffffffffffffffffffffffff1681526020016001820160009054906101000a900473ffffffffffffffffffffffffffffffffffffffff1673ffffffffffffffffffffffffffffffffffffffff1673ffffffffffffffffffffffffffffffffffffffff1681526020016002820154815260200160038201548152602001600482015481526020016005820160009054906101000a900460ff161515151581526020016005820160019054906101000a900460ff161515151581526020016005820160029054906101000a900460ff1615151515815250509050919050565b6111c4611934565b60016000888152602001908152602001600020604051806101000160405290816000820160009054906101000a900473ffffffffffffffffffffffffffffffffffffffff1673ffffffffffffffffffffffffffffffffffffffff1673ffffffffffffffffffffffffffffffffffffffff1681526020016001820160009054906101000a900473ffffffffffffffffffffffffffffffffffffffff1673ffffffffffffffffffffffffffffffffffffffff1673ffffffffffffffffffffffffffffffffffffffff1681526020016002820154815260200160038201548152602001600482015481526020016005820160009054906101000a900460ff161515151581526020016005820160019054906101000a900460ff161515151581526020016005820160029054906101000a900460ff1615151515815250509050806000015173ffffffffffffffffffffffffffffffffffffffff163373ffffffffffffffffffffffffffffffffffffffff16148061136d5750806020015173ffffffffffffffffffffffffffffffffffffffff163373ffffffffffffffffffffffffffffffffffffffff16145b6113ac576040517f08c379a00000000000000000000000000000000000000000000000000000000081526004016113a3906123a0565b60405180910390fd5b60606040518060400160405280600d81526020017f636c6f7365207468652054504300000000000000000000000000000000000000815250905060008060009054906101000a900473ffffffffffffffffffffffffffffffffffffffff1673ffffffffffffffffffffffffffffffffffffffff16631f275713838b8b60405160200161143a9392919061222e565b604051602081830303815290604052805190602001206040518263ffffffff1660e01b815260040161146c9190612365565b60206040518083038186803b15801561148457600080fd5b505afa158015611498573d6000803e3d6000fd5b505050506040513d601f19601f820116820180604052506114bc9190810190611b4a565b9050600160008a8152602001908152602001600020600401548814611516576040517f08c379a000000000000000000000000000000000000000000000000000000000815260040161150d90612400565b60405180910390fd5b6000600160008b81526020019081526020016000206004015490506000809054906101000a900473ffffffffffffffffffffffffffffffffffffffff1673ffffffffffffffffffffffffffffffffffffffff16631a86b5508560000151848b8b6040518563ffffffff1660e01b815260040161159594939291906122e5565b60206040518083038186803b1580156115ad57600080fd5b505afa1580156115c1573d6000803e3d6000fd5b505050506040513d601f19601f820116820180604052506115e59190810190611b21565b80156116a157506000809054906101000a900473ffffffffffffffffffffffffffffffffffffffff1673ffffffffffffffffffffffffffffffffffffffff16631a86b55085602001518489896040518563ffffffff1660e01b815260040161165094939291906122e5565b60206040518083038186803b15801561166857600080fd5b505afa15801561167c573d6000803e3d6000fd5b505050506040513d601f19601f820116820180604052506116a09190810190611b21565b5b6116e0576040517f08c379a00000000000000000000000000000000000000000000000000000000081526004016116d7906123c0565b60405180910390fd5b836000015173ffffffffffffffffffffffffffffffffffffffff166108fc85604001519081150290604051600060405180830381858888f1935050505015801561172e573d6000803e3d6000fd5b50836020015173ffffffffffffffffffffffffffffffffffffffff166108fc85606001519081150290604051600060405180830381858888f1935050505015801561177d573d6000803e3d6000fd5b50600160008b8152602001908152602001600020600080820160006101000a81549073ffffffffffffffffffffffffffffffffffffffff02191690556001820160006101000a81549073ffffffffffffffffffffffffffffffffffffffff02191690556002820160009055600382016000905560048201600090556005820160006101000a81549060ff02191690556005820160016101000a81549060ff02191690556005820160026101000a81549060ff021916905550507fc399f7691b325c207a412cae4b10a6cb4279589d0c49474b7901a02f33d214e58185600001518660200151604051611871939291906124b7565b60405180910390a150505050505050505050565b60016020528060005260406000206000915090508060000160009054906101000a900473ffffffffffffffffffffffffffffffffffffffff16908060010160009054906101000a900473ffffffffffffffffffffffffffffffffffffffff16908060020154908060030154908060040154908060050160009054906101000a900460ff16908060050160019054906101000a900460ff16908060050160029054906101000a900460ff16905088565b604051806101000160405280600073ffffffffffffffffffffffffffffffffffffffff168152602001600073ffffffffffffffffffffffffffffffffffffffff1681526020016000815260200160008152602001600081526020016000151581526020016000151581526020016000151581525090565b6000813590506119ba8161273d565b92915050565b6000813590506119cf81612754565b92915050565b6000815190506119e48161276b565b92915050565b6000815190506119f981612782565b92915050565b60008083601f840112611a1157600080fd5b8235905067ffffffffffffffff811115611a2a57600080fd5b602083019150836001820283011115611a4257600080fd5b9250929050565b600081359050611a5881612799565b92915050565b60008060008060008060008060c0898b031215611a7a57600080fd5b6000611a888b828c016119c0565b9850506020611a998b828c016119c0565b9750506040611aaa8b828c01611a49565b9650506060611abb8b828c01611a49565b955050608089013567ffffffffffffffff811115611ad857600080fd5b611ae48b828c016119ff565b945094505060a089013567ffffffffffffffff811115611b0357600080fd5b611b0f8b828c016119ff565b92509250509295985092959890939650565b600060208284031215611b3357600080fd5b6000611b41848285016119d5565b91505092915050565b600060208284031215611b5c57600080fd5b6000611b6a848285016119ea565b91505092915050565b600060208284031215611b8557600080fd5b6000611b9384828501611a49565b91505092915050565b600080600060608486031215611bb157600080fd5b6000611bbf86828701611a49565b9350506020611bd0868287016119ab565b9250506040611be1868287016119ab565b9150509250925092565b6000806000806000806000806000806101008b8d031215611c0b57600080fd5b6000611c198d828e01611a49565b9a50506020611c2a8d828e016119ab565b9950506040611c3b8d828e016119ab565b9850506060611c4c8d828e01611a49565b9750506080611c5d8d828e01611a49565b96505060a0611c6e8d828e01611a49565b95505060c08b013567ffffffffffffffff811115611c8b57600080fd5b611c978d828e016119ff565b945094505060e08b013567ffffffffffffffff811115611cb657600080fd5b611cc28d828e016119ff565b92509250509295989b9194979a5092959850565b60008060008060008060808789031215611cef57600080fd5b6000611cfd89828a01611a49565b9650506020611d0e89828a01611a49565b955050604087013567ffffffffffffffff811115611d2b57600080fd5b611d3789828a016119ff565b9450945050606087013567ffffffffffffffff811115611d5657600080fd5b611d6289828a016119ff565b92509250509295509295509295565b611d7a81612667565b82525050565b611d8981612615565b82525050565b611d9881612615565b82525050565b611daf611daa82612615565b6126f1565b82525050565b611dbe81612603565b82525050565b611dd5611dd082612603565b6126df565b82525050565b611de481612627565b82525050565b611df381612627565b82525050565b611e0281612633565b82525050565b6000611e1483856125d6565b9350611e2183858461269d565b611e2a8361271f565b840190509392505050565b6000611e40826125cb565b611e4a81856125f8565b9350611e5a8185602086016126ac565b80840191505092915050565b6000611e73600d836125e7565b91507f62616c616e6365206572726f72000000000000000000000000000000000000006000830152602082019050919050565b6000611eb36016836125e7565b91507f636c6f73655450433a2077726f6e672073656e646572000000000000000000006000830152602082019050919050565b6000611ef3600e836125e7565b91507f766572696679206661696c6564210000000000000000000000000000000000006000830152602082019050919050565b6000611f33600f836125e7565b91507f74686520545043206973206275737900000000000000000000000000000000006000830152602082019050919050565b6000611f73601b836125e7565b91507f636c6f73655450433a2076657273696f6e206e6f7420657175616c00000000006000830152602082019050919050565b6000611fb3600c836125e7565b91507f73656e646572206572726f7200000000000000000000000000000000000000006000830152602082019050919050565b6000611ff36023836125e7565b91507f76657273696f6e206e756d206c6974746572207468616e206c6173746573742060008301527f6f6e6500000000000000000000000000000000000000000000000000000000006020830152604082019050919050565b60006120596017836125e7565b91507f6372656174655450433a2077726f6e672073656e6465720000000000000000006000830152602082019050919050565b610100820160008201516120a36000850182611d80565b5060208201516120b66020850182611d80565b5060408201516120c9604085018261212e565b5060608201516120dc606085018261212e565b5060808201516120ef608085018261212e565b5060a082015161210260a0850182611ddb565b5060c082015161211560c0850182611ddb565b5060e082015161212860e0850182611ddb565b50505050565b6121378161265d565b82525050565b6121468161265d565b82525050565b61215d6121588261265d565b612715565b82525050565b600061216f8289611dc4565b60148201915061217f8288611dc4565b60148201915061218f828761214c565b60208201915061219f828661214c565b6020820191506121af828561214c565b6020820191506121bf828461214c565b602082019150819050979650505050505050565b60006121df8288611e35565b91506121eb8287611d9e565b6014820191506121fb8286611d9e565b60148201915061220b828561214c565b60208201915061221b828461214c565b6020820191508190509695505050505050565b600061223a8286611e35565b9150612246828561214c565b602082019150612256828461214c565b602082019150819050949350505050565b60006101008201905061227d600083018b611d8f565b61228a602083018a611d8f565b612297604083018961213d565b6122a4606083018861213d565b6122b1608083018761213d565b6122be60a0830186611dea565b6122cb60c0830185611dea565b6122d860e0830184611dea565b9998505050505050505050565b60006060820190506122fa6000830187611d71565b6123076020830186611df9565b818103604083015261231a818486611e08565b905095945050505050565b600060608201905061233a6000830187611db5565b6123476020830186611df9565b818103604083015261235a818486611e08565b905095945050505050565b600060208201905061237a6000830184611df9565b92915050565b6000602082019050818103600083015261239981611e66565b9050919050565b600060208201905081810360008301526123b981611ea6565b9050919050565b600060208201905081810360008301526123d981611ee6565b9050919050565b600060208201905081810360008301526123f981611f26565b9050919050565b6000602082019050818103600083015261241981611f66565b9050919050565b6000602082019050818103600083015261243981611fa6565b9050919050565b6000602082019050818103600083015261245981611fe6565b9050919050565b600060208201905081810360008301526124798161204c565b9050919050565b600061010082019050612496600083018461208c565b92915050565b60006020820190506124b1600083018461213d565b92915050565b60006060820190506124cc600083018661213d565b6124d96020830185611d71565b6124e66040830184611d71565b949350505050565b600060a082019050612503600083018861213d565b6125106020830187611d71565b61251d6040830186611d71565b61252a606083018561213d565b612537608083018461213d565b9695505050505050565b600060a082019050612556600083018861213d565b6125636020830187611db5565b6125706040830186611db5565b61257d606083018561213d565b61258a608083018461213d565b9695505050505050565b60006060820190506125a9600083018661213d565b6125b66020830185611db5565b6125c3604083018461213d565b949350505050565b600081519050919050565b600082825260208201905092915050565b600082825260208201905092915050565b600081905092915050565b600061260e8261263d565b9050919050565b60006126208261263d565b9050919050565b60008115159050919050565b6000819050919050565b600073ffffffffffffffffffffffffffffffffffffffff82169050919050565b6000819050919050565b600061267282612679565b9050919050565b60006126848261268b565b9050919050565b60006126968261263d565b9050919050565b82818337600083830152505050565b60005b838110156126ca5780820151818401526020810190506126af565b838111156126d9576000848401525b50505050565b60006126ea82612703565b9050919050565b60006126fc82612703565b9050919050565b600061270e82612730565b9050919050565b6000819050919050565b6000601f19601f8301169050919050565b60008160601b9050919050565b61274681612603565b811461275157600080fd5b50565b61275d81612615565b811461276857600080fd5b50565b61277481612627565b811461277f57600080fd5b50565b61278b81612633565b811461279657600080fd5b50565b6127a28161265d565b81146127ad57600080fd5b5056fea264697066735822122094d504d5fc2f454f8295691d9fcb3f7a2a7e30ccfc11e551278022449176375a64736f6c63430006000033608060405234801561001057600080fd5b5061031e806100206000396000f3fe608060405234801561001057600080fd5b50600436106100365760003560e01c80631a86b5501461003b5780631f27571314610138575b600080fd5b61011e6004803603606081101561005157600080fd5b81019080803573ffffffffffffffffffffffffffffffffffffffff169060200190929190803590602001909291908035906020019064010000000081111561009857600080fd5b8201836020820111156100aa57600080fd5b803590602001918460018302840111640100000000831117156100cc57600080fd5b91908080601f016020809104026020016040519081016040528093929190818152602001838380828437600081840152601f19601f82011690508083019250505050505050919291929050505061017a565b604051808215151515815260200191505060405180910390f35b6101646004803603602081101561014e57600080fd5b8101908080359060200190929190505050610290565b6040518082815260200191505060405180910390f35b6000604182511461018e5760009050610289565b600080600060608590506020810151935060408101519250606081015160001a9150601b8260ff1610156101c357601b820191505b601b8260ff16141580156101db5750601c8260ff1614155b156101ed576000945050505050610289565b8773ffffffffffffffffffffffffffffffffffffffff1660018884878760405160008152602001604052604051808581526020018460ff1660ff1681526020018381526020018281526020019450505050506020604051602081039080840390855afa158015610261573d6000803e3d6000fd5b5050506020604051035173ffffffffffffffffffffffffffffffffffffffff16149450505050505b9392505050565b60008160405160200180807f19457468657265756d205369676e6564204d6573736167653a0a333200000000815250601c0182815260200191505060405160208183030381529060405280519060200120905091905056fea264697066735822122095b7258ee81d3084db524579003e6175c7cff276acd359c835fc2312f28385ab64736f6c63430006000033",
  "source": "pragma solidity >=0.4.24 <0.7.0;\npragma experimental ABIEncoderV2;\n\n// import \"./SimplePaymentChannel.sol\";\n// pragma solidity >=0.4.24 <0.7.0;\n// pragma experimental ABIEncoderV2;\n\nimport \"./ILibSig.sol\";\n\ncontract SimplePaymentChannel {\n    event TPCOpenRequest(uint256 id, address alice, address bob, uint256 ab, uint256 bb);\n    event TPCOpenSuccess(uint256 id, address alice, address bob, uint256 ab, uint256 bb);\n    event TPCUpdateSuccess(uint256 id, address alice, address bob, uint256 new_ab, uint256 new_bb);\n    event TPCSomeDeposit(uint256 id, address addr, uint256 token);\n    event TPCCloseChannel(uint256 id, address alice, address bob);\n\n    struct TPC {\n        address payable alice;\n        address payable bob;\n        uint256 alice_balance; // wei\n        uint256 bob_balance;\n        uint256 version_num;\n        bool alice_deposited;\n        bool bob_deposited;\n        bool busy;\n    }\n\n    LibSig libSig = new LibSig();\n\n    // TPC[] public tpc_array;\n    mapping (uint256 => TPC) public tpc_map;\n\n    uint256 count = 1;\n\n    // TPC tpc_ab;\n\n    function createTPC(address payable alice, address payable bob, uint256 ab, uint256 bb,\n        bytes calldata sigA, bytes calldata sigB)\n        external\n        payable\n    {\n        string memory prefix = \"create a TPC\";\n        bytes32 msgHash = libSig.prefixed(keccak256(abi.encodePacked(prefix, alice, bob, ab, bb)));\n        require(msg.sender == alice || msg.sender == bob, \"createTPC: wrong sender\");\n        require(libSig.verify(alice, msgHash, sigA) && libSig.verify(bob, msgHash, sigB), \"verify failed!\");\n\n        TPC memory tpc;\n        tpc.alice = alice;\n        tpc.bob = bob;\n        tpc.version_num = 0;\n        tpc.alice_deposited = false;\n        tpc.bob_deposited = false;\n        tpc.busy = false;\n        tpc.alice_deposited = false;\n        tpc.bob_deposited = false;\n\n        uint256 id = count;\n        tpc_map[id] = tpc;\n        count += 1;\n        emit TPCOpenRequest(id, alice, bob, ab, bb);\n    }\n\n    function getChannel(uint256 id)\n        external\n        view\n        returns (TPC memory)\n    {\n        return tpc_map[id];\n    }\n\n    function deposit(uint256 id, address alice, address bob)\n        external\n        payable\n        returns (uint256)\n    {\n        //  TPC memory tpc = tpc_map[id];\n        if (msg.sender == tpc_map[id].alice)\n        {\n            tpc_map[id].alice_balance = msg.value;\n            tpc_map[id].alice_deposited = true;\n            emit TPCSomeDeposit(id, alice, msg.value);\n        }\n        else if (msg.sender == tpc_map[id].bob)\n        {\n            tpc_map[id].bob_balance = msg.value;\n            tpc_map[id].bob_deposited = true;\n            emit TPCSomeDeposit(id, bob, msg.value);\n        }\n        if (tpc_map[id].alice_deposited && tpc_map[id].bob_deposited) {\n            // uint256 id = count;\n            // tpc_map[id] = tpc_ab;\n            // count += 1;\n            // tpc_ab.alice_deposited = false;\n            // tpc_ab.bob_deposited = false;\n            emit TPCOpenSuccess(id, alice, bob, tpc_map[id].alice_balance, tpc_map[id].bob_balance);\n            return id;\n        }\n        return 0;\n    }\n\n    function updateTPC(\n            uint256 id, address alice, address bob,\n            uint256 new_ab, uint256 new_bb, uint256 version,\n            bytes calldata sigA, bytes calldata sigB\n        )\n        external\n        payable\n    {\n        require(tpc_map[id].busy == false, \"the TPC is busy\");\n        require(msg.sender == alice || msg.sender == bob, \"sender error\");\n        require((tpc_map[id].alice_balance + tpc_map[id].bob_balance) == (new_ab + new_bb), \"balance error\");\n\n        bytes32 msgHash = libSig.prefixed(keccak256(abi.encodePacked(alice, bob, id, new_ab, new_bb, version)));\n\n        require(version > tpc_map[id].version_num, \"version num litter than lastest one\");\n        require(libSig.verify(alice, msgHash, sigA) && libSig.verify(bob, msgHash, sigB), \"verify failed!\");\n\n        tpc_map[id].alice_balance = new_ab;\n        tpc_map[id].bob_balance = new_bb;\n        tpc_map[id].version_num = version;\n\n        emit TPCUpdateSuccess(id, alice, bob, new_ab, new_bb);\n    }\n\n    function updateTPCInternal(uint256 id, uint256 new_ab, uint256 new_bb)\n        internal\n    {\n        // require(tpc_map[id].alice_balance + tpc_map[id].bob_balance == new_ab + new_bb, \"updateTPCInternal: amount error\");\n        tpc_map[id].alice_balance = new_ab;\n        tpc_map[id].bob_balance = new_bb;\n    }\n\n    function closeTPC(uint256 id, uint256 version,\n            bytes calldata sigA, bytes calldata sigB)\n        external\n        payable\n    {\n        TPC memory channel = tpc_map[id];\n        require(msg.sender == channel.alice || msg.sender == channel.bob, \"closeTPC: wrong sender\");\n\n        string memory prefix = \"close the TPC\";\n        bytes32 msgHash = libSig.prefixed(keccak256(abi.encodePacked(prefix, id, version)));\n        require(version == tpc_map[id].version_num, \"closeTPC: version not equal\");\n        uint256 sc_version = tpc_map[id].version_num;\n        require(libSig.verify(channel.alice, msgHash, sigA) && libSig.verify(channel.bob, msgHash, sigB), \"verify failed!\");\n        // withdraw\n        channel.alice.transfer(channel.alice_balance);\n        channel.bob.transfer(channel.bob_balance);\n        delete tpc_map[id];\n        emit TPCCloseChannel(sc_version, channel.alice, channel.bob);\n    }\n\n    function verifyChannel(uint256 id)\n        internal\n        view\n        returns (bool)\n    {\n        if (tpc_map[id].alice != address(0) && tpc_map[id].bob != address(0) &&\n            tpc_map[id].alice_deposited == true && tpc_map[id].bob_deposited == true)\n        {\n            return true;\n        }\n        else {\n            return false;\n        }\n    }\n\n    function getTPC(uint256 id)\n        external\n        view\n        returns (TPC memory)\n    {\n        return tpc_map[id];\n    }\n}\n\ncontract MultipartyChannel is SimplePaymentChannel {\n    event MPCCreateSuccess(uint256 id, address[] parties, uint256[] channels_id);\n    event MPCUpdateSuccess();\n    event MPCTransactionError(Transaction t);\n    event MPCClosed(uint256 mpc_id);\n\n    struct MPC {\n        uint256 id;\n        address[] parties;\n        uint256[] channels_id;\n        uint256 version_num;\n    }\n\n    struct Transaction {\n        uint256 channel_id;\n        address src;\n        address dst;\n        uint256 new_ab;\n        uint256 new_ba;\n    }\n\n    mapping (uint256 => MPC) public mpc_map;\n\n    MPC mpc;\n    uint256 mpc_count = 0;\n    // SimplePaymentChannel spc;\n\n    function createMPC(address[] calldata parties, bytes[] calldata sigs, uint256[] calldata channels_id)\n        external\n        returns (uint256)\n    {\n        // spc = SimplePaymentChannel(spcAddr);\n        // verify signatures\n        for (uint i = 0; i < parties.length; i++) {\n            bytes32 msgHash = libSig.prefixed(keccak256(abi.encodePacked(parties[i])));\n            require(libSig.verify(parties[i], msgHash, sigs[i]), \"createMPC verify parties failed!\");\n        }\n        // verify channels\n        for (uint256 i = 0; i < channels_id.length; i++) {\n            require(verifyChannel(channels_id[i]), \"createMPC verify channel failed!\");\n            tpc_map[channels_id[i]].busy = true;\n        }\n\n        mpc.id = mpc_count + 1;\n        mpc_count = mpc_count + 1;\n        mpc.parties = parties;\n        mpc.channels_id = channels_id;\n        mpc.version_num = 0;\n        mpc_map[mpc.id] = mpc;\n        emit MPCCreateSuccess(mpc.id, parties, channels_id);\n        return mpc.id;\n    }\n\n    function updateMPC(uint256 mpc_id, Transaction[] calldata txs, string calldata msgstr, uint256 version, bytes[] calldata sigs)\n        external\n    {\n        // verify sigs\n        require(mpc_map[mpc.id].version_num < version, \"updateMPC: version error\");\n        for (uint i = 0; i < mpc_map[mpc_id].parties.length; i++) {\n            bytes32 msgHash = libSig.prefixed(keccak256(abi.encodePacked(msgstr, mpc_map[mpc_id].parties[i], version)));\n            require(libSig.verify(mpc_map[mpc_id].parties[i], msgHash, sigs[i]), \"updateMPC: verify sig failed!!!\");\n        }\n        for (uint i = 0; i < txs.length; i++) {\n            require(tpc_map[txs[i].channel_id].alice_balance + tpc_map[txs[i].channel_id].bob_balance == txs[i].new_ab + txs[i].new_ba, \"updateMPC: balance error\");\n        }\n        // execute txs\n        for (uint i = 0; i < txs.length; i++) {\n            updateTPCInternal(txs[i].channel_id, txs[i].new_ab, txs[i].new_ba);\n        }\n        mpc_map[mpc_id].version_num = version;\n        emit MPCUpdateSuccess();\n    }\n\n    function closeMPC(uint256 mpc_id, uint256 version, bytes[] calldata sigs)\n        external\n    {\n        // require(mpc_id == mpc.id, \"closeMPC: wrong id of the mpc\");\n        require(mpc_map[mpc_id].version_num == version, \"closeMPC: wrong version\");\n        string memory prefix = \"close the MPC\";\n        bytes32 msgHash = libSig.prefixed(keccak256(abi.encodePacked(prefix, mpc_id, version)));\n\n        for (uint i = 0; i < mpc_map[mpc_id].parties.length; i++) {\n            require(libSig.verify(mpc_map[mpc_id].parties[i], msgHash, sigs[i]), \"closeMPC verify sig failed!!!\");\n        }\n        delete mpc_map[mpc_id];\n        emit MPCClosed(mpc_id);\n    }\n}",
  "sourcePath": "/Users/xuxianli/work/blockchain/micropc/contracts/MultipartyChannel.sol",
  "compiler": {
    "name": "solc",
    "version": "0.6.0+commit.26b70077.Emscripten.clang"
  },
  "schemaVersion": "3.0.23",
  "updatedAt": "2020-03-06T09:12:15.637Z",
  "devdoc": {
    "methods": {}
  },
  "userdoc": {
    "methods": {}
  }
}