{
  "contractName": "SimplePaymentChannel",
  "abi": [
    {
      "anonymous": false,
      "inputs": [
        {
          "indexed": false,
          "internalType": "uint256",
          "name": "id",
          "type": "uint256"
        },
        {
          "indexed": false,
          "internalType": "address",
          "name": "alice",
          "type": "address"
        },
        {
          "indexed": false,
          "internalType": "address",
          "name": "bob",
          "type": "address"
        }
      ],
      "name": "TPCCloseChannel",
      "type": "event"
    },
    {
      "anonymous": false,
      "inputs": [
        {
          "indexed": false,
          "internalType": "address",
          "name": "alice",
          "type": "address"
        },
        {
          "indexed": false,
          "internalType": "address",
          "name": "bob",
          "type": "address"
        },
        {
          "indexed": false,
          "internalType": "uint256",
          "name": "ab",
          "type": "uint256"
        },
        {
          "indexed": false,
          "internalType": "uint256",
          "name": "bb",
          "type": "uint256"
        }
      ],
      "name": "TPCOpenRequest",
      "type": "event"
    },
    {
      "anonymous": false,
      "inputs": [
        {
          "indexed": false,
          "internalType": "uint256",
          "name": "id",
          "type": "uint256"
        },
        {
          "indexed": false,
          "internalType": "address",
          "name": "alice",
          "type": "address"
        },
        {
          "indexed": false,
          "internalType": "address",
          "name": "bob",
          "type": "address"
        },
        {
          "indexed": false,
          "internalType": "uint256",
          "name": "ab",
          "type": "uint256"
        },
        {
          "indexed": false,
          "internalType": "uint256",
          "name": "bb",
          "type": "uint256"
        }
      ],
      "name": "TPCOpenSuccess",
      "type": "event"
    },
    {
      "anonymous": false,
      "inputs": [
        {
          "indexed": false,
          "internalType": "address",
          "name": "addr",
          "type": "address"
        },
        {
          "indexed": false,
          "internalType": "uint256",
          "name": "token",
          "type": "uint256"
        }
      ],
      "name": "TPCSomeDeposit",
      "type": "event"
    },
    {
      "anonymous": false,
      "inputs": [
        {
          "indexed": false,
          "internalType": "uint256",
          "name": "id",
          "type": "uint256"
        },
        {
          "indexed": false,
          "internalType": "address",
          "name": "alice",
          "type": "address"
        },
        {
          "indexed": false,
          "internalType": "address",
          "name": "bob",
          "type": "address"
        },
        {
          "indexed": false,
          "internalType": "uint256",
          "name": "new_ab",
          "type": "uint256"
        },
        {
          "indexed": false,
          "internalType": "uint256",
          "name": "new_bb",
          "type": "uint256"
        }
      ],
      "name": "TPCUpdateSuccess",
      "type": "event"
    },
    {
      "inputs": [
        {
          "internalType": "uint256",
          "name": "",
          "type": "uint256"
        }
      ],
      "name": "tpc_map",
      "outputs": [
        {
          "internalType": "address payable",
          "name": "alice",
          "type": "address"
        },
        {
          "internalType": "address payable",
          "name": "bob",
          "type": "address"
        },
        {
          "internalType": "uint256",
          "name": "alice_balance",
          "type": "uint256"
        },
        {
          "internalType": "uint256",
          "name": "bob_balance",
          "type": "uint256"
        },
        {
          "internalType": "uint256",
          "name": "version_num",
          "type": "uint256"
        },
        {
          "internalType": "bool",
          "name": "alice_deposited",
          "type": "bool"
        },
        {
          "internalType": "bool",
          "name": "bob_deposited",
          "type": "bool"
        },
        {
          "internalType": "bool",
          "name": "busy",
          "type": "bool"
        }
      ],
      "stateMutability": "view",
      "type": "function"
    },
    {
      "inputs": [
        {
          "internalType": "address payable",
          "name": "alice",
          "type": "address"
        },
        {
          "internalType": "address payable",
          "name": "bob",
          "type": "address"
        },
        {
          "internalType": "uint256",
          "name": "ab",
          "type": "uint256"
        },
        {
          "internalType": "uint256",
          "name": "bb",
          "type": "uint256"
        },
        {
          "internalType": "bytes",
          "name": "sigA",
          "type": "bytes"
        },
        {
          "internalType": "bytes",
          "name": "sigB",
          "type": "bytes"
        }
      ],
      "name": "createTPC",
      "outputs": [],
      "stateMutability": "payable",
      "type": "function"
    },
    {
      "inputs": [
        {
          "internalType": "uint256",
          "name": "id",
          "type": "uint256"
        }
      ],
      "name": "getChannel",
      "outputs": [
        {
          "components": [
            {
              "internalType": "address payable",
              "name": "alice",
              "type": "address"
            },
            {
              "internalType": "address payable",
              "name": "bob",
              "type": "address"
            },
            {
              "internalType": "uint256",
              "name": "alice_balance",
              "type": "uint256"
            },
            {
              "internalType": "uint256",
              "name": "bob_balance",
              "type": "uint256"
            },
            {
              "internalType": "uint256",
              "name": "version_num",
              "type": "uint256"
            },
            {
              "internalType": "bool",
              "name": "alice_deposited",
              "type": "bool"
            },
            {
              "internalType": "bool",
              "name": "bob_deposited",
              "type": "bool"
            },
            {
              "internalType": "bool",
              "name": "busy",
              "type": "bool"
            }
          ],
          "internalType": "struct SimplePaymentChannel.TPC",
          "name": "",
          "type": "tuple"
        }
      ],
      "stateMutability": "view",
      "type": "function"
    },
    {
      "inputs": [
        {
          "internalType": "address",
          "name": "alice",
          "type": "address"
        },
        {
          "internalType": "address",
          "name": "bob",
          "type": "address"
        }
      ],
      "name": "deposit",
      "outputs": [
        {
          "internalType": "uint256",
          "name": "",
          "type": "uint256"
        }
      ],
      "stateMutability": "payable",
      "type": "function"
    },
    {
      "inputs": [
        {
          "internalType": "uint256",
          "name": "id",
          "type": "uint256"
        },
        {
          "internalType": "address",
          "name": "alice",
          "type": "address"
        },
        {
          "internalType": "address",
          "name": "bob",
          "type": "address"
        },
        {
          "internalType": "uint256",
          "name": "new_ab",
          "type": "uint256"
        },
        {
          "internalType": "uint256",
          "name": "new_bb",
          "type": "uint256"
        },
        {
          "internalType": "uint256",
          "name": "version",
          "type": "uint256"
        },
        {
          "internalType": "bytes",
          "name": "sigA",
          "type": "bytes"
        },
        {
          "internalType": "bytes",
          "name": "sigB",
          "type": "bytes"
        }
      ],
      "name": "updateTPC",
      "outputs": [],
      "stateMutability": "payable",
      "type": "function"
    },
    {
      "inputs": [
        {
          "internalType": "uint256",
          "name": "id",
          "type": "uint256"
        },
        {
          "internalType": "uint256",
          "name": "version",
          "type": "uint256"
        },
        {
          "internalType": "bytes",
          "name": "sigA",
          "type": "bytes"
        },
        {
          "internalType": "bytes",
          "name": "sigB",
          "type": "bytes"
        }
      ],
      "name": "closeTPC",
      "outputs": [],
      "stateMutability": "payable",
      "type": "function"
    },
    {
      "inputs": [
        {
          "internalType": "uint256",
          "name": "id",
          "type": "uint256"
        }
      ],
      "name": "getTPC",
      "outputs": [
        {
          "components": [
            {
              "internalType": "address payable",
              "name": "alice",
              "type": "address"
            },
            {
              "internalType": "address payable",
              "name": "bob",
              "type": "address"
            },
            {
              "internalType": "uint256",
              "name": "alice_balance",
              "type": "uint256"
            },
            {
              "internalType": "uint256",
              "name": "bob_balance",
              "type": "uint256"
            },
            {
              "internalType": "uint256",
              "name": "version_num",
              "type": "uint256"
            },
            {
              "internalType": "bool",
              "name": "alice_deposited",
              "type": "bool"
            },
            {
              "internalType": "bool",
              "name": "bob_deposited",
              "type": "bool"
            },
            {
              "internalType": "bool",
              "name": "busy",
              "type": "bool"
            }
          ],
          "internalType": "struct SimplePaymentChannel.TPC",
          "name": "",
          "type": "tuple"
        }
      ],
      "stateMutability": "view",
      "type": "function"
    }
  ],
  "bytecode": "0x6080604052604051620000129062000088565b604051809103906000f0801580156200002f573d6000803e3d6000fd5b506000806101000a81548173ffffffffffffffffffffffffffffffffffffffff021916908373ffffffffffffffffffffffffffffffffffffffff16021790555060016002553480156200008157600080fd5b5062000096565b61033e806200281b83390190565b61277580620000a66000396000f3fe6080604052600436106100705760003560e01c8063851dc2761161004e578063851dc276146100ea578063b245953314610127578063e6ca4b1414610143578063f9609f081461018757610070565b806302a5a56f1461007557806310df54a01461009157806355eb7022146100ce575b600080fd5b61008f600480360361008a9190810190611b96565b6101b7565b005b34801561009d57600080fd5b506100b860048036036100b39190810190611b6d565b6106b1565b6040516100c59190612499565b60405180910390f35b6100e860048036036100e39190810190611a1c565b6107fa565b005b3480156100f657600080fd5b50610111600480360361010c9190810190611b6d565b610c91565b60405161011e9190612499565b60405180910390f35b610141600480360361013c9190810190611c81565b610dda565b005b34801561014f57600080fd5b5061016a60048036036101659190810190611b6d565b6114a3565b60405161017e989796959493929190612257565b60405180910390f35b6101a1600480360361019c9190810190611adf565b611552565b6040516101ae91906124b5565b60405180910390f35b60001515600160008c815260200190815260200160002060050160029054906101000a900460ff16151514610221576040517f08c379a0000000000000000000000000000000000000000000000000000000008152600401610218906123f9565b60405180910390fd5b8873ffffffffffffffffffffffffffffffffffffffff163373ffffffffffffffffffffffffffffffffffffffff16148061028657508773ffffffffffffffffffffffffffffffffffffffff163373ffffffffffffffffffffffffffffffffffffffff16145b6102c5576040517f08c379a00000000000000000000000000000000000000000000000000000000081526004016102bc90612439565b60405180910390fd5b858701600160008c815260200190815260200160002060030154600160008d8152602001908152602001600020600201540114610337576040517f08c379a000000000000000000000000000000000000000000000000000000000815260040161032e90612399565b60405180910390fd5b60008060009054906101000a900473ffffffffffffffffffffffffffffffffffffffff1673ffffffffffffffffffffffffffffffffffffffff16631f2757138b8b8e8c8c8c6040516020016103919695949392919061210e565b604051602081830303815290604052805190602001206040518263ffffffff1660e01b81526004016103c3919061237e565b60206040518083038186803b1580156103db57600080fd5b505afa1580156103ef573d6000803e3d6000fd5b505050506040513d601f19601f820116820180604052506104139190810190611b44565b9050600160008c815260200190815260200160002060040154861161046d576040517f08c379a000000000000000000000000000000000000000000000000000000000815260040161046490612459565b60405180910390fd5b6000809054906101000a900473ffffffffffffffffffffffffffffffffffffffff1673ffffffffffffffffffffffffffffffffffffffff16631a86b5508b8388886040518563ffffffff1660e01b81526004016104cd9493929190612315565b60206040518083038186803b1580156104e557600080fd5b505afa1580156104f9573d6000803e3d6000fd5b505050506040513d601f19601f8201168201806040525061051d9190810190611b1b565b80156105d557506000809054906101000a900473ffffffffffffffffffffffffffffffffffffffff1673ffffffffffffffffffffffffffffffffffffffff16631a86b5508a8386866040518563ffffffff1660e01b81526004016105849493929190612315565b60206040518083038186803b15801561059c57600080fd5b505afa1580156105b0573d6000803e3d6000fd5b505050506040513d601f19601f820116820180604052506105d49190810190611b1b565b5b610614576040517f08c379a000000000000000000000000000000000000000000000000000000000815260040161060b906123d9565b60405180910390fd5b87600160008d81526020019081526020016000206002018190555086600160008d81526020019081526020016000206003018190555085600160008d8152602001908152602001600020600401819055507f360021256038e7800042bd766ba4b42429d89cd49327ec22493810c1996ad5068b8b8b8b8b60405161069c959493929190612507565b60405180910390a15050505050505050505050565b6106b96118f2565b60016000838152602001908152602001600020604051806101000160405290816000820160009054906101000a900473ffffffffffffffffffffffffffffffffffffffff1673ffffffffffffffffffffffffffffffffffffffff1673ffffffffffffffffffffffffffffffffffffffff1681526020016001820160009054906101000a900473ffffffffffffffffffffffffffffffffffffffff1673ffffffffffffffffffffffffffffffffffffffff1673ffffffffffffffffffffffffffffffffffffffff1681526020016002820154815260200160038201548152602001600482015481526020016005820160009054906101000a900460ff161515151581526020016005820160019054906101000a900460ff161515151581526020016005820160029054906101000a900460ff1615151515815250509050919050565b60606040518060400160405280600c81526020017f6372656174652061205450430000000000000000000000000000000000000000815250905060008060009054906101000a900473ffffffffffffffffffffffffffffffffffffffff1673ffffffffffffffffffffffffffffffffffffffff16631f275713838c8c8c8c60405160200161088c95949392919061217e565b604051602081830303815290604052805190602001206040518263ffffffff1660e01b81526004016108be919061237e565b60206040518083038186803b1580156108d657600080fd5b505afa1580156108ea573d6000803e3d6000fd5b505050506040513d601f19601f8201168201806040525061090e9190810190611b44565b90508973ffffffffffffffffffffffffffffffffffffffff163373ffffffffffffffffffffffffffffffffffffffff16148061097557508873ffffffffffffffffffffffffffffffffffffffff163373ffffffffffffffffffffffffffffffffffffffff16145b6109b4576040517f08c379a00000000000000000000000000000000000000000000000000000000081526004016109ab90612479565b60405180910390fd5b6000809054906101000a900473ffffffffffffffffffffffffffffffffffffffff1673ffffffffffffffffffffffffffffffffffffffff16631a86b5508b8389896040518563ffffffff1660e01b8152600401610a1494939291906122d5565b60206040518083038186803b158015610a2c57600080fd5b505afa158015610a40573d6000803e3d6000fd5b505050506040513d601f19601f82011682018060405250610a649190810190611b1b565b8015610b1c57506000809054906101000a900473ffffffffffffffffffffffffffffffffffffffff1673ffffffffffffffffffffffffffffffffffffffff16631a86b5508a8387876040518563ffffffff1660e01b8152600401610acb94939291906122d5565b60206040518083038186803b158015610ae357600080fd5b505afa158015610af7573d6000803e3d6000fd5b505050506040513d601f19601f82011682018060405250610b1b9190810190611b1b565b5b610b5b576040517f08c379a0000000000000000000000000000000000000000000000000000000008152600401610b52906123d9565b60405180910390fd5b89600360000160006101000a81548173ffffffffffffffffffffffffffffffffffffffff021916908373ffffffffffffffffffffffffffffffffffffffff16021790555088600360010160006101000a81548173ffffffffffffffffffffffffffffffffffffffff021916908373ffffffffffffffffffffffffffffffffffffffff16021790555060006003600401819055506000600360050160006101000a81548160ff0219169083151502179055506000600360050160016101000a81548160ff0219169083151502179055506000600360050160026101000a81548160ff0219169083151502179055507f297b58dfc4e1f810e4c375daa036abfc510e04847803884aeb98fa0eac25a3148a8a8a8a604051610c7d9493929190612212565b60405180910390a150505050505050505050565b610c996118f2565b60016000838152602001908152602001600020604051806101000160405290816000820160009054906101000a900473ffffffffffffffffffffffffffffffffffffffff1673ffffffffffffffffffffffffffffffffffffffff1673ffffffffffffffffffffffffffffffffffffffff1681526020016001820160009054906101000a900473ffffffffffffffffffffffffffffffffffffffff1673ffffffffffffffffffffffffffffffffffffffff1673ffffffffffffffffffffffffffffffffffffffff1681526020016002820154815260200160038201548152602001600482015481526020016005820160009054906101000a900460ff161515151581526020016005820160019054906101000a900460ff161515151581526020016005820160029054906101000a900460ff1615151515815250509050919050565b610de26118f2565b60016000888152602001908152602001600020604051806101000160405290816000820160009054906101000a900473ffffffffffffffffffffffffffffffffffffffff1673ffffffffffffffffffffffffffffffffffffffff1673ffffffffffffffffffffffffffffffffffffffff1681526020016001820160009054906101000a900473ffffffffffffffffffffffffffffffffffffffff1673ffffffffffffffffffffffffffffffffffffffff1673ffffffffffffffffffffffffffffffffffffffff1681526020016002820154815260200160038201548152602001600482015481526020016005820160009054906101000a900460ff161515151581526020016005820160019054906101000a900460ff161515151581526020016005820160029054906101000a900460ff1615151515815250509050806000015173ffffffffffffffffffffffffffffffffffffffff163373ffffffffffffffffffffffffffffffffffffffff161480610f8b5750806020015173ffffffffffffffffffffffffffffffffffffffff163373ffffffffffffffffffffffffffffffffffffffff16145b610fca576040517f08c379a0000000000000000000000000000000000000000000000000000000008152600401610fc1906123b9565b60405180910390fd5b60606040518060400160405280600d81526020017f636c6f7365207468652054504300000000000000000000000000000000000000815250905060008060009054906101000a900473ffffffffffffffffffffffffffffffffffffffff1673ffffffffffffffffffffffffffffffffffffffff16631f275713838b8b604051602001611058939291906121d9565b604051602081830303815290604052805190602001206040518263ffffffff1660e01b815260040161108a919061237e565b60206040518083038186803b1580156110a257600080fd5b505afa1580156110b6573d6000803e3d6000fd5b505050506040513d601f19601f820116820180604052506110da9190810190611b44565b9050600160008a8152602001908152602001600020600401548814611134576040517f08c379a000000000000000000000000000000000000000000000000000000000815260040161112b90612419565b60405180910390fd5b6000600160008b81526020019081526020016000206004015490506000809054906101000a900473ffffffffffffffffffffffffffffffffffffffff1673ffffffffffffffffffffffffffffffffffffffff16631a86b5508560000151848b8b6040518563ffffffff1660e01b81526004016111b394939291906122d5565b60206040518083038186803b1580156111cb57600080fd5b505afa1580156111df573d6000803e3d6000fd5b505050506040513d601f19601f820116820180604052506112039190810190611b1b565b80156112bf57506000809054906101000a900473ffffffffffffffffffffffffffffffffffffffff1673ffffffffffffffffffffffffffffffffffffffff16631a86b55085602001518489896040518563ffffffff1660e01b815260040161126e94939291906122d5565b60206040518083038186803b15801561128657600080fd5b505afa15801561129a573d6000803e3d6000fd5b505050506040513d601f19601f820116820180604052506112be9190810190611b1b565b5b6112fe576040517f08c379a00000000000000000000000000000000000000000000000000000000081526004016112f5906123d9565b60405180910390fd5b836000015173ffffffffffffffffffffffffffffffffffffffff166108fc85604001519081150290604051600060405180830381858888f1935050505015801561134c573d6000803e3d6000fd5b50836020015173ffffffffffffffffffffffffffffffffffffffff166108fc85606001519081150290604051600060405180830381858888f1935050505015801561139b573d6000803e3d6000fd5b50600160008b8152602001908152602001600020600080820160006101000a81549073ffffffffffffffffffffffffffffffffffffffff02191690556001820160006101000a81549073ffffffffffffffffffffffffffffffffffffffff02191690556002820160009055600382016000905560048201600090556005820160006101000a81549060ff02191690556005820160016101000a81549060ff02191690556005820160026101000a81549060ff021916905550507fc399f7691b325c207a412cae4b10a6cb4279589d0c49474b7901a02f33d214e5818560000151866020015160405161148f939291906124d0565b60405180910390a150505050505050505050565b60016020528060005260406000206000915090508060000160009054906101000a900473ffffffffffffffffffffffffffffffffffffffff16908060010160009054906101000a900473ffffffffffffffffffffffffffffffffffffffff16908060020154908060030154908060040154908060050160009054906101000a900460ff16908060050160019054906101000a900460ff16908060050160029054906101000a900460ff16905088565b60008273ffffffffffffffffffffffffffffffffffffffff163373ffffffffffffffffffffffffffffffffffffffff1614156115ee57346003600201819055506001600360050160006101000a81548160ff0219169083151502179055507f80e1763fe09a838f74553a255399858e08207b929434a0215d3c02106de8117583346040516115e1929190612355565b60405180910390a1611684565b8173ffffffffffffffffffffffffffffffffffffffff163373ffffffffffffffffffffffffffffffffffffffff161415611683573460038001819055506001600360050160016101000a81548160ff0219169083151502179055507f80e1763fe09a838f74553a255399858e08207b929434a0215d3c02106de81175823460405161167a929190612355565b60405180910390a15b5b600360050160009054906101000a900460ff1680156116b25750600360050160019054906101000a900460ff165b156118e757600060025490506003600160008381526020019081526020016000206000820160009054906101000a900473ffffffffffffffffffffffffffffffffffffffff168160000160006101000a81548173ffffffffffffffffffffffffffffffffffffffff021916908373ffffffffffffffffffffffffffffffffffffffff1602179055506001820160009054906101000a900473ffffffffffffffffffffffffffffffffffffffff168160010160006101000a81548173ffffffffffffffffffffffffffffffffffffffff021916908373ffffffffffffffffffffffffffffffffffffffff1602179055506002820154816002015560038201548160030155600482015481600401556005820160009054906101000a900460ff168160050160006101000a81548160ff0219169083151502179055506005820160019054906101000a900460ff168160050160016101000a81548160ff0219169083151502179055506005820160029054906101000a900460ff168160050160026101000a81548160ff02191690831515021790555090505060016002600082825401925050819055506000600360050160006101000a81548160ff0219169083151502179055506000600360050160016101000a81548160ff0219169083151502179055507fd92bbbac63272d0256172b5e8fec52c552e082cbd4df853483b5b6ccf1c14d4381858560036002015460038001546040516118d6959493929190612507565b60405180910390a1809150506118ec565b600090505b92915050565b604051806101000160405280600073ffffffffffffffffffffffffffffffffffffffff168152602001600073ffffffffffffffffffffffffffffffffffffffff1681526020016000815260200160008152602001600081526020016000151581526020016000151581526020016000151581525090565b600081359050611978816126cc565b92915050565b60008135905061198d816126e3565b92915050565b6000815190506119a2816126fa565b92915050565b6000815190506119b781612711565b92915050565b60008083601f8401126119cf57600080fd5b8235905067ffffffffffffffff8111156119e857600080fd5b602083019150836001820283011115611a0057600080fd5b9250929050565b600081359050611a1681612728565b92915050565b60008060008060008060008060c0898b031215611a3857600080fd5b6000611a468b828c0161197e565b9850506020611a578b828c0161197e565b9750506040611a688b828c01611a07565b9650506060611a798b828c01611a07565b955050608089013567ffffffffffffffff811115611a9657600080fd5b611aa28b828c016119bd565b945094505060a089013567ffffffffffffffff811115611ac157600080fd5b611acd8b828c016119bd565b92509250509295985092959890939650565b60008060408385031215611af257600080fd5b6000611b0085828601611969565b9250506020611b1185828601611969565b9150509250929050565b600060208284031215611b2d57600080fd5b6000611b3b84828501611993565b91505092915050565b600060208284031215611b5657600080fd5b6000611b64848285016119a8565b91505092915050565b600060208284031215611b7f57600080fd5b6000611b8d84828501611a07565b91505092915050565b6000806000806000806000806000806101008b8d031215611bb657600080fd5b6000611bc48d828e01611a07565b9a50506020611bd58d828e01611969565b9950506040611be68d828e01611969565b9850506060611bf78d828e01611a07565b9750506080611c088d828e01611a07565b96505060a0611c198d828e01611a07565b95505060c08b013567ffffffffffffffff811115611c3657600080fd5b611c428d828e016119bd565b945094505060e08b013567ffffffffffffffff811115611c6157600080fd5b611c6d8d828e016119bd565b92509250509295989b9194979a5092959850565b60008060008060008060808789031215611c9a57600080fd5b6000611ca889828a01611a07565b9650506020611cb989828a01611a07565b955050604087013567ffffffffffffffff811115611cd657600080fd5b611ce289828a016119bd565b9450945050606087013567ffffffffffffffff811115611d0157600080fd5b611d0d89828a016119bd565b92509250509295509295509295565b611d25816125f6565b82525050565b611d34816125a4565b82525050565b611d43816125a4565b82525050565b611d5a611d55826125a4565b612680565b82525050565b611d6981612592565b82525050565b611d80611d7b82612592565b61266e565b82525050565b611d8f816125b6565b82525050565b611d9e816125b6565b82525050565b611dad816125c2565b82525050565b6000611dbf8385612565565b9350611dcc83858461262c565b611dd5836126ae565b840190509392505050565b6000611deb8261255a565b611df58185612587565b9350611e0581856020860161263b565b80840191505092915050565b6000611e1e600d83612576565b91507f62616c616e6365206572726f72000000000000000000000000000000000000006000830152602082019050919050565b6000611e5e601683612576565b91507f636c6f73655450433a2077726f6e672073656e646572000000000000000000006000830152602082019050919050565b6000611e9e600e83612576565b91507f766572696679206661696c6564210000000000000000000000000000000000006000830152602082019050919050565b6000611ede600f83612576565b91507f74686520545043206973206275737900000000000000000000000000000000006000830152602082019050919050565b6000611f1e601b83612576565b91507f636c6f73655450433a2076657273696f6e206e6f7420657175616c00000000006000830152602082019050919050565b6000611f5e600c83612576565b91507f73656e646572206572726f7200000000000000000000000000000000000000006000830152602082019050919050565b6000611f9e602383612576565b91507f76657273696f6e206e756d206c6974746572207468616e206c6173746573742060008301527f6f6e6500000000000000000000000000000000000000000000000000000000006020830152604082019050919050565b6000612004601783612576565b91507f6372656174655450433a2077726f6e672073656e6465720000000000000000006000830152602082019050919050565b6101008201600082015161204e6000850182611d2b565b5060208201516120616020850182611d2b565b50604082015161207460408501826120d9565b50606082015161208760608501826120d9565b50608082015161209a60808501826120d9565b5060a08201516120ad60a0850182611d86565b5060c08201516120c060c0850182611d86565b5060e08201516120d360e0850182611d86565b50505050565b6120e2816125ec565b82525050565b6120f1816125ec565b82525050565b612108612103826125ec565b6126a4565b82525050565b600061211a8289611d6f565b60148201915061212a8288611d6f565b60148201915061213a82876120f7565b60208201915061214a82866120f7565b60208201915061215a82856120f7565b60208201915061216a82846120f7565b602082019150819050979650505050505050565b600061218a8288611de0565b91506121968287611d49565b6014820191506121a68286611d49565b6014820191506121b682856120f7565b6020820191506121c682846120f7565b6020820191508190509695505050505050565b60006121e58286611de0565b91506121f182856120f7565b60208201915061220182846120f7565b602082019150819050949350505050565b60006080820190506122276000830187611d1c565b6122346020830186611d1c565b61224160408301856120e8565b61224e60608301846120e8565b95945050505050565b60006101008201905061226d600083018b611d3a565b61227a602083018a611d3a565b61228760408301896120e8565b61229460608301886120e8565b6122a160808301876120e8565b6122ae60a0830186611d95565b6122bb60c0830185611d95565b6122c860e0830184611d95565b9998505050505050505050565b60006060820190506122ea6000830187611d1c565b6122f76020830186611da4565b818103604083015261230a818486611db3565b905095945050505050565b600060608201905061232a6000830187611d60565b6123376020830186611da4565b818103604083015261234a818486611db3565b905095945050505050565b600060408201905061236a6000830185611d60565b61237760208301846120e8565b9392505050565b60006020820190506123936000830184611da4565b92915050565b600060208201905081810360008301526123b281611e11565b9050919050565b600060208201905081810360008301526123d281611e51565b9050919050565b600060208201905081810360008301526123f281611e91565b9050919050565b6000602082019050818103600083015261241281611ed1565b9050919050565b6000602082019050818103600083015261243281611f11565b9050919050565b6000602082019050818103600083015261245281611f51565b9050919050565b6000602082019050818103600083015261247281611f91565b9050919050565b6000602082019050818103600083015261249281611ff7565b9050919050565b6000610100820190506124af6000830184612037565b92915050565b60006020820190506124ca60008301846120e8565b92915050565b60006060820190506124e560008301866120e8565b6124f26020830185611d1c565b6124ff6040830184611d1c565b949350505050565b600060a08201905061251c60008301886120e8565b6125296020830187611d60565b6125366040830186611d60565b61254360608301856120e8565b61255060808301846120e8565b9695505050505050565b600081519050919050565b600082825260208201905092915050565b600082825260208201905092915050565b600081905092915050565b600061259d826125cc565b9050919050565b60006125af826125cc565b9050919050565b60008115159050919050565b6000819050919050565b600073ffffffffffffffffffffffffffffffffffffffff82169050919050565b6000819050919050565b600061260182612608565b9050919050565b60006126138261261a565b9050919050565b6000612625826125cc565b9050919050565b82818337600083830152505050565b60005b8381101561265957808201518184015260208101905061263e565b83811115612668576000848401525b50505050565b600061267982612692565b9050919050565b600061268b82612692565b9050919050565b600061269d826126bf565b9050919050565b6000819050919050565b6000601f19601f8301169050919050565b60008160601b9050919050565b6126d581612592565b81146126e057600080fd5b50565b6126ec816125a4565b81146126f757600080fd5b50565b612703816125b6565b811461270e57600080fd5b50565b61271a816125c2565b811461272557600080fd5b50565b612731816125ec565b811461273c57600080fd5b5056fea26469706673582212205e84acbea3fb5aa1082c88f0ba58f6ad5856917efe778b829db681e3f9f02da064736f6c63430006000033608060405234801561001057600080fd5b5061031e806100206000396000f3fe608060405234801561001057600080fd5b50600436106100365760003560e01c80631a86b5501461003b5780631f27571314610138575b600080fd5b61011e6004803603606081101561005157600080fd5b81019080803573ffffffffffffffffffffffffffffffffffffffff169060200190929190803590602001909291908035906020019064010000000081111561009857600080fd5b8201836020820111156100aa57600080fd5b803590602001918460018302840111640100000000831117156100cc57600080fd5b91908080601f016020809104026020016040519081016040528093929190818152602001838380828437600081840152601f19601f82011690508083019250505050505050919291929050505061017a565b604051808215151515815260200191505060405180910390f35b6101646004803603602081101561014e57600080fd5b8101908080359060200190929190505050610290565b6040518082815260200191505060405180910390f35b6000604182511461018e5760009050610289565b600080600060608590506020810151935060408101519250606081015160001a9150601b8260ff1610156101c357601b820191505b601b8260ff16141580156101db5750601c8260ff1614155b156101ed576000945050505050610289565b8773ffffffffffffffffffffffffffffffffffffffff1660018884878760405160008152602001604052604051808581526020018460ff1660ff1681526020018381526020018281526020019450505050506020604051602081039080840390855afa158015610261573d6000803e3d6000fd5b5050506020604051035173ffffffffffffffffffffffffffffffffffffffff16149450505050505b9392505050565b60008160405160200180807f19457468657265756d205369676e6564204d6573736167653a0a333200000000815250601c0182815260200191505060405160208183030381529060405280519060200120905091905056fea264697066735822122095b7258ee81d3084db524579003e6175c7cff276acd359c835fc2312f28385ab64736f6c63430006000033",
  "source": "pragma solidity >=0.4.24 <0.7.0;\npragma experimental ABIEncoderV2;\n\n// import \"./SimplePaymentChannel.sol\";\n// pragma solidity >=0.4.24 <0.7.0;\n// pragma experimental ABIEncoderV2;\n\nimport \"./ILibSig.sol\";\n\ncontract SimplePaymentChannel {\n    event TPCOpenRequest(address alice, address bob, uint256 ab, uint256 bb);\n    event TPCOpenSuccess(uint256 id, address alice, address bob, uint256 ab, uint256 bb);\n    event TPCUpdateSuccess(uint256 id, address alice, address bob, uint256 new_ab, uint256 new_bb);\n    event TPCSomeDeposit(address addr, uint256 token);\n    event TPCCloseChannel(uint256 id, address alice, address bob);\n\n    struct TPC {\n        address payable alice;\n        address payable bob;\n        uint256 alice_balance; // wei\n        uint256 bob_balance;\n        uint256 version_num;\n        bool alice_deposited;\n        bool bob_deposited;\n        bool busy;\n    }\n\n    LibSig libSig = new LibSig();\n\n    // TPC[] public tpc_array;\n    mapping (uint256 => TPC) public tpc_map;\n\n    uint256 count = 1;\n\n    TPC tpc_ab;\n\n    function createTPC(address payable alice, address payable bob, uint256 ab, uint256 bb,\n        bytes calldata sigA, bytes calldata sigB)\n        external\n        payable\n    {\n        string memory prefix = \"create a TPC\";\n        bytes32 msgHash = libSig.prefixed(keccak256(abi.encodePacked(prefix, alice, bob, ab, bb)));\n        require(msg.sender == alice || msg.sender == bob, \"createTPC: wrong sender\");\n        require(libSig.verify(alice, msgHash, sigA) && libSig.verify(bob, msgHash, sigB), \"verify failed!\");\n\n        tpc_ab.alice = alice;\n        tpc_ab.bob = bob;\n        tpc_ab.version_num = 0;\n        tpc_ab.alice_deposited = false;\n        tpc_ab.bob_deposited = false;\n        tpc_ab.busy = false;\n\n        emit TPCOpenRequest(alice, bob, ab, bb);\n    }\n\n    function getChannel(uint256 id)\n        external\n        view\n        returns (TPC memory)\n    {\n        return tpc_map[id];\n    }\n\n    function deposit(address alice, address bob)\n        external\n        payable\n        returns (uint256)\n    {\n        if (msg.sender == alice)\n        {\n            tpc_ab.alice_balance = msg.value;\n            tpc_ab.alice_deposited = true;\n            emit TPCSomeDeposit(alice, msg.value);\n        }\n        else if (msg.sender == bob)\n        {\n            tpc_ab.bob_balance = msg.value;\n            tpc_ab.bob_deposited = true;\n            emit TPCSomeDeposit(bob, msg.value);\n        }\n        if (tpc_ab.alice_deposited && tpc_ab.bob_deposited) {\n            uint256 id = count;\n            tpc_map[id] = tpc_ab;\n            count += 1;\n            tpc_ab.alice_deposited = false;\n            tpc_ab.bob_deposited = false;\n            emit TPCOpenSuccess(id, alice, bob, tpc_ab.alice_balance, tpc_ab.bob_balance);\n            return id;\n        }\n        return 0;\n    }\n\n    function updateTPC(\n            uint256 id, address alice, address bob,\n            uint256 new_ab, uint256 new_bb, uint256 version,\n            bytes calldata sigA, bytes calldata sigB\n        )\n        external\n        payable\n    {\n        require(tpc_map[id].busy == false, \"the TPC is busy\");\n        require(msg.sender == alice || msg.sender == bob, \"sender error\");\n        require((tpc_map[id].alice_balance + tpc_map[id].bob_balance) == (new_ab + new_bb), \"balance error\");\n\n        bytes32 msgHash = libSig.prefixed(keccak256(abi.encodePacked(alice, bob, id, new_ab, new_bb, version)));\n\n        require(version > tpc_map[id].version_num, \"version num litter than lastest one\");\n        require(libSig.verify(alice, msgHash, sigA) && libSig.verify(bob, msgHash, sigB), \"verify failed!\");\n\n        tpc_map[id].alice_balance = new_ab;\n        tpc_map[id].bob_balance = new_bb;\n        tpc_map[id].version_num = version;\n\n        emit TPCUpdateSuccess(id, alice, bob, new_ab, new_bb);\n    }\n\n    function updateTPCInternal(uint256 id, uint256 new_ab, uint256 new_bb)\n        internal\n    {\n        // require(tpc_map[id].alice_balance + tpc_map[id].bob_balance == new_ab + new_bb, \"updateTPCInternal: amount error\");\n        tpc_map[id].alice_balance = new_ab;\n        tpc_map[id].bob_balance = new_bb;\n    }\n\n    function closeTPC(uint256 id, uint256 version,\n            bytes calldata sigA, bytes calldata sigB)\n        external\n        payable\n    {\n        TPC memory channel = tpc_map[id];\n        require(msg.sender == channel.alice || msg.sender == channel.bob, \"closeTPC: wrong sender\");\n\n        string memory prefix = \"close the TPC\";\n        bytes32 msgHash = libSig.prefixed(keccak256(abi.encodePacked(prefix, id, version)));\n        require(version == tpc_map[id].version_num, \"closeTPC: version not equal\");\n        uint256 sc_version = tpc_map[id].version_num;\n        require(libSig.verify(channel.alice, msgHash, sigA) && libSig.verify(channel.bob, msgHash, sigB), \"verify failed!\");\n        // withdraw\n        channel.alice.transfer(channel.alice_balance);\n        channel.bob.transfer(channel.bob_balance);\n        delete tpc_map[id];\n        emit TPCCloseChannel(sc_version, channel.alice, channel.bob);\n    }\n\n    function verifyChannel(uint256 id)\n        internal\n        view\n        returns (bool)\n    {\n        if (tpc_map[id].alice != address(0) && tpc_map[id].bob != address(0) &&\n            tpc_map[id].alice_deposited == true && tpc_map[id].bob_deposited == true)\n        {\n            return true;\n        }\n        else {\n            return false;\n        }\n    }\n\n    function getTPC(uint256 id)\n        external\n        view\n        returns (TPC memory)\n    {\n        return tpc_map[id];\n    }\n}\n\ncontract MultipartyChannel is SimplePaymentChannel {\n    event MPCCreateSuccess(uint256 id, address[] parties, uint256[] channels_id);\n    event MPCUpdateSuccess();\n    event MPCTransactionError(Transaction t);\n    event MPCClosed(uint256 mpc_id);\n\n    struct MPC {\n        uint256 id;\n        address[] parties;\n        uint256[] channels_id;\n        uint256 version_num;\n    }\n\n    struct Transaction {\n        uint256 channel_id;\n        address src;\n        address dst;\n        uint256 new_ab;\n        uint256 new_ba;\n    }\n\n    mapping (uint256 => MPC) public mpc_map;\n\n    MPC mpc;\n    uint256 mpc_count = 0;\n    // SimplePaymentChannel spc;\n\n    function createMPC(address[] calldata parties, bytes[] calldata sigs, uint256[] calldata channels_id)\n        external\n        returns (uint256)\n    {\n        // spc = SimplePaymentChannel(spcAddr);\n        // verify signatures\n        for (uint i = 0; i < parties.length; i++) {\n            bytes32 msgHash = libSig.prefixed(keccak256(abi.encodePacked(parties[i])));\n            require(libSig.verify(parties[i], msgHash, sigs[i]), \"createMPC verify parties failed!\");\n        }\n        // verify channels\n        for (uint256 i = 0; i < channels_id.length; i++) {\n            require(verifyChannel(channels_id[i]), \"createMPC verify channel failed!\");\n            tpc_map[channels_id[i]].busy = true;\n        }\n\n        mpc.id = mpc_count + 1;\n        mpc_count = mpc_count + 1;\n        mpc.parties = parties;\n        mpc.channels_id = channels_id;\n        mpc.version_num = 0;\n        mpc_map[mpc.id] = mpc;\n        emit MPCCreateSuccess(mpc.id, parties, channels_id);\n        return mpc.id;\n    }\n\n    function updateMPC(uint256 mpc_id, Transaction[] calldata txs, string calldata msgstr, uint256 version, bytes[] calldata sigs)\n        external\n    {\n        // verify sigs\n        require(mpc_map[mpc.id].version_num < version, \"updateMPC: version error\");\n        for (uint i = 0; i < mpc_map[mpc_id].parties.length; i++) {\n            bytes32 msgHash = libSig.prefixed(keccak256(abi.encodePacked(msgstr, mpc_map[mpc_id].parties[i], version)));\n            require(libSig.verify(mpc_map[mpc_id].parties[i], msgHash, sigs[i]), \"updateMPC: verify sig failed!!!\");\n        }\n        for (uint i = 0; i < txs.length; i++) {\n            require(tpc_map[txs[i].channel_id].alice_balance + tpc_map[txs[i].channel_id].bob_balance == txs[i].new_ab + txs[i].new_ba, \"updateMPC: balance error\");\n        }\n        // execute txs\n        for (uint i = 0; i < txs.length; i++) {\n            updateTPCInternal(txs[i].channel_id, txs[i].new_ab, txs[i].new_ba);\n        }\n        mpc_map[mpc_id].version_num = version;\n        emit MPCUpdateSuccess();\n    }\n\n    function closeMPC(uint256 mpc_id, uint256 version, bytes[] calldata sigs)\n        external\n    {\n        // require(mpc_id == mpc.id, \"closeMPC: wrong id of the mpc\");\n        require(mpc_map[mpc_id].version_num == version, \"closeMPC: wrong version\");\n        string memory prefix = \"close the MPC\";\n        bytes32 msgHash = libSig.prefixed(keccak256(abi.encodePacked(prefix, mpc_id, version)));\n\n        for (uint i = 0; i < mpc_map[mpc_id].parties.length; i++) {\n            require(libSig.verify(mpc_map[mpc_id].parties[i], msgHash, sigs[i]), \"closeMPC verify sig failed!!!\");\n        }\n        delete mpc_map[mpc_id];\n        emit MPCClosed(mpc_id);\n    }\n}",
  "sourcePath": "/Users/xuxianli/work/blockchain/micropc/contracts/MultipartyChannel.sol",
  "compiler": {
    "name": "solc",
    "version": "0.6.0+commit.26b70077.Emscripten.clang"
  },
  "schemaVersion": "3.0.23",
  "updatedAt": "2020-03-04T08:12:03.737Z",
  "devdoc": {
    "methods": {}
  },
  "userdoc": {
    "methods": {}
  }
}